{
  "_format": "hh-sol-artifact-1",
  "contractName": "TestAbiEncode",
  "sourceName": "contracts/test/TestAbiEncode.sol",
  "abi": [
    {
      "inputs": [],
      "stateMutability": "nonpayable",
      "type": "constructor"
    },
    {
      "inputs": [
        {
          "internalType": "address",
          "name": "user",
          "type": "address"
        },
        {
          "internalType": "string",
          "name": "data",
          "type": "string"
        }
      ],
      "name": "getAbiEncode",
      "outputs": [
        {
          "internalType": "bytes",
          "name": "",
          "type": "bytes"
        }
      ],
      "stateMutability": "view",
      "type": "function"
    }
  ],
  "bytecode": "0x608060405234801561001057600080fd5b5061022d806100206000396000f3fe608060405234801561001057600080fd5b506004361061002b5760003560e01c806373287b5b14610030575b600080fd5b61004361003e36600461009b565b610059565b60405161005091906101b1565b60405180910390f35b6060828260405160200161006e9291906101cb565b604051602081830303815290604052905092915050565b634e487b7160e01b600052604160045260246000fd5b600080604083850312156100ae57600080fd5b82356001600160a01b03811681146100c557600080fd5b9150602083013567ffffffffffffffff808211156100e257600080fd5b818501915085601f8301126100f657600080fd5b81358181111561010857610108610085565b604051601f8201601f19908116603f0116810190838211818310171561013057610130610085565b8160405282815288602084870101111561014957600080fd5b8260208601602083013760006020848301015280955050505050509250929050565b6000815180845260005b8181101561019157602081850181015186830182015201610175565b506000602082860101526020601f19601f83011685010191505092915050565b6020815260006101c4602083018461016b565b9392505050565b6001600160a01b03831681526040602082018190526000906101ef9083018461016b565b94935050505056fea2646970667358221220cef8c041aaf384ec33f57922f8e61f11776a5c521d4255c89e6d7afc5ab433c864736f6c63430008130033",
  "linkReferences": {},
  "deployedLinkReferences": {}
}