{"contracts/Profile.sol":{"Profile":{"abi":[{"inputs":[],"stateMutability":"nonpayable","type":"constructor"},{"inputs":[],"name":"StorageZeroAddress","type":"error"},{"inputs":[],"name":"TokenTransferProhibited","type":"error"},{"anonymous":false,"inputs":[{"indexed":false,"internalType":"address","name":"previousAdmin","type":"address"},{"indexed":false,"internalType":"address","name":"newAdmin","type":"address"}],"name":"AdminChanged","type":"event"},{"anonymous":false,"inputs":[{"indexed":true,"internalType":"address","name":"owner","type":"address"},{"indexed":true,"internalType":"address","name":"approved","type":"address"},{"indexed":true,"internalType":"uint256","name":"tokenId","type":"uint256"}],"name":"Approval","type":"event"},{"anonymous":false,"inputs":[{"indexed":true,"internalType":"address","name":"owner","type":"address"},{"indexed":true,"internalType":"address","name":"operator","type":"address"},{"indexed":false,"internalType":"bool","name":"approved","type":"bool"}],"name":"ApprovalForAll","type":"event"},{"anonymous":false,"inputs":[{"indexed":true,"internalType":"address","name":"beacon","type":"address"}],"name":"BeaconUpgraded","type":"event"},{"anonymous":false,"inputs":[{"indexed":true,"internalType":"address","name":"to","type":"address"},{"indexed":false,"internalType":"uint256","name":"tokenId","type":"uint256"}],"name":"Burn","type":"event"},{"anonymous":false,"inputs":[{"indexed":false,"internalType":"uint8","name":"version","type":"uint8"}],"name":"Initialized","type":"event"},{"anonymous":false,"inputs":[{"indexed":true,"internalType":"address","name":"to","type":"address"},{"indexed":false,"internalType":"uint256","name":"tokenId","type":"uint256"}],"name":"Mint","type":"event"},{"anonymous":false,"inputs":[{"indexed":true,"internalType":"address","name":"previousOwner","type":"address"},{"indexed":true,"internalType":"address","name":"newOwner","type":"address"}],"name":"OwnershipTransferred","type":"event"},{"anonymous":false,"inputs":[{"indexed":true,"internalType":"bytes32","name":"role","type":"bytes32"},{"indexed":true,"internalType":"bytes32","name":"previousAdminRole","type":"bytes32"},{"indexed":true,"internalType":"bytes32","name":"newAdminRole","type":"bytes32"}],"name":"RoleAdminChanged","type":"event"},{"anonymous":false,"inputs":[{"indexed":true,"internalType":"bytes32","name":"role","type":"bytes32"},{"indexed":true,"internalType":"address","name":"account","type":"address"},{"indexed":true,"internalType":"address","name":"sender","type":"address"}],"name":"RoleGranted","type":"event"},{"anonymous":false,"inputs":[{"indexed":true,"internalType":"bytes32","name":"role","type":"bytes32"},{"indexed":true,"internalType":"address","name":"account","type":"address"},{"indexed":true,"internalType":"address","name":"sender","type":"address"}],"name":"RoleRevoked","type":"event"},{"anonymous":false,"inputs":[{"indexed":true,"internalType":"address","name":"from","type":"address"},{"indexed":true,"internalType":"address","name":"to","type":"address"},{"indexed":true,"internalType":"uint256","name":"tokenId","type":"uint256"}],"name":"Transfer","type":"event"},{"anonymous":false,"inputs":[{"indexed":true,"internalType":"address","name":"implementation","type":"address"}],"name":"Upgraded","type":"event"},{"inputs":[],"name":"DEFAULT_ADMIN_ROLE","outputs":[{"internalType":"bytes32","name":"","type":"bytes32"}],"stateMutability":"view","type":"function"},{"inputs":[{"internalType":"address","name":"to","type":"address"},{"internalType":"uint256","name":"tokenId","type":"uint256"}],"name":"approve","outputs":[],"stateMutability":"nonpayable","type":"function"},{"inputs":[{"internalType":"address","name":"owner","type":"address"}],"name":"balanceOf","outputs":[{"internalType":"uint256","name":"","type":"uint256"}],"stateMutability":"view","type":"function"},{"inputs":[],"name":"burn","outputs":[],"stateMutability":"payable","type":"function"},{"inputs":[{"internalType":"uint256","name":"tokenId","type":"uint256"}],"name":"getApproved","outputs":[{"internalType":"address","name":"","type":"address"}],"stateMutability":"view","type":"function"},{"inputs":[{"internalType":"bytes32","name":"role","type":"bytes32"}],"name":"getRoleAdmin","outputs":[{"internalType":"bytes32","name":"","type":"bytes32"}],"stateMutability":"view","type":"function"},{"inputs":[{"internalType":"uint256","name":"tokenId","type":"uint256"}],"name":"getUserProfile","outputs":[{"components":[{"internalType":"bytes32","name":"checksum","type":"bytes32"},{"internalType":"address","name":"issuedBy","type":"address"},{"internalType":"uint32","name":"issuedAt","type":"uint32"},{"internalType":"bytes","name":"signature","type":"bytes"},{"internalType":"string","name":"metadata","type":"string"},{"internalType":"address","name":"storageAddress","type":"address"}],"internalType":"struct Profile.UserProfile","name":"","type":"tuple"}],"stateMutability":"view","type":"function"},{"inputs":[{"internalType":"bytes32","name":"role","type":"bytes32"},{"internalType":"address","name":"account","type":"address"}],"name":"grantRole","outputs":[],"stateMutability":"nonpayable","type":"function"},{"inputs":[{"internalType":"bytes32","name":"role","type":"bytes32"},{"internalType":"address","name":"account","type":"address"}],"name":"hasRole","outputs":[{"internalType":"bool","name":"","type":"bool"}],"stateMutability":"view","type":"function"},{"inputs":[{"internalType":"string","name":"name","type":"string"},{"internalType":"string","name":"symbol","type":"string"},{"internalType":"address","name":"admin","type":"address"}],"name":"initialize","outputs":[],"stateMutability":"nonpayable","type":"function"},{"inputs":[{"internalType":"address","name":"account","type":"address"}],"name":"isAdmin","outputs":[{"internalType":"bool","name":"","type":"bool"}],"stateMutability":"view","type":"function"},{"inputs":[{"internalType":"address","name":"owner","type":"address"},{"internalType":"address","name":"operator","type":"address"}],"name":"isApprovedForAll","outputs":[{"internalType":"bool","name":"","type":"bool"}],"stateMutability":"view","type":"function"},{"inputs":[{"components":[{"internalType":"bytes32","name":"checksum","type":"bytes32"},{"internalType":"address","name":"issuedBy","type":"address"},{"internalType":"uint32","name":"issuedAt","type":"uint32"},{"internalType":"bytes","name":"signature","type":"bytes"},{"internalType":"string","name":"metadata","type":"string"},{"internalType":"address","name":"storageAddress","type":"address"}],"internalType":"struct Profile.UserProfile","name":"profile","type":"tuple"},{"internalType":"string","name":"data","type":"string"}],"name":"mint","outputs":[{"internalType":"uint256","name":"","type":"uint256"}],"stateMutability":"payable","type":"function"},{"inputs":[],"name":"name","outputs":[{"internalType":"string","name":"","type":"string"}],"stateMutability":"view","type":"function"},{"inputs":[],"name":"owner","outputs":[{"internalType":"address","name":"","type":"address"}],"stateMutability":"view","type":"function"},{"inputs":[{"internalType":"uint256","name":"tokenId","type":"uint256"}],"name":"ownerOf","outputs":[{"internalType":"address","name":"","type":"address"}],"stateMutability":"view","type":"function"},{"inputs":[],"name":"proxiableUUID","outputs":[{"internalType":"bytes32","name":"","type":"bytes32"}],"stateMutability":"view","type":"function"},{"inputs":[],"name":"renounceOwnership","outputs":[],"stateMutability":"nonpayable","type":"function"},{"inputs":[{"internalType":"bytes32","name":"role","type":"bytes32"},{"internalType":"address","name":"account","type":"address"}],"name":"renounceRole","outputs":[],"stateMutability":"nonpayable","type":"function"},{"inputs":[{"internalType":"bytes32","name":"role","type":"bytes32"},{"internalType":"address","name":"account","type":"address"}],"name":"revokeRole","outputs":[],"stateMutability":"nonpayable","type":"function"},{"inputs":[{"internalType":"address","name":"from","type":"address"},{"internalType":"address","name":"to","type":"address"},{"internalType":"uint256","name":"tokenId","type":"uint256"}],"name":"safeTransferFrom","outputs":[],"stateMutability":"nonpayable","type":"function"},{"inputs":[{"internalType":"address","name":"from","type":"address"},{"internalType":"address","name":"to","type":"address"},{"internalType":"uint256","name":"tokenId","type":"uint256"},{"internalType":"bytes","name":"data","type":"bytes"}],"name":"safeTransferFrom","outputs":[],"stateMutability":"nonpayable","type":"function"},{"inputs":[{"internalType":"address","name":"operator","type":"address"},{"internalType":"bool","name":"approved","type":"bool"}],"name":"setApprovalForAll","outputs":[],"stateMutability":"nonpayable","type":"function"},{"inputs":[{"internalType":"address","name":"_address","type":"address"}],"name":"setDataStorageProvider","outputs":[],"stateMutability":"nonpayable","type":"function"},{"inputs":[{"internalType":"bytes4","name":"interfaceId","type":"bytes4"}],"name":"supportsInterface","outputs":[{"internalType":"bool","name":"","type":"bool"}],"stateMutability":"view","type":"function"},{"inputs":[],"name":"symbol","outputs":[{"internalType":"string","name":"","type":"string"}],"stateMutability":"view","type":"function"},{"inputs":[{"internalType":"address","name":"from","type":"address"}],"name":"tokenIdOf","outputs":[{"internalType":"uint256","name":"","type":"uint256"}],"stateMutability":"view","type":"function"},{"inputs":[{"internalType":"uint256","name":"tokenId","type":"uint256"}],"name":"tokenURI","outputs":[{"internalType":"string","name":"","type":"string"}],"stateMutability":"view","type":"function"},{"inputs":[],"name":"totalSupply","outputs":[{"internalType":"uint256","name":"","type":"uint256"}],"stateMutability":"view","type":"function"},{"inputs":[{"internalType":"address","name":"from","type":"address"},{"internalType":"address","name":"to","type":"address"},{"internalType":"uint256","name":"tokenId","type":"uint256"}],"name":"transferFrom","outputs":[],"stateMutability":"nonpayable","type":"function"},{"inputs":[{"internalType":"address","name":"newOwner","type":"address"}],"name":"transferOwnership","outputs":[],"stateMutability":"nonpayable","type":"function"},{"inputs":[{"internalType":"address","name":"newImplementation","type":"address"}],"name":"upgradeTo","outputs":[],"stateMutability":"nonpayable","type":"function"},{"inputs":[{"internalType":"address","name":"newImplementation","type":"address"},{"internalType":"bytes","name":"data","type":"bytes"}],"name":"upgradeToAndCall","outputs":[],"stateMutability":"payable","type":"function"}],"evm":{"bytecode":{"linkReferences":{},"object":"60a0604052306080523480156200001557600080fd5b506200002062000026565b620000e7565b600054610100900460ff1615620000935760405162461bcd60e51b815260206004820152602760248201527f496e697469616c697a61626c653a20636f6e747261637420697320696e697469604482015266616c697a696e6760c81b606482015260840160405180910390fd5b60005460ff90811614620000e5576000805460ff191660ff9081179091556040519081527f7f26b83ff96e1f2b6a682f133852f6798a09c465da95921460cefb38474024989060200160405180910390a15b565b60805161375e6200011f60003960008181610c2401528181610c6401528181611063015281816110a30152611132015261375e6000f3fe6080604052600436106101ee5760003560e01c806352d1902d1161010d57806395d89b41116100a0578063c87b56dd1161006f578063c87b56dd14610551578063d547741f14610571578063e985e9c514610591578063f2fde38b146105da578063faf4a931146105fa57600080fd5b806395d89b41146104e7578063a217fddf146104fc578063a22cb46514610511578063b88d4fde1461053157600080fd5b8063715018a6116100dc578063715018a614610474578063773c02d4146104895780638da5cb5b146104a957806391d14854146104c757600080fd5b806352d1902d146103ff5780635dc4fe7e146104145780636352211e1461043457806370a082311461045457600080fd5b8063248a9ca3116101855780633659cfe6116101545780633659cfe6146103c457806342842e0e1461031457806344df8e70146103e45780634f1ef286146103ec57600080fd5b8063248a9ca31461033457806324d7806c146103645780632f2ff15d1461038457806336568abe146103a457600080fd5b8063095ea7b3116101c1578063095ea7b3146102a457806318160ddd146102c45780631f52b76c146102e757806323b872dd1461031457600080fd5b806301ffc9a7146101f357806306fdde0314610228578063077f224a1461024a578063081812fc1461026c575b600080fd5b3480156101ff57600080fd5b5061021361020e366004612c99565b61060d565b60405190151581526020015b60405180910390f35b34801561023457600080fd5b5061023d61061e565b60405161021f9190612d06565b34801561025657600080fd5b5061026a610265366004612e01565b6106b0565b005b34801561027857600080fd5b5061028c610287366004612e75565b6107ee565b6040516001600160a01b03909116815260200161021f565b3480156102b057600080fd5b5061026a6102bf366004612e8e565b610815565b3480156102d057600080fd5b506102d961092a565b60405190815260200161021f565b3480156102f357600080fd5b50610307610302366004612e75565b61093c565b60405161021f9190612eb8565b34801561032057600080fd5b5061026a61032f366004612f3b565b610b38565b34801561034057600080fd5b506102d961034f366004612e75565b600090815260c9602052604090206001015490565b34801561037057600080fd5b5061021361037f366004612f77565b610b6b565b34801561039057600080fd5b5061026a61039f366004612f92565b610b77565b3480156103b057600080fd5b5061026a6103bf366004612f92565b610b9c565b3480156103d057600080fd5b5061026a6103df366004612f77565b610c1a565b61026a610cf9565b61026a6103fa366004612fbe565b611059565b34801561040b57600080fd5b506102d9611125565b34801561042057600080fd5b5061026a61042f366004612f77565b6111d8565b34801561044057600080fd5b5061028c61044f366004612e75565b611258565b34801561046057600080fd5b506102d961046f366004612f77565b611298565b34801561048057600080fd5b5061026a6112c3565b34801561049557600080fd5b506102d96104a4366004612f77565b6112d7565b3480156104b557600080fd5b506097546001600160a01b031661028c565b3480156104d357600080fd5b506102136104e2366004612f92565b611300565b3480156104f357600080fd5b5061023d61132b565b34801561050857600080fd5b506102d9600081565b34801561051d57600080fd5b5061026a61052c36600461301a565b61133a565b34801561053d57600080fd5b5061026a61054c366004613051565b611345565b34801561055d57600080fd5b5061023d61056c366004612e75565b611379565b34801561057d57600080fd5b5061026a61058c366004612f92565b6114b0565b34801561059d57600080fd5b506102136105ac3660046130b9565b6001600160a01b039182166000908152606a6020908152604080832093909416825291909152205460ff1690565b3480156105e657600080fd5b5061026a6105f5366004612f77565b6114d5565b6102d96106083660046130f7565b61154b565b600061061882611a35565b92915050565b60606065805461062d906131e0565b80601f0160208091040260200160405190810160405280929190818152602001828054610659906131e0565b80156106a65780601f1061067b576101008083540402835291602001916106a6565b820191906000526020600020905b81548152906001019060200180831161068957829003601f168201915b5050505050905090565b600054610100900460ff16158080156106d05750600054600160ff909116105b806106ea5750303b1580156106ea575060005460ff166001145b6107525760405162461bcd60e51b815260206004820152602e60248201527f496e697469616c697a61626c653a20636f6e747261637420697320616c72656160448201526d191e481a5b9a5d1a585b1a5e995960921b60648201526084015b60405180910390fd5b6000805460ff191660011790558015610775576000805461ff0019166101001790555b61077d611a5a565b610785611a89565b61078f8484611ab0565b610797611a89565b6107a2600083611ae1565b80156107e8576000805461ff0019169055604051600181527f7f26b83ff96e1f2b6a682f133852f6798a09c465da95921460cefb38474024989060200160405180910390a15b50505050565b60006107f982611b67565b506000908152606960205260409020546001600160a01b031690565b600061082082611bc6565b9050806001600160a01b0316836001600160a01b03160361088d5760405162461bcd60e51b815260206004820152602160248201527f4552433732313a20617070726f76616c20746f2063757272656e74206f776e656044820152603960f91b6064820152608401610749565b336001600160a01b03821614806108a957506108a981336105ac565b61091b5760405162461bcd60e51b815260206004820152603d60248201527f4552433732313a20617070726f76652063616c6c6572206973206e6f7420746f60448201527f6b656e206f776e6572206f7220617070726f76656420666f7220616c6c0000006064820152608401610749565b6109258383611c26565b505050565b6000610937610162611c94565b905090565b6040805160c081018252600080825260208083018290528284018290526060808401819052608084015260a083018290528351808501909452600f84526e125b9d985b1a59081d1bdad95b9259608a1b9084015290916109a19061015f908590611c9f565b6001600160a01b03818116600090815261016760209081526040808320815160c08101835281548152600182015495861693810193909352600160a01b90940463ffffffff169082015260028301805494955091939092916060840191610a07906131e0565b80601f0160208091040260200160405190810160405280929190818152602001828054610a33906131e0565b8015610a805780601f10610a5557610100808354040283529160200191610a80565b820191906000526020600020905b815481529060010190602001808311610a6357829003601f168201915b50505050508152602001600382018054610a99906131e0565b80601f0160208091040260200160405190810160405280929190818152602001828054610ac5906131e0565b8015610b125780601f10610ae757610100808354040283529160200191610b12565b820191906000526020600020905b815481529060010190602001808311610af557829003601f168201915b5050509183525050600491909101546001600160a01b0316602090910152949350505050565b6001600160a01b03831615610b6057604051633859b9e960e01b815260040160405180910390fd5b610925838383611cb4565b60006106188183611300565b600082815260c96020526040902060010154610b9281611ccf565b6109258383611ae1565b6001600160a01b0381163314610c0c5760405162461bcd60e51b815260206004820152602f60248201527f416363657373436f6e74726f6c3a2063616e206f6e6c792072656e6f756e636560448201526e103937b632b9903337b91039b2b63360891b6064820152608401610749565b610c168282611cd9565b5050565b6001600160a01b037f0000000000000000000000000000000000000000000000000000000000000000163003610c625760405162461bcd60e51b81526004016107499061321a565b7f00000000000000000000000000000000000000000000000000000000000000006001600160a01b0316610cab6000805160206136e2833981519152546001600160a01b031690565b6001600160a01b031614610cd15760405162461bcd60e51b815260040161074990613266565b610cda81611d40565b60408051600080825260208201909252610cf691839190611d48565b50565b610d0561016233611eb3565b610d5b5760405162461bcd60e51b815260206004820152602160248201527f546865206163636f756e7420646f6573206e6f7420686176652070726f66696c6044820152606560f81b6064820152608401610749565b6000610d6961016233611ec8565b9050610d7761016233611edd565b50610d8461015f82611ef2565b5033600090815261016760209081526040808320815160c0810183528154815260018201546001600160a01b03811694820194909452600160a01b90930463ffffffff1691830191909152600281018054606084019190610de4906131e0565b80601f0160208091040260200160405190810160405280929190818152602001828054610e10906131e0565b8015610e5d5780601f10610e3257610100808354040283529160200191610e5d565b820191906000526020600020905b815481529060010190602001808311610e4057829003601f168201915b50505050508152602001600382018054610e76906131e0565b80601f0160208091040260200160405190810160405280929190818152602001828054610ea2906131e0565b8015610eef5780601f10610ec457610100808354040283529160200191610eef565b820191906000526020600020905b815481529060010190602001808311610ed257829003601f168201915b5050509183525050600491909101546001600160a01b0390811660209283015260a083015181166000908152610166835260408082205481513381870152825180820390960186528083019283905263163b7bd360e21b9092529495509093909116916358edef4c91610f659190604401612d06565b6020604051808303816000875af1158015610f84573d6000803e3d6000fd5b505050506040513d601f19601f82011682018060405250810190610fa891906132b2565b9050600181151514610fcc5760405162461bcd60e51b8152600401610749906132cf565b336000908152610167602052604081208181556001810180546001600160c01b031916905590610fff6002830182612c35565b61100d600383016000612c35565b5060040180546001600160a01b031916905560405183815233907fcc16f5dbb4873280815c1ee09dbd06736cffcc184412cf7a71a0fdb75d397ca59060200160405180910390a2505050565b6001600160a01b037f00000000000000000000000000000000000000000000000000000000000000001630036110a15760405162461bcd60e51b81526004016107499061321a565b7f00000000000000000000000000000000000000000000000000000000000000006001600160a01b03166110ea6000805160206136e2833981519152546001600160a01b031690565b6001600160a01b0316146111105760405162461bcd60e51b815260040161074990613266565b61111982611d40565b610c1682826001611d48565b6000306001600160a01b037f000000000000000000000000000000000000000000000000000000000000000016146111c55760405162461bcd60e51b815260206004820152603860248201527f555550535570677261646561626c653a206d757374206e6f742062652063616c60448201527f6c6564207468726f7567682064656c656761746563616c6c00000000000000006064820152608401610749565b506000805160206136e283398151915290565b6111e0611efe565b6001600160a01b03811661122d5760405162461bcd60e51b815260206004820152601460248201527373746f72616765207a65726f206164647265737360601b6044820152606401610749565b6001600160a01b031660008181526101666020526040902080546001600160a01b0319169091179055565b6000610618826040518060400160405280600f81526020016e125b9d985b1a59081d1bdad95b9259608a1b81525061015f611c9f9092919063ffffffff16565b6000806112a761016284611f58565b509050806112b65760006112b9565b60015b60ff169392505050565b6112cb611efe565b6112d56000611f7f565b565b6000610618826040518060600160405280602c81526020016136b6602c91396101629190611fd1565b600091825260c9602090815260408084206001600160a01b0393909316845291905290205460ff1690565b60606066805461062d906131e0565b610c16338383611fe7565b6001600160a01b0384161561136d57604051633859b9e960e01b815260040160405180910390fd5b6107e8848484846120b5565b606060006113bb836040518060400160405280600f81526020016e151bdad95b881b9bdd08195e1a5cdd608a1b81525061015f611c9f9092919063ffffffff16565b6001600160a01b038116600090815261016760205260408120600301805492935090916113e7906131e0565b90501161140357604051806020016040528060008152506114a9565b6001600160a01b038116600090815261016760205260409020600301805461142a906131e0565b80601f0160208091040260200160405190810160405280929190818152602001828054611456906131e0565b80156114a35780601f10611478576101008083540402835291602001916114a3565b820191906000526020600020905b81548152906001019060200180831161148657829003601f168201915b50505050505b9392505050565b600082815260c960205260409020600101546114cb81611ccf565b6109258383611cd9565b6114dd611efe565b6001600160a01b0381166115425760405162461bcd60e51b815260206004820152602660248201527f4f776e61626c653a206e6577206f776e657220697320746865207a65726f206160448201526564647265737360d01b6064820152608401610749565b610cf681611f7f565b60a08201516000906001600160a01b03166115795760405163e57ffd0760e01b815260040160405180910390fd5b60a08301516001600160a01b0390811660009081526101666020526040902054166115e65760405162461bcd60e51b815260206004820152601760248201527f73746f72616765206e6f7420696e697469616c697a65640000000000000000006044820152606401610749565b60006115f461016233611eb3565b1561185a5761160561016233611ec8565b33600090815261016760209081526040808320815160c0810183528154815260018201546001600160a01b03811694820194909452600160a01b90930463ffffffff169183019190915260028101805494955092939192909160608401919061166d906131e0565b80601f0160208091040260200160405190810160405280929190818152602001828054611699906131e0565b80156116e65780601f106116bb576101008083540402835291602001916116e6565b820191906000526020600020905b8154815290600101906020018083116116c957829003601f168201915b505050505081526020016003820180546116ff906131e0565b80601f016020809104026020016040519081016040528092919081815260200182805461172b906131e0565b80156117785780601f1061174d57610100808354040283529160200191611778565b820191906000526020600020905b81548152906001019060200180831161175b57829003601f168201915b5050509183525050600491909101546001600160a01b0390811660209092019190915260a0878101519083015192935081169116146118545760a08101516001600160a01b03908116600090815261016660209081526040918290205482513381840152835180820390930183528084019384905263163b7bd360e21b909352909216916358edef4c9161180f9190604401612d06565b6020604051808303816000875af115801561182e573d6000803e3d6000fd5b505050506040513d601f19601f8201168201806040525081019061185291906132b2565b505b5061188b565b61186961016580546001019055565b506101655461187b610162338361212d565b5061188961015f8233612143565b505b336000908152610167602090815260409182902086518155908601516001820180549388015163ffffffff16600160a01b026001600160c01b03199094166001600160a01b03929092169190911792909217909155606085015185919060028201906118f7908261335f565b506080820151600382019061190c908261335f565b5060a09182015160049190910180546001600160a01b0319166001600160a01b039283161790559085015181166000908152610166602090815260408083205490519293169163cf5ba53f9161196691339189910161341f565b6040516020818303038152906040526040518263ffffffff1660e01b81526004016119919190612d06565b6020604051808303816000875af11580156119b0573d6000803e3d6000fd5b505050506040513d601f19601f820116820180604052508101906119d491906132b2565b90506001811515146119f85760405162461bcd60e51b8152600401610749906132cf565b60405182815233907f0f6798a560793a54c3bcfe86a93cde1e73087d944c0ea20544137d41213968859060200160405180910390a2509392505050565b60006001600160e01b03198216637965db0b60e01b1480610618575061061882612159565b600054610100900460ff16611a815760405162461bcd60e51b815260040161074990613443565b6112d56121a9565b600054610100900460ff166112d55760405162461bcd60e51b815260040161074990613443565b600054610100900460ff16611ad75760405162461bcd60e51b815260040161074990613443565b610c1682826121d9565b611aeb8282611300565b610c1657600082815260c9602090815260408083206001600160a01b03851684529091529020805460ff19166001179055611b233390565b6001600160a01b0316816001600160a01b0316837f2f8788117e7eff1d82e926ec794901d17c78024a50270940304540a733656f0d60405160405180910390a45050565b6000818152606760205260409020546001600160a01b0316610cf65760405162461bcd60e51b8152602060048201526018602482015277115490cdcc8c4e881a5b9d985b1a59081d1bdad95b88125160421b6044820152606401610749565b6000818152606760205260408120546001600160a01b0316806106185760405162461bcd60e51b8152602060048201526018602482015277115490cdcc8c4e881a5b9d985b1a59081d1bdad95b88125160421b6044820152606401610749565b600081815260696020526040902080546001600160a01b0319166001600160a01b0384169081179091558190611c5b82611bc6565b6001600160a01b03167f8c5be1e5ebec7d5bd14f71427d1e84f3dd0314c0f7b2291e5b200ac8c7c3b92560405160405180910390a45050565b600061061882612219565b6000611cac848484612224565b949350505050565b61092583838360405180602001604052806000815250611345565b610cf68133612270565b611ce38282611300565b15610c1657600082815260c9602090815260408083206001600160a01b0385168085529252808320805460ff1916905551339285917ff6391f5c32d9c69d2a47ea670b442974b53935d1edc7fd64eb21e047a839171b9190a45050565b610cf6611efe565b7f4910fdfa16fed3260ed0e7147f7cc6da11a60208b5b9406d12a635614ffd91435460ff1615611d7b57610925836122c9565b826001600160a01b03166352d1902d6040518163ffffffff1660e01b8152600401602060405180830381865afa925050508015611dd5575060408051601f3d908101601f19168201909252611dd29181019061348e565b60015b611e385760405162461bcd60e51b815260206004820152602e60248201527f45524331393637557067726164653a206e657720696d706c656d656e7461746960448201526d6f6e206973206e6f74205555505360901b6064820152608401610749565b6000805160206136e28339815191528114611ea75760405162461bcd60e51b815260206004820152602960248201527f45524331393637557067726164653a20756e737570706f727465642070726f786044820152681a58589b195555525160ba1b6064820152608401610749565b50610925838383612365565b60006114a9836001600160a01b03841661238a565b60006114a9836001600160a01b038416612396565b60006114a9836001600160a01b038416612406565b60006114a98383612406565b6097546001600160a01b031633146112d55760405162461bcd60e51b815260206004820181905260248201527f4f776e61626c653a2063616c6c6572206973206e6f7420746865206f776e65726044820152606401610749565b6000808080611f70866001600160a01b038716612423565b909450925050505b9250929050565b609780546001600160a01b038381166001600160a01b0319831681179093556040519116919082907f8be0079c531659141344cd1fd0a4f28419497f9722a3daafe3b4186f6b6457e090600090a35050565b6000611cac846001600160a01b03851684612224565b816001600160a01b0316836001600160a01b0316036120485760405162461bcd60e51b815260206004820152601960248201527f4552433732313a20617070726f766520746f2063616c6c6572000000000000006044820152606401610749565b6001600160a01b038381166000818152606a6020908152604080832094871680845294825291829020805460ff191686151590811790915591519182527f17307eab39ab6107e8899845ad3d59bd9653f200f220920489ca2b5937696c31910160405180910390a3505050565b6120bf338361245d565b6121215760405162461bcd60e51b815260206004820152602d60248201527f4552433732313a2063616c6c6572206973206e6f7420746f6b656e206f776e6560448201526c1c881bdc88185c1c1c9bdd9959609a1b6064820152608401610749565b6107e8848484846124db565b6000611cac846001600160a01b0385168461250e565b6000611cac84846001600160a01b03851661250e565b60006001600160e01b031982166380ac58cd60e01b148061218a57506001600160e01b03198216635b5e139f60e01b145b8061061857506301ffc9a760e01b6001600160e01b0319831614610618565b600054610100900460ff166121d05760405162461bcd60e51b815260040161074990613443565b6112d533611f7f565b600054610100900460ff166122005760405162461bcd60e51b815260040161074990613443565b606561220c838261335f565b506066610925828261335f565b60006106188261252b565b6000828152600284016020526040812054801515806122485750612248858561238a565b83906122675760405162461bcd60e51b81526004016107499190612d06565b50949350505050565b61227a8282611300565b610c165761228781612535565b612292836020612547565b6040516020016122a39291906134a7565b60408051601f198184030181529082905262461bcd60e51b825261074991600401612d06565b6001600160a01b0381163b6123365760405162461bcd60e51b815260206004820152602d60248201527f455243313936373a206e657720696d706c656d656e746174696f6e206973206e60448201526c1bdd08184818dbdb9d1c9858dd609a1b6064820152608401610749565b6000805160206136e283398151915280546001600160a01b0319166001600160a01b0392909216919091179055565b61236e836126e3565b60008251118061237b5750805b15610925576107e88383612723565b60006114a98383612748565b6000818152600283016020526040812054801515806123ba57506123ba848461238a565b6114a95760405162461bcd60e51b815260206004820152601e60248201527f456e756d657261626c654d61703a206e6f6e6578697374656e74206b657900006044820152606401610749565b600081815260028301602052604081208190556114a98383612760565b600081815260028301602052604081205481908061245257612445858561238a565b925060009150611f789050565b600192509050611f78565b60008061246983611bc6565b9050806001600160a01b0316846001600160a01b031614806124b057506001600160a01b038082166000908152606a602090815260408083209388168352929052205460ff165b80611cac5750836001600160a01b03166124c9846107ee565b6001600160a01b031614949350505050565b6124e684848461276c565b6124f2848484846128d0565b6107e85760405162461bcd60e51b81526004016107499061351c565b60008281526002840160205260408120829055611cac84846129d1565b6000610618825490565b60606106186001600160a01b03831660145b60606000612556836002613584565b61256190600261359b565b67ffffffffffffffff81111561257957612579612d19565b6040519080825280601f01601f1916602001820160405280156125a3576020820181803683370190505b509050600360fc1b816000815181106125be576125be6135ae565b60200101906001600160f81b031916908160001a905350600f60fb1b816001815181106125ed576125ed6135ae565b60200101906001600160f81b031916908160001a9053506000612611846002613584565b61261c90600161359b565b90505b6001811115612694576f181899199a1a9b1b9c1cb0b131b232b360811b85600f1660108110612650576126506135ae565b1a60f81b828281518110612666576126666135ae565b60200101906001600160f81b031916908160001a90535060049490941c9361268d816135c4565b905061261f565b5083156114a95760405162461bcd60e51b815260206004820181905260248201527f537472696e67733a20686578206c656e67746820696e73756666696369656e746044820152606401610749565b6126ec816122c9565b6040516001600160a01b038216907fbc7cd75a20ee27fd9adebab32041f755214dbc6bffa90cc0225b39da2e5c2d3b90600090a250565b60606114a98383604051806060016040528060278152602001613702602791396129dd565b600081815260018301602052604081205415156114a9565b60006114a98383612a55565b826001600160a01b031661277f82611bc6565b6001600160a01b0316146127a55760405162461bcd60e51b8152600401610749906135db565b6001600160a01b0382166128075760405162461bcd60e51b8152602060048201526024808201527f4552433732313a207472616e7366657220746f20746865207a65726f206164646044820152637265737360e01b6064820152608401610749565b826001600160a01b031661281a82611bc6565b6001600160a01b0316146128405760405162461bcd60e51b8152600401610749906135db565b600081815260696020908152604080832080546001600160a01b03199081169091556001600160a01b0387811680865260688552838620805460001901905590871680865283862080546001019055868652606790945282852080549092168417909155905184937fddf252ad1be2c89b69c2b068fc378daa952ba7f163c4a11628f55a4df523b3ef91a4505050565b60006001600160a01b0384163b156129c657604051630a85bd0160e11b81526001600160a01b0385169063150b7a0290612914903390899088908890600401613620565b6020604051808303816000875af192505050801561294f575060408051601f3d908101601f1916820190925261294c91810190613653565b60015b6129ac573d80801561297d576040519150601f19603f3d011682016040523d82523d6000602084013e612982565b606091505b5080516000036129a45760405162461bcd60e51b81526004016107499061351c565b805181602001fd5b6001600160e01b031916630a85bd0160e11b149050611cac565b506001949350505050565b60006114a98383612b48565b6060600080856001600160a01b0316856040516129fa9190613670565b600060405180830381855af49150503d8060008114612a35576040519150601f19603f3d011682016040523d82523d6000602084013e612a3a565b606091505b5091509150612a4b86838387612b97565b9695505050505050565b60008181526001830160205260408120548015612b3e576000612a7960018361368c565b8554909150600090612a8d9060019061368c565b9050818114612af2576000866000018281548110612aad57612aad6135ae565b9060005260206000200154905080876000018481548110612ad057612ad06135ae565b6000918252602080832090910192909255918252600188019052604090208390555b8554869080612b0357612b0361369f565b600190038181906000526020600020016000905590558560010160008681526020019081526020016000206000905560019350505050610618565b6000915050610618565b6000818152600183016020526040812054612b8f57508154600181810184556000848152602080822090930184905584548482528286019093526040902091909155610618565b506000610618565b60608315612c06578251600003612bff576001600160a01b0385163b612bff5760405162461bcd60e51b815260206004820152601d60248201527f416464726573733a2063616c6c20746f206e6f6e2d636f6e74726163740000006044820152606401610749565b5081611cac565b611cac8383815115612c1b5781518083602001fd5b8060405162461bcd60e51b81526004016107499190612d06565b508054612c41906131e0565b6000825580601f10612c51575050565b601f016020900490600052602060002090810190610cf691905b80821115612c7f5760008155600101612c6b565b5090565b6001600160e01b031981168114610cf657600080fd5b600060208284031215612cab57600080fd5b81356114a981612c83565b60005b83811015612cd1578181015183820152602001612cb9565b50506000910152565b60008151808452612cf2816020860160208601612cb6565b601f01601f19169290920160200192915050565b6020815260006114a96020830184612cda565b634e487b7160e01b600052604160045260246000fd5b60405160c0810167ffffffffffffffff81118282101715612d5257612d52612d19565b60405290565b600082601f830112612d6957600080fd5b813567ffffffffffffffff80821115612d8457612d84612d19565b604051601f8301601f19908116603f01168101908282118183101715612dac57612dac612d19565b81604052838152866020858801011115612dc557600080fd5b836020870160208301376000602085830101528094505050505092915050565b80356001600160a01b0381168114612dfc57600080fd5b919050565b600080600060608486031215612e1657600080fd5b833567ffffffffffffffff80821115612e2e57600080fd5b612e3a87838801612d58565b94506020860135915080821115612e5057600080fd5b50612e5d86828701612d58565b925050612e6c60408501612de5565b90509250925092565b600060208284031215612e8757600080fd5b5035919050565b60008060408385031215612ea157600080fd5b612eaa83612de5565b946020939093013593505050565b60208152815160208201526000602083015160018060a01b03808216604085015263ffffffff60408601511660608501526060850151915060c06080850152612f0460e0850183612cda565b91506080850151601f198584030160a0860152612f218382612cda565b9250508060a08601511660c0850152508091505092915050565b600080600060608486031215612f5057600080fd5b612f5984612de5565b9250612f6760208501612de5565b9150604084013590509250925092565b600060208284031215612f8957600080fd5b6114a982612de5565b60008060408385031215612fa557600080fd5b82359150612fb560208401612de5565b90509250929050565b60008060408385031215612fd157600080fd5b612fda83612de5565b9150602083013567ffffffffffffffff811115612ff657600080fd5b61300285828601612d58565b9150509250929050565b8015158114610cf657600080fd5b6000806040838503121561302d57600080fd5b61303683612de5565b915060208301356130468161300c565b809150509250929050565b6000806000806080858703121561306757600080fd5b61307085612de5565b935061307e60208601612de5565b925060408501359150606085013567ffffffffffffffff8111156130a157600080fd5b6130ad87828801612d58565b91505092959194509250565b600080604083850312156130cc57600080fd5b6130d583612de5565b9150612fb560208401612de5565b803563ffffffff81168114612dfc57600080fd5b6000806040838503121561310a57600080fd5b823567ffffffffffffffff8082111561312257600080fd5b9084019060c0828703121561313657600080fd5b61313e612d2f565b8235815261314e60208401612de5565b602082015261315f604084016130e3565b604082015260608301358281111561317657600080fd5b61318288828601612d58565b60608301525060808301358281111561319a57600080fd5b6131a688828601612d58565b6080830152506131b860a08401612de5565b60a0820152935060208501359150808211156131d357600080fd5b5061300285828601612d58565b600181811c908216806131f457607f821691505b60208210810361321457634e487b7160e01b600052602260045260246000fd5b50919050565b6020808252602c908201527f46756e6374696f6e206d7573742062652063616c6c6564207468726f7567682060408201526b19195b1959d85d1958d85b1b60a21b606082015260800190565b6020808252602c908201527f46756e6374696f6e206d7573742062652063616c6c6564207468726f7567682060408201526b6163746976652070726f787960a01b606082015260800190565b6000602082840312156132c457600080fd5b81516114a98161300c565b60208082526022908201527f696e76616c696420726573706f6e73652066726f6d20646174612073746f7261604082015261676560f01b606082015260800190565b601f82111561092557600081815260208120601f850160051c810160208610156133385750805b601f850160051c820191505b8181101561335757828155600101613344565b505050505050565b815167ffffffffffffffff81111561337957613379612d19565b61338d8161338784546131e0565b84613311565b602080601f8311600181146133c257600084156133aa5750858301515b600019600386901b1c1916600185901b178555613357565b600085815260208120601f198616915b828110156133f1578886015182559484019460019091019084016133d2565b508582101561340f5787850151600019600388901b60f8161c191681555b5050505050600190811b01905550565b6001600160a01b0383168152604060208201819052600090611cac90830184612cda565b6020808252602b908201527f496e697469616c697a61626c653a20636f6e7472616374206973206e6f74206960408201526a6e697469616c697a696e6760a81b606082015260800190565b6000602082840312156134a057600080fd5b5051919050565b7f416363657373436f6e74726f6c3a206163636f756e74200000000000000000008152600083516134df816017850160208801612cb6565b7001034b99036b4b9b9b4b733903937b6329607d1b6017918401918201528351613510816028840160208801612cb6565b01602801949350505050565b60208082526032908201527f4552433732313a207472616e7366657220746f206e6f6e20455243373231526560408201527131b2b4bb32b91034b6b83632b6b2b73a32b960711b606082015260800190565b634e487b7160e01b600052601160045260246000fd5b80820281158282048414176106185761061861356e565b808201808211156106185761061861356e565b634e487b7160e01b600052603260045260246000fd5b6000816135d3576135d361356e565b506000190190565b60208082526025908201527f4552433732313a207472616e736665722066726f6d20696e636f72726563742060408201526437bbb732b960d91b606082015260800190565b6001600160a01b0385811682528416602082015260408101839052608060608201819052600090612a4b90830184612cda565b60006020828403121561366557600080fd5b81516114a981612c83565b60008251613682818460208701612cb6565b9190910192915050565b818103818111156106185761061861356e565b634e487b7160e01b600052603160045260246000fdfe5468652077616c6c657420646f6573206e6f742068617665206120636f6d706c657465642070726f66696c65360894a13ba1a3210667c828492db98dca3e2076cc3735a920a3ca505d382bbc416464726573733a206c6f772d6c6576656c2064656c65676174652063616c6c206661696c6564a264697066735822122002ed85b0b5f4d68d5f1c3287a166bb2d66cfe8315286e1ed0becb03474b8e97964736f6c63430008130033","opcodes":"PUSH1 0xA0 PUSH1 0x40 MSTORE ADDRESS PUSH1 0x80 MSTORE CALLVALUE DUP1 ISZERO PUSH3 0x15 JUMPI PUSH1 0x0 DUP1 REVERT JUMPDEST POP PUSH3 0x20 PUSH3 0x26 JUMP JUMPDEST PUSH3 0xE7 JUMP JUMPDEST PUSH1 0x0 SLOAD PUSH2 0x100 SWAP1 DIV PUSH1 0xFF AND ISZERO PUSH3 0x93 JUMPI PUSH1 0x40 MLOAD PUSH3 0x461BCD PUSH1 0xE5 SHL DUP2 MSTORE PUSH1 0x20 PUSH1 0x4 DUP3 ADD MSTORE PUSH1 0x27 PUSH1 0x24 DUP3 ADD MSTORE PUSH32 0x496E697469616C697A61626C653A20636F6E747261637420697320696E697469 PUSH1 0x44 DUP3 ADD MSTORE PUSH7 0x616C697A696E67 PUSH1 0xC8 SHL PUSH1 0x64 DUP3 ADD MSTORE PUSH1 0x84 ADD PUSH1 0x40 MLOAD DUP1 SWAP2 SUB SWAP1 REVERT JUMPDEST PUSH1 0x0 SLOAD PUSH1 0xFF SWAP1 DUP2 AND EQ PUSH3 0xE5 JUMPI PUSH1 0x0 DUP1 SLOAD PUSH1 0xFF NOT AND PUSH1 0xFF SWAP1 DUP2 OR SWAP1 SWAP2 SSTORE PUSH1 0x40 MLOAD SWAP1 DUP2 MSTORE PUSH32 0x7F26B83FF96E1F2B6A682F133852F6798A09C465DA95921460CEFB3847402498 SWAP1 PUSH1 0x20 ADD PUSH1 0x40 MLOAD DUP1 SWAP2 SUB SWAP1 LOG1 JUMPDEST JUMP JUMPDEST PUSH1 0x80 MLOAD PUSH2 0x375E PUSH3 0x11F PUSH1 0x0 CODECOPY PUSH1 0x0 DUP2 DUP2 PUSH2 0xC24 ADD MSTORE DUP2 DUP2 PUSH2 0xC64 ADD MSTORE DUP2 DUP2 PUSH2 0x1063 ADD MSTORE DUP2 DUP2 PUSH2 0x10A3 ADD MSTORE PUSH2 0x1132 ADD MSTORE PUSH2 0x375E PUSH1 0x0 RETURN INVALID PUSH1 0x80 PUSH1 0x40 MSTORE PUSH1 0x4 CALLDATASIZE LT PUSH2 0x1EE JUMPI PUSH1 0x0 CALLDATALOAD PUSH1 0xE0 SHR DUP1 PUSH4 0x52D1902D GT PUSH2 0x10D JUMPI DUP1 PUSH4 0x95D89B41 GT PUSH2 0xA0 JUMPI DUP1 PUSH4 0xC87B56DD GT PUSH2 0x6F JUMPI DUP1 PUSH4 0xC87B56DD EQ PUSH2 0x551 JUMPI DUP1 PUSH4 0xD547741F EQ PUSH2 0x571 JUMPI DUP1 PUSH4 0xE985E9C5 EQ PUSH2 0x591 JUMPI DUP1 PUSH4 0xF2FDE38B EQ PUSH2 0x5DA JUMPI DUP1 PUSH4 0xFAF4A931 EQ PUSH2 0x5FA JUMPI PUSH1 0x0 DUP1 REVERT JUMPDEST DUP1 PUSH4 0x95D89B41 EQ PUSH2 0x4E7 JUMPI DUP1 PUSH4 0xA217FDDF EQ PUSH2 0x4FC JUMPI DUP1 PUSH4 0xA22CB465 EQ PUSH2 0x511 JUMPI DUP1 PUSH4 0xB88D4FDE EQ PUSH2 0x531 JUMPI PUSH1 0x0 DUP1 REVERT JUMPDEST DUP1 PUSH4 0x715018A6 GT PUSH2 0xDC JUMPI DUP1 PUSH4 0x715018A6 EQ PUSH2 0x474 JUMPI DUP1 PUSH4 0x773C02D4 EQ PUSH2 0x489 JUMPI DUP1 PUSH4 0x8DA5CB5B EQ PUSH2 0x4A9 JUMPI DUP1 PUSH4 0x91D14854 EQ PUSH2 0x4C7 JUMPI PUSH1 0x0 DUP1 REVERT JUMPDEST DUP1 PUSH4 0x52D1902D EQ PUSH2 0x3FF JUMPI DUP1 PUSH4 0x5DC4FE7E EQ PUSH2 0x414 JUMPI DUP1 PUSH4 0x6352211E EQ PUSH2 0x434 JUMPI DUP1 PUSH4 0x70A08231 EQ PUSH2 0x454 JUMPI PUSH1 0x0 DUP1 REVERT JUMPDEST DUP1 PUSH4 0x248A9CA3 GT PUSH2 0x185 JUMPI DUP1 PUSH4 0x3659CFE6 GT PUSH2 0x154 JUMPI DUP1 PUSH4 0x3659CFE6 EQ PUSH2 0x3C4 JUMPI DUP1 PUSH4 0x42842E0E EQ PUSH2 0x314 JUMPI DUP1 PUSH4 0x44DF8E70 EQ PUSH2 0x3E4 JUMPI DUP1 PUSH4 0x4F1EF286 EQ PUSH2 0x3EC JUMPI PUSH1 0x0 DUP1 REVERT JUMPDEST DUP1 PUSH4 0x248A9CA3 EQ PUSH2 0x334 JUMPI DUP1 PUSH4 0x24D7806C EQ PUSH2 0x364 JUMPI DUP1 PUSH4 0x2F2FF15D EQ PUSH2 0x384 JUMPI DUP1 PUSH4 0x36568ABE EQ PUSH2 0x3A4 JUMPI PUSH1 0x0 DUP1 REVERT JUMPDEST DUP1 PUSH4 0x95EA7B3 GT PUSH2 0x1C1 JUMPI DUP1 PUSH4 0x95EA7B3 EQ PUSH2 0x2A4 JUMPI DUP1 PUSH4 0x18160DDD EQ PUSH2 0x2C4 JUMPI DUP1 PUSH4 0x1F52B76C EQ PUSH2 0x2E7 JUMPI DUP1 PUSH4 0x23B872DD EQ PUSH2 0x314 JUMPI PUSH1 0x0 DUP1 REVERT JUMPDEST DUP1 PUSH4 0x1FFC9A7 EQ PUSH2 0x1F3 JUMPI DUP1 PUSH4 0x6FDDE03 EQ PUSH2 0x228 JUMPI DUP1 PUSH4 0x77F224A EQ PUSH2 0x24A JUMPI DUP1 PUSH4 0x81812FC EQ PUSH2 0x26C JUMPI JUMPDEST PUSH1 0x0 DUP1 REVERT JUMPDEST CALLVALUE DUP1 ISZERO PUSH2 0x1FF JUMPI PUSH1 0x0 DUP1 REVERT JUMPDEST POP PUSH2 0x213 PUSH2 0x20E CALLDATASIZE PUSH1 0x4 PUSH2 0x2C99 JUMP JUMPDEST PUSH2 0x60D JUMP JUMPDEST PUSH1 0x40 MLOAD SWAP1 ISZERO ISZERO DUP2 MSTORE PUSH1 0x20 ADD JUMPDEST PUSH1 0x40 MLOAD DUP1 SWAP2 SUB SWAP1 RETURN JUMPDEST CALLVALUE DUP1 ISZERO PUSH2 0x234 JUMPI PUSH1 0x0 DUP1 REVERT JUMPDEST POP PUSH2 0x23D PUSH2 0x61E JUMP JUMPDEST PUSH1 0x40 MLOAD PUSH2 0x21F SWAP2 SWAP1 PUSH2 0x2D06 JUMP JUMPDEST CALLVALUE DUP1 ISZERO PUSH2 0x256 JUMPI PUSH1 0x0 DUP1 REVERT JUMPDEST POP PUSH2 0x26A PUSH2 0x265 CALLDATASIZE PUSH1 0x4 PUSH2 0x2E01 JUMP JUMPDEST PUSH2 0x6B0 JUMP JUMPDEST STOP JUMPDEST CALLVALUE DUP1 ISZERO PUSH2 0x278 JUMPI PUSH1 0x0 DUP1 REVERT JUMPDEST POP PUSH2 0x28C PUSH2 0x287 CALLDATASIZE PUSH1 0x4 PUSH2 0x2E75 JUMP JUMPDEST PUSH2 0x7EE JUMP JUMPDEST PUSH1 0x40 MLOAD PUSH1 0x1 PUSH1 0x1 PUSH1 0xA0 SHL SUB SWAP1 SWAP2 AND DUP2 MSTORE PUSH1 0x20 ADD PUSH2 0x21F JUMP JUMPDEST CALLVALUE DUP1 ISZERO PUSH2 0x2B0 JUMPI PUSH1 0x0 DUP1 REVERT JUMPDEST POP PUSH2 0x26A PUSH2 0x2BF CALLDATASIZE PUSH1 0x4 PUSH2 0x2E8E JUMP JUMPDEST PUSH2 0x815 JUMP JUMPDEST CALLVALUE DUP1 ISZERO PUSH2 0x2D0 JUMPI PUSH1 0x0 DUP1 REVERT JUMPDEST POP PUSH2 0x2D9 PUSH2 0x92A JUMP JUMPDEST PUSH1 0x40 MLOAD SWAP1 DUP2 MSTORE PUSH1 0x20 ADD PUSH2 0x21F JUMP JUMPDEST CALLVALUE DUP1 ISZERO PUSH2 0x2F3 JUMPI PUSH1 0x0 DUP1 REVERT JUMPDEST POP PUSH2 0x307 PUSH2 0x302 CALLDATASIZE PUSH1 0x4 PUSH2 0x2E75 JUMP JUMPDEST PUSH2 0x93C JUMP JUMPDEST PUSH1 0x40 MLOAD PUSH2 0x21F SWAP2 SWAP1 PUSH2 0x2EB8 JUMP JUMPDEST CALLVALUE DUP1 ISZERO PUSH2 0x320 JUMPI PUSH1 0x0 DUP1 REVERT JUMPDEST POP PUSH2 0x26A PUSH2 0x32F CALLDATASIZE PUSH1 0x4 PUSH2 0x2F3B JUMP JUMPDEST PUSH2 0xB38 JUMP JUMPDEST CALLVALUE DUP1 ISZERO PUSH2 0x340 JUMPI PUSH1 0x0 DUP1 REVERT JUMPDEST POP PUSH2 0x2D9 PUSH2 0x34F CALLDATASIZE PUSH1 0x4 PUSH2 0x2E75 JUMP JUMPDEST PUSH1 0x0 SWAP1 DUP2 MSTORE PUSH1 0xC9 PUSH1 0x20 MSTORE PUSH1 0x40 SWAP1 KECCAK256 PUSH1 0x1 ADD SLOAD SWAP1 JUMP JUMPDEST CALLVALUE DUP1 ISZERO PUSH2 0x370 JUMPI PUSH1 0x0 DUP1 REVERT JUMPDEST POP PUSH2 0x213 PUSH2 0x37F CALLDATASIZE PUSH1 0x4 PUSH2 0x2F77 JUMP JUMPDEST PUSH2 0xB6B JUMP JUMPDEST CALLVALUE DUP1 ISZERO PUSH2 0x390 JUMPI PUSH1 0x0 DUP1 REVERT JUMPDEST POP PUSH2 0x26A PUSH2 0x39F CALLDATASIZE PUSH1 0x4 PUSH2 0x2F92 JUMP JUMPDEST PUSH2 0xB77 JUMP JUMPDEST CALLVALUE DUP1 ISZERO PUSH2 0x3B0 JUMPI PUSH1 0x0 DUP1 REVERT JUMPDEST POP PUSH2 0x26A PUSH2 0x3BF CALLDATASIZE PUSH1 0x4 PUSH2 0x2F92 JUMP JUMPDEST PUSH2 0xB9C JUMP JUMPDEST CALLVALUE DUP1 ISZERO PUSH2 0x3D0 JUMPI PUSH1 0x0 DUP1 REVERT JUMPDEST POP PUSH2 0x26A PUSH2 0x3DF CALLDATASIZE PUSH1 0x4 PUSH2 0x2F77 JUMP JUMPDEST PUSH2 0xC1A JUMP JUMPDEST PUSH2 0x26A PUSH2 0xCF9 JUMP JUMPDEST PUSH2 0x26A PUSH2 0x3FA CALLDATASIZE PUSH1 0x4 PUSH2 0x2FBE JUMP JUMPDEST PUSH2 0x1059 JUMP JUMPDEST CALLVALUE DUP1 ISZERO PUSH2 0x40B JUMPI PUSH1 0x0 DUP1 REVERT JUMPDEST POP PUSH2 0x2D9 PUSH2 0x1125 JUMP JUMPDEST CALLVALUE DUP1 ISZERO PUSH2 0x420 JUMPI PUSH1 0x0 DUP1 REVERT JUMPDEST POP PUSH2 0x26A PUSH2 0x42F CALLDATASIZE PUSH1 0x4 PUSH2 0x2F77 JUMP JUMPDEST PUSH2 0x11D8 JUMP JUMPDEST CALLVALUE DUP1 ISZERO PUSH2 0x440 JUMPI PUSH1 0x0 DUP1 REVERT JUMPDEST POP PUSH2 0x28C PUSH2 0x44F CALLDATASIZE PUSH1 0x4 PUSH2 0x2E75 JUMP JUMPDEST PUSH2 0x1258 JUMP JUMPDEST CALLVALUE DUP1 ISZERO PUSH2 0x460 JUMPI PUSH1 0x0 DUP1 REVERT JUMPDEST POP PUSH2 0x2D9 PUSH2 0x46F CALLDATASIZE PUSH1 0x4 PUSH2 0x2F77 JUMP JUMPDEST PUSH2 0x1298 JUMP JUMPDEST CALLVALUE DUP1 ISZERO PUSH2 0x480 JUMPI PUSH1 0x0 DUP1 REVERT JUMPDEST POP PUSH2 0x26A PUSH2 0x12C3 JUMP JUMPDEST CALLVALUE DUP1 ISZERO PUSH2 0x495 JUMPI PUSH1 0x0 DUP1 REVERT JUMPDEST POP PUSH2 0x2D9 PUSH2 0x4A4 CALLDATASIZE PUSH1 0x4 PUSH2 0x2F77 JUMP JUMPDEST PUSH2 0x12D7 JUMP JUMPDEST CALLVALUE DUP1 ISZERO PUSH2 0x4B5 JUMPI PUSH1 0x0 DUP1 REVERT JUMPDEST POP PUSH1 0x97 SLOAD PUSH1 0x1 PUSH1 0x1 PUSH1 0xA0 SHL SUB AND PUSH2 0x28C JUMP JUMPDEST CALLVALUE DUP1 ISZERO PUSH2 0x4D3 JUMPI PUSH1 0x0 DUP1 REVERT JUMPDEST POP PUSH2 0x213 PUSH2 0x4E2 CALLDATASIZE PUSH1 0x4 PUSH2 0x2F92 JUMP JUMPDEST PUSH2 0x1300 JUMP JUMPDEST CALLVALUE DUP1 ISZERO PUSH2 0x4F3 JUMPI PUSH1 0x0 DUP1 REVERT JUMPDEST POP PUSH2 0x23D PUSH2 0x132B JUMP JUMPDEST CALLVALUE DUP1 ISZERO PUSH2 0x508 JUMPI PUSH1 0x0 DUP1 REVERT JUMPDEST POP PUSH2 0x2D9 PUSH1 0x0 DUP2 JUMP JUMPDEST CALLVALUE DUP1 ISZERO PUSH2 0x51D JUMPI PUSH1 0x0 DUP1 REVERT JUMPDEST POP PUSH2 0x26A PUSH2 0x52C CALLDATASIZE PUSH1 0x4 PUSH2 0x301A JUMP JUMPDEST PUSH2 0x133A JUMP JUMPDEST CALLVALUE DUP1 ISZERO PUSH2 0x53D JUMPI PUSH1 0x0 DUP1 REVERT JUMPDEST POP PUSH2 0x26A PUSH2 0x54C CALLDATASIZE PUSH1 0x4 PUSH2 0x3051 JUMP JUMPDEST PUSH2 0x1345 JUMP JUMPDEST CALLVALUE DUP1 ISZERO PUSH2 0x55D JUMPI PUSH1 0x0 DUP1 REVERT JUMPDEST POP PUSH2 0x23D PUSH2 0x56C CALLDATASIZE PUSH1 0x4 PUSH2 0x2E75 JUMP JUMPDEST PUSH2 0x1379 JUMP JUMPDEST CALLVALUE DUP1 ISZERO PUSH2 0x57D JUMPI PUSH1 0x0 DUP1 REVERT JUMPDEST POP PUSH2 0x26A PUSH2 0x58C CALLDATASIZE PUSH1 0x4 PUSH2 0x2F92 JUMP JUMPDEST PUSH2 0x14B0 JUMP JUMPDEST CALLVALUE DUP1 ISZERO PUSH2 0x59D JUMPI PUSH1 0x0 DUP1 REVERT JUMPDEST POP PUSH2 0x213 PUSH2 0x5AC CALLDATASIZE PUSH1 0x4 PUSH2 0x30B9 JUMP JUMPDEST PUSH1 0x1 PUSH1 0x1 PUSH1 0xA0 SHL SUB SWAP2 DUP3 AND PUSH1 0x0 SWAP1 DUP2 MSTORE PUSH1 0x6A PUSH1 0x20 SWAP1 DUP2 MSTORE PUSH1 0x40 DUP1 DUP4 KECCAK256 SWAP4 SWAP1 SWAP5 AND DUP3 MSTORE SWAP2 SWAP1 SWAP2 MSTORE KECCAK256 SLOAD PUSH1 0xFF AND SWAP1 JUMP JUMPDEST CALLVALUE DUP1 ISZERO PUSH2 0x5E6 JUMPI PUSH1 0x0 DUP1 REVERT JUMPDEST POP PUSH2 0x26A PUSH2 0x5F5 CALLDATASIZE PUSH1 0x4 PUSH2 0x2F77 JUMP JUMPDEST PUSH2 0x14D5 JUMP JUMPDEST PUSH2 0x2D9 PUSH2 0x608 CALLDATASIZE PUSH1 0x4 PUSH2 0x30F7 JUMP JUMPDEST PUSH2 0x154B JUMP JUMPDEST PUSH1 0x0 PUSH2 0x618 DUP3 PUSH2 0x1A35 JUMP JUMPDEST SWAP3 SWAP2 POP POP JUMP JUMPDEST PUSH1 0x60 PUSH1 0x65 DUP1 SLOAD PUSH2 0x62D SWAP1 PUSH2 0x31E0 JUMP JUMPDEST DUP1 PUSH1 0x1F ADD PUSH1 0x20 DUP1 SWAP2 DIV MUL PUSH1 0x20 ADD PUSH1 0x40 MLOAD SWAP1 DUP2 ADD PUSH1 0x40 MSTORE DUP1 SWAP3 SWAP2 SWAP1 DUP2 DUP2 MSTORE PUSH1 0x20 ADD DUP3 DUP1 SLOAD PUSH2 0x659 SWAP1 PUSH2 0x31E0 JUMP JUMPDEST DUP1 ISZERO PUSH2 0x6A6 JUMPI DUP1 PUSH1 0x1F LT PUSH2 0x67B JUMPI PUSH2 0x100 DUP1 DUP4 SLOAD DIV MUL DUP4 MSTORE SWAP2 PUSH1 0x20 ADD SWAP2 PUSH2 0x6A6 JUMP JUMPDEST DUP3 ADD SWAP2 SWAP1 PUSH1 0x0 MSTORE PUSH1 0x20 PUSH1 0x0 KECCAK256 SWAP1 JUMPDEST DUP2 SLOAD DUP2 MSTORE SWAP1 PUSH1 0x1 ADD SWAP1 PUSH1 0x20 ADD DUP1 DUP4 GT PUSH2 0x689 JUMPI DUP3 SWAP1 SUB PUSH1 0x1F AND DUP3 ADD SWAP2 JUMPDEST POP POP POP POP POP SWAP1 POP SWAP1 JUMP JUMPDEST PUSH1 0x0 SLOAD PUSH2 0x100 SWAP1 DIV PUSH1 0xFF AND ISZERO DUP1 DUP1 ISZERO PUSH2 0x6D0 JUMPI POP PUSH1 0x0 SLOAD PUSH1 0x1 PUSH1 0xFF SWAP1 SWAP2 AND LT JUMPDEST DUP1 PUSH2 0x6EA JUMPI POP ADDRESS EXTCODESIZE ISZERO DUP1 ISZERO PUSH2 0x6EA JUMPI POP PUSH1 0x0 SLOAD PUSH1 0xFF AND PUSH1 0x1 EQ JUMPDEST PUSH2 0x752 JUMPI PUSH1 0x40 MLOAD PUSH3 0x461BCD PUSH1 0xE5 SHL DUP2 MSTORE PUSH1 0x20 PUSH1 0x4 DUP3 ADD MSTORE PUSH1 0x2E PUSH1 0x24 DUP3 ADD MSTORE PUSH32 0x496E697469616C697A61626C653A20636F6E747261637420697320616C726561 PUSH1 0x44 DUP3 ADD MSTORE PUSH14 0x191E481A5B9A5D1A585B1A5E9959 PUSH1 0x92 SHL PUSH1 0x64 DUP3 ADD MSTORE PUSH1 0x84 ADD JUMPDEST PUSH1 0x40 MLOAD DUP1 SWAP2 SUB SWAP1 REVERT JUMPDEST PUSH1 0x0 DUP1 SLOAD PUSH1 0xFF NOT AND PUSH1 0x1 OR SWAP1 SSTORE DUP1 ISZERO PUSH2 0x775 JUMPI PUSH1 0x0 DUP1 SLOAD PUSH2 0xFF00 NOT AND PUSH2 0x100 OR SWAP1 SSTORE JUMPDEST PUSH2 0x77D PUSH2 0x1A5A JUMP JUMPDEST PUSH2 0x785 PUSH2 0x1A89 JUMP JUMPDEST PUSH2 0x78F DUP5 DUP5 PUSH2 0x1AB0 JUMP JUMPDEST PUSH2 0x797 PUSH2 0x1A89 JUMP JUMPDEST PUSH2 0x7A2 PUSH1 0x0 DUP4 PUSH2 0x1AE1 JUMP JUMPDEST DUP1 ISZERO PUSH2 0x7E8 JUMPI PUSH1 0x0 DUP1 SLOAD PUSH2 0xFF00 NOT AND SWAP1 SSTORE PUSH1 0x40 MLOAD PUSH1 0x1 DUP2 MSTORE PUSH32 0x7F26B83FF96E1F2B6A682F133852F6798A09C465DA95921460CEFB3847402498 SWAP1 PUSH1 0x20 ADD PUSH1 0x40 MLOAD DUP1 SWAP2 SUB SWAP1 LOG1 JUMPDEST POP POP POP POP JUMP JUMPDEST PUSH1 0x0 PUSH2 0x7F9 DUP3 PUSH2 0x1B67 JUMP JUMPDEST POP PUSH1 0x0 SWAP1 DUP2 MSTORE PUSH1 0x69 PUSH1 0x20 MSTORE PUSH1 0x40 SWAP1 KECCAK256 SLOAD PUSH1 0x1 PUSH1 0x1 PUSH1 0xA0 SHL SUB AND SWAP1 JUMP JUMPDEST PUSH1 0x0 PUSH2 0x820 DUP3 PUSH2 0x1BC6 JUMP JUMPDEST SWAP1 POP DUP1 PUSH1 0x1 PUSH1 0x1 PUSH1 0xA0 SHL SUB AND DUP4 PUSH1 0x1 PUSH1 0x1 PUSH1 0xA0 SHL SUB AND SUB PUSH2 0x88D JUMPI PUSH1 0x40 MLOAD PUSH3 0x461BCD PUSH1 0xE5 SHL DUP2 MSTORE PUSH1 0x20 PUSH1 0x4 DUP3 ADD MSTORE PUSH1 0x21 PUSH1 0x24 DUP3 ADD MSTORE PUSH32 0x4552433732313A20617070726F76616C20746F2063757272656E74206F776E65 PUSH1 0x44 DUP3 ADD MSTORE PUSH1 0x39 PUSH1 0xF9 SHL PUSH1 0x64 DUP3 ADD MSTORE PUSH1 0x84 ADD PUSH2 0x749 JUMP JUMPDEST CALLER PUSH1 0x1 PUSH1 0x1 PUSH1 0xA0 SHL SUB DUP3 AND EQ DUP1 PUSH2 0x8A9 JUMPI POP PUSH2 0x8A9 DUP2 CALLER PUSH2 0x5AC JUMP JUMPDEST PUSH2 0x91B JUMPI PUSH1 0x40 MLOAD PUSH3 0x461BCD PUSH1 0xE5 SHL DUP2 MSTORE PUSH1 0x20 PUSH1 0x4 DUP3 ADD MSTORE PUSH1 0x3D PUSH1 0x24 DUP3 ADD MSTORE PUSH32 0x4552433732313A20617070726F76652063616C6C6572206973206E6F7420746F PUSH1 0x44 DUP3 ADD MSTORE PUSH32 0x6B656E206F776E6572206F7220617070726F76656420666F7220616C6C000000 PUSH1 0x64 DUP3 ADD MSTORE PUSH1 0x84 ADD PUSH2 0x749 JUMP JUMPDEST PUSH2 0x925 DUP4 DUP4 PUSH2 0x1C26 JUMP JUMPDEST POP POP POP JUMP JUMPDEST PUSH1 0x0 PUSH2 0x937 PUSH2 0x162 PUSH2 0x1C94 JUMP JUMPDEST SWAP1 POP SWAP1 JUMP JUMPDEST PUSH1 0x40 DUP1 MLOAD PUSH1 0xC0 DUP2 ADD DUP3 MSTORE PUSH1 0x0 DUP1 DUP3 MSTORE PUSH1 0x20 DUP1 DUP4 ADD DUP3 SWAP1 MSTORE DUP3 DUP5 ADD DUP3 SWAP1 MSTORE PUSH1 0x60 DUP1 DUP5 ADD DUP2 SWAP1 MSTORE PUSH1 0x80 DUP5 ADD MSTORE PUSH1 0xA0 DUP4 ADD DUP3 SWAP1 MSTORE DUP4 MLOAD DUP1 DUP6 ADD SWAP1 SWAP5 MSTORE PUSH1 0xF DUP5 MSTORE PUSH15 0x125B9D985B1A59081D1BDAD95B9259 PUSH1 0x8A SHL SWAP1 DUP5 ADD MSTORE SWAP1 SWAP2 PUSH2 0x9A1 SWAP1 PUSH2 0x15F SWAP1 DUP6 SWAP1 PUSH2 0x1C9F JUMP JUMPDEST PUSH1 0x1 PUSH1 0x1 PUSH1 0xA0 SHL SUB DUP2 DUP2 AND PUSH1 0x0 SWAP1 DUP2 MSTORE PUSH2 0x167 PUSH1 0x20 SWAP1 DUP2 MSTORE PUSH1 0x40 DUP1 DUP4 KECCAK256 DUP2 MLOAD PUSH1 0xC0 DUP2 ADD DUP4 MSTORE DUP2 SLOAD DUP2 MSTORE PUSH1 0x1 DUP3 ADD SLOAD SWAP6 DUP7 AND SWAP4 DUP2 ADD SWAP4 SWAP1 SWAP4 MSTORE PUSH1 0x1 PUSH1 0xA0 SHL SWAP1 SWAP5 DIV PUSH4 0xFFFFFFFF AND SWAP1 DUP3 ADD MSTORE PUSH1 0x2 DUP4 ADD DUP1 SLOAD SWAP5 SWAP6 POP SWAP2 SWAP4 SWAP1 SWAP3 SWAP2 PUSH1 0x60 DUP5 ADD SWAP2 PUSH2 0xA07 SWAP1 PUSH2 0x31E0 JUMP JUMPDEST DUP1 PUSH1 0x1F ADD PUSH1 0x20 DUP1 SWAP2 DIV MUL PUSH1 0x20 ADD PUSH1 0x40 MLOAD SWAP1 DUP2 ADD PUSH1 0x40 MSTORE DUP1 SWAP3 SWAP2 SWAP1 DUP2 DUP2 MSTORE PUSH1 0x20 ADD DUP3 DUP1 SLOAD PUSH2 0xA33 SWAP1 PUSH2 0x31E0 JUMP JUMPDEST DUP1 ISZERO PUSH2 0xA80 JUMPI DUP1 PUSH1 0x1F LT PUSH2 0xA55 JUMPI PUSH2 0x100 DUP1 DUP4 SLOAD DIV MUL DUP4 MSTORE SWAP2 PUSH1 0x20 ADD SWAP2 PUSH2 0xA80 JUMP JUMPDEST DUP3 ADD SWAP2 SWAP1 PUSH1 0x0 MSTORE PUSH1 0x20 PUSH1 0x0 KECCAK256 SWAP1 JUMPDEST DUP2 SLOAD DUP2 MSTORE SWAP1 PUSH1 0x1 ADD SWAP1 PUSH1 0x20 ADD DUP1 DUP4 GT PUSH2 0xA63 JUMPI DUP3 SWAP1 SUB PUSH1 0x1F AND DUP3 ADD SWAP2 JUMPDEST POP POP POP POP POP DUP2 MSTORE PUSH1 0x20 ADD PUSH1 0x3 DUP3 ADD DUP1 SLOAD PUSH2 0xA99 SWAP1 PUSH2 0x31E0 JUMP JUMPDEST DUP1 PUSH1 0x1F ADD PUSH1 0x20 DUP1 SWAP2 DIV MUL PUSH1 0x20 ADD PUSH1 0x40 MLOAD SWAP1 DUP2 ADD PUSH1 0x40 MSTORE DUP1 SWAP3 SWAP2 SWAP1 DUP2 DUP2 MSTORE PUSH1 0x20 ADD DUP3 DUP1 SLOAD PUSH2 0xAC5 SWAP1 PUSH2 0x31E0 JUMP JUMPDEST DUP1 ISZERO PUSH2 0xB12 JUMPI DUP1 PUSH1 0x1F LT PUSH2 0xAE7 JUMPI PUSH2 0x100 DUP1 DUP4 SLOAD DIV MUL DUP4 MSTORE SWAP2 PUSH1 0x20 ADD SWAP2 PUSH2 0xB12 JUMP JUMPDEST DUP3 ADD SWAP2 SWAP1 PUSH1 0x0 MSTORE PUSH1 0x20 PUSH1 0x0 KECCAK256 SWAP1 JUMPDEST DUP2 SLOAD DUP2 MSTORE SWAP1 PUSH1 0x1 ADD SWAP1 PUSH1 0x20 ADD DUP1 DUP4 GT PUSH2 0xAF5 JUMPI DUP3 SWAP1 SUB PUSH1 0x1F AND DUP3 ADD SWAP2 JUMPDEST POP POP POP SWAP2 DUP4 MSTORE POP POP PUSH1 0x4 SWAP2 SWAP1 SWAP2 ADD SLOAD PUSH1 0x1 PUSH1 0x1 PUSH1 0xA0 SHL SUB AND PUSH1 0x20 SWAP1 SWAP2 ADD MSTORE SWAP5 SWAP4 POP POP POP POP JUMP JUMPDEST PUSH1 0x1 PUSH1 0x1 PUSH1 0xA0 SHL SUB DUP4 AND ISZERO PUSH2 0xB60 JUMPI PUSH1 0x40 MLOAD PUSH4 0x3859B9E9 PUSH1 0xE0 SHL DUP2 MSTORE PUSH1 0x4 ADD PUSH1 0x40 MLOAD DUP1 SWAP2 SUB SWAP1 REVERT JUMPDEST PUSH2 0x925 DUP4 DUP4 DUP4 PUSH2 0x1CB4 JUMP JUMPDEST PUSH1 0x0 PUSH2 0x618 DUP2 DUP4 PUSH2 0x1300 JUMP JUMPDEST PUSH1 0x0 DUP3 DUP2 MSTORE PUSH1 0xC9 PUSH1 0x20 MSTORE PUSH1 0x40 SWAP1 KECCAK256 PUSH1 0x1 ADD SLOAD PUSH2 0xB92 DUP2 PUSH2 0x1CCF JUMP JUMPDEST PUSH2 0x925 DUP4 DUP4 PUSH2 0x1AE1 JUMP JUMPDEST PUSH1 0x1 PUSH1 0x1 PUSH1 0xA0 SHL SUB DUP2 AND CALLER EQ PUSH2 0xC0C JUMPI PUSH1 0x40 MLOAD PUSH3 0x461BCD PUSH1 0xE5 SHL DUP2 MSTORE PUSH1 0x20 PUSH1 0x4 DUP3 ADD MSTORE PUSH1 0x2F PUSH1 0x24 DUP3 ADD MSTORE PUSH32 0x416363657373436F6E74726F6C3A2063616E206F6E6C792072656E6F756E6365 PUSH1 0x44 DUP3 ADD MSTORE PUSH15 0x103937B632B9903337B91039B2B633 PUSH1 0x89 SHL PUSH1 0x64 DUP3 ADD MSTORE PUSH1 0x84 ADD PUSH2 0x749 JUMP JUMPDEST PUSH2 0xC16 DUP3 DUP3 PUSH2 0x1CD9 JUMP JUMPDEST POP POP JUMP JUMPDEST PUSH1 0x1 PUSH1 0x1 PUSH1 0xA0 SHL SUB PUSH32 0x0 AND ADDRESS SUB PUSH2 0xC62 JUMPI PUSH1 0x40 MLOAD PUSH3 0x461BCD PUSH1 0xE5 SHL DUP2 MSTORE PUSH1 0x4 ADD PUSH2 0x749 SWAP1 PUSH2 0x321A JUMP JUMPDEST PUSH32 0x0 PUSH1 0x1 PUSH1 0x1 PUSH1 0xA0 SHL SUB AND PUSH2 0xCAB PUSH1 0x0 DUP1 MLOAD PUSH1 0x20 PUSH2 0x36E2 DUP4 CODECOPY DUP2 MLOAD SWAP2 MSTORE SLOAD PUSH1 0x1 PUSH1 0x1 PUSH1 0xA0 SHL SUB AND SWAP1 JUMP JUMPDEST PUSH1 0x1 PUSH1 0x1 PUSH1 0xA0 SHL SUB AND EQ PUSH2 0xCD1 JUMPI PUSH1 0x40 MLOAD PUSH3 0x461BCD PUSH1 0xE5 SHL DUP2 MSTORE PUSH1 0x4 ADD PUSH2 0x749 SWAP1 PUSH2 0x3266 JUMP JUMPDEST PUSH2 0xCDA DUP2 PUSH2 0x1D40 JUMP JUMPDEST PUSH1 0x40 DUP1 MLOAD PUSH1 0x0 DUP1 DUP3 MSTORE PUSH1 0x20 DUP3 ADD SWAP1 SWAP3 MSTORE PUSH2 0xCF6 SWAP2 DUP4 SWAP2 SWAP1 PUSH2 0x1D48 JUMP JUMPDEST POP JUMP JUMPDEST PUSH2 0xD05 PUSH2 0x162 CALLER PUSH2 0x1EB3 JUMP JUMPDEST PUSH2 0xD5B JUMPI PUSH1 0x40 MLOAD PUSH3 0x461BCD PUSH1 0xE5 SHL DUP2 MSTORE PUSH1 0x20 PUSH1 0x4 DUP3 ADD MSTORE PUSH1 0x21 PUSH1 0x24 DUP3 ADD MSTORE PUSH32 0x546865206163636F756E7420646F6573206E6F7420686176652070726F66696C PUSH1 0x44 DUP3 ADD MSTORE PUSH1 0x65 PUSH1 0xF8 SHL PUSH1 0x64 DUP3 ADD MSTORE PUSH1 0x84 ADD PUSH2 0x749 JUMP JUMPDEST PUSH1 0x0 PUSH2 0xD69 PUSH2 0x162 CALLER PUSH2 0x1EC8 JUMP JUMPDEST SWAP1 POP PUSH2 0xD77 PUSH2 0x162 CALLER PUSH2 0x1EDD JUMP JUMPDEST POP PUSH2 0xD84 PUSH2 0x15F DUP3 PUSH2 0x1EF2 JUMP JUMPDEST POP CALLER PUSH1 0x0 SWAP1 DUP2 MSTORE PUSH2 0x167 PUSH1 0x20 SWAP1 DUP2 MSTORE PUSH1 0x40 DUP1 DUP4 KECCAK256 DUP2 MLOAD PUSH1 0xC0 DUP2 ADD DUP4 MSTORE DUP2 SLOAD DUP2 MSTORE PUSH1 0x1 DUP3 ADD SLOAD PUSH1 0x1 PUSH1 0x1 PUSH1 0xA0 SHL SUB DUP2 AND SWAP5 DUP3 ADD SWAP5 SWAP1 SWAP5 MSTORE PUSH1 0x1 PUSH1 0xA0 SHL SWAP1 SWAP4 DIV PUSH4 0xFFFFFFFF AND SWAP2 DUP4 ADD SWAP2 SWAP1 SWAP2 MSTORE PUSH1 0x2 DUP2 ADD DUP1 SLOAD PUSH1 0x60 DUP5 ADD SWAP2 SWAP1 PUSH2 0xDE4 SWAP1 PUSH2 0x31E0 JUMP JUMPDEST DUP1 PUSH1 0x1F ADD PUSH1 0x20 DUP1 SWAP2 DIV MUL PUSH1 0x20 ADD PUSH1 0x40 MLOAD SWAP1 DUP2 ADD PUSH1 0x40 MSTORE DUP1 SWAP3 SWAP2 SWAP1 DUP2 DUP2 MSTORE PUSH1 0x20 ADD DUP3 DUP1 SLOAD PUSH2 0xE10 SWAP1 PUSH2 0x31E0 JUMP JUMPDEST DUP1 ISZERO PUSH2 0xE5D JUMPI DUP1 PUSH1 0x1F LT PUSH2 0xE32 JUMPI PUSH2 0x100 DUP1 DUP4 SLOAD DIV MUL DUP4 MSTORE SWAP2 PUSH1 0x20 ADD SWAP2 PUSH2 0xE5D JUMP JUMPDEST DUP3 ADD SWAP2 SWAP1 PUSH1 0x0 MSTORE PUSH1 0x20 PUSH1 0x0 KECCAK256 SWAP1 JUMPDEST DUP2 SLOAD DUP2 MSTORE SWAP1 PUSH1 0x1 ADD SWAP1 PUSH1 0x20 ADD DUP1 DUP4 GT PUSH2 0xE40 JUMPI DUP3 SWAP1 SUB PUSH1 0x1F AND DUP3 ADD SWAP2 JUMPDEST POP POP POP POP POP DUP2 MSTORE PUSH1 0x20 ADD PUSH1 0x3 DUP3 ADD DUP1 SLOAD PUSH2 0xE76 SWAP1 PUSH2 0x31E0 JUMP JUMPDEST DUP1 PUSH1 0x1F ADD PUSH1 0x20 DUP1 SWAP2 DIV MUL PUSH1 0x20 ADD PUSH1 0x40 MLOAD SWAP1 DUP2 ADD PUSH1 0x40 MSTORE DUP1 SWAP3 SWAP2 SWAP1 DUP2 DUP2 MSTORE PUSH1 0x20 ADD DUP3 DUP1 SLOAD PUSH2 0xEA2 SWAP1 PUSH2 0x31E0 JUMP JUMPDEST DUP1 ISZERO PUSH2 0xEEF JUMPI DUP1 PUSH1 0x1F LT PUSH2 0xEC4 JUMPI PUSH2 0x100 DUP1 DUP4 SLOAD DIV MUL DUP4 MSTORE SWAP2 PUSH1 0x20 ADD SWAP2 PUSH2 0xEEF JUMP JUMPDEST DUP3 ADD SWAP2 SWAP1 PUSH1 0x0 MSTORE PUSH1 0x20 PUSH1 0x0 KECCAK256 SWAP1 JUMPDEST DUP2 SLOAD DUP2 MSTORE SWAP1 PUSH1 0x1 ADD SWAP1 PUSH1 0x20 ADD DUP1 DUP4 GT PUSH2 0xED2 JUMPI DUP3 SWAP1 SUB PUSH1 0x1F AND DUP3 ADD SWAP2 JUMPDEST POP POP POP SWAP2 DUP4 MSTORE POP POP PUSH1 0x4 SWAP2 SWAP1 SWAP2 ADD SLOAD PUSH1 0x1 PUSH1 0x1 PUSH1 0xA0 SHL SUB SWAP1 DUP2 AND PUSH1 0x20 SWAP3 DUP4 ADD MSTORE PUSH1 0xA0 DUP4 ADD MLOAD DUP2 AND PUSH1 0x0 SWAP1 DUP2 MSTORE PUSH2 0x166 DUP4 MSTORE PUSH1 0x40 DUP1 DUP3 KECCAK256 SLOAD DUP2 MLOAD CALLER DUP2 DUP8 ADD MSTORE DUP3 MLOAD DUP1 DUP3 SUB SWAP1 SWAP7 ADD DUP7 MSTORE DUP1 DUP4 ADD SWAP3 DUP4 SWAP1 MSTORE PUSH4 0x163B7BD3 PUSH1 0xE2 SHL SWAP1 SWAP3 MSTORE SWAP5 SWAP6 POP SWAP1 SWAP4 SWAP1 SWAP2 AND SWAP2 PUSH4 0x58EDEF4C SWAP2 PUSH2 0xF65 SWAP2 SWAP1 PUSH1 0x44 ADD PUSH2 0x2D06 JUMP JUMPDEST PUSH1 0x20 PUSH1 0x40 MLOAD DUP1 DUP4 SUB DUP2 PUSH1 0x0 DUP8 GAS CALL ISZERO DUP1 ISZERO PUSH2 0xF84 JUMPI RETURNDATASIZE PUSH1 0x0 DUP1 RETURNDATACOPY RETURNDATASIZE PUSH1 0x0 REVERT JUMPDEST POP POP POP POP PUSH1 0x40 MLOAD RETURNDATASIZE PUSH1 0x1F NOT PUSH1 0x1F DUP3 ADD AND DUP3 ADD DUP1 PUSH1 0x40 MSTORE POP DUP2 ADD SWAP1 PUSH2 0xFA8 SWAP2 SWAP1 PUSH2 0x32B2 JUMP JUMPDEST SWAP1 POP PUSH1 0x1 DUP2 ISZERO ISZERO EQ PUSH2 0xFCC JUMPI PUSH1 0x40 MLOAD PUSH3 0x461BCD PUSH1 0xE5 SHL DUP2 MSTORE PUSH1 0x4 ADD PUSH2 0x749 SWAP1 PUSH2 0x32CF JUMP JUMPDEST CALLER PUSH1 0x0 SWAP1 DUP2 MSTORE PUSH2 0x167 PUSH1 0x20 MSTORE PUSH1 0x40 DUP2 KECCAK256 DUP2 DUP2 SSTORE PUSH1 0x1 DUP2 ADD DUP1 SLOAD PUSH1 0x1 PUSH1 0x1 PUSH1 0xC0 SHL SUB NOT AND SWAP1 SSTORE SWAP1 PUSH2 0xFFF PUSH1 0x2 DUP4 ADD DUP3 PUSH2 0x2C35 JUMP JUMPDEST PUSH2 0x100D PUSH1 0x3 DUP4 ADD PUSH1 0x0 PUSH2 0x2C35 JUMP JUMPDEST POP PUSH1 0x4 ADD DUP1 SLOAD PUSH1 0x1 PUSH1 0x1 PUSH1 0xA0 SHL SUB NOT AND SWAP1 SSTORE PUSH1 0x40 MLOAD DUP4 DUP2 MSTORE CALLER SWAP1 PUSH32 0xCC16F5DBB4873280815C1EE09DBD06736CFFCC184412CF7A71A0FDB75D397CA5 SWAP1 PUSH1 0x20 ADD PUSH1 0x40 MLOAD DUP1 SWAP2 SUB SWAP1 LOG2 POP POP POP JUMP JUMPDEST PUSH1 0x1 PUSH1 0x1 PUSH1 0xA0 SHL SUB PUSH32 0x0 AND ADDRESS SUB PUSH2 0x10A1 JUMPI PUSH1 0x40 MLOAD PUSH3 0x461BCD PUSH1 0xE5 SHL DUP2 MSTORE PUSH1 0x4 ADD PUSH2 0x749 SWAP1 PUSH2 0x321A JUMP JUMPDEST PUSH32 0x0 PUSH1 0x1 PUSH1 0x1 PUSH1 0xA0 SHL SUB AND PUSH2 0x10EA PUSH1 0x0 DUP1 MLOAD PUSH1 0x20 PUSH2 0x36E2 DUP4 CODECOPY DUP2 MLOAD SWAP2 MSTORE SLOAD PUSH1 0x1 PUSH1 0x1 PUSH1 0xA0 SHL SUB AND SWAP1 JUMP JUMPDEST PUSH1 0x1 PUSH1 0x1 PUSH1 0xA0 SHL SUB AND EQ PUSH2 0x1110 JUMPI PUSH1 0x40 MLOAD PUSH3 0x461BCD PUSH1 0xE5 SHL DUP2 MSTORE PUSH1 0x4 ADD PUSH2 0x749 SWAP1 PUSH2 0x3266 JUMP JUMPDEST PUSH2 0x1119 DUP3 PUSH2 0x1D40 JUMP JUMPDEST PUSH2 0xC16 DUP3 DUP3 PUSH1 0x1 PUSH2 0x1D48 JUMP JUMPDEST PUSH1 0x0 ADDRESS PUSH1 0x1 PUSH1 0x1 PUSH1 0xA0 SHL SUB PUSH32 0x0 AND EQ PUSH2 0x11C5 JUMPI PUSH1 0x40 MLOAD PUSH3 0x461BCD PUSH1 0xE5 SHL DUP2 MSTORE PUSH1 0x20 PUSH1 0x4 DUP3 ADD MSTORE PUSH1 0x38 PUSH1 0x24 DUP3 ADD MSTORE PUSH32 0x555550535570677261646561626C653A206D757374206E6F742062652063616C PUSH1 0x44 DUP3 ADD MSTORE PUSH32 0x6C6564207468726F7567682064656C656761746563616C6C0000000000000000 PUSH1 0x64 DUP3 ADD MSTORE PUSH1 0x84 ADD PUSH2 0x749 JUMP JUMPDEST POP PUSH1 0x0 DUP1 MLOAD PUSH1 0x20 PUSH2 0x36E2 DUP4 CODECOPY DUP2 MLOAD SWAP2 MSTORE SWAP1 JUMP JUMPDEST PUSH2 0x11E0 PUSH2 0x1EFE JUMP JUMPDEST PUSH1 0x1 PUSH1 0x1 PUSH1 0xA0 SHL SUB DUP2 AND PUSH2 0x122D JUMPI PUSH1 0x40 MLOAD PUSH3 0x461BCD PUSH1 0xE5 SHL DUP2 MSTORE PUSH1 0x20 PUSH1 0x4 DUP3 ADD MSTORE PUSH1 0x14 PUSH1 0x24 DUP3 ADD MSTORE PUSH20 0x73746F72616765207A65726F2061646472657373 PUSH1 0x60 SHL PUSH1 0x44 DUP3 ADD MSTORE PUSH1 0x64 ADD PUSH2 0x749 JUMP JUMPDEST PUSH1 0x1 PUSH1 0x1 PUSH1 0xA0 SHL SUB AND PUSH1 0x0 DUP2 DUP2 MSTORE PUSH2 0x166 PUSH1 0x20 MSTORE PUSH1 0x40 SWAP1 KECCAK256 DUP1 SLOAD PUSH1 0x1 PUSH1 0x1 PUSH1 0xA0 SHL SUB NOT AND SWAP1 SWAP2 OR SWAP1 SSTORE JUMP JUMPDEST PUSH1 0x0 PUSH2 0x618 DUP3 PUSH1 0x40 MLOAD DUP1 PUSH1 0x40 ADD PUSH1 0x40 MSTORE DUP1 PUSH1 0xF DUP2 MSTORE PUSH1 0x20 ADD PUSH15 0x125B9D985B1A59081D1BDAD95B9259 PUSH1 0x8A SHL DUP2 MSTORE POP PUSH2 0x15F PUSH2 0x1C9F SWAP1 SWAP3 SWAP2 SWAP1 PUSH4 0xFFFFFFFF AND JUMP JUMPDEST PUSH1 0x0 DUP1 PUSH2 0x12A7 PUSH2 0x162 DUP5 PUSH2 0x1F58 JUMP JUMPDEST POP SWAP1 POP DUP1 PUSH2 0x12B6 JUMPI PUSH1 0x0 PUSH2 0x12B9 JUMP JUMPDEST PUSH1 0x1 JUMPDEST PUSH1 0xFF AND SWAP4 SWAP3 POP POP POP JUMP JUMPDEST PUSH2 0x12CB PUSH2 0x1EFE JUMP JUMPDEST PUSH2 0x12D5 PUSH1 0x0 PUSH2 0x1F7F JUMP JUMPDEST JUMP JUMPDEST PUSH1 0x0 PUSH2 0x618 DUP3 PUSH1 0x40 MLOAD DUP1 PUSH1 0x60 ADD PUSH1 0x40 MSTORE DUP1 PUSH1 0x2C DUP2 MSTORE PUSH1 0x20 ADD PUSH2 0x36B6 PUSH1 0x2C SWAP2 CODECOPY PUSH2 0x162 SWAP2 SWAP1 PUSH2 0x1FD1 JUMP JUMPDEST PUSH1 0x0 SWAP2 DUP3 MSTORE PUSH1 0xC9 PUSH1 0x20 SWAP1 DUP2 MSTORE PUSH1 0x40 DUP1 DUP5 KECCAK256 PUSH1 0x1 PUSH1 0x1 PUSH1 0xA0 SHL SUB SWAP4 SWAP1 SWAP4 AND DUP5 MSTORE SWAP2 SWAP1 MSTORE SWAP1 KECCAK256 SLOAD PUSH1 0xFF AND SWAP1 JUMP JUMPDEST PUSH1 0x60 PUSH1 0x66 DUP1 SLOAD PUSH2 0x62D SWAP1 PUSH2 0x31E0 JUMP JUMPDEST PUSH2 0xC16 CALLER DUP4 DUP4 PUSH2 0x1FE7 JUMP JUMPDEST PUSH1 0x1 PUSH1 0x1 PUSH1 0xA0 SHL SUB DUP5 AND ISZERO PUSH2 0x136D JUMPI PUSH1 0x40 MLOAD PUSH4 0x3859B9E9 PUSH1 0xE0 SHL DUP2 MSTORE PUSH1 0x4 ADD PUSH1 0x40 MLOAD DUP1 SWAP2 SUB SWAP1 REVERT JUMPDEST PUSH2 0x7E8 DUP5 DUP5 DUP5 DUP5 PUSH2 0x20B5 JUMP JUMPDEST PUSH1 0x60 PUSH1 0x0 PUSH2 0x13BB DUP4 PUSH1 0x40 MLOAD DUP1 PUSH1 0x40 ADD PUSH1 0x40 MSTORE DUP1 PUSH1 0xF DUP2 MSTORE PUSH1 0x20 ADD PUSH15 0x151BDAD95B881B9BDD08195E1A5CDD PUSH1 0x8A SHL DUP2 MSTORE POP PUSH2 0x15F PUSH2 0x1C9F SWAP1 SWAP3 SWAP2 SWAP1 PUSH4 0xFFFFFFFF AND JUMP JUMPDEST PUSH1 0x1 PUSH1 0x1 PUSH1 0xA0 SHL SUB DUP2 AND PUSH1 0x0 SWAP1 DUP2 MSTORE PUSH2 0x167 PUSH1 0x20 MSTORE PUSH1 0x40 DUP2 KECCAK256 PUSH1 0x3 ADD DUP1 SLOAD SWAP3 SWAP4 POP SWAP1 SWAP2 PUSH2 0x13E7 SWAP1 PUSH2 0x31E0 JUMP JUMPDEST SWAP1 POP GT PUSH2 0x1403 JUMPI PUSH1 0x40 MLOAD DUP1 PUSH1 0x20 ADD PUSH1 0x40 MSTORE DUP1 PUSH1 0x0 DUP2 MSTORE POP PUSH2 0x14A9 JUMP JUMPDEST PUSH1 0x1 PUSH1 0x1 PUSH1 0xA0 SHL SUB DUP2 AND PUSH1 0x0 SWAP1 DUP2 MSTORE PUSH2 0x167 PUSH1 0x20 MSTORE PUSH1 0x40 SWAP1 KECCAK256 PUSH1 0x3 ADD DUP1 SLOAD PUSH2 0x142A SWAP1 PUSH2 0x31E0 JUMP JUMPDEST DUP1 PUSH1 0x1F ADD PUSH1 0x20 DUP1 SWAP2 DIV MUL PUSH1 0x20 ADD PUSH1 0x40 MLOAD SWAP1 DUP2 ADD PUSH1 0x40 MSTORE DUP1 SWAP3 SWAP2 SWAP1 DUP2 DUP2 MSTORE PUSH1 0x20 ADD DUP3 DUP1 SLOAD PUSH2 0x1456 SWAP1 PUSH2 0x31E0 JUMP JUMPDEST DUP1 ISZERO PUSH2 0x14A3 JUMPI DUP1 PUSH1 0x1F LT PUSH2 0x1478 JUMPI PUSH2 0x100 DUP1 DUP4 SLOAD DIV MUL DUP4 MSTORE SWAP2 PUSH1 0x20 ADD SWAP2 PUSH2 0x14A3 JUMP JUMPDEST DUP3 ADD SWAP2 SWAP1 PUSH1 0x0 MSTORE PUSH1 0x20 PUSH1 0x0 KECCAK256 SWAP1 JUMPDEST DUP2 SLOAD DUP2 MSTORE SWAP1 PUSH1 0x1 ADD SWAP1 PUSH1 0x20 ADD DUP1 DUP4 GT PUSH2 0x1486 JUMPI DUP3 SWAP1 SUB PUSH1 0x1F AND DUP3 ADD SWAP2 JUMPDEST POP POP POP POP POP JUMPDEST SWAP4 SWAP3 POP POP POP JUMP JUMPDEST PUSH1 0x0 DUP3 DUP2 MSTORE PUSH1 0xC9 PUSH1 0x20 MSTORE PUSH1 0x40 SWAP1 KECCAK256 PUSH1 0x1 ADD SLOAD PUSH2 0x14CB DUP2 PUSH2 0x1CCF JUMP JUMPDEST PUSH2 0x925 DUP4 DUP4 PUSH2 0x1CD9 JUMP JUMPDEST PUSH2 0x14DD PUSH2 0x1EFE JUMP JUMPDEST PUSH1 0x1 PUSH1 0x1 PUSH1 0xA0 SHL SUB DUP2 AND PUSH2 0x1542 JUMPI PUSH1 0x40 MLOAD PUSH3 0x461BCD PUSH1 0xE5 SHL DUP2 MSTORE PUSH1 0x20 PUSH1 0x4 DUP3 ADD MSTORE PUSH1 0x26 PUSH1 0x24 DUP3 ADD MSTORE PUSH32 0x4F776E61626C653A206E6577206F776E657220697320746865207A65726F2061 PUSH1 0x44 DUP3 ADD MSTORE PUSH6 0x646472657373 PUSH1 0xD0 SHL PUSH1 0x64 DUP3 ADD MSTORE PUSH1 0x84 ADD PUSH2 0x749 JUMP JUMPDEST PUSH2 0xCF6 DUP2 PUSH2 0x1F7F JUMP JUMPDEST PUSH1 0xA0 DUP3 ADD MLOAD PUSH1 0x0 SWAP1 PUSH1 0x1 PUSH1 0x1 PUSH1 0xA0 SHL SUB AND PUSH2 0x1579 JUMPI PUSH1 0x40 MLOAD PUSH4 0xE57FFD07 PUSH1 0xE0 SHL DUP2 MSTORE PUSH1 0x4 ADD PUSH1 0x40 MLOAD DUP1 SWAP2 SUB SWAP1 REVERT JUMPDEST PUSH1 0xA0 DUP4 ADD MLOAD PUSH1 0x1 PUSH1 0x1 PUSH1 0xA0 SHL SUB SWAP1 DUP2 AND PUSH1 0x0 SWAP1 DUP2 MSTORE PUSH2 0x166 PUSH1 0x20 MSTORE PUSH1 0x40 SWAP1 KECCAK256 SLOAD AND PUSH2 0x15E6 JUMPI PUSH1 0x40 MLOAD PUSH3 0x461BCD PUSH1 0xE5 SHL DUP2 MSTORE PUSH1 0x20 PUSH1 0x4 DUP3 ADD MSTORE PUSH1 0x17 PUSH1 0x24 DUP3 ADD MSTORE PUSH32 0x73746F72616765206E6F7420696E697469616C697A6564000000000000000000 PUSH1 0x44 DUP3 ADD MSTORE PUSH1 0x64 ADD PUSH2 0x749 JUMP JUMPDEST PUSH1 0x0 PUSH2 0x15F4 PUSH2 0x162 CALLER PUSH2 0x1EB3 JUMP JUMPDEST ISZERO PUSH2 0x185A JUMPI PUSH2 0x1605 PUSH2 0x162 CALLER PUSH2 0x1EC8 JUMP JUMPDEST CALLER PUSH1 0x0 SWAP1 DUP2 MSTORE PUSH2 0x167 PUSH1 0x20 SWAP1 DUP2 MSTORE PUSH1 0x40 DUP1 DUP4 KECCAK256 DUP2 MLOAD PUSH1 0xC0 DUP2 ADD DUP4 MSTORE DUP2 SLOAD DUP2 MSTORE PUSH1 0x1 DUP3 ADD SLOAD PUSH1 0x1 PUSH1 0x1 PUSH1 0xA0 SHL SUB DUP2 AND SWAP5 DUP3 ADD SWAP5 SWAP1 SWAP5 MSTORE PUSH1 0x1 PUSH1 0xA0 SHL SWAP1 SWAP4 DIV PUSH4 0xFFFFFFFF AND SWAP2 DUP4 ADD SWAP2 SWAP1 SWAP2 MSTORE PUSH1 0x2 DUP2 ADD DUP1 SLOAD SWAP5 SWAP6 POP SWAP3 SWAP4 SWAP2 SWAP3 SWAP1 SWAP2 PUSH1 0x60 DUP5 ADD SWAP2 SWAP1 PUSH2 0x166D SWAP1 PUSH2 0x31E0 JUMP JUMPDEST DUP1 PUSH1 0x1F ADD PUSH1 0x20 DUP1 SWAP2 DIV MUL PUSH1 0x20 ADD PUSH1 0x40 MLOAD SWAP1 DUP2 ADD PUSH1 0x40 MSTORE DUP1 SWAP3 SWAP2 SWAP1 DUP2 DUP2 MSTORE PUSH1 0x20 ADD DUP3 DUP1 SLOAD PUSH2 0x1699 SWAP1 PUSH2 0x31E0 JUMP JUMPDEST DUP1 ISZERO PUSH2 0x16E6 JUMPI DUP1 PUSH1 0x1F LT PUSH2 0x16BB JUMPI PUSH2 0x100 DUP1 DUP4 SLOAD DIV MUL DUP4 MSTORE SWAP2 PUSH1 0x20 ADD SWAP2 PUSH2 0x16E6 JUMP JUMPDEST DUP3 ADD SWAP2 SWAP1 PUSH1 0x0 MSTORE PUSH1 0x20 PUSH1 0x0 KECCAK256 SWAP1 JUMPDEST DUP2 SLOAD DUP2 MSTORE SWAP1 PUSH1 0x1 ADD SWAP1 PUSH1 0x20 ADD DUP1 DUP4 GT PUSH2 0x16C9 JUMPI DUP3 SWAP1 SUB PUSH1 0x1F AND DUP3 ADD SWAP2 JUMPDEST POP POP POP POP POP DUP2 MSTORE PUSH1 0x20 ADD PUSH1 0x3 DUP3 ADD DUP1 SLOAD PUSH2 0x16FF SWAP1 PUSH2 0x31E0 JUMP JUMPDEST DUP1 PUSH1 0x1F ADD PUSH1 0x20 DUP1 SWAP2 DIV MUL PUSH1 0x20 ADD PUSH1 0x40 MLOAD SWAP1 DUP2 ADD PUSH1 0x40 MSTORE DUP1 SWAP3 SWAP2 SWAP1 DUP2 DUP2 MSTORE PUSH1 0x20 ADD DUP3 DUP1 SLOAD PUSH2 0x172B SWAP1 PUSH2 0x31E0 JUMP JUMPDEST DUP1 ISZERO PUSH2 0x1778 JUMPI DUP1 PUSH1 0x1F LT PUSH2 0x174D JUMPI PUSH2 0x100 DUP1 DUP4 SLOAD DIV MUL DUP4 MSTORE SWAP2 PUSH1 0x20 ADD SWAP2 PUSH2 0x1778 JUMP JUMPDEST DUP3 ADD SWAP2 SWAP1 PUSH1 0x0 MSTORE PUSH1 0x20 PUSH1 0x0 KECCAK256 SWAP1 JUMPDEST DUP2 SLOAD DUP2 MSTORE SWAP1 PUSH1 0x1 ADD SWAP1 PUSH1 0x20 ADD DUP1 DUP4 GT PUSH2 0x175B JUMPI DUP3 SWAP1 SUB PUSH1 0x1F AND DUP3 ADD SWAP2 JUMPDEST POP POP POP SWAP2 DUP4 MSTORE POP POP PUSH1 0x4 SWAP2 SWAP1 SWAP2 ADD SLOAD PUSH1 0x1 PUSH1 0x1 PUSH1 0xA0 SHL SUB SWAP1 DUP2 AND PUSH1 0x20 SWAP1 SWAP3 ADD SWAP2 SWAP1 SWAP2 MSTORE PUSH1 0xA0 DUP8 DUP2 ADD MLOAD SWAP1 DUP4 ADD MLOAD SWAP3 SWAP4 POP DUP2 AND SWAP2 AND EQ PUSH2 0x1854 JUMPI PUSH1 0xA0 DUP2 ADD MLOAD PUSH1 0x1 PUSH1 0x1 PUSH1 0xA0 SHL SUB SWAP1 DUP2 AND PUSH1 0x0 SWAP1 DUP2 MSTORE PUSH2 0x166 PUSH1 0x20 SWAP1 DUP2 MSTORE PUSH1 0x40 SWAP2 DUP3 SWAP1 KECCAK256 SLOAD DUP3 MLOAD CALLER DUP2 DUP5 ADD MSTORE DUP4 MLOAD DUP1 DUP3 SUB SWAP1 SWAP4 ADD DUP4 MSTORE DUP1 DUP5 ADD SWAP4 DUP5 SWAP1 MSTORE PUSH4 0x163B7BD3 PUSH1 0xE2 SHL SWAP1 SWAP4 MSTORE SWAP1 SWAP3 AND SWAP2 PUSH4 0x58EDEF4C SWAP2 PUSH2 0x180F SWAP2 SWAP1 PUSH1 0x44 ADD PUSH2 0x2D06 JUMP JUMPDEST PUSH1 0x20 PUSH1 0x40 MLOAD DUP1 DUP4 SUB DUP2 PUSH1 0x0 DUP8 GAS CALL ISZERO DUP1 ISZERO PUSH2 0x182E JUMPI RETURNDATASIZE PUSH1 0x0 DUP1 RETURNDATACOPY RETURNDATASIZE PUSH1 0x0 REVERT JUMPDEST POP POP POP POP PUSH1 0x40 MLOAD RETURNDATASIZE PUSH1 0x1F NOT PUSH1 0x1F DUP3 ADD AND DUP3 ADD DUP1 PUSH1 0x40 MSTORE POP DUP2 ADD SWAP1 PUSH2 0x1852 SWAP2 SWAP1 PUSH2 0x32B2 JUMP JUMPDEST POP JUMPDEST POP PUSH2 0x188B JUMP JUMPDEST PUSH2 0x1869 PUSH2 0x165 DUP1 SLOAD PUSH1 0x1 ADD SWAP1 SSTORE JUMP JUMPDEST POP PUSH2 0x165 SLOAD PUSH2 0x187B PUSH2 0x162 CALLER DUP4 PUSH2 0x212D JUMP JUMPDEST POP PUSH2 0x1889 PUSH2 0x15F DUP3 CALLER PUSH2 0x2143 JUMP JUMPDEST POP JUMPDEST CALLER PUSH1 0x0 SWAP1 DUP2 MSTORE PUSH2 0x167 PUSH1 0x20 SWAP1 DUP2 MSTORE PUSH1 0x40 SWAP2 DUP3 SWAP1 KECCAK256 DUP7 MLOAD DUP2 SSTORE SWAP1 DUP7 ADD MLOAD PUSH1 0x1 DUP3 ADD DUP1 SLOAD SWAP4 DUP9 ADD MLOAD PUSH4 0xFFFFFFFF AND PUSH1 0x1 PUSH1 0xA0 SHL MUL PUSH1 0x1 PUSH1 0x1 PUSH1 0xC0 SHL SUB NOT SWAP1 SWAP5 AND PUSH1 0x1 PUSH1 0x1 PUSH1 0xA0 SHL SUB SWAP3 SWAP1 SWAP3 AND SWAP2 SWAP1 SWAP2 OR SWAP3 SWAP1 SWAP3 OR SWAP1 SWAP2 SSTORE PUSH1 0x60 DUP6 ADD MLOAD DUP6 SWAP2 SWAP1 PUSH1 0x2 DUP3 ADD SWAP1 PUSH2 0x18F7 SWAP1 DUP3 PUSH2 0x335F JUMP JUMPDEST POP PUSH1 0x80 DUP3 ADD MLOAD PUSH1 0x3 DUP3 ADD SWAP1 PUSH2 0x190C SWAP1 DUP3 PUSH2 0x335F JUMP JUMPDEST POP PUSH1 0xA0 SWAP2 DUP3 ADD MLOAD PUSH1 0x4 SWAP2 SWAP1 SWAP2 ADD DUP1 SLOAD PUSH1 0x1 PUSH1 0x1 PUSH1 0xA0 SHL SUB NOT AND PUSH1 0x1 PUSH1 0x1 PUSH1 0xA0 SHL SUB SWAP3 DUP4 AND OR SWAP1 SSTORE SWAP1 DUP6 ADD MLOAD DUP2 AND PUSH1 0x0 SWAP1 DUP2 MSTORE PUSH2 0x166 PUSH1 0x20 SWAP1 DUP2 MSTORE PUSH1 0x40 DUP1 DUP4 KECCAK256 SLOAD SWAP1 MLOAD SWAP3 SWAP4 AND SWAP2 PUSH4 0xCF5BA53F SWAP2 PUSH2 0x1966 SWAP2 CALLER SWAP2 DUP10 SWAP2 ADD PUSH2 0x341F JUMP JUMPDEST PUSH1 0x40 MLOAD PUSH1 0x20 DUP2 DUP4 SUB SUB DUP2 MSTORE SWAP1 PUSH1 0x40 MSTORE PUSH1 0x40 MLOAD DUP3 PUSH4 0xFFFFFFFF AND PUSH1 0xE0 SHL DUP2 MSTORE PUSH1 0x4 ADD PUSH2 0x1991 SWAP2 SWAP1 PUSH2 0x2D06 JUMP JUMPDEST PUSH1 0x20 PUSH1 0x40 MLOAD DUP1 DUP4 SUB DUP2 PUSH1 0x0 DUP8 GAS CALL ISZERO DUP1 ISZERO PUSH2 0x19B0 JUMPI RETURNDATASIZE PUSH1 0x0 DUP1 RETURNDATACOPY RETURNDATASIZE PUSH1 0x0 REVERT JUMPDEST POP POP POP POP PUSH1 0x40 MLOAD RETURNDATASIZE PUSH1 0x1F NOT PUSH1 0x1F DUP3 ADD AND DUP3 ADD DUP1 PUSH1 0x40 MSTORE POP DUP2 ADD SWAP1 PUSH2 0x19D4 SWAP2 SWAP1 PUSH2 0x32B2 JUMP JUMPDEST SWAP1 POP PUSH1 0x1 DUP2 ISZERO ISZERO EQ PUSH2 0x19F8 JUMPI PUSH1 0x40 MLOAD PUSH3 0x461BCD PUSH1 0xE5 SHL DUP2 MSTORE PUSH1 0x4 ADD PUSH2 0x749 SWAP1 PUSH2 0x32CF JUMP JUMPDEST PUSH1 0x40 MLOAD DUP3 DUP2 MSTORE CALLER SWAP1 PUSH32 0xF6798A560793A54C3BCFE86A93CDE1E73087D944C0EA20544137D4121396885 SWAP1 PUSH1 0x20 ADD PUSH1 0x40 MLOAD DUP1 SWAP2 SUB SWAP1 LOG2 POP SWAP4 SWAP3 POP POP POP JUMP JUMPDEST PUSH1 0x0 PUSH1 0x1 PUSH1 0x1 PUSH1 0xE0 SHL SUB NOT DUP3 AND PUSH4 0x7965DB0B PUSH1 0xE0 SHL EQ DUP1 PUSH2 0x618 JUMPI POP PUSH2 0x618 DUP3 PUSH2 0x2159 JUMP JUMPDEST PUSH1 0x0 SLOAD PUSH2 0x100 SWAP1 DIV PUSH1 0xFF AND PUSH2 0x1A81 JUMPI PUSH1 0x40 MLOAD PUSH3 0x461BCD PUSH1 0xE5 SHL DUP2 MSTORE PUSH1 0x4 ADD PUSH2 0x749 SWAP1 PUSH2 0x3443 JUMP JUMPDEST PUSH2 0x12D5 PUSH2 0x21A9 JUMP JUMPDEST PUSH1 0x0 SLOAD PUSH2 0x100 SWAP1 DIV PUSH1 0xFF AND PUSH2 0x12D5 JUMPI PUSH1 0x40 MLOAD PUSH3 0x461BCD PUSH1 0xE5 SHL DUP2 MSTORE PUSH1 0x4 ADD PUSH2 0x749 SWAP1 PUSH2 0x3443 JUMP JUMPDEST PUSH1 0x0 SLOAD PUSH2 0x100 SWAP1 DIV PUSH1 0xFF AND PUSH2 0x1AD7 JUMPI PUSH1 0x40 MLOAD PUSH3 0x461BCD PUSH1 0xE5 SHL DUP2 MSTORE PUSH1 0x4 ADD PUSH2 0x749 SWAP1 PUSH2 0x3443 JUMP JUMPDEST PUSH2 0xC16 DUP3 DUP3 PUSH2 0x21D9 JUMP JUMPDEST PUSH2 0x1AEB DUP3 DUP3 PUSH2 0x1300 JUMP JUMPDEST PUSH2 0xC16 JUMPI PUSH1 0x0 DUP3 DUP2 MSTORE PUSH1 0xC9 PUSH1 0x20 SWAP1 DUP2 MSTORE PUSH1 0x40 DUP1 DUP4 KECCAK256 PUSH1 0x1 PUSH1 0x1 PUSH1 0xA0 SHL SUB DUP6 AND DUP5 MSTORE SWAP1 SWAP2 MSTORE SWAP1 KECCAK256 DUP1 SLOAD PUSH1 0xFF NOT AND PUSH1 0x1 OR SWAP1 SSTORE PUSH2 0x1B23 CALLER SWAP1 JUMP JUMPDEST PUSH1 0x1 PUSH1 0x1 PUSH1 0xA0 SHL SUB AND DUP2 PUSH1 0x1 PUSH1 0x1 PUSH1 0xA0 SHL SUB AND DUP4 PUSH32 0x2F8788117E7EFF1D82E926EC794901D17C78024A50270940304540A733656F0D PUSH1 0x40 MLOAD PUSH1 0x40 MLOAD DUP1 SWAP2 SUB SWAP1 LOG4 POP POP JUMP JUMPDEST PUSH1 0x0 DUP2 DUP2 MSTORE PUSH1 0x67 PUSH1 0x20 MSTORE PUSH1 0x40 SWAP1 KECCAK256 SLOAD PUSH1 0x1 PUSH1 0x1 PUSH1 0xA0 SHL SUB AND PUSH2 0xCF6 JUMPI PUSH1 0x40 MLOAD PUSH3 0x461BCD PUSH1 0xE5 SHL DUP2 MSTORE PUSH1 0x20 PUSH1 0x4 DUP3 ADD MSTORE PUSH1 0x18 PUSH1 0x24 DUP3 ADD MSTORE PUSH24 0x115490CDCC8C4E881A5B9D985B1A59081D1BDAD95B881251 PUSH1 0x42 SHL PUSH1 0x44 DUP3 ADD MSTORE PUSH1 0x64 ADD PUSH2 0x749 JUMP JUMPDEST PUSH1 0x0 DUP2 DUP2 MSTORE PUSH1 0x67 PUSH1 0x20 MSTORE PUSH1 0x40 DUP2 KECCAK256 SLOAD PUSH1 0x1 PUSH1 0x1 PUSH1 0xA0 SHL SUB AND DUP1 PUSH2 0x618 JUMPI PUSH1 0x40 MLOAD PUSH3 0x461BCD PUSH1 0xE5 SHL DUP2 MSTORE PUSH1 0x20 PUSH1 0x4 DUP3 ADD MSTORE PUSH1 0x18 PUSH1 0x24 DUP3 ADD MSTORE PUSH24 0x115490CDCC8C4E881A5B9D985B1A59081D1BDAD95B881251 PUSH1 0x42 SHL PUSH1 0x44 DUP3 ADD MSTORE PUSH1 0x64 ADD PUSH2 0x749 JUMP JUMPDEST PUSH1 0x0 DUP2 DUP2 MSTORE PUSH1 0x69 PUSH1 0x20 MSTORE PUSH1 0x40 SWAP1 KECCAK256 DUP1 SLOAD PUSH1 0x1 PUSH1 0x1 PUSH1 0xA0 SHL SUB NOT AND PUSH1 0x1 PUSH1 0x1 PUSH1 0xA0 SHL SUB DUP5 AND SWAP1 DUP2 OR SWAP1 SWAP2 SSTORE DUP2 SWAP1 PUSH2 0x1C5B DUP3 PUSH2 0x1BC6 JUMP JUMPDEST PUSH1 0x1 PUSH1 0x1 PUSH1 0xA0 SHL SUB AND PUSH32 0x8C5BE1E5EBEC7D5BD14F71427D1E84F3DD0314C0F7B2291E5B200AC8C7C3B925 PUSH1 0x40 MLOAD PUSH1 0x40 MLOAD DUP1 SWAP2 SUB SWAP1 LOG4 POP POP JUMP JUMPDEST PUSH1 0x0 PUSH2 0x618 DUP3 PUSH2 0x2219 JUMP JUMPDEST PUSH1 0x0 PUSH2 0x1CAC DUP5 DUP5 DUP5 PUSH2 0x2224 JUMP JUMPDEST SWAP5 SWAP4 POP POP POP POP JUMP JUMPDEST PUSH2 0x925 DUP4 DUP4 DUP4 PUSH1 0x40 MLOAD DUP1 PUSH1 0x20 ADD PUSH1 0x40 MSTORE DUP1 PUSH1 0x0 DUP2 MSTORE POP PUSH2 0x1345 JUMP JUMPDEST PUSH2 0xCF6 DUP2 CALLER PUSH2 0x2270 JUMP JUMPDEST PUSH2 0x1CE3 DUP3 DUP3 PUSH2 0x1300 JUMP JUMPDEST ISZERO PUSH2 0xC16 JUMPI PUSH1 0x0 DUP3 DUP2 MSTORE PUSH1 0xC9 PUSH1 0x20 SWAP1 DUP2 MSTORE PUSH1 0x40 DUP1 DUP4 KECCAK256 PUSH1 0x1 PUSH1 0x1 PUSH1 0xA0 SHL SUB DUP6 AND DUP1 DUP6 MSTORE SWAP3 MSTORE DUP1 DUP4 KECCAK256 DUP1 SLOAD PUSH1 0xFF NOT AND SWAP1 SSTORE MLOAD CALLER SWAP3 DUP6 SWAP2 PUSH32 0xF6391F5C32D9C69D2A47EA670B442974B53935D1EDC7FD64EB21E047A839171B SWAP2 SWAP1 LOG4 POP POP JUMP JUMPDEST PUSH2 0xCF6 PUSH2 0x1EFE JUMP JUMPDEST PUSH32 0x4910FDFA16FED3260ED0E7147F7CC6DA11A60208B5B9406D12A635614FFD9143 SLOAD PUSH1 0xFF AND ISZERO PUSH2 0x1D7B JUMPI PUSH2 0x925 DUP4 PUSH2 0x22C9 JUMP JUMPDEST DUP3 PUSH1 0x1 PUSH1 0x1 PUSH1 0xA0 SHL SUB AND PUSH4 0x52D1902D PUSH1 0x40 MLOAD DUP2 PUSH4 0xFFFFFFFF AND PUSH1 0xE0 SHL DUP2 MSTORE PUSH1 0x4 ADD PUSH1 0x20 PUSH1 0x40 MLOAD DUP1 DUP4 SUB DUP2 DUP7 GAS STATICCALL SWAP3 POP POP POP DUP1 ISZERO PUSH2 0x1DD5 JUMPI POP PUSH1 0x40 DUP1 MLOAD PUSH1 0x1F RETURNDATASIZE SWAP1 DUP2 ADD PUSH1 0x1F NOT AND DUP3 ADD SWAP1 SWAP3 MSTORE PUSH2 0x1DD2 SWAP2 DUP2 ADD SWAP1 PUSH2 0x348E JUMP JUMPDEST PUSH1 0x1 JUMPDEST PUSH2 0x1E38 JUMPI PUSH1 0x40 MLOAD PUSH3 0x461BCD PUSH1 0xE5 SHL DUP2 MSTORE PUSH1 0x20 PUSH1 0x4 DUP3 ADD MSTORE PUSH1 0x2E PUSH1 0x24 DUP3 ADD MSTORE PUSH32 0x45524331393637557067726164653A206E657720696D706C656D656E74617469 PUSH1 0x44 DUP3 ADD MSTORE PUSH14 0x6F6E206973206E6F742055555053 PUSH1 0x90 SHL PUSH1 0x64 DUP3 ADD MSTORE PUSH1 0x84 ADD PUSH2 0x749 JUMP JUMPDEST PUSH1 0x0 DUP1 MLOAD PUSH1 0x20 PUSH2 0x36E2 DUP4 CODECOPY DUP2 MLOAD SWAP2 MSTORE DUP2 EQ PUSH2 0x1EA7 JUMPI PUSH1 0x40 MLOAD PUSH3 0x461BCD PUSH1 0xE5 SHL DUP2 MSTORE PUSH1 0x20 PUSH1 0x4 DUP3 ADD MSTORE PUSH1 0x29 PUSH1 0x24 DUP3 ADD MSTORE PUSH32 0x45524331393637557067726164653A20756E737570706F727465642070726F78 PUSH1 0x44 DUP3 ADD MSTORE PUSH9 0x1A58589B1955555251 PUSH1 0xBA SHL PUSH1 0x64 DUP3 ADD MSTORE PUSH1 0x84 ADD PUSH2 0x749 JUMP JUMPDEST POP PUSH2 0x925 DUP4 DUP4 DUP4 PUSH2 0x2365 JUMP JUMPDEST PUSH1 0x0 PUSH2 0x14A9 DUP4 PUSH1 0x1 PUSH1 0x1 PUSH1 0xA0 SHL SUB DUP5 AND PUSH2 0x238A JUMP JUMPDEST PUSH1 0x0 PUSH2 0x14A9 DUP4 PUSH1 0x1 PUSH1 0x1 PUSH1 0xA0 SHL SUB DUP5 AND PUSH2 0x2396 JUMP JUMPDEST PUSH1 0x0 PUSH2 0x14A9 DUP4 PUSH1 0x1 PUSH1 0x1 PUSH1 0xA0 SHL SUB DUP5 AND PUSH2 0x2406 JUMP JUMPDEST PUSH1 0x0 PUSH2 0x14A9 DUP4 DUP4 PUSH2 0x2406 JUMP JUMPDEST PUSH1 0x97 SLOAD PUSH1 0x1 PUSH1 0x1 PUSH1 0xA0 SHL SUB AND CALLER EQ PUSH2 0x12D5 JUMPI PUSH1 0x40 MLOAD PUSH3 0x461BCD PUSH1 0xE5 SHL DUP2 MSTORE PUSH1 0x20 PUSH1 0x4 DUP3 ADD DUP2 SWAP1 MSTORE PUSH1 0x24 DUP3 ADD MSTORE PUSH32 0x4F776E61626C653A2063616C6C6572206973206E6F7420746865206F776E6572 PUSH1 0x44 DUP3 ADD MSTORE PUSH1 0x64 ADD PUSH2 0x749 JUMP JUMPDEST PUSH1 0x0 DUP1 DUP1 DUP1 PUSH2 0x1F70 DUP7 PUSH1 0x1 PUSH1 0x1 PUSH1 0xA0 SHL SUB DUP8 AND PUSH2 0x2423 JUMP JUMPDEST SWAP1 SWAP5 POP SWAP3 POP POP POP JUMPDEST SWAP3 POP SWAP3 SWAP1 POP JUMP JUMPDEST PUSH1 0x97 DUP1 SLOAD PUSH1 0x1 PUSH1 0x1 PUSH1 0xA0 SHL SUB DUP4 DUP2 AND PUSH1 0x1 PUSH1 0x1 PUSH1 0xA0 SHL SUB NOT DUP4 AND DUP2 OR SWAP1 SWAP4 SSTORE PUSH1 0x40 MLOAD SWAP2 AND SWAP2 SWAP1 DUP3 SWAP1 PUSH32 0x8BE0079C531659141344CD1FD0A4F28419497F9722A3DAAFE3B4186F6B6457E0 SWAP1 PUSH1 0x0 SWAP1 LOG3 POP POP JUMP JUMPDEST PUSH1 0x0 PUSH2 0x1CAC DUP5 PUSH1 0x1 PUSH1 0x1 PUSH1 0xA0 SHL SUB DUP6 AND DUP5 PUSH2 0x2224 JUMP JUMPDEST DUP2 PUSH1 0x1 PUSH1 0x1 PUSH1 0xA0 SHL SUB AND DUP4 PUSH1 0x1 PUSH1 0x1 PUSH1 0xA0 SHL SUB AND SUB PUSH2 0x2048 JUMPI PUSH1 0x40 MLOAD PUSH3 0x461BCD PUSH1 0xE5 SHL DUP2 MSTORE PUSH1 0x20 PUSH1 0x4 DUP3 ADD MSTORE PUSH1 0x19 PUSH1 0x24 DUP3 ADD MSTORE PUSH32 0x4552433732313A20617070726F766520746F2063616C6C657200000000000000 PUSH1 0x44 DUP3 ADD MSTORE PUSH1 0x64 ADD PUSH2 0x749 JUMP JUMPDEST PUSH1 0x1 PUSH1 0x1 PUSH1 0xA0 SHL SUB DUP4 DUP2 AND PUSH1 0x0 DUP2 DUP2 MSTORE PUSH1 0x6A PUSH1 0x20 SWAP1 DUP2 MSTORE PUSH1 0x40 DUP1 DUP4 KECCAK256 SWAP5 DUP8 AND DUP1 DUP5 MSTORE SWAP5 DUP3 MSTORE SWAP2 DUP3 SWAP1 KECCAK256 DUP1 SLOAD PUSH1 0xFF NOT AND DUP7 ISZERO ISZERO SWAP1 DUP2 OR SWAP1 SWAP2 SSTORE SWAP2 MLOAD SWAP2 DUP3 MSTORE PUSH32 0x17307EAB39AB6107E8899845AD3D59BD9653F200F220920489CA2B5937696C31 SWAP2 ADD PUSH1 0x40 MLOAD DUP1 SWAP2 SUB SWAP1 LOG3 POP POP POP JUMP JUMPDEST PUSH2 0x20BF CALLER DUP4 PUSH2 0x245D JUMP JUMPDEST PUSH2 0x2121 JUMPI PUSH1 0x40 MLOAD PUSH3 0x461BCD PUSH1 0xE5 SHL DUP2 MSTORE PUSH1 0x20 PUSH1 0x4 DUP3 ADD MSTORE PUSH1 0x2D PUSH1 0x24 DUP3 ADD MSTORE PUSH32 0x4552433732313A2063616C6C6572206973206E6F7420746F6B656E206F776E65 PUSH1 0x44 DUP3 ADD MSTORE PUSH13 0x1C881BDC88185C1C1C9BDD9959 PUSH1 0x9A SHL PUSH1 0x64 DUP3 ADD MSTORE PUSH1 0x84 ADD PUSH2 0x749 JUMP JUMPDEST PUSH2 0x7E8 DUP5 DUP5 DUP5 DUP5 PUSH2 0x24DB JUMP JUMPDEST PUSH1 0x0 PUSH2 0x1CAC DUP5 PUSH1 0x1 PUSH1 0x1 PUSH1 0xA0 SHL SUB DUP6 AND DUP5 PUSH2 0x250E JUMP JUMPDEST PUSH1 0x0 PUSH2 0x1CAC DUP5 DUP5 PUSH1 0x1 PUSH1 0x1 PUSH1 0xA0 SHL SUB DUP6 AND PUSH2 0x250E JUMP JUMPDEST PUSH1 0x0 PUSH1 0x1 PUSH1 0x1 PUSH1 0xE0 SHL SUB NOT DUP3 AND PUSH4 0x80AC58CD PUSH1 0xE0 SHL EQ DUP1 PUSH2 0x218A JUMPI POP PUSH1 0x1 PUSH1 0x1 PUSH1 0xE0 SHL SUB NOT DUP3 AND PUSH4 0x5B5E139F PUSH1 0xE0 SHL EQ JUMPDEST DUP1 PUSH2 0x618 JUMPI POP PUSH4 0x1FFC9A7 PUSH1 0xE0 SHL PUSH1 0x1 PUSH1 0x1 PUSH1 0xE0 SHL SUB NOT DUP4 AND EQ PUSH2 0x618 JUMP JUMPDEST PUSH1 0x0 SLOAD PUSH2 0x100 SWAP1 DIV PUSH1 0xFF AND PUSH2 0x21D0 JUMPI PUSH1 0x40 MLOAD PUSH3 0x461BCD PUSH1 0xE5 SHL DUP2 MSTORE PUSH1 0x4 ADD PUSH2 0x749 SWAP1 PUSH2 0x3443 JUMP JUMPDEST PUSH2 0x12D5 CALLER PUSH2 0x1F7F JUMP JUMPDEST PUSH1 0x0 SLOAD PUSH2 0x100 SWAP1 DIV PUSH1 0xFF AND PUSH2 0x2200 JUMPI PUSH1 0x40 MLOAD PUSH3 0x461BCD PUSH1 0xE5 SHL DUP2 MSTORE PUSH1 0x4 ADD PUSH2 0x749 SWAP1 PUSH2 0x3443 JUMP JUMPDEST PUSH1 0x65 PUSH2 0x220C DUP4 DUP3 PUSH2 0x335F JUMP JUMPDEST POP PUSH1 0x66 PUSH2 0x925 DUP3 DUP3 PUSH2 0x335F JUMP JUMPDEST PUSH1 0x0 PUSH2 0x618 DUP3 PUSH2 0x252B JUMP JUMPDEST PUSH1 0x0 DUP3 DUP2 MSTORE PUSH1 0x2 DUP5 ADD PUSH1 0x20 MSTORE PUSH1 0x40 DUP2 KECCAK256 SLOAD DUP1 ISZERO ISZERO DUP1 PUSH2 0x2248 JUMPI POP PUSH2 0x2248 DUP6 DUP6 PUSH2 0x238A JUMP JUMPDEST DUP4 SWAP1 PUSH2 0x2267 JUMPI PUSH1 0x40 MLOAD PUSH3 0x461BCD PUSH1 0xE5 SHL DUP2 MSTORE PUSH1 0x4 ADD PUSH2 0x749 SWAP2 SWAP1 PUSH2 0x2D06 JUMP JUMPDEST POP SWAP5 SWAP4 POP POP POP POP JUMP JUMPDEST PUSH2 0x227A DUP3 DUP3 PUSH2 0x1300 JUMP JUMPDEST PUSH2 0xC16 JUMPI PUSH2 0x2287 DUP2 PUSH2 0x2535 JUMP JUMPDEST PUSH2 0x2292 DUP4 PUSH1 0x20 PUSH2 0x2547 JUMP JUMPDEST PUSH1 0x40 MLOAD PUSH1 0x20 ADD PUSH2 0x22A3 SWAP3 SWAP2 SWAP1 PUSH2 0x34A7 JUMP JUMPDEST PUSH1 0x40 DUP1 MLOAD PUSH1 0x1F NOT DUP2 DUP5 SUB ADD DUP2 MSTORE SWAP1 DUP3 SWAP1 MSTORE PUSH3 0x461BCD PUSH1 0xE5 SHL DUP3 MSTORE PUSH2 0x749 SWAP2 PUSH1 0x4 ADD PUSH2 0x2D06 JUMP JUMPDEST PUSH1 0x1 PUSH1 0x1 PUSH1 0xA0 SHL SUB DUP2 AND EXTCODESIZE PUSH2 0x2336 JUMPI PUSH1 0x40 MLOAD PUSH3 0x461BCD PUSH1 0xE5 SHL DUP2 MSTORE PUSH1 0x20 PUSH1 0x4 DUP3 ADD MSTORE PUSH1 0x2D PUSH1 0x24 DUP3 ADD MSTORE PUSH32 0x455243313936373A206E657720696D706C656D656E746174696F6E206973206E PUSH1 0x44 DUP3 ADD MSTORE PUSH13 0x1BDD08184818DBDB9D1C9858DD PUSH1 0x9A SHL PUSH1 0x64 DUP3 ADD MSTORE PUSH1 0x84 ADD PUSH2 0x749 JUMP JUMPDEST PUSH1 0x0 DUP1 MLOAD PUSH1 0x20 PUSH2 0x36E2 DUP4 CODECOPY DUP2 MLOAD SWAP2 MSTORE DUP1 SLOAD PUSH1 0x1 PUSH1 0x1 PUSH1 0xA0 SHL SUB NOT AND PUSH1 0x1 PUSH1 0x1 PUSH1 0xA0 SHL SUB SWAP3 SWAP1 SWAP3 AND SWAP2 SWAP1 SWAP2 OR SWAP1 SSTORE JUMP JUMPDEST PUSH2 0x236E DUP4 PUSH2 0x26E3 JUMP JUMPDEST PUSH1 0x0 DUP3 MLOAD GT DUP1 PUSH2 0x237B JUMPI POP DUP1 JUMPDEST ISZERO PUSH2 0x925 JUMPI PUSH2 0x7E8 DUP4 DUP4 PUSH2 0x2723 JUMP JUMPDEST PUSH1 0x0 PUSH2 0x14A9 DUP4 DUP4 PUSH2 0x2748 JUMP JUMPDEST PUSH1 0x0 DUP2 DUP2 MSTORE PUSH1 0x2 DUP4 ADD PUSH1 0x20 MSTORE PUSH1 0x40 DUP2 KECCAK256 SLOAD DUP1 ISZERO ISZERO DUP1 PUSH2 0x23BA JUMPI POP PUSH2 0x23BA DUP5 DUP5 PUSH2 0x238A JUMP JUMPDEST PUSH2 0x14A9 JUMPI PUSH1 0x40 MLOAD PUSH3 0x461BCD PUSH1 0xE5 SHL DUP2 MSTORE PUSH1 0x20 PUSH1 0x4 DUP3 ADD MSTORE PUSH1 0x1E PUSH1 0x24 DUP3 ADD MSTORE PUSH32 0x456E756D657261626C654D61703A206E6F6E6578697374656E74206B65790000 PUSH1 0x44 DUP3 ADD MSTORE PUSH1 0x64 ADD PUSH2 0x749 JUMP JUMPDEST PUSH1 0x0 DUP2 DUP2 MSTORE PUSH1 0x2 DUP4 ADD PUSH1 0x20 MSTORE PUSH1 0x40 DUP2 KECCAK256 DUP2 SWAP1 SSTORE PUSH2 0x14A9 DUP4 DUP4 PUSH2 0x2760 JUMP JUMPDEST PUSH1 0x0 DUP2 DUP2 MSTORE PUSH1 0x2 DUP4 ADD PUSH1 0x20 MSTORE PUSH1 0x40 DUP2 KECCAK256 SLOAD DUP2 SWAP1 DUP1 PUSH2 0x2452 JUMPI PUSH2 0x2445 DUP6 DUP6 PUSH2 0x238A JUMP JUMPDEST SWAP3 POP PUSH1 0x0 SWAP2 POP PUSH2 0x1F78 SWAP1 POP JUMP JUMPDEST PUSH1 0x1 SWAP3 POP SWAP1 POP PUSH2 0x1F78 JUMP JUMPDEST PUSH1 0x0 DUP1 PUSH2 0x2469 DUP4 PUSH2 0x1BC6 JUMP JUMPDEST SWAP1 POP DUP1 PUSH1 0x1 PUSH1 0x1 PUSH1 0xA0 SHL SUB AND DUP5 PUSH1 0x1 PUSH1 0x1 PUSH1 0xA0 SHL SUB AND EQ DUP1 PUSH2 0x24B0 JUMPI POP PUSH1 0x1 PUSH1 0x1 PUSH1 0xA0 SHL SUB DUP1 DUP3 AND PUSH1 0x0 SWAP1 DUP2 MSTORE PUSH1 0x6A PUSH1 0x20 SWAP1 DUP2 MSTORE PUSH1 0x40 DUP1 DUP4 KECCAK256 SWAP4 DUP9 AND DUP4 MSTORE SWAP3 SWAP1 MSTORE KECCAK256 SLOAD PUSH1 0xFF AND JUMPDEST DUP1 PUSH2 0x1CAC JUMPI POP DUP4 PUSH1 0x1 PUSH1 0x1 PUSH1 0xA0 SHL SUB AND PUSH2 0x24C9 DUP5 PUSH2 0x7EE JUMP JUMPDEST PUSH1 0x1 PUSH1 0x1 PUSH1 0xA0 SHL SUB AND EQ SWAP5 SWAP4 POP POP POP POP JUMP JUMPDEST PUSH2 0x24E6 DUP5 DUP5 DUP5 PUSH2 0x276C JUMP JUMPDEST PUSH2 0x24F2 DUP5 DUP5 DUP5 DUP5 PUSH2 0x28D0 JUMP JUMPDEST PUSH2 0x7E8 JUMPI PUSH1 0x40 MLOAD PUSH3 0x461BCD PUSH1 0xE5 SHL DUP2 MSTORE PUSH1 0x4 ADD PUSH2 0x749 SWAP1 PUSH2 0x351C JUMP JUMPDEST PUSH1 0x0 DUP3 DUP2 MSTORE PUSH1 0x2 DUP5 ADD PUSH1 0x20 MSTORE PUSH1 0x40 DUP2 KECCAK256 DUP3 SWAP1 SSTORE PUSH2 0x1CAC DUP5 DUP5 PUSH2 0x29D1 JUMP JUMPDEST PUSH1 0x0 PUSH2 0x618 DUP3 SLOAD SWAP1 JUMP JUMPDEST PUSH1 0x60 PUSH2 0x618 PUSH1 0x1 PUSH1 0x1 PUSH1 0xA0 SHL SUB DUP4 AND PUSH1 0x14 JUMPDEST PUSH1 0x60 PUSH1 0x0 PUSH2 0x2556 DUP4 PUSH1 0x2 PUSH2 0x3584 JUMP JUMPDEST PUSH2 0x2561 SWAP1 PUSH1 0x2 PUSH2 0x359B JUMP JUMPDEST PUSH8 0xFFFFFFFFFFFFFFFF DUP2 GT ISZERO PUSH2 0x2579 JUMPI PUSH2 0x2579 PUSH2 0x2D19 JUMP JUMPDEST PUSH1 0x40 MLOAD SWAP1 DUP1 DUP3 MSTORE DUP1 PUSH1 0x1F ADD PUSH1 0x1F NOT AND PUSH1 0x20 ADD DUP3 ADD PUSH1 0x40 MSTORE DUP1 ISZERO PUSH2 0x25A3 JUMPI PUSH1 0x20 DUP3 ADD DUP2 DUP1 CALLDATASIZE DUP4 CALLDATACOPY ADD SWAP1 POP JUMPDEST POP SWAP1 POP PUSH1 0x3 PUSH1 0xFC SHL DUP2 PUSH1 0x0 DUP2 MLOAD DUP2 LT PUSH2 0x25BE JUMPI PUSH2 0x25BE PUSH2 0x35AE JUMP JUMPDEST PUSH1 0x20 ADD ADD SWAP1 PUSH1 0x1 PUSH1 0x1 PUSH1 0xF8 SHL SUB NOT AND SWAP1 DUP2 PUSH1 0x0 BYTE SWAP1 MSTORE8 POP PUSH1 0xF PUSH1 0xFB SHL DUP2 PUSH1 0x1 DUP2 MLOAD DUP2 LT PUSH2 0x25ED JUMPI PUSH2 0x25ED PUSH2 0x35AE JUMP JUMPDEST PUSH1 0x20 ADD ADD SWAP1 PUSH1 0x1 PUSH1 0x1 PUSH1 0xF8 SHL SUB NOT AND SWAP1 DUP2 PUSH1 0x0 BYTE SWAP1 MSTORE8 POP PUSH1 0x0 PUSH2 0x2611 DUP5 PUSH1 0x2 PUSH2 0x3584 JUMP JUMPDEST PUSH2 0x261C SWAP1 PUSH1 0x1 PUSH2 0x359B JUMP JUMPDEST SWAP1 POP JUMPDEST PUSH1 0x1 DUP2 GT ISZERO PUSH2 0x2694 JUMPI PUSH16 0x181899199A1A9B1B9C1CB0B131B232B3 PUSH1 0x81 SHL DUP6 PUSH1 0xF AND PUSH1 0x10 DUP2 LT PUSH2 0x2650 JUMPI PUSH2 0x2650 PUSH2 0x35AE JUMP JUMPDEST BYTE PUSH1 0xF8 SHL DUP3 DUP3 DUP2 MLOAD DUP2 LT PUSH2 0x2666 JUMPI PUSH2 0x2666 PUSH2 0x35AE JUMP JUMPDEST PUSH1 0x20 ADD ADD SWAP1 PUSH1 0x1 PUSH1 0x1 PUSH1 0xF8 SHL SUB NOT AND SWAP1 DUP2 PUSH1 0x0 BYTE SWAP1 MSTORE8 POP PUSH1 0x4 SWAP5 SWAP1 SWAP5 SHR SWAP4 PUSH2 0x268D DUP2 PUSH2 0x35C4 JUMP JUMPDEST SWAP1 POP PUSH2 0x261F JUMP JUMPDEST POP DUP4 ISZERO PUSH2 0x14A9 JUMPI PUSH1 0x40 MLOAD PUSH3 0x461BCD PUSH1 0xE5 SHL DUP2 MSTORE PUSH1 0x20 PUSH1 0x4 DUP3 ADD DUP2 SWAP1 MSTORE PUSH1 0x24 DUP3 ADD MSTORE PUSH32 0x537472696E67733A20686578206C656E67746820696E73756666696369656E74 PUSH1 0x44 DUP3 ADD MSTORE PUSH1 0x64 ADD PUSH2 0x749 JUMP JUMPDEST PUSH2 0x26EC DUP2 PUSH2 0x22C9 JUMP JUMPDEST PUSH1 0x40 MLOAD PUSH1 0x1 PUSH1 0x1 PUSH1 0xA0 SHL SUB DUP3 AND SWAP1 PUSH32 0xBC7CD75A20EE27FD9ADEBAB32041F755214DBC6BFFA90CC0225B39DA2E5C2D3B SWAP1 PUSH1 0x0 SWAP1 LOG2 POP JUMP JUMPDEST PUSH1 0x60 PUSH2 0x14A9 DUP4 DUP4 PUSH1 0x40 MLOAD DUP1 PUSH1 0x60 ADD PUSH1 0x40 MSTORE DUP1 PUSH1 0x27 DUP2 MSTORE PUSH1 0x20 ADD PUSH2 0x3702 PUSH1 0x27 SWAP2 CODECOPY PUSH2 0x29DD JUMP JUMPDEST PUSH1 0x0 DUP2 DUP2 MSTORE PUSH1 0x1 DUP4 ADD PUSH1 0x20 MSTORE PUSH1 0x40 DUP2 KECCAK256 SLOAD ISZERO ISZERO PUSH2 0x14A9 JUMP JUMPDEST PUSH1 0x0 PUSH2 0x14A9 DUP4 DUP4 PUSH2 0x2A55 JUMP JUMPDEST DUP3 PUSH1 0x1 PUSH1 0x1 PUSH1 0xA0 SHL SUB AND PUSH2 0x277F DUP3 PUSH2 0x1BC6 JUMP JUMPDEST PUSH1 0x1 PUSH1 0x1 PUSH1 0xA0 SHL SUB AND EQ PUSH2 0x27A5 JUMPI PUSH1 0x40 MLOAD PUSH3 0x461BCD PUSH1 0xE5 SHL DUP2 MSTORE PUSH1 0x4 ADD PUSH2 0x749 SWAP1 PUSH2 0x35DB JUMP JUMPDEST PUSH1 0x1 PUSH1 0x1 PUSH1 0xA0 SHL SUB DUP3 AND PUSH2 0x2807 JUMPI PUSH1 0x40 MLOAD PUSH3 0x461BCD PUSH1 0xE5 SHL DUP2 MSTORE PUSH1 0x20 PUSH1 0x4 DUP3 ADD MSTORE PUSH1 0x24 DUP1 DUP3 ADD MSTORE PUSH32 0x4552433732313A207472616E7366657220746F20746865207A65726F20616464 PUSH1 0x44 DUP3 ADD MSTORE PUSH4 0x72657373 PUSH1 0xE0 SHL PUSH1 0x64 DUP3 ADD MSTORE PUSH1 0x84 ADD PUSH2 0x749 JUMP JUMPDEST DUP3 PUSH1 0x1 PUSH1 0x1 PUSH1 0xA0 SHL SUB AND PUSH2 0x281A DUP3 PUSH2 0x1BC6 JUMP JUMPDEST PUSH1 0x1 PUSH1 0x1 PUSH1 0xA0 SHL SUB AND EQ PUSH2 0x2840 JUMPI PUSH1 0x40 MLOAD PUSH3 0x461BCD PUSH1 0xE5 SHL DUP2 MSTORE PUSH1 0x4 ADD PUSH2 0x749 SWAP1 PUSH2 0x35DB JUMP JUMPDEST PUSH1 0x0 DUP2 DUP2 MSTORE PUSH1 0x69 PUSH1 0x20 SWAP1 DUP2 MSTORE PUSH1 0x40 DUP1 DUP4 KECCAK256 DUP1 SLOAD PUSH1 0x1 PUSH1 0x1 PUSH1 0xA0 SHL SUB NOT SWAP1 DUP2 AND SWAP1 SWAP2 SSTORE PUSH1 0x1 PUSH1 0x1 PUSH1 0xA0 SHL SUB DUP8 DUP2 AND DUP1 DUP7 MSTORE PUSH1 0x68 DUP6 MSTORE DUP4 DUP7 KECCAK256 DUP1 SLOAD PUSH1 0x0 NOT ADD SWAP1 SSTORE SWAP1 DUP8 AND DUP1 DUP7 MSTORE DUP4 DUP7 KECCAK256 DUP1 SLOAD PUSH1 0x1 ADD SWAP1 SSTORE DUP7 DUP7 MSTORE PUSH1 0x67 SWAP1 SWAP5 MSTORE DUP3 DUP6 KECCAK256 DUP1 SLOAD SWAP1 SWAP3 AND DUP5 OR SWAP1 SWAP2 SSTORE SWAP1 MLOAD DUP5 SWAP4 PUSH32 0xDDF252AD1BE2C89B69C2B068FC378DAA952BA7F163C4A11628F55A4DF523B3EF SWAP2 LOG4 POP POP POP JUMP JUMPDEST PUSH1 0x0 PUSH1 0x1 PUSH1 0x1 PUSH1 0xA0 SHL SUB DUP5 AND EXTCODESIZE ISZERO PUSH2 0x29C6 JUMPI PUSH1 0x40 MLOAD PUSH4 0xA85BD01 PUSH1 0xE1 SHL DUP2 MSTORE PUSH1 0x1 PUSH1 0x1 PUSH1 0xA0 SHL SUB DUP6 AND SWAP1 PUSH4 0x150B7A02 SWAP1 PUSH2 0x2914 SWAP1 CALLER SWAP1 DUP10 SWAP1 DUP9 SWAP1 DUP9 SWAP1 PUSH1 0x4 ADD PUSH2 0x3620 JUMP JUMPDEST PUSH1 0x20 PUSH1 0x40 MLOAD DUP1 DUP4 SUB DUP2 PUSH1 0x0 DUP8 GAS CALL SWAP3 POP POP POP DUP1 ISZERO PUSH2 0x294F JUMPI POP PUSH1 0x40 DUP1 MLOAD PUSH1 0x1F RETURNDATASIZE SWAP1 DUP2 ADD PUSH1 0x1F NOT AND DUP3 ADD SWAP1 SWAP3 MSTORE PUSH2 0x294C SWAP2 DUP2 ADD SWAP1 PUSH2 0x3653 JUMP JUMPDEST PUSH1 0x1 JUMPDEST PUSH2 0x29AC JUMPI RETURNDATASIZE DUP1 DUP1 ISZERO PUSH2 0x297D JUMPI PUSH1 0x40 MLOAD SWAP2 POP PUSH1 0x1F NOT PUSH1 0x3F RETURNDATASIZE ADD AND DUP3 ADD PUSH1 0x40 MSTORE RETURNDATASIZE DUP3 MSTORE RETURNDATASIZE PUSH1 0x0 PUSH1 0x20 DUP5 ADD RETURNDATACOPY PUSH2 0x2982 JUMP JUMPDEST PUSH1 0x60 SWAP2 POP JUMPDEST POP DUP1 MLOAD PUSH1 0x0 SUB PUSH2 0x29A4 JUMPI PUSH1 0x40 MLOAD PUSH3 0x461BCD PUSH1 0xE5 SHL DUP2 MSTORE PUSH1 0x4 ADD PUSH2 0x749 SWAP1 PUSH2 0x351C JUMP JUMPDEST DUP1 MLOAD DUP2 PUSH1 0x20 ADD REVERT JUMPDEST PUSH1 0x1 PUSH1 0x1 PUSH1 0xE0 SHL SUB NOT AND PUSH4 0xA85BD01 PUSH1 0xE1 SHL EQ SWAP1 POP PUSH2 0x1CAC JUMP JUMPDEST POP PUSH1 0x1 SWAP5 SWAP4 POP POP POP POP JUMP JUMPDEST PUSH1 0x0 PUSH2 0x14A9 DUP4 DUP4 PUSH2 0x2B48 JUMP JUMPDEST PUSH1 0x60 PUSH1 0x0 DUP1 DUP6 PUSH1 0x1 PUSH1 0x1 PUSH1 0xA0 SHL SUB AND DUP6 PUSH1 0x40 MLOAD PUSH2 0x29FA SWAP2 SWAP1 PUSH2 0x3670 JUMP JUMPDEST PUSH1 0x0 PUSH1 0x40 MLOAD DUP1 DUP4 SUB DUP2 DUP6 GAS DELEGATECALL SWAP2 POP POP RETURNDATASIZE DUP1 PUSH1 0x0 DUP2 EQ PUSH2 0x2A35 JUMPI PUSH1 0x40 MLOAD SWAP2 POP PUSH1 0x1F NOT PUSH1 0x3F RETURNDATASIZE ADD AND DUP3 ADD PUSH1 0x40 MSTORE RETURNDATASIZE DUP3 MSTORE RETURNDATASIZE PUSH1 0x0 PUSH1 0x20 DUP5 ADD RETURNDATACOPY PUSH2 0x2A3A JUMP JUMPDEST PUSH1 0x60 SWAP2 POP JUMPDEST POP SWAP2 POP SWAP2 POP PUSH2 0x2A4B DUP7 DUP4 DUP4 DUP8 PUSH2 0x2B97 JUMP JUMPDEST SWAP7 SWAP6 POP POP POP POP POP POP JUMP JUMPDEST PUSH1 0x0 DUP2 DUP2 MSTORE PUSH1 0x1 DUP4 ADD PUSH1 0x20 MSTORE PUSH1 0x40 DUP2 KECCAK256 SLOAD DUP1 ISZERO PUSH2 0x2B3E JUMPI PUSH1 0x0 PUSH2 0x2A79 PUSH1 0x1 DUP4 PUSH2 0x368C JUMP JUMPDEST DUP6 SLOAD SWAP1 SWAP2 POP PUSH1 0x0 SWAP1 PUSH2 0x2A8D SWAP1 PUSH1 0x1 SWAP1 PUSH2 0x368C JUMP JUMPDEST SWAP1 POP DUP2 DUP2 EQ PUSH2 0x2AF2 JUMPI PUSH1 0x0 DUP7 PUSH1 0x0 ADD DUP3 DUP2 SLOAD DUP2 LT PUSH2 0x2AAD JUMPI PUSH2 0x2AAD PUSH2 0x35AE JUMP JUMPDEST SWAP1 PUSH1 0x0 MSTORE PUSH1 0x20 PUSH1 0x0 KECCAK256 ADD SLOAD SWAP1 POP DUP1 DUP8 PUSH1 0x0 ADD DUP5 DUP2 SLOAD DUP2 LT PUSH2 0x2AD0 JUMPI PUSH2 0x2AD0 PUSH2 0x35AE JUMP JUMPDEST PUSH1 0x0 SWAP2 DUP3 MSTORE PUSH1 0x20 DUP1 DUP4 KECCAK256 SWAP1 SWAP2 ADD SWAP3 SWAP1 SWAP3 SSTORE SWAP2 DUP3 MSTORE PUSH1 0x1 DUP9 ADD SWAP1 MSTORE PUSH1 0x40 SWAP1 KECCAK256 DUP4 SWAP1 SSTORE JUMPDEST DUP6 SLOAD DUP7 SWAP1 DUP1 PUSH2 0x2B03 JUMPI PUSH2 0x2B03 PUSH2 0x369F JUMP JUMPDEST PUSH1 0x1 SWAP1 SUB DUP2 DUP2 SWAP1 PUSH1 0x0 MSTORE PUSH1 0x20 PUSH1 0x0 KECCAK256 ADD PUSH1 0x0 SWAP1 SSTORE SWAP1 SSTORE DUP6 PUSH1 0x1 ADD PUSH1 0x0 DUP7 DUP2 MSTORE PUSH1 0x20 ADD SWAP1 DUP2 MSTORE PUSH1 0x20 ADD PUSH1 0x0 KECCAK256 PUSH1 0x0 SWAP1 SSTORE PUSH1 0x1 SWAP4 POP POP POP POP PUSH2 0x618 JUMP JUMPDEST PUSH1 0x0 SWAP2 POP POP PUSH2 0x618 JUMP JUMPDEST PUSH1 0x0 DUP2 DUP2 MSTORE PUSH1 0x1 DUP4 ADD PUSH1 0x20 MSTORE PUSH1 0x40 DUP2 KECCAK256 SLOAD PUSH2 0x2B8F JUMPI POP DUP2 SLOAD PUSH1 0x1 DUP2 DUP2 ADD DUP5 SSTORE PUSH1 0x0 DUP5 DUP2 MSTORE PUSH1 0x20 DUP1 DUP3 KECCAK256 SWAP1 SWAP4 ADD DUP5 SWAP1 SSTORE DUP5 SLOAD DUP5 DUP3 MSTORE DUP3 DUP7 ADD SWAP1 SWAP4 MSTORE PUSH1 0x40 SWAP1 KECCAK256 SWAP2 SWAP1 SWAP2 SSTORE PUSH2 0x618 JUMP JUMPDEST POP PUSH1 0x0 PUSH2 0x618 JUMP JUMPDEST PUSH1 0x60 DUP4 ISZERO PUSH2 0x2C06 JUMPI DUP3 MLOAD PUSH1 0x0 SUB PUSH2 0x2BFF JUMPI PUSH1 0x1 PUSH1 0x1 PUSH1 0xA0 SHL SUB DUP6 AND EXTCODESIZE PUSH2 0x2BFF JUMPI PUSH1 0x40 MLOAD PUSH3 0x461BCD PUSH1 0xE5 SHL DUP2 MSTORE PUSH1 0x20 PUSH1 0x4 DUP3 ADD MSTORE PUSH1 0x1D PUSH1 0x24 DUP3 ADD MSTORE PUSH32 0x416464726573733A2063616C6C20746F206E6F6E2D636F6E7472616374000000 PUSH1 0x44 DUP3 ADD MSTORE PUSH1 0x64 ADD PUSH2 0x749 JUMP JUMPDEST POP DUP2 PUSH2 0x1CAC JUMP JUMPDEST PUSH2 0x1CAC DUP4 DUP4 DUP2 MLOAD ISZERO PUSH2 0x2C1B JUMPI DUP2 MLOAD DUP1 DUP4 PUSH1 0x20 ADD REVERT JUMPDEST DUP1 PUSH1 0x40 MLOAD PUSH3 0x461BCD PUSH1 0xE5 SHL DUP2 MSTORE PUSH1 0x4 ADD PUSH2 0x749 SWAP2 SWAP1 PUSH2 0x2D06 JUMP JUMPDEST POP DUP1 SLOAD PUSH2 0x2C41 SWAP1 PUSH2 0x31E0 JUMP JUMPDEST PUSH1 0x0 DUP3 SSTORE DUP1 PUSH1 0x1F LT PUSH2 0x2C51 JUMPI POP POP JUMP JUMPDEST PUSH1 0x1F ADD PUSH1 0x20 SWAP1 DIV SWAP1 PUSH1 0x0 MSTORE PUSH1 0x20 PUSH1 0x0 KECCAK256 SWAP1 DUP2 ADD SWAP1 PUSH2 0xCF6 SWAP2 SWAP1 JUMPDEST DUP1 DUP3 GT ISZERO PUSH2 0x2C7F JUMPI PUSH1 0x0 DUP2 SSTORE PUSH1 0x1 ADD PUSH2 0x2C6B JUMP JUMPDEST POP SWAP1 JUMP JUMPDEST PUSH1 0x1 PUSH1 0x1 PUSH1 0xE0 SHL SUB NOT DUP2 AND DUP2 EQ PUSH2 0xCF6 JUMPI PUSH1 0x0 DUP1 REVERT JUMPDEST PUSH1 0x0 PUSH1 0x20 DUP3 DUP5 SUB SLT ISZERO PUSH2 0x2CAB JUMPI PUSH1 0x0 DUP1 REVERT JUMPDEST DUP2 CALLDATALOAD PUSH2 0x14A9 DUP2 PUSH2 0x2C83 JUMP JUMPDEST PUSH1 0x0 JUMPDEST DUP4 DUP2 LT ISZERO PUSH2 0x2CD1 JUMPI DUP2 DUP2 ADD MLOAD DUP4 DUP3 ADD MSTORE PUSH1 0x20 ADD PUSH2 0x2CB9 JUMP JUMPDEST POP POP PUSH1 0x0 SWAP2 ADD MSTORE JUMP JUMPDEST PUSH1 0x0 DUP2 MLOAD DUP1 DUP5 MSTORE PUSH2 0x2CF2 DUP2 PUSH1 0x20 DUP7 ADD PUSH1 0x20 DUP7 ADD PUSH2 0x2CB6 JUMP JUMPDEST PUSH1 0x1F ADD PUSH1 0x1F NOT AND SWAP3 SWAP1 SWAP3 ADD PUSH1 0x20 ADD SWAP3 SWAP2 POP POP JUMP JUMPDEST PUSH1 0x20 DUP2 MSTORE PUSH1 0x0 PUSH2 0x14A9 PUSH1 0x20 DUP4 ADD DUP5 PUSH2 0x2CDA JUMP JUMPDEST PUSH4 0x4E487B71 PUSH1 0xE0 SHL PUSH1 0x0 MSTORE PUSH1 0x41 PUSH1 0x4 MSTORE PUSH1 0x24 PUSH1 0x0 REVERT JUMPDEST PUSH1 0x40 MLOAD PUSH1 0xC0 DUP2 ADD PUSH8 0xFFFFFFFFFFFFFFFF DUP2 GT DUP3 DUP3 LT OR ISZERO PUSH2 0x2D52 JUMPI PUSH2 0x2D52 PUSH2 0x2D19 JUMP JUMPDEST PUSH1 0x40 MSTORE SWAP1 JUMP JUMPDEST PUSH1 0x0 DUP3 PUSH1 0x1F DUP4 ADD SLT PUSH2 0x2D69 JUMPI PUSH1 0x0 DUP1 REVERT JUMPDEST DUP2 CALLDATALOAD PUSH8 0xFFFFFFFFFFFFFFFF DUP1 DUP3 GT ISZERO PUSH2 0x2D84 JUMPI PUSH2 0x2D84 PUSH2 0x2D19 JUMP JUMPDEST PUSH1 0x40 MLOAD PUSH1 0x1F DUP4 ADD PUSH1 0x1F NOT SWAP1 DUP2 AND PUSH1 0x3F ADD AND DUP2 ADD SWAP1 DUP3 DUP3 GT DUP2 DUP4 LT OR ISZERO PUSH2 0x2DAC JUMPI PUSH2 0x2DAC PUSH2 0x2D19 JUMP JUMPDEST DUP2 PUSH1 0x40 MSTORE DUP4 DUP2 MSTORE DUP7 PUSH1 0x20 DUP6 DUP9 ADD ADD GT ISZERO PUSH2 0x2DC5 JUMPI PUSH1 0x0 DUP1 REVERT JUMPDEST DUP4 PUSH1 0x20 DUP8 ADD PUSH1 0x20 DUP4 ADD CALLDATACOPY PUSH1 0x0 PUSH1 0x20 DUP6 DUP4 ADD ADD MSTORE DUP1 SWAP5 POP POP POP POP POP SWAP3 SWAP2 POP POP JUMP JUMPDEST DUP1 CALLDATALOAD PUSH1 0x1 PUSH1 0x1 PUSH1 0xA0 SHL SUB DUP2 AND DUP2 EQ PUSH2 0x2DFC JUMPI PUSH1 0x0 DUP1 REVERT JUMPDEST SWAP2 SWAP1 POP JUMP JUMPDEST PUSH1 0x0 DUP1 PUSH1 0x0 PUSH1 0x60 DUP5 DUP7 SUB SLT ISZERO PUSH2 0x2E16 JUMPI PUSH1 0x0 DUP1 REVERT JUMPDEST DUP4 CALLDATALOAD PUSH8 0xFFFFFFFFFFFFFFFF DUP1 DUP3 GT ISZERO PUSH2 0x2E2E JUMPI PUSH1 0x0 DUP1 REVERT JUMPDEST PUSH2 0x2E3A DUP8 DUP4 DUP9 ADD PUSH2 0x2D58 JUMP JUMPDEST SWAP5 POP PUSH1 0x20 DUP7 ADD CALLDATALOAD SWAP2 POP DUP1 DUP3 GT ISZERO PUSH2 0x2E50 JUMPI PUSH1 0x0 DUP1 REVERT JUMPDEST POP PUSH2 0x2E5D DUP7 DUP3 DUP8 ADD PUSH2 0x2D58 JUMP JUMPDEST SWAP3 POP POP PUSH2 0x2E6C PUSH1 0x40 DUP6 ADD PUSH2 0x2DE5 JUMP JUMPDEST SWAP1 POP SWAP3 POP SWAP3 POP SWAP3 JUMP JUMPDEST PUSH1 0x0 PUSH1 0x20 DUP3 DUP5 SUB SLT ISZERO PUSH2 0x2E87 JUMPI PUSH1 0x0 DUP1 REVERT JUMPDEST POP CALLDATALOAD SWAP2 SWAP1 POP JUMP JUMPDEST PUSH1 0x0 DUP1 PUSH1 0x40 DUP4 DUP6 SUB SLT ISZERO PUSH2 0x2EA1 JUMPI PUSH1 0x0 DUP1 REVERT JUMPDEST PUSH2 0x2EAA DUP4 PUSH2 0x2DE5 JUMP JUMPDEST SWAP5 PUSH1 0x20 SWAP4 SWAP1 SWAP4 ADD CALLDATALOAD SWAP4 POP POP POP JUMP JUMPDEST PUSH1 0x20 DUP2 MSTORE DUP2 MLOAD PUSH1 0x20 DUP3 ADD MSTORE PUSH1 0x0 PUSH1 0x20 DUP4 ADD MLOAD PUSH1 0x1 DUP1 PUSH1 0xA0 SHL SUB DUP1 DUP3 AND PUSH1 0x40 DUP6 ADD MSTORE PUSH4 0xFFFFFFFF PUSH1 0x40 DUP7 ADD MLOAD AND PUSH1 0x60 DUP6 ADD MSTORE PUSH1 0x60 DUP6 ADD MLOAD SWAP2 POP PUSH1 0xC0 PUSH1 0x80 DUP6 ADD MSTORE PUSH2 0x2F04 PUSH1 0xE0 DUP6 ADD DUP4 PUSH2 0x2CDA JUMP JUMPDEST SWAP2 POP PUSH1 0x80 DUP6 ADD MLOAD PUSH1 0x1F NOT DUP6 DUP5 SUB ADD PUSH1 0xA0 DUP7 ADD MSTORE PUSH2 0x2F21 DUP4 DUP3 PUSH2 0x2CDA JUMP JUMPDEST SWAP3 POP POP DUP1 PUSH1 0xA0 DUP7 ADD MLOAD AND PUSH1 0xC0 DUP6 ADD MSTORE POP DUP1 SWAP2 POP POP SWAP3 SWAP2 POP POP JUMP JUMPDEST PUSH1 0x0 DUP1 PUSH1 0x0 PUSH1 0x60 DUP5 DUP7 SUB SLT ISZERO PUSH2 0x2F50 JUMPI PUSH1 0x0 DUP1 REVERT JUMPDEST PUSH2 0x2F59 DUP5 PUSH2 0x2DE5 JUMP JUMPDEST SWAP3 POP PUSH2 0x2F67 PUSH1 0x20 DUP6 ADD PUSH2 0x2DE5 JUMP JUMPDEST SWAP2 POP PUSH1 0x40 DUP5 ADD CALLDATALOAD SWAP1 POP SWAP3 POP SWAP3 POP SWAP3 JUMP JUMPDEST PUSH1 0x0 PUSH1 0x20 DUP3 DUP5 SUB SLT ISZERO PUSH2 0x2F89 JUMPI PUSH1 0x0 DUP1 REVERT JUMPDEST PUSH2 0x14A9 DUP3 PUSH2 0x2DE5 JUMP JUMPDEST PUSH1 0x0 DUP1 PUSH1 0x40 DUP4 DUP6 SUB SLT ISZERO PUSH2 0x2FA5 JUMPI PUSH1 0x0 DUP1 REVERT JUMPDEST DUP3 CALLDATALOAD SWAP2 POP PUSH2 0x2FB5 PUSH1 0x20 DUP5 ADD PUSH2 0x2DE5 JUMP JUMPDEST SWAP1 POP SWAP3 POP SWAP3 SWAP1 POP JUMP JUMPDEST PUSH1 0x0 DUP1 PUSH1 0x40 DUP4 DUP6 SUB SLT ISZERO PUSH2 0x2FD1 JUMPI PUSH1 0x0 DUP1 REVERT JUMPDEST PUSH2 0x2FDA DUP4 PUSH2 0x2DE5 JUMP JUMPDEST SWAP2 POP PUSH1 0x20 DUP4 ADD CALLDATALOAD PUSH8 0xFFFFFFFFFFFFFFFF DUP2 GT ISZERO PUSH2 0x2FF6 JUMPI PUSH1 0x0 DUP1 REVERT JUMPDEST PUSH2 0x3002 DUP6 DUP3 DUP7 ADD PUSH2 0x2D58 JUMP JUMPDEST SWAP2 POP POP SWAP3 POP SWAP3 SWAP1 POP JUMP JUMPDEST DUP1 ISZERO ISZERO DUP2 EQ PUSH2 0xCF6 JUMPI PUSH1 0x0 DUP1 REVERT JUMPDEST PUSH1 0x0 DUP1 PUSH1 0x40 DUP4 DUP6 SUB SLT ISZERO PUSH2 0x302D JUMPI PUSH1 0x0 DUP1 REVERT JUMPDEST PUSH2 0x3036 DUP4 PUSH2 0x2DE5 JUMP JUMPDEST SWAP2 POP PUSH1 0x20 DUP4 ADD CALLDATALOAD PUSH2 0x3046 DUP2 PUSH2 0x300C JUMP JUMPDEST DUP1 SWAP2 POP POP SWAP3 POP SWAP3 SWAP1 POP JUMP JUMPDEST PUSH1 0x0 DUP1 PUSH1 0x0 DUP1 PUSH1 0x80 DUP6 DUP8 SUB SLT ISZERO PUSH2 0x3067 JUMPI PUSH1 0x0 DUP1 REVERT JUMPDEST PUSH2 0x3070 DUP6 PUSH2 0x2DE5 JUMP JUMPDEST SWAP4 POP PUSH2 0x307E PUSH1 0x20 DUP7 ADD PUSH2 0x2DE5 JUMP JUMPDEST SWAP3 POP PUSH1 0x40 DUP6 ADD CALLDATALOAD SWAP2 POP PUSH1 0x60 DUP6 ADD CALLDATALOAD PUSH8 0xFFFFFFFFFFFFFFFF DUP2 GT ISZERO PUSH2 0x30A1 JUMPI PUSH1 0x0 DUP1 REVERT JUMPDEST PUSH2 0x30AD DUP8 DUP3 DUP9 ADD PUSH2 0x2D58 JUMP JUMPDEST SWAP2 POP POP SWAP3 SWAP6 SWAP2 SWAP5 POP SWAP3 POP JUMP JUMPDEST PUSH1 0x0 DUP1 PUSH1 0x40 DUP4 DUP6 SUB SLT ISZERO PUSH2 0x30CC JUMPI PUSH1 0x0 DUP1 REVERT JUMPDEST PUSH2 0x30D5 DUP4 PUSH2 0x2DE5 JUMP JUMPDEST SWAP2 POP PUSH2 0x2FB5 PUSH1 0x20 DUP5 ADD PUSH2 0x2DE5 JUMP JUMPDEST DUP1 CALLDATALOAD PUSH4 0xFFFFFFFF DUP2 AND DUP2 EQ PUSH2 0x2DFC JUMPI PUSH1 0x0 DUP1 REVERT JUMPDEST PUSH1 0x0 DUP1 PUSH1 0x40 DUP4 DUP6 SUB SLT ISZERO PUSH2 0x310A JUMPI PUSH1 0x0 DUP1 REVERT JUMPDEST DUP3 CALLDATALOAD PUSH8 0xFFFFFFFFFFFFFFFF DUP1 DUP3 GT ISZERO PUSH2 0x3122 JUMPI PUSH1 0x0 DUP1 REVERT JUMPDEST SWAP1 DUP5 ADD SWAP1 PUSH1 0xC0 DUP3 DUP8 SUB SLT ISZERO PUSH2 0x3136 JUMPI PUSH1 0x0 DUP1 REVERT JUMPDEST PUSH2 0x313E PUSH2 0x2D2F JUMP JUMPDEST DUP3 CALLDATALOAD DUP2 MSTORE PUSH2 0x314E PUSH1 0x20 DUP5 ADD PUSH2 0x2DE5 JUMP JUMPDEST PUSH1 0x20 DUP3 ADD MSTORE PUSH2 0x315F PUSH1 0x40 DUP5 ADD PUSH2 0x30E3 JUMP JUMPDEST PUSH1 0x40 DUP3 ADD MSTORE PUSH1 0x60 DUP4 ADD CALLDATALOAD DUP3 DUP2 GT ISZERO PUSH2 0x3176 JUMPI PUSH1 0x0 DUP1 REVERT JUMPDEST PUSH2 0x3182 DUP9 DUP3 DUP7 ADD PUSH2 0x2D58 JUMP JUMPDEST PUSH1 0x60 DUP4 ADD MSTORE POP PUSH1 0x80 DUP4 ADD CALLDATALOAD DUP3 DUP2 GT ISZERO PUSH2 0x319A JUMPI PUSH1 0x0 DUP1 REVERT JUMPDEST PUSH2 0x31A6 DUP9 DUP3 DUP7 ADD PUSH2 0x2D58 JUMP JUMPDEST PUSH1 0x80 DUP4 ADD MSTORE POP PUSH2 0x31B8 PUSH1 0xA0 DUP5 ADD PUSH2 0x2DE5 JUMP JUMPDEST PUSH1 0xA0 DUP3 ADD MSTORE SWAP4 POP PUSH1 0x20 DUP6 ADD CALLDATALOAD SWAP2 POP DUP1 DUP3 GT ISZERO PUSH2 0x31D3 JUMPI PUSH1 0x0 DUP1 REVERT JUMPDEST POP PUSH2 0x3002 DUP6 DUP3 DUP7 ADD PUSH2 0x2D58 JUMP JUMPDEST PUSH1 0x1 DUP2 DUP2 SHR SWAP1 DUP3 AND DUP1 PUSH2 0x31F4 JUMPI PUSH1 0x7F DUP3 AND SWAP2 POP JUMPDEST PUSH1 0x20 DUP3 LT DUP2 SUB PUSH2 0x3214 JUMPI PUSH4 0x4E487B71 PUSH1 0xE0 SHL PUSH1 0x0 MSTORE PUSH1 0x22 PUSH1 0x4 MSTORE PUSH1 0x24 PUSH1 0x0 REVERT JUMPDEST POP SWAP2 SWAP1 POP JUMP JUMPDEST PUSH1 0x20 DUP1 DUP3 MSTORE PUSH1 0x2C SWAP1 DUP3 ADD MSTORE PUSH32 0x46756E6374696F6E206D7573742062652063616C6C6564207468726F75676820 PUSH1 0x40 DUP3 ADD MSTORE PUSH12 0x19195B1959D85D1958D85B1B PUSH1 0xA2 SHL PUSH1 0x60 DUP3 ADD MSTORE PUSH1 0x80 ADD SWAP1 JUMP JUMPDEST PUSH1 0x20 DUP1 DUP3 MSTORE PUSH1 0x2C SWAP1 DUP3 ADD MSTORE PUSH32 0x46756E6374696F6E206D7573742062652063616C6C6564207468726F75676820 PUSH1 0x40 DUP3 ADD MSTORE PUSH12 0x6163746976652070726F7879 PUSH1 0xA0 SHL PUSH1 0x60 DUP3 ADD MSTORE PUSH1 0x80 ADD SWAP1 JUMP JUMPDEST PUSH1 0x0 PUSH1 0x20 DUP3 DUP5 SUB SLT ISZERO PUSH2 0x32C4 JUMPI PUSH1 0x0 DUP1 REVERT JUMPDEST DUP2 MLOAD PUSH2 0x14A9 DUP2 PUSH2 0x300C JUMP JUMPDEST PUSH1 0x20 DUP1 DUP3 MSTORE PUSH1 0x22 SWAP1 DUP3 ADD MSTORE PUSH32 0x696E76616C696420726573706F6E73652066726F6D20646174612073746F7261 PUSH1 0x40 DUP3 ADD MSTORE PUSH2 0x6765 PUSH1 0xF0 SHL PUSH1 0x60 DUP3 ADD MSTORE PUSH1 0x80 ADD SWAP1 JUMP JUMPDEST PUSH1 0x1F DUP3 GT ISZERO PUSH2 0x925 JUMPI PUSH1 0x0 DUP2 DUP2 MSTORE PUSH1 0x20 DUP2 KECCAK256 PUSH1 0x1F DUP6 ADD PUSH1 0x5 SHR DUP2 ADD PUSH1 0x20 DUP7 LT ISZERO PUSH2 0x3338 JUMPI POP DUP1 JUMPDEST PUSH1 0x1F DUP6 ADD PUSH1 0x5 SHR DUP3 ADD SWAP2 POP JUMPDEST DUP2 DUP2 LT ISZERO PUSH2 0x3357 JUMPI DUP3 DUP2 SSTORE PUSH1 0x1 ADD PUSH2 0x3344 JUMP JUMPDEST POP POP POP POP POP POP JUMP JUMPDEST DUP2 MLOAD PUSH8 0xFFFFFFFFFFFFFFFF DUP2 GT ISZERO PUSH2 0x3379 JUMPI PUSH2 0x3379 PUSH2 0x2D19 JUMP JUMPDEST PUSH2 0x338D DUP2 PUSH2 0x3387 DUP5 SLOAD PUSH2 0x31E0 JUMP JUMPDEST DUP5 PUSH2 0x3311 JUMP JUMPDEST PUSH1 0x20 DUP1 PUSH1 0x1F DUP4 GT PUSH1 0x1 DUP2 EQ PUSH2 0x33C2 JUMPI PUSH1 0x0 DUP5 ISZERO PUSH2 0x33AA JUMPI POP DUP6 DUP4 ADD MLOAD JUMPDEST PUSH1 0x0 NOT PUSH1 0x3 DUP7 SWAP1 SHL SHR NOT AND PUSH1 0x1 DUP6 SWAP1 SHL OR DUP6 SSTORE PUSH2 0x3357 JUMP JUMPDEST PUSH1 0x0 DUP6 DUP2 MSTORE PUSH1 0x20 DUP2 KECCAK256 PUSH1 0x1F NOT DUP7 AND SWAP2 JUMPDEST DUP3 DUP2 LT ISZERO PUSH2 0x33F1 JUMPI DUP9 DUP7 ADD MLOAD DUP3 SSTORE SWAP5 DUP5 ADD SWAP5 PUSH1 0x1 SWAP1 SWAP2 ADD SWAP1 DUP5 ADD PUSH2 0x33D2 JUMP JUMPDEST POP DUP6 DUP3 LT ISZERO PUSH2 0x340F JUMPI DUP8 DUP6 ADD MLOAD PUSH1 0x0 NOT PUSH1 0x3 DUP9 SWAP1 SHL PUSH1 0xF8 AND SHR NOT AND DUP2 SSTORE JUMPDEST POP POP POP POP POP PUSH1 0x1 SWAP1 DUP2 SHL ADD SWAP1 SSTORE POP JUMP JUMPDEST PUSH1 0x1 PUSH1 0x1 PUSH1 0xA0 SHL SUB DUP4 AND DUP2 MSTORE PUSH1 0x40 PUSH1 0x20 DUP3 ADD DUP2 SWAP1 MSTORE PUSH1 0x0 SWAP1 PUSH2 0x1CAC SWAP1 DUP4 ADD DUP5 PUSH2 0x2CDA JUMP JUMPDEST PUSH1 0x20 DUP1 DUP3 MSTORE PUSH1 0x2B SWAP1 DUP3 ADD MSTORE PUSH32 0x496E697469616C697A61626C653A20636F6E7472616374206973206E6F742069 PUSH1 0x40 DUP3 ADD MSTORE PUSH11 0x6E697469616C697A696E67 PUSH1 0xA8 SHL PUSH1 0x60 DUP3 ADD MSTORE PUSH1 0x80 ADD SWAP1 JUMP JUMPDEST PUSH1 0x0 PUSH1 0x20 DUP3 DUP5 SUB SLT ISZERO PUSH2 0x34A0 JUMPI PUSH1 0x0 DUP1 REVERT JUMPDEST POP MLOAD SWAP2 SWAP1 POP JUMP JUMPDEST PUSH32 0x416363657373436F6E74726F6C3A206163636F756E7420000000000000000000 DUP2 MSTORE PUSH1 0x0 DUP4 MLOAD PUSH2 0x34DF DUP2 PUSH1 0x17 DUP6 ADD PUSH1 0x20 DUP9 ADD PUSH2 0x2CB6 JUMP JUMPDEST PUSH17 0x1034B99036B4B9B9B4B733903937B6329 PUSH1 0x7D SHL PUSH1 0x17 SWAP2 DUP5 ADD SWAP2 DUP3 ADD MSTORE DUP4 MLOAD PUSH2 0x3510 DUP2 PUSH1 0x28 DUP5 ADD PUSH1 0x20 DUP9 ADD PUSH2 0x2CB6 JUMP JUMPDEST ADD PUSH1 0x28 ADD SWAP5 SWAP4 POP POP POP POP JUMP JUMPDEST PUSH1 0x20 DUP1 DUP3 MSTORE PUSH1 0x32 SWAP1 DUP3 ADD MSTORE PUSH32 0x4552433732313A207472616E7366657220746F206E6F6E204552433732315265 PUSH1 0x40 DUP3 ADD MSTORE PUSH18 0x31B2B4BB32B91034B6B83632B6B2B73A32B9 PUSH1 0x71 SHL PUSH1 0x60 DUP3 ADD MSTORE PUSH1 0x80 ADD SWAP1 JUMP JUMPDEST PUSH4 0x4E487B71 PUSH1 0xE0 SHL PUSH1 0x0 MSTORE PUSH1 0x11 PUSH1 0x4 MSTORE PUSH1 0x24 PUSH1 0x0 REVERT JUMPDEST DUP1 DUP3 MUL DUP2 ISZERO DUP3 DUP3 DIV DUP5 EQ OR PUSH2 0x618 JUMPI PUSH2 0x618 PUSH2 0x356E JUMP JUMPDEST DUP1 DUP3 ADD DUP1 DUP3 GT ISZERO PUSH2 0x618 JUMPI PUSH2 0x618 PUSH2 0x356E JUMP JUMPDEST PUSH4 0x4E487B71 PUSH1 0xE0 SHL PUSH1 0x0 MSTORE PUSH1 0x32 PUSH1 0x4 MSTORE PUSH1 0x24 PUSH1 0x0 REVERT JUMPDEST PUSH1 0x0 DUP2 PUSH2 0x35D3 JUMPI PUSH2 0x35D3 PUSH2 0x356E JUMP JUMPDEST POP PUSH1 0x0 NOT ADD SWAP1 JUMP JUMPDEST PUSH1 0x20 DUP1 DUP3 MSTORE PUSH1 0x25 SWAP1 DUP3 ADD MSTORE PUSH32 0x4552433732313A207472616E736665722066726F6D20696E636F727265637420 PUSH1 0x40 DUP3 ADD MSTORE PUSH5 0x37BBB732B9 PUSH1 0xD9 SHL PUSH1 0x60 DUP3 ADD MSTORE PUSH1 0x80 ADD SWAP1 JUMP JUMPDEST PUSH1 0x1 PUSH1 0x1 PUSH1 0xA0 SHL SUB DUP6 DUP2 AND DUP3 MSTORE DUP5 AND PUSH1 0x20 DUP3 ADD MSTORE PUSH1 0x40 DUP2 ADD DUP4 SWAP1 MSTORE PUSH1 0x80 PUSH1 0x60 DUP3 ADD DUP2 SWAP1 MSTORE PUSH1 0x0 SWAP1 PUSH2 0x2A4B SWAP1 DUP4 ADD DUP5 PUSH2 0x2CDA JUMP JUMPDEST PUSH1 0x0 PUSH1 0x20 DUP3 DUP5 SUB SLT ISZERO PUSH2 0x3665 JUMPI PUSH1 0x0 DUP1 REVERT JUMPDEST DUP2 MLOAD PUSH2 0x14A9 DUP2 PUSH2 0x2C83 JUMP JUMPDEST PUSH1 0x0 DUP3 MLOAD PUSH2 0x3682 DUP2 DUP5 PUSH1 0x20 DUP8 ADD PUSH2 0x2CB6 JUMP JUMPDEST SWAP2 SWAP1 SWAP2 ADD SWAP3 SWAP2 POP POP JUMP JUMPDEST DUP2 DUP2 SUB DUP2 DUP2 GT ISZERO PUSH2 0x618 JUMPI PUSH2 0x618 PUSH2 0x356E JUMP JUMPDEST PUSH4 0x4E487B71 PUSH1 0xE0 SHL PUSH1 0x0 MSTORE PUSH1 0x31 PUSH1 0x4 MSTORE PUSH1 0x24 PUSH1 0x0 REVERT INVALID SLOAD PUSH9 0x652077616C6C657420 PUSH5 0x6F6573206E PUSH16 0x742068617665206120636F6D706C6574 PUSH6 0x642070726F66 PUSH10 0x6C65360894A13BA1A321 MOD PUSH8 0xC828492DB98DCA3E KECCAK256 PUSH23 0xCC3735A920A3CA505D382BBC416464726573733A206C6F PUSH24 0x2D6C6576656C2064656C65676174652063616C6C20666169 PUSH13 0x6564A264697066735822122002 0xED DUP6 0xB0 0xB5 DELEGATECALL 0xD6 DUP14 0x5F SHR ORIGIN DUP8 LOG1 PUSH7 0xBB2D66CFE83152 DUP7 0xE1 0xED SIGNEXTEND 0xEC 0xB0 CALLVALUE PUSH21 0xB8E97964736F6C6343000813003300000000000000 "},"methodIdentifiers":{"DEFAULT_ADMIN_ROLE()":"a217fddf","approve(address,uint256)":"095ea7b3","balanceOf(address)":"70a08231","burn()":"44df8e70","getApproved(uint256)":"081812fc","getRoleAdmin(bytes32)":"248a9ca3","getUserProfile(uint256)":"1f52b76c","grantRole(bytes32,address)":"2f2ff15d","hasRole(bytes32,address)":"91d14854","initialize(string,string,address)":"077f224a","isAdmin(address)":"24d7806c","isApprovedForAll(address,address)":"e985e9c5","mint((bytes32,address,uint32,bytes,string,address),string)":"faf4a931","name()":"06fdde03","owner()":"8da5cb5b","ownerOf(uint256)":"6352211e","proxiableUUID()":"52d1902d","renounceOwnership()":"715018a6","renounceRole(bytes32,address)":"36568abe","revokeRole(bytes32,address)":"d547741f","safeTransferFrom(address,address,uint256)":"42842e0e","safeTransferFrom(address,address,uint256,bytes)":"b88d4fde","setApprovalForAll(address,bool)":"a22cb465","setDataStorageProvider(address)":"5dc4fe7e","supportsInterface(bytes4)":"01ffc9a7","symbol()":"95d89b41","tokenIdOf(address)":"773c02d4","tokenURI(uint256)":"c87b56dd","totalSupply()":"18160ddd","transferFrom(address,address,uint256)":"23b872dd","transferOwnership(address)":"f2fde38b","upgradeTo(address)":"3659cfe6","upgradeToAndCall(address,bytes)":"4f1ef286"}},"storageLayout":{"storage":[{"astId":912,"contract":"contracts/Profile.sol:Profile","label":"_initialized","offset":0,"slot":"0","type":"t_uint8"},{"astId":915,"contract":"contracts/Profile.sol:Profile","label":"_initializing","offset":1,"slot":"0","type":"t_bool"},{"astId":3099,"contract":"contracts/Profile.sol:Profile","label":"__gap","offset":0,"slot":"1","type":"t_array(t_uint256)50_storage"},{"astId":3556,"contract":"contracts/Profile.sol:Profile","label":"__gap","offset":0,"slot":"51","type":"t_array(t_uint256)50_storage"},{"astId":1239,"contract":"contracts/Profile.sol:Profile","label":"_name","offset":0,"slot":"101","type":"t_string_storage"},{"astId":1241,"contract":"contracts/Profile.sol:Profile","label":"_symbol","offset":0,"slot":"102","type":"t_string_storage"},{"astId":1245,"contract":"contracts/Profile.sol:Profile","label":"_owners","offset":0,"slot":"103","type":"t_mapping(t_uint256,t_address)"},{"astId":1249,"contract":"contracts/Profile.sol:Profile","label":"_balances","offset":0,"slot":"104","type":"t_mapping(t_address,t_uint256)"},{"astId":1253,"contract":"contracts/Profile.sol:Profile","label":"_tokenApprovals","offset":0,"slot":"105","type":"t_mapping(t_uint256,t_address)"},{"astId":1259,"contract":"contracts/Profile.sol:Profile","label":"_operatorApprovals","offset":0,"slot":"106","type":"t_mapping(t_address,t_mapping(t_address,t_bool))"},{"astId":2161,"contract":"contracts/Profile.sol:Profile","label":"__gap","offset":0,"slot":"107","type":"t_array(t_uint256)44_storage"},{"astId":419,"contract":"contracts/Profile.sol:Profile","label":"_owner","offset":0,"slot":"151","type":"t_address"},{"astId":539,"contract":"contracts/Profile.sol:Profile","label":"__gap","offset":0,"slot":"152","type":"t_array(t_uint256)49_storage"},{"astId":39,"contract":"contracts/Profile.sol:Profile","label":"_roles","offset":0,"slot":"201","type":"t_mapping(t_bytes32,t_struct(RoleData)34_storage)"},{"astId":334,"contract":"contracts/Profile.sol:Profile","label":"__gap","offset":0,"slot":"202","type":"t_array(t_uint256)49_storage"},{"astId":894,"contract":"contracts/Profile.sol:Profile","label":"__gap","offset":0,"slot":"251","type":"t_array(t_uint256)50_storage"},{"astId":1209,"contract":"contracts/Profile.sol:Profile","label":"__gap","offset":0,"slot":"301","type":"t_array(t_uint256)50_storage"},{"astId":6453,"contract":"contracts/Profile.sol:Profile","label":"_ownerMap","offset":0,"slot":"351","type":"t_struct(UintToAddressMap)5039_storage"},{"astId":6456,"contract":"contracts/Profile.sol:Profile","label":"_tokenMap","offset":0,"slot":"354","type":"t_struct(AddressToUintMap)5306_storage"},{"astId":6459,"contract":"contracts/Profile.sol:Profile","label":"_tokenId","offset":0,"slot":"357","type":"t_struct(Counter)3106_storage"},{"astId":6464,"contract":"contracts/Profile.sol:Profile","label":"_dataStorageProviders","offset":0,"slot":"358","type":"t_mapping(t_address,t_contract(IDataStorageCartridge)7065)"},{"astId":6482,"contract":"contracts/Profile.sol:Profile","label":"_profiles","offset":0,"slot":"359","type":"t_mapping(t_address,t_struct(UserProfile)6477_storage)"}],"types":{"t_address":{"encoding":"inplace","label":"address","numberOfBytes":"20"},"t_array(t_bytes32)dyn_storage":{"base":"t_bytes32","encoding":"dynamic_array","label":"bytes32[]","numberOfBytes":"32"},"t_array(t_uint256)44_storage":{"base":"t_uint256","encoding":"inplace","label":"uint256[44]","numberOfBytes":"1408"},"t_array(t_uint256)49_storage":{"base":"t_uint256","encoding":"inplace","label":"uint256[49]","numberOfBytes":"1568"},"t_array(t_uint256)50_storage":{"base":"t_uint256","encoding":"inplace","label":"uint256[50]","numberOfBytes":"1600"},"t_bool":{"encoding":"inplace","label":"bool","numberOfBytes":"1"},"t_bytes32":{"encoding":"inplace","label":"bytes32","numberOfBytes":"32"},"t_bytes_storage":{"encoding":"bytes","label":"bytes","numberOfBytes":"32"},"t_contract(IDataStorageCartridge)7065":{"encoding":"inplace","label":"contract IDataStorageCartridge","numberOfBytes":"20"},"t_mapping(t_address,t_bool)":{"encoding":"mapping","key":"t_address","label":"mapping(address => bool)","numberOfBytes":"32","value":"t_bool"},"t_mapping(t_address,t_contract(IDataStorageCartridge)7065)":{"encoding":"mapping","key":"t_address","label":"mapping(address => contract IDataStorageCartridge)","numberOfBytes":"32","value":"t_contract(IDataStorageCartridge)7065"},"t_mapping(t_address,t_mapping(t_address,t_bool))":{"encoding":"mapping","key":"t_address","label":"mapping(address => mapping(address => bool))","numberOfBytes":"32","value":"t_mapping(t_address,t_bool)"},"t_mapping(t_address,t_struct(UserProfile)6477_storage)":{"encoding":"mapping","key":"t_address","label":"mapping(address => struct Profile.UserProfile)","numberOfBytes":"32","value":"t_struct(UserProfile)6477_storage"},"t_mapping(t_address,t_uint256)":{"encoding":"mapping","key":"t_address","label":"mapping(address => uint256)","numberOfBytes":"32","value":"t_uint256"},"t_mapping(t_bytes32,t_bytes32)":{"encoding":"mapping","key":"t_bytes32","label":"mapping(bytes32 => bytes32)","numberOfBytes":"32","value":"t_bytes32"},"t_mapping(t_bytes32,t_struct(RoleData)34_storage)":{"encoding":"mapping","key":"t_bytes32","label":"mapping(bytes32 => struct AccessControlUpgradeable.RoleData)","numberOfBytes":"32","value":"t_struct(RoleData)34_storage"},"t_mapping(t_bytes32,t_uint256)":{"encoding":"mapping","key":"t_bytes32","label":"mapping(bytes32 => uint256)","numberOfBytes":"32","value":"t_uint256"},"t_mapping(t_uint256,t_address)":{"encoding":"mapping","key":"t_uint256","label":"mapping(uint256 => address)","numberOfBytes":"32","value":"t_address"},"t_string_storage":{"encoding":"bytes","label":"string","numberOfBytes":"32"},"t_struct(AddressToUintMap)5306_storage":{"encoding":"inplace","label":"struct EnumerableMapUpgradeable.AddressToUintMap","members":[{"astId":5305,"contract":"contracts/Profile.sol:Profile","label":"_inner","offset":0,"slot":"0","type":"t_struct(Bytes32ToBytes32Map)4556_storage"}],"numberOfBytes":"96"},"t_struct(Bytes32Set)6003_storage":{"encoding":"inplace","label":"struct EnumerableSetUpgradeable.Bytes32Set","members":[{"astId":6002,"contract":"contracts/Profile.sol:Profile","label":"_inner","offset":0,"slot":"0","type":"t_struct(Set)5809_storage"}],"numberOfBytes":"64"},"t_struct(Bytes32ToBytes32Map)4556_storage":{"encoding":"inplace","label":"struct EnumerableMapUpgradeable.Bytes32ToBytes32Map","members":[{"astId":4551,"contract":"contracts/Profile.sol:Profile","label":"_keys","offset":0,"slot":"0","type":"t_struct(Bytes32Set)6003_storage"},{"astId":4555,"contract":"contracts/Profile.sol:Profile","label":"_values","offset":0,"slot":"2","type":"t_mapping(t_bytes32,t_bytes32)"}],"numberOfBytes":"96"},"t_struct(Counter)3106_storage":{"encoding":"inplace","label":"struct CountersUpgradeable.Counter","members":[{"astId":3105,"contract":"contracts/Profile.sol:Profile","label":"_value","offset":0,"slot":"0","type":"t_uint256"}],"numberOfBytes":"32"},"t_struct(RoleData)34_storage":{"encoding":"inplace","label":"struct AccessControlUpgradeable.RoleData","members":[{"astId":31,"contract":"contracts/Profile.sol:Profile","label":"members","offset":0,"slot":"0","type":"t_mapping(t_address,t_bool)"},{"astId":33,"contract":"contracts/Profile.sol:Profile","label":"adminRole","offset":0,"slot":"1","type":"t_bytes32"}],"numberOfBytes":"64"},"t_struct(Set)5809_storage":{"encoding":"inplace","label":"struct EnumerableSetUpgradeable.Set","members":[{"astId":5804,"contract":"contracts/Profile.sol:Profile","label":"_values","offset":0,"slot":"0","type":"t_array(t_bytes32)dyn_storage"},{"astId":5808,"contract":"contracts/Profile.sol:Profile","label":"_indexes","offset":0,"slot":"1","type":"t_mapping(t_bytes32,t_uint256)"}],"numberOfBytes":"64"},"t_struct(UintToAddressMap)5039_storage":{"encoding":"inplace","label":"struct EnumerableMapUpgradeable.UintToAddressMap","members":[{"astId":5038,"contract":"contracts/Profile.sol:Profile","label":"_inner","offset":0,"slot":"0","type":"t_struct(Bytes32ToBytes32Map)4556_storage"}],"numberOfBytes":"96"},"t_struct(UserProfile)6477_storage":{"encoding":"inplace","label":"struct Profile.UserProfile","members":[{"astId":6466,"contract":"contracts/Profile.sol:Profile","label":"checksum","offset":0,"slot":"0","type":"t_bytes32"},{"astId":6468,"contract":"contracts/Profile.sol:Profile","label":"issuedBy","offset":0,"slot":"1","type":"t_address"},{"astId":6470,"contract":"contracts/Profile.sol:Profile","label":"issuedAt","offset":20,"slot":"1","type":"t_uint32"},{"astId":6472,"contract":"contracts/Profile.sol:Profile","label":"signature","offset":0,"slot":"2","type":"t_bytes_storage"},{"astId":6474,"contract":"contracts/Profile.sol:Profile","label":"metadata","offset":0,"slot":"3","type":"t_string_storage"},{"astId":6476,"contract":"contracts/Profile.sol:Profile","label":"storageAddress","offset":0,"slot":"4","type":"t_address"}],"numberOfBytes":"160"},"t_uint256":{"encoding":"inplace","label":"uint256","numberOfBytes":"32"},"t_uint32":{"encoding":"inplace","label":"uint32","numberOfBytes":"4"},"t_uint8":{"encoding":"inplace","label":"uint8","numberOfBytes":"1"}}}}}}