{
  "_format": "hh-sol-artifact-1",
  "contractName": "ProfileEncryptedSlotCartridge",
  "sourceName": "contracts/catridge/ProfileEncryptedSlotCartridge.sol",
  "abi": [
    {
      "inputs": [
        {
          "internalType": "address",
          "name": "profile",
          "type": "address"
        }
      ],
      "stateMutability": "nonpayable",
      "type": "constructor"
    },
    {
      "inputs": [],
      "name": "OnlyProfileContractAccess",
      "type": "error"
    },
    {
      "inputs": [
        {
          "internalType": "bytes",
          "name": "args",
          "type": "bytes"
        }
      ],
      "name": "create",
      "outputs": [
        {
          "internalType": "bool",
          "name": "",
          "type": "bool"
        }
      ],
      "stateMutability": "payable",
      "type": "function"
    },
    {
      "inputs": [],
      "name": "fetch",
      "outputs": [
        {
          "internalType": "string",
          "name": "",
          "type": "string"
        }
      ],
      "stateMutability": "view",
      "type": "function"
    },
    {
      "inputs": [
        {
          "internalType": "bytes",
          "name": "args",
          "type": "bytes"
        }
      ],
      "name": "remove",
      "outputs": [
        {
          "internalType": "bool",
          "name": "",
          "type": "bool"
        }
      ],
      "stateMutability": "payable",
      "type": "function"
    },
    {
      "inputs": [],
      "name": "typeOf",
      "outputs": [
        {
          "internalType": "bytes32",
          "name": "",
          "type": "bytes32"
        }
      ],
      "stateMutability": "pure",
      "type": "function"
    }
  ],
  "bytecode": "0x608060405234801561001057600080fd5b5060405161072738038061072783398101604081905261002f91610059565b6001600160a01b03166000908152600160208190526040909120805460ff19169091179055610089565b60006020828403121561006b57600080fd5b81516001600160a01b038116811461008257600080fd5b9392505050565b61068f806100986000396000f3fe60806040526004361061003f5760003560e01c806357fc69d51461004457806358edef4c1461006c578063a95c372d1461008f578063cf5ba53f146100b1575b600080fd5b34801561005057600080fd5b506100596100c4565b6040519081526020015b60405180910390f35b61007f61007a366004610371565b610114565b6040519015158152602001610063565b34801561009b57600080fd5b506100a461018d565b6040516100639190610415565b61007f6100bf366004610371565b61022e565b60006040516020016100f9906020808252600f908201526e656e63727970746564536c6f742d3160881b604082015260600190565b60405160208183030381529060405280519060200120905090565b33600090815260016020819052604082205460ff161515146101495760405163142c5f5160e31b815260040160405180910390fd5b60008280602001905181019061015f9190610464565b6001600160a01b038116600090815260208190526040812091925061018491906102ac565b50600192915050565b3360009081526020819052604090208054606091906101ab90610486565b80601f01602080910402602001604051908101604052809291908181526020018280546101d790610486565b80156102245780601f106101f957610100808354040283529160200191610224565b820191906000526020600020905b81548152906001019060200180831161020757829003601f168201915b5050505050905090565b33600090815260016020819052604082205460ff161515146102635760405163142c5f5160e31b815260040160405180910390fd5b6000808380602001905181019061027a91906104c0565b6001600160a01b038216600090815260208190526040902091935091506102a18282610599565b506001949350505050565b5080546102b890610486565b6000825580601f106102c8575050565b601f0160209004906000526020600020908101906102e691906102e9565b50565b5b808211156102fe57600081556001016102ea565b5090565b634e487b7160e01b600052604160045260246000fd5b604051601f8201601f1916810167ffffffffffffffff8111828210171561034157610341610302565b604052919050565b600067ffffffffffffffff82111561036357610363610302565b50601f01601f191660200190565b60006020828403121561038357600080fd5b813567ffffffffffffffff81111561039a57600080fd5b8201601f810184136103ab57600080fd5b80356103be6103b982610349565b610318565b8181528560208385010111156103d357600080fd5b81602084016020830137600091810160200191909152949350505050565b60005b8381101561040c5781810151838201526020016103f4565b50506000910152565b60208152600082518060208401526104348160408501602087016103f1565b601f01601f19169190910160400192915050565b80516001600160a01b038116811461045f57600080fd5b919050565b60006020828403121561047657600080fd5b61047f82610448565b9392505050565b600181811c9082168061049a57607f821691505b6020821081036104ba57634e487b7160e01b600052602260045260246000fd5b50919050565b600080604083850312156104d357600080fd5b6104dc83610448565b9150602083015167ffffffffffffffff8111156104f857600080fd5b8301601f8101851361050957600080fd5b80516105176103b982610349565b81815286602083850101111561052c57600080fd5b61053d8260208301602086016103f1565b8093505050509250929050565b601f82111561059457600081815260208120601f850160051c810160208610156105715750805b601f850160051c820191505b818110156105905782815560010161057d565b5050505b505050565b815167ffffffffffffffff8111156105b3576105b3610302565b6105c7816105c18454610486565b8461054a565b602080601f8311600181146105fc57600084156105e45750858301515b600019600386901b1c1916600185901b178555610590565b600085815260208120601f198616915b8281101561062b5788860151825594840194600190910190840161060c565b50858210156106495787850151600019600388901b60f8161c191681555b5050505050600190811b0190555056fea2646970667358221220050c83e989b1e7f415c1373adc99645c5438bd46149bfcbe186d6f23a278eecf64736f6c63430008130033",
  "linkReferences": {},
  "deployedLinkReferences": {}
}