{
  "_format": "hh-sol-artifact-1",
  "contractName": "ProfileEncryptedSlotCartridge",
  "sourceName": "contracts/catridge/ProfileEncryptedSlotCartridge.sol",
  "abi": [
    {
      "inputs": [
        {
          "internalType": "address",
          "name": "profile",
          "type": "address"
        }
      ],
      "stateMutability": "nonpayable",
      "type": "constructor"
    },
    {
      "inputs": [],
      "name": "OnlyProfileContractAccess",
      "type": "error"
    },
    {
      "inputs": [
        {
          "internalType": "bytes",
          "name": "args",
          "type": "bytes"
        }
      ],
      "name": "create",
      "outputs": [
        {
          "internalType": "bool",
          "name": "",
          "type": "bool"
        }
      ],
      "stateMutability": "payable",
      "type": "function"
    },
    {
      "inputs": [
        {
          "internalType": "address",
          "name": "user",
          "type": "address"
        }
      ],
      "name": "fetch",
      "outputs": [
        {
          "internalType": "string",
          "name": "",
          "type": "string"
        }
      ],
      "stateMutability": "view",
      "type": "function"
    },
    {
      "inputs": [
        {
          "internalType": "bytes",
          "name": "args",
          "type": "bytes"
        }
      ],
      "name": "remove",
      "outputs": [
        {
          "internalType": "bool",
          "name": "",
          "type": "bool"
        }
      ],
      "stateMutability": "payable",
      "type": "function"
    },
    {
      "inputs": [],
      "name": "typeOf",
      "outputs": [
        {
          "internalType": "bytes32",
          "name": "",
          "type": "bytes32"
        }
      ],
      "stateMutability": "pure",
      "type": "function"
    }
  ],
  "bytecode": "0x608060405234801561001057600080fd5b5060405161075838038061075883398101604081905261002f91610059565b6001600160a01b03166000908152600160208190526040909120805460ff19169091179055610089565b60006020828403121561006b57600080fd5b81516001600160a01b038116811461008257600080fd5b9392505050565b6106c0806100986000396000f3fe60806040526004361061003f5760003560e01c806357fc69d51461004457806358edef4c1461006c578063cf5ba53f1461008f578063f109a0be146100a2575b600080fd5b34801561005057600080fd5b506100596100cf565b6040519081526020015b60405180910390f35b61007f61007a366004610387565b61011f565b6040519015158152602001610063565b61007f61009d366004610387565b610198565b3480156100ae57600080fd5b506100c26100bd36600461041c565b610216565b6040516100639190610464565b6000604051602001610104906020808252600f908201526e656e63727970746564536c6f742d3160881b604082015260600190565b60405160208183030381529060405280519060200120905090565b33600090815260016020819052604082205460ff161515146101545760405163142c5f5160e31b815260040160405180910390fd5b60008280602001905181019061016a9190610497565b6001600160a01b038116600090815260208190526040812091925061018f91906102c2565b50600192915050565b33600090815260016020819052604082205460ff161515146101cd5760405163142c5f5160e31b815260040160405180910390fd5b600080838060200190518101906101e491906104b4565b6001600160a01b0382166000908152602081905260409020919350915061020b82826105ca565b506001949350505050565b6001600160a01b038116600090815260208190526040902080546060919061023d90610541565b80601f016020809104026020016040519081016040528092919081815260200182805461026990610541565b80156102b65780601f1061028b576101008083540402835291602001916102b6565b820191906000526020600020905b81548152906001019060200180831161029957829003601f168201915b50505050509050919050565b5080546102ce90610541565b6000825580601f106102de575050565b601f0160209004906000526020600020908101906102fc91906102ff565b50565b5b808211156103145760008155600101610300565b5090565b634e487b7160e01b600052604160045260246000fd5b604051601f8201601f1916810167ffffffffffffffff8111828210171561035757610357610318565b604052919050565b600067ffffffffffffffff82111561037957610379610318565b50601f01601f191660200190565b60006020828403121561039957600080fd5b813567ffffffffffffffff8111156103b057600080fd5b8201601f810184136103c157600080fd5b80356103d46103cf8261035f565b61032e565b8181528560208385010111156103e957600080fd5b81602084016020830137600091810160200191909152949350505050565b6001600160a01b03811681146102fc57600080fd5b60006020828403121561042e57600080fd5b813561043981610407565b9392505050565b60005b8381101561045b578181015183820152602001610443565b50506000910152565b6020815260008251806020840152610483816040850160208701610440565b601f01601f19169190910160400192915050565b6000602082840312156104a957600080fd5b815161043981610407565b600080604083850312156104c757600080fd5b82516104d281610407565b602084015190925067ffffffffffffffff8111156104ef57600080fd5b8301601f8101851361050057600080fd5b805161050e6103cf8261035f565b81815286602083850101111561052357600080fd5b610534826020830160208601610440565b8093505050509250929050565b600181811c9082168061055557607f821691505b60208210810361057557634e487b7160e01b600052602260045260246000fd5b50919050565b601f8211156105c557600081815260208120601f850160051c810160208610156105a25750805b601f850160051c820191505b818110156105c1578281556001016105ae565b5050505b505050565b815167ffffffffffffffff8111156105e4576105e4610318565b6105f8816105f28454610541565b8461057b565b602080601f83116001811461062d57600084156106155750858301515b600019600386901b1c1916600185901b1785556105c1565b600085815260208120601f198616915b8281101561065c5788860151825594840194600190910190840161063d565b508582101561067a5787850151600019600388901b60f8161c191681555b5050505050600190811b0190555056fea264697066735822122041e88afc100d30e80c77c15735e17fd43c8de680e70dfe37f7e9584daddd1da864736f6c63430008130033",
  "linkReferences": {},
  "deployedLinkReferences": {}
}