{
  "_format": "hh-sol-artifact-1",
  "contractName": "ProfileEncryptedSlotCartridge",
  "sourceName": "contracts/catridge/ProfileEncryptedSlotCartridge.sol",
  "abi": [
    {
      "inputs": [
        {
          "internalType": "address",
          "name": "profile",
          "type": "address"
        }
      ],
      "stateMutability": "nonpayable",
      "type": "constructor"
    },
    {
      "inputs": [],
      "name": "OnlyProfileContractAccess",
      "type": "error"
    },
    {
      "anonymous": false,
      "inputs": [
        {
          "indexed": true,
          "internalType": "bytes32",
          "name": "role",
          "type": "bytes32"
        },
        {
          "indexed": true,
          "internalType": "bytes32",
          "name": "previousAdminRole",
          "type": "bytes32"
        },
        {
          "indexed": true,
          "internalType": "bytes32",
          "name": "newAdminRole",
          "type": "bytes32"
        }
      ],
      "name": "RoleAdminChanged",
      "type": "event"
    },
    {
      "anonymous": false,
      "inputs": [
        {
          "indexed": true,
          "internalType": "bytes32",
          "name": "role",
          "type": "bytes32"
        },
        {
          "indexed": true,
          "internalType": "address",
          "name": "account",
          "type": "address"
        },
        {
          "indexed": true,
          "internalType": "address",
          "name": "sender",
          "type": "address"
        }
      ],
      "name": "RoleGranted",
      "type": "event"
    },
    {
      "anonymous": false,
      "inputs": [
        {
          "indexed": true,
          "internalType": "bytes32",
          "name": "role",
          "type": "bytes32"
        },
        {
          "indexed": true,
          "internalType": "address",
          "name": "account",
          "type": "address"
        },
        {
          "indexed": true,
          "internalType": "address",
          "name": "sender",
          "type": "address"
        }
      ],
      "name": "RoleRevoked",
      "type": "event"
    },
    {
      "inputs": [],
      "name": "DEFAULT_ADMIN_ROLE",
      "outputs": [
        {
          "internalType": "bytes32",
          "name": "",
          "type": "bytes32"
        }
      ],
      "stateMutability": "view",
      "type": "function"
    },
    {
      "inputs": [
        {
          "internalType": "bytes",
          "name": "args",
          "type": "bytes"
        }
      ],
      "name": "create",
      "outputs": [
        {
          "internalType": "bool",
          "name": "",
          "type": "bool"
        }
      ],
      "stateMutability": "payable",
      "type": "function"
    },
    {
      "inputs": [],
      "name": "fetch",
      "outputs": [
        {
          "internalType": "string",
          "name": "",
          "type": "string"
        }
      ],
      "stateMutability": "view",
      "type": "function"
    },
    {
      "inputs": [
        {
          "internalType": "bytes32",
          "name": "role",
          "type": "bytes32"
        }
      ],
      "name": "getRoleAdmin",
      "outputs": [
        {
          "internalType": "bytes32",
          "name": "",
          "type": "bytes32"
        }
      ],
      "stateMutability": "view",
      "type": "function"
    },
    {
      "inputs": [
        {
          "internalType": "bytes32",
          "name": "role",
          "type": "bytes32"
        },
        {
          "internalType": "address",
          "name": "account",
          "type": "address"
        }
      ],
      "name": "grantRole",
      "outputs": [],
      "stateMutability": "nonpayable",
      "type": "function"
    },
    {
      "inputs": [
        {
          "internalType": "bytes32",
          "name": "role",
          "type": "bytes32"
        },
        {
          "internalType": "address",
          "name": "account",
          "type": "address"
        }
      ],
      "name": "hasRole",
      "outputs": [
        {
          "internalType": "bool",
          "name": "",
          "type": "bool"
        }
      ],
      "stateMutability": "view",
      "type": "function"
    },
    {
      "inputs": [
        {
          "internalType": "bytes",
          "name": "args",
          "type": "bytes"
        }
      ],
      "name": "remove",
      "outputs": [
        {
          "internalType": "bool",
          "name": "",
          "type": "bool"
        }
      ],
      "stateMutability": "payable",
      "type": "function"
    },
    {
      "inputs": [
        {
          "internalType": "bytes32",
          "name": "role",
          "type": "bytes32"
        },
        {
          "internalType": "address",
          "name": "account",
          "type": "address"
        }
      ],
      "name": "renounceRole",
      "outputs": [],
      "stateMutability": "nonpayable",
      "type": "function"
    },
    {
      "inputs": [
        {
          "internalType": "bytes32",
          "name": "role",
          "type": "bytes32"
        },
        {
          "internalType": "address",
          "name": "account",
          "type": "address"
        }
      ],
      "name": "revokeRole",
      "outputs": [],
      "stateMutability": "nonpayable",
      "type": "function"
    },
    {
      "inputs": [
        {
          "internalType": "bytes4",
          "name": "interfaceId",
          "type": "bytes4"
        }
      ],
      "name": "supportsInterface",
      "outputs": [
        {
          "internalType": "bool",
          "name": "",
          "type": "bool"
        }
      ],
      "stateMutability": "view",
      "type": "function"
    },
    {
      "inputs": [],
      "name": "typeOf",
      "outputs": [
        {
          "internalType": "bytes32",
          "name": "",
          "type": "bytes32"
        }
      ],
      "stateMutability": "pure",
      "type": "function"
    }
  ],
  "bytecode": "0x608060405234801561001057600080fd5b50604051610de1380380610de183398101604081905261002f91610056565b6001600160a01b03166000908152600260205260409020805460ff19166001179055610086565b60006020828403121561006857600080fd5b81516001600160a01b038116811461007f57600080fd5b9392505050565b610d4c806100956000396000f3fe60806040526004361061009c5760003560e01c806358edef4c1161006457806358edef4c1461016b57806391d148541461017e578063a217fddf1461019e578063a95c372d146101b3578063cf5ba53f146101d5578063d547741f146101e857600080fd5b806301ffc9a7146100a1578063248a9ca3146100d65780632f2ff15d1461011457806336568abe1461013657806357fc69d514610156575b600080fd5b3480156100ad57600080fd5b506100c16100bc366004610874565b610208565b60405190151581526020015b60405180910390f35b3480156100e257600080fd5b506101066100f136600461089e565b60009081526020819052604090206001015490565b6040519081526020016100cd565b34801561012057600080fd5b5061013461012f3660046108cc565b61023f565b005b34801561014257600080fd5b506101346101513660046108cc565b610269565b34801561016257600080fd5b506101066102ec565b6100c161017936600461096b565b61033c565b34801561018a57600080fd5b506100c16101993660046108cc565b6103b5565b3480156101aa57600080fd5b50610106600081565b3480156101bf57600080fd5b506101c86103de565b6040516100cd9190610a0f565b6100c16101e336600461096b565b61047f565b3480156101f457600080fd5b506101346102033660046108cc565b6104fd565b60006001600160e01b03198216637965db0b60e01b148061023957506301ffc9a760e01b6001600160e01b03198316145b92915050565b60008281526020819052604090206001015461025a81610522565b610264838361052f565b505050565b6001600160a01b03811633146102de5760405162461bcd60e51b815260206004820152602f60248201527f416363657373436f6e74726f6c3a2063616e206f6e6c792072656e6f756e636560448201526e103937b632b9903337b91039b2b63360891b60648201526084015b60405180910390fd5b6102e882826105b3565b5050565b6000604051602001610321906020808252600f908201526e656e63727970746564536c6f742d3160881b604082015260600190565b60405160208183030381529060405280519060200120905090565b3360009081526002602052604081205460ff1615156001146103715760405163142c5f5160e31b815260040160405180910390fd5b6000828060200190518101906103879190610a42565b6001600160a01b03811660009081526001602052604081209192506103ac9190610826565b50600192915050565b6000918252602082815260408084206001600160a01b0393909316845291905290205460ff1690565b3360009081526001602052604090208054606091906103fc90610a5f565b80601f016020809104026020016040519081016040528092919081815260200182805461042890610a5f565b80156104755780601f1061044a57610100808354040283529160200191610475565b820191906000526020600020905b81548152906001019060200180831161045857829003601f168201915b5050505050905090565b3360009081526002602052604081205460ff1615156001146104b45760405163142c5f5160e31b815260040160405180910390fd5b600080838060200190518101906104cb9190610a99565b6001600160a01b038216600090815260016020526040902091935091506104f28282610b74565b506001949350505050565b60008281526020819052604090206001015461051881610522565b61026483836105b3565b61052c8133610618565b50565b61053982826103b5565b6102e8576000828152602081815260408083206001600160a01b03851684529091529020805460ff1916600117905561056f3390565b6001600160a01b0316816001600160a01b0316837f2f8788117e7eff1d82e926ec794901d17c78024a50270940304540a733656f0d60405160405180910390a45050565b6105bd82826103b5565b156102e8576000828152602081815260408083206001600160a01b0385168085529252808320805460ff1916905551339285917ff6391f5c32d9c69d2a47ea670b442974b53935d1edc7fd64eb21e047a839171b9190a45050565b61062282826103b5565b6102e85761062f81610671565b61063a836020610683565b60405160200161064b929190610c34565b60408051601f198184030181529082905262461bcd60e51b82526102d591600401610a0f565b60606102396001600160a01b03831660145b60606000610692836002610cbf565b61069d906002610cd6565b67ffffffffffffffff8111156106b5576106b56108fc565b6040519080825280601f01601f1916602001820160405280156106df576020820181803683370190505b509050600360fc1b816000815181106106fa576106fa610ce9565b60200101906001600160f81b031916908160001a905350600f60fb1b8160018151811061072957610729610ce9565b60200101906001600160f81b031916908160001a905350600061074d846002610cbf565b610758906001610cd6565b90505b60018111156107d0576f181899199a1a9b1b9c1cb0b131b232b360811b85600f166010811061078c5761078c610ce9565b1a60f81b8282815181106107a2576107a2610ce9565b60200101906001600160f81b031916908160001a90535060049490941c936107c981610cff565b905061075b565b50831561081f5760405162461bcd60e51b815260206004820181905260248201527f537472696e67733a20686578206c656e67746820696e73756666696369656e7460448201526064016102d5565b9392505050565b50805461083290610a5f565b6000825580601f10610842575050565b601f01602090049060005260206000209081019061052c91905b80821115610870576000815560010161085c565b5090565b60006020828403121561088657600080fd5b81356001600160e01b03198116811461081f57600080fd5b6000602082840312156108b057600080fd5b5035919050565b6001600160a01b038116811461052c57600080fd5b600080604083850312156108df57600080fd5b8235915060208301356108f1816108b7565b809150509250929050565b634e487b7160e01b600052604160045260246000fd5b604051601f8201601f1916810167ffffffffffffffff8111828210171561093b5761093b6108fc565b604052919050565b600067ffffffffffffffff82111561095d5761095d6108fc565b50601f01601f191660200190565b60006020828403121561097d57600080fd5b813567ffffffffffffffff81111561099457600080fd5b8201601f810184136109a557600080fd5b80356109b86109b382610943565b610912565b8181528560208385010111156109cd57600080fd5b81602084016020830137600091810160200191909152949350505050565b60005b83811015610a065781810151838201526020016109ee565b50506000910152565b6020815260008251806020840152610a2e8160408501602087016109eb565b601f01601f19169190910160400192915050565b600060208284031215610a5457600080fd5b815161081f816108b7565b600181811c90821680610a7357607f821691505b602082108103610a9357634e487b7160e01b600052602260045260246000fd5b50919050565b60008060408385031215610aac57600080fd5b8251610ab7816108b7565b602084015190925067ffffffffffffffff811115610ad457600080fd5b8301601f81018513610ae557600080fd5b8051610af36109b382610943565b818152866020838501011115610b0857600080fd5b610b198260208301602086016109eb565b8093505050509250929050565b601f82111561026457600081815260208120601f850160051c81016020861015610b4d5750805b601f850160051c820191505b81811015610b6c57828155600101610b59565b505050505050565b815167ffffffffffffffff811115610b8e57610b8e6108fc565b610ba281610b9c8454610a5f565b84610b26565b602080601f831160018114610bd75760008415610bbf5750858301515b600019600386901b1c1916600185901b178555610b6c565b600085815260208120601f198616915b82811015610c0657888601518255948401946001909101908401610be7565b5085821015610c245787850151600019600388901b60f8161c191681555b5050505050600190811b01905550565b7f416363657373436f6e74726f6c3a206163636f756e7420000000000000000000815260008351610c6c8160178501602088016109eb565b7001034b99036b4b9b9b4b733903937b6329607d1b6017918401918201528351610c9d8160288401602088016109eb565b01602801949350505050565b634e487b7160e01b600052601160045260246000fd5b808202811582820484141761023957610239610ca9565b8082018082111561023957610239610ca9565b634e487b7160e01b600052603260045260246000fd5b600081610d0e57610d0e610ca9565b50600019019056fea264697066735822122094f435ffe2acb96dfcf73e9ad62d73aed3e0ce46673c6b64343b234412c4e74064736f6c63430008130033",
  "linkReferences": {},
  "deployedLinkReferences": {}
}