{
  "_format": "hh-sol-artifact-1",
  "contractName": "ProfileGreenfieldCartridge",
  "sourceName": "contracts/catridge/ProfileGreenfieldCartridge.sol",
  "abi": [
    {
      "inputs": [
        {
          "internalType": "address",
          "name": "profile",
          "type": "address"
        }
      ],
      "stateMutability": "nonpayable",
      "type": "constructor"
    },
    {
      "inputs": [],
      "name": "OnlyProfileContractAccess",
      "type": "error"
    },
    {
      "inputs": [
        {
          "internalType": "bytes",
          "name": "args",
          "type": "bytes"
        }
      ],
      "name": "create",
      "outputs": [
        {
          "internalType": "bool",
          "name": "",
          "type": "bool"
        }
      ],
      "stateMutability": "payable",
      "type": "function"
    },
    {
      "inputs": [],
      "name": "fetch",
      "outputs": [
        {
          "internalType": "string",
          "name": "",
          "type": "string"
        }
      ],
      "stateMutability": "view",
      "type": "function"
    },
    {
      "inputs": [
        {
          "internalType": "bytes",
          "name": "args",
          "type": "bytes"
        }
      ],
      "name": "remove",
      "outputs": [
        {
          "internalType": "bool",
          "name": "",
          "type": "bool"
        }
      ],
      "stateMutability": "payable",
      "type": "function"
    },
    {
      "inputs": [],
      "name": "typeOf",
      "outputs": [
        {
          "internalType": "bytes32",
          "name": "",
          "type": "bytes32"
        }
      ],
      "stateMutability": "pure",
      "type": "function"
    }
  ],
  "bytecode": "0x608060405234801561001057600080fd5b506040516107c33803806107c383398101604081905261002f91610059565b6001600160a01b03166000908152600160208190526040909120805460ff19169091179055610089565b60006020828403121561006b57600080fd5b81516001600160a01b038116811461008257600080fd5b9392505050565b61072b806100986000396000f3fe60806040526004361061003f5760003560e01c806357fc69d51461004457806358edef4c1461006c578063a95c372d1461008f578063cf5ba53f146100b1575b600080fd5b34801561005057600080fd5b506100596100c4565b6040519081526020015b60405180910390f35b61007f61007a36600461040d565b610111565b6040519015158152602001610063565b34801561009b57600080fd5b506100a46101db565b60405161006391906104b1565b61007f6100bf36600461040d565b61027c565b60006040516020016100f6906020808252600c908201526b677265656e6669656c642d3160a01b604082015260600190565b60405160208183030381529060405280519060200120905090565b33600090815260016020819052604082205460ff161515146101465760405163142c5f5160e31b815260040160405180910390fd5b60008280602001905181019061015c9190610500565b90506001600160a01b03811633146101b15760405162461bcd60e51b81526020600482015260136024820152723ab9b2b91036bab9ba1031329039b2b73232b960691b60448201526064015b60405180910390fd5b6001600160a01b03811660009081526020819052604081206101d291610348565b50600192915050565b3360009081526020819052604090208054606091906101f990610522565b80601f016020809104026020016040519081016040528092919081815260200182805461022590610522565b80156102725780601f1061024757610100808354040283529160200191610272565b820191906000526020600020905b81548152906001019060200180831161025557829003601f168201915b5050505050905090565b33600090815260016020819052604082205460ff161515146102b15760405163142c5f5160e31b815260040160405180910390fd5b600080838060200190518101906102c8919061055c565b90925090506001600160a01b038216331461031b5760405162461bcd60e51b81526020600482015260136024820152723ab9b2b91036bab9ba1031329039b2b73232b960691b60448201526064016101a8565b6001600160a01b038216600090815260208190526040902061033d8282610635565b506001949350505050565b50805461035490610522565b6000825580601f10610364575050565b601f0160209004906000526020600020908101906103829190610385565b50565b5b8082111561039a5760008155600101610386565b5090565b634e487b7160e01b600052604160045260246000fd5b604051601f8201601f1916810167ffffffffffffffff811182821017156103dd576103dd61039e565b604052919050565b600067ffffffffffffffff8211156103ff576103ff61039e565b50601f01601f191660200190565b60006020828403121561041f57600080fd5b813567ffffffffffffffff81111561043657600080fd5b8201601f8101841361044757600080fd5b803561045a610455826103e5565b6103b4565b81815285602083850101111561046f57600080fd5b81602084016020830137600091810160200191909152949350505050565b60005b838110156104a8578181015183820152602001610490565b50506000910152565b60208152600082518060208401526104d081604085016020870161048d565b601f01601f19169190910160400192915050565b80516001600160a01b03811681146104fb57600080fd5b919050565b60006020828403121561051257600080fd5b61051b826104e4565b9392505050565b600181811c9082168061053657607f821691505b60208210810361055657634e487b7160e01b600052602260045260246000fd5b50919050565b6000806040838503121561056f57600080fd5b610578836104e4565b9150602083015167ffffffffffffffff81111561059457600080fd5b8301601f810185136105a557600080fd5b80516105b3610455826103e5565b8181528660208385010111156105c857600080fd5b6105d982602083016020860161048d565b8093505050509250929050565b601f82111561063057600081815260208120601f850160051c8101602086101561060d5750805b601f850160051c820191505b8181101561062c57828155600101610619565b5050505b505050565b815167ffffffffffffffff81111561064f5761064f61039e565b6106638161065d8454610522565b846105e6565b602080601f83116001811461069857600084156106805750858301515b600019600386901b1c1916600185901b17855561062c565b600085815260208120601f198616915b828110156106c7578886015182559484019460019091019084016106a8565b50858210156106e55787850151600019600388901b60f8161c191681555b5050505050600190811b0190555056fea2646970667358221220be85c640eb15c214f296651fc717fcf6d91b84a5128ebfb6e2357db938beb7a264736f6c63430008130033",
  "linkReferences": {},
  "deployedLinkReferences": {}
}