{
  "_format": "hh-sol-artifact-1",
  "contractName": "ProfileGreenfieldCartridge",
  "sourceName": "contracts/catridge/ProfileGreenfieldCartridge.sol",
  "abi": [
    {
      "inputs": [
        {
          "internalType": "address",
          "name": "profile",
          "type": "address"
        }
      ],
      "stateMutability": "nonpayable",
      "type": "constructor"
    },
    {
      "inputs": [],
      "name": "OnlyProfileContractAccess",
      "type": "error"
    },
    {
      "inputs": [
        {
          "internalType": "bytes",
          "name": "args",
          "type": "bytes"
        }
      ],
      "name": "create",
      "outputs": [
        {
          "internalType": "bool",
          "name": "",
          "type": "bool"
        }
      ],
      "stateMutability": "payable",
      "type": "function"
    },
    {
      "inputs": [
        {
          "internalType": "address",
          "name": "user",
          "type": "address"
        }
      ],
      "name": "fetch",
      "outputs": [
        {
          "internalType": "string",
          "name": "",
          "type": "string"
        }
      ],
      "stateMutability": "view",
      "type": "function"
    },
    {
      "inputs": [
        {
          "internalType": "bytes",
          "name": "args",
          "type": "bytes"
        }
      ],
      "name": "remove",
      "outputs": [
        {
          "internalType": "bool",
          "name": "",
          "type": "bool"
        }
      ],
      "stateMutability": "payable",
      "type": "function"
    },
    {
      "inputs": [],
      "name": "typeOf",
      "outputs": [
        {
          "internalType": "bytes32",
          "name": "",
          "type": "bytes32"
        }
      ],
      "stateMutability": "pure",
      "type": "function"
    }
  ],
  "bytecode": "0x608060405234801561001057600080fd5b506040516107f43803806107f483398101604081905261002f91610059565b6001600160a01b03166000908152600160208190526040909120805460ff19169091179055610089565b60006020828403121561006b57600080fd5b81516001600160a01b038116811461008257600080fd5b9392505050565b61075c806100986000396000f3fe60806040526004361061003f5760003560e01c806357fc69d51461004457806358edef4c1461006c578063cf5ba53f1461008f578063f109a0be146100a2575b600080fd5b34801561005057600080fd5b506100596100cf565b6040519081526020015b60405180910390f35b61007f61007a366004610423565b61011c565b6040519015158152602001610063565b61007f61009d366004610423565b6101e6565b3480156100ae57600080fd5b506100c26100bd3660046104b8565b6102b2565b6040516100639190610500565b6000604051602001610101906020808252600c908201526b677265656e6669656c642d3160a01b604082015260600190565b60405160208183030381529060405280519060200120905090565b33600090815260016020819052604082205460ff161515146101515760405163142c5f5160e31b815260040160405180910390fd5b6000828060200190518101906101679190610533565b90506001600160a01b03811633146101bc5760405162461bcd60e51b81526020600482015260136024820152723ab9b2b91036bab9ba1031329039b2b73232b960691b60448201526064015b60405180910390fd5b6001600160a01b03811660009081526020819052604081206101dd9161035e565b50600192915050565b33600090815260016020819052604082205460ff1615151461021b5760405163142c5f5160e31b815260040160405180910390fd5b600080838060200190518101906102329190610550565b90925090506001600160a01b03821633146102855760405162461bcd60e51b81526020600482015260136024820152723ab9b2b91036bab9ba1031329039b2b73232b960691b60448201526064016101b3565b6001600160a01b03821660009081526020819052604090206102a78282610666565b506001949350505050565b6001600160a01b03811660009081526020819052604090208054606091906102d9906105dd565b80601f0160208091040260200160405190810160405280929190818152602001828054610305906105dd565b80156103525780601f1061032757610100808354040283529160200191610352565b820191906000526020600020905b81548152906001019060200180831161033557829003601f168201915b50505050509050919050565b50805461036a906105dd565b6000825580601f1061037a575050565b601f016020900490600052602060002090810190610398919061039b565b50565b5b808211156103b0576000815560010161039c565b5090565b634e487b7160e01b600052604160045260246000fd5b604051601f8201601f1916810167ffffffffffffffff811182821017156103f3576103f36103b4565b604052919050565b600067ffffffffffffffff821115610415576104156103b4565b50601f01601f191660200190565b60006020828403121561043557600080fd5b813567ffffffffffffffff81111561044c57600080fd5b8201601f8101841361045d57600080fd5b803561047061046b826103fb565b6103ca565b81815285602083850101111561048557600080fd5b81602084016020830137600091810160200191909152949350505050565b6001600160a01b038116811461039857600080fd5b6000602082840312156104ca57600080fd5b81356104d5816104a3565b9392505050565b60005b838110156104f75781810151838201526020016104df565b50506000910152565b602081526000825180602084015261051f8160408501602087016104dc565b601f01601f19169190910160400192915050565b60006020828403121561054557600080fd5b81516104d5816104a3565b6000806040838503121561056357600080fd5b825161056e816104a3565b602084015190925067ffffffffffffffff81111561058b57600080fd5b8301601f8101851361059c57600080fd5b80516105aa61046b826103fb565b8181528660208385010111156105bf57600080fd5b6105d08260208301602086016104dc565b8093505050509250929050565b600181811c908216806105f157607f821691505b60208210810361061157634e487b7160e01b600052602260045260246000fd5b50919050565b601f82111561066157600081815260208120601f850160051c8101602086101561063e5750805b601f850160051c820191505b8181101561065d5782815560010161064a565b5050505b505050565b815167ffffffffffffffff811115610680576106806103b4565b6106948161068e84546105dd565b84610617565b602080601f8311600181146106c957600084156106b15750858301515b600019600386901b1c1916600185901b17855561065d565b600085815260208120601f198616915b828110156106f8578886015182559484019460019091019084016106d9565b50858210156107165787850151600019600388901b60f8161c191681555b5050505050600190811b0190555056fea2646970667358221220c3598b850ebd94930bfe82f98673c1bc4a74eac713a6be574ea3b4603743d8b764736f6c63430008130033",
  "linkReferences": {},
  "deployedLinkReferences": {}
}