{
  "_format": "hh-sol-artifact-1",
  "contractName": "Profile",
  "sourceName": "contracts/Profile.sol",
  "abi": [
    {
      "inputs": [],
      "stateMutability": "nonpayable",
      "type": "constructor"
    },
    {
      "inputs": [],
      "name": "StorageZeroAddress",
      "type": "error"
    },
    {
      "inputs": [],
      "name": "TokenTransferProhibited",
      "type": "error"
    },
    {
      "anonymous": false,
      "inputs": [
        {
          "indexed": false,
          "internalType": "address",
          "name": "previousAdmin",
          "type": "address"
        },
        {
          "indexed": false,
          "internalType": "address",
          "name": "newAdmin",
          "type": "address"
        }
      ],
      "name": "AdminChanged",
      "type": "event"
    },
    {
      "anonymous": false,
      "inputs": [
        {
          "indexed": true,
          "internalType": "address",
          "name": "owner",
          "type": "address"
        },
        {
          "indexed": true,
          "internalType": "address",
          "name": "approved",
          "type": "address"
        },
        {
          "indexed": true,
          "internalType": "uint256",
          "name": "tokenId",
          "type": "uint256"
        }
      ],
      "name": "Approval",
      "type": "event"
    },
    {
      "anonymous": false,
      "inputs": [
        {
          "indexed": true,
          "internalType": "address",
          "name": "owner",
          "type": "address"
        },
        {
          "indexed": true,
          "internalType": "address",
          "name": "operator",
          "type": "address"
        },
        {
          "indexed": false,
          "internalType": "bool",
          "name": "approved",
          "type": "bool"
        }
      ],
      "name": "ApprovalForAll",
      "type": "event"
    },
    {
      "anonymous": false,
      "inputs": [
        {
          "indexed": true,
          "internalType": "address",
          "name": "beacon",
          "type": "address"
        }
      ],
      "name": "BeaconUpgraded",
      "type": "event"
    },
    {
      "anonymous": false,
      "inputs": [
        {
          "indexed": true,
          "internalType": "address",
          "name": "to",
          "type": "address"
        },
        {
          "indexed": false,
          "internalType": "uint256",
          "name": "tokenId",
          "type": "uint256"
        }
      ],
      "name": "Burn",
      "type": "event"
    },
    {
      "anonymous": false,
      "inputs": [
        {
          "indexed": false,
          "internalType": "uint8",
          "name": "version",
          "type": "uint8"
        }
      ],
      "name": "Initialized",
      "type": "event"
    },
    {
      "anonymous": false,
      "inputs": [
        {
          "indexed": true,
          "internalType": "address",
          "name": "to",
          "type": "address"
        },
        {
          "indexed": false,
          "internalType": "uint256",
          "name": "tokenId",
          "type": "uint256"
        }
      ],
      "name": "Mint",
      "type": "event"
    },
    {
      "anonymous": false,
      "inputs": [
        {
          "indexed": true,
          "internalType": "address",
          "name": "previousOwner",
          "type": "address"
        },
        {
          "indexed": true,
          "internalType": "address",
          "name": "newOwner",
          "type": "address"
        }
      ],
      "name": "OwnershipTransferred",
      "type": "event"
    },
    {
      "anonymous": false,
      "inputs": [
        {
          "indexed": true,
          "internalType": "bytes32",
          "name": "role",
          "type": "bytes32"
        },
        {
          "indexed": true,
          "internalType": "bytes32",
          "name": "previousAdminRole",
          "type": "bytes32"
        },
        {
          "indexed": true,
          "internalType": "bytes32",
          "name": "newAdminRole",
          "type": "bytes32"
        }
      ],
      "name": "RoleAdminChanged",
      "type": "event"
    },
    {
      "anonymous": false,
      "inputs": [
        {
          "indexed": true,
          "internalType": "bytes32",
          "name": "role",
          "type": "bytes32"
        },
        {
          "indexed": true,
          "internalType": "address",
          "name": "account",
          "type": "address"
        },
        {
          "indexed": true,
          "internalType": "address",
          "name": "sender",
          "type": "address"
        }
      ],
      "name": "RoleGranted",
      "type": "event"
    },
    {
      "anonymous": false,
      "inputs": [
        {
          "indexed": true,
          "internalType": "bytes32",
          "name": "role",
          "type": "bytes32"
        },
        {
          "indexed": true,
          "internalType": "address",
          "name": "account",
          "type": "address"
        },
        {
          "indexed": true,
          "internalType": "address",
          "name": "sender",
          "type": "address"
        }
      ],
      "name": "RoleRevoked",
      "type": "event"
    },
    {
      "anonymous": false,
      "inputs": [
        {
          "indexed": true,
          "internalType": "address",
          "name": "from",
          "type": "address"
        },
        {
          "indexed": true,
          "internalType": "address",
          "name": "to",
          "type": "address"
        },
        {
          "indexed": true,
          "internalType": "uint256",
          "name": "tokenId",
          "type": "uint256"
        }
      ],
      "name": "Transfer",
      "type": "event"
    },
    {
      "anonymous": false,
      "inputs": [
        {
          "indexed": true,
          "internalType": "address",
          "name": "implementation",
          "type": "address"
        }
      ],
      "name": "Upgraded",
      "type": "event"
    },
    {
      "inputs": [],
      "name": "DEFAULT_ADMIN_ROLE",
      "outputs": [
        {
          "internalType": "bytes32",
          "name": "",
          "type": "bytes32"
        }
      ],
      "stateMutability": "view",
      "type": "function"
    },
    {
      "inputs": [
        {
          "internalType": "address",
          "name": "to",
          "type": "address"
        },
        {
          "internalType": "uint256",
          "name": "tokenId",
          "type": "uint256"
        }
      ],
      "name": "approve",
      "outputs": [],
      "stateMutability": "nonpayable",
      "type": "function"
    },
    {
      "inputs": [
        {
          "internalType": "address",
          "name": "owner",
          "type": "address"
        }
      ],
      "name": "balanceOf",
      "outputs": [
        {
          "internalType": "uint256",
          "name": "",
          "type": "uint256"
        }
      ],
      "stateMutability": "view",
      "type": "function"
    },
    {
      "inputs": [],
      "name": "burn",
      "outputs": [],
      "stateMutability": "payable",
      "type": "function"
    },
    {
      "inputs": [
        {
          "internalType": "uint256",
          "name": "tokenId",
          "type": "uint256"
        }
      ],
      "name": "getApproved",
      "outputs": [
        {
          "internalType": "address",
          "name": "",
          "type": "address"
        }
      ],
      "stateMutability": "view",
      "type": "function"
    },
    {
      "inputs": [
        {
          "internalType": "bytes32",
          "name": "role",
          "type": "bytes32"
        }
      ],
      "name": "getRoleAdmin",
      "outputs": [
        {
          "internalType": "bytes32",
          "name": "",
          "type": "bytes32"
        }
      ],
      "stateMutability": "view",
      "type": "function"
    },
    {
      "inputs": [
        {
          "internalType": "uint256",
          "name": "tokenId",
          "type": "uint256"
        }
      ],
      "name": "getUserProfile",
      "outputs": [
        {
          "components": [
            {
              "internalType": "bytes32",
              "name": "checksum",
              "type": "bytes32"
            },
            {
              "internalType": "address",
              "name": "issuedBy",
              "type": "address"
            },
            {
              "internalType": "uint32",
              "name": "issuedAt",
              "type": "uint32"
            },
            {
              "internalType": "bytes",
              "name": "signature",
              "type": "bytes"
            },
            {
              "internalType": "string",
              "name": "metadata",
              "type": "string"
            },
            {
              "internalType": "address",
              "name": "storageAddress",
              "type": "address"
            }
          ],
          "internalType": "struct Profile.UserProfile",
          "name": "",
          "type": "tuple"
        }
      ],
      "stateMutability": "view",
      "type": "function"
    },
    {
      "inputs": [
        {
          "internalType": "bytes32",
          "name": "role",
          "type": "bytes32"
        },
        {
          "internalType": "address",
          "name": "account",
          "type": "address"
        }
      ],
      "name": "grantRole",
      "outputs": [],
      "stateMutability": "nonpayable",
      "type": "function"
    },
    {
      "inputs": [
        {
          "internalType": "bytes32",
          "name": "role",
          "type": "bytes32"
        },
        {
          "internalType": "address",
          "name": "account",
          "type": "address"
        }
      ],
      "name": "hasRole",
      "outputs": [
        {
          "internalType": "bool",
          "name": "",
          "type": "bool"
        }
      ],
      "stateMutability": "view",
      "type": "function"
    },
    {
      "inputs": [
        {
          "internalType": "string",
          "name": "name",
          "type": "string"
        },
        {
          "internalType": "string",
          "name": "symbol",
          "type": "string"
        },
        {
          "internalType": "address",
          "name": "admin",
          "type": "address"
        }
      ],
      "name": "initialize",
      "outputs": [],
      "stateMutability": "nonpayable",
      "type": "function"
    },
    {
      "inputs": [
        {
          "internalType": "address",
          "name": "account",
          "type": "address"
        }
      ],
      "name": "isAdmin",
      "outputs": [
        {
          "internalType": "bool",
          "name": "",
          "type": "bool"
        }
      ],
      "stateMutability": "view",
      "type": "function"
    },
    {
      "inputs": [
        {
          "internalType": "address",
          "name": "owner",
          "type": "address"
        },
        {
          "internalType": "address",
          "name": "operator",
          "type": "address"
        }
      ],
      "name": "isApprovedForAll",
      "outputs": [
        {
          "internalType": "bool",
          "name": "",
          "type": "bool"
        }
      ],
      "stateMutability": "view",
      "type": "function"
    },
    {
      "inputs": [
        {
          "components": [
            {
              "internalType": "bytes32",
              "name": "checksum",
              "type": "bytes32"
            },
            {
              "internalType": "address",
              "name": "issuedBy",
              "type": "address"
            },
            {
              "internalType": "uint32",
              "name": "issuedAt",
              "type": "uint32"
            },
            {
              "internalType": "bytes",
              "name": "signature",
              "type": "bytes"
            },
            {
              "internalType": "string",
              "name": "metadata",
              "type": "string"
            },
            {
              "internalType": "address",
              "name": "storageAddress",
              "type": "address"
            }
          ],
          "internalType": "struct Profile.UserProfile",
          "name": "profile",
          "type": "tuple"
        },
        {
          "internalType": "string",
          "name": "data",
          "type": "string"
        }
      ],
      "name": "mint",
      "outputs": [
        {
          "internalType": "uint256",
          "name": "",
          "type": "uint256"
        }
      ],
      "stateMutability": "payable",
      "type": "function"
    },
    {
      "inputs": [],
      "name": "name",
      "outputs": [
        {
          "internalType": "string",
          "name": "",
          "type": "string"
        }
      ],
      "stateMutability": "view",
      "type": "function"
    },
    {
      "inputs": [],
      "name": "owner",
      "outputs": [
        {
          "internalType": "address",
          "name": "",
          "type": "address"
        }
      ],
      "stateMutability": "view",
      "type": "function"
    },
    {
      "inputs": [
        {
          "internalType": "uint256",
          "name": "tokenId",
          "type": "uint256"
        }
      ],
      "name": "ownerOf",
      "outputs": [
        {
          "internalType": "address",
          "name": "",
          "type": "address"
        }
      ],
      "stateMutability": "view",
      "type": "function"
    },
    {
      "inputs": [],
      "name": "proxiableUUID",
      "outputs": [
        {
          "internalType": "bytes32",
          "name": "",
          "type": "bytes32"
        }
      ],
      "stateMutability": "view",
      "type": "function"
    },
    {
      "inputs": [],
      "name": "renounceOwnership",
      "outputs": [],
      "stateMutability": "nonpayable",
      "type": "function"
    },
    {
      "inputs": [
        {
          "internalType": "bytes32",
          "name": "role",
          "type": "bytes32"
        },
        {
          "internalType": "address",
          "name": "account",
          "type": "address"
        }
      ],
      "name": "renounceRole",
      "outputs": [],
      "stateMutability": "nonpayable",
      "type": "function"
    },
    {
      "inputs": [
        {
          "internalType": "bytes32",
          "name": "role",
          "type": "bytes32"
        },
        {
          "internalType": "address",
          "name": "account",
          "type": "address"
        }
      ],
      "name": "revokeRole",
      "outputs": [],
      "stateMutability": "nonpayable",
      "type": "function"
    },
    {
      "inputs": [
        {
          "internalType": "address",
          "name": "from",
          "type": "address"
        },
        {
          "internalType": "address",
          "name": "to",
          "type": "address"
        },
        {
          "internalType": "uint256",
          "name": "tokenId",
          "type": "uint256"
        }
      ],
      "name": "safeTransferFrom",
      "outputs": [],
      "stateMutability": "nonpayable",
      "type": "function"
    },
    {
      "inputs": [
        {
          "internalType": "address",
          "name": "from",
          "type": "address"
        },
        {
          "internalType": "address",
          "name": "to",
          "type": "address"
        },
        {
          "internalType": "uint256",
          "name": "tokenId",
          "type": "uint256"
        },
        {
          "internalType": "bytes",
          "name": "data",
          "type": "bytes"
        }
      ],
      "name": "safeTransferFrom",
      "outputs": [],
      "stateMutability": "nonpayable",
      "type": "function"
    },
    {
      "inputs": [
        {
          "internalType": "address",
          "name": "operator",
          "type": "address"
        },
        {
          "internalType": "bool",
          "name": "approved",
          "type": "bool"
        }
      ],
      "name": "setApprovalForAll",
      "outputs": [],
      "stateMutability": "nonpayable",
      "type": "function"
    },
    {
      "inputs": [
        {
          "internalType": "address",
          "name": "_address",
          "type": "address"
        }
      ],
      "name": "setDataStorageProvider",
      "outputs": [],
      "stateMutability": "nonpayable",
      "type": "function"
    },
    {
      "inputs": [
        {
          "internalType": "bytes4",
          "name": "interfaceId",
          "type": "bytes4"
        }
      ],
      "name": "supportsInterface",
      "outputs": [
        {
          "internalType": "bool",
          "name": "",
          "type": "bool"
        }
      ],
      "stateMutability": "view",
      "type": "function"
    },
    {
      "inputs": [],
      "name": "symbol",
      "outputs": [
        {
          "internalType": "string",
          "name": "",
          "type": "string"
        }
      ],
      "stateMutability": "view",
      "type": "function"
    },
    {
      "inputs": [
        {
          "internalType": "address",
          "name": "from",
          "type": "address"
        }
      ],
      "name": "tokenIdOf",
      "outputs": [
        {
          "internalType": "uint256",
          "name": "",
          "type": "uint256"
        }
      ],
      "stateMutability": "view",
      "type": "function"
    },
    {
      "inputs": [
        {
          "internalType": "uint256",
          "name": "tokenId",
          "type": "uint256"
        }
      ],
      "name": "tokenURI",
      "outputs": [
        {
          "internalType": "string",
          "name": "",
          "type": "string"
        }
      ],
      "stateMutability": "view",
      "type": "function"
    },
    {
      "inputs": [],
      "name": "totalSupply",
      "outputs": [
        {
          "internalType": "uint256",
          "name": "",
          "type": "uint256"
        }
      ],
      "stateMutability": "view",
      "type": "function"
    },
    {
      "inputs": [
        {
          "internalType": "address",
          "name": "from",
          "type": "address"
        },
        {
          "internalType": "address",
          "name": "to",
          "type": "address"
        },
        {
          "internalType": "uint256",
          "name": "tokenId",
          "type": "uint256"
        }
      ],
      "name": "transferFrom",
      "outputs": [],
      "stateMutability": "nonpayable",
      "type": "function"
    },
    {
      "inputs": [
        {
          "internalType": "address",
          "name": "newOwner",
          "type": "address"
        }
      ],
      "name": "transferOwnership",
      "outputs": [],
      "stateMutability": "nonpayable",
      "type": "function"
    },
    {
      "inputs": [
        {
          "internalType": "address",
          "name": "newImplementation",
          "type": "address"
        }
      ],
      "name": "upgradeTo",
      "outputs": [],
      "stateMutability": "nonpayable",
      "type": "function"
    },
    {
      "inputs": [
        {
          "internalType": "address",
          "name": "newImplementation",
          "type": "address"
        },
        {
          "internalType": "bytes",
          "name": "data",
          "type": "bytes"
        }
      ],
      "name": "upgradeToAndCall",
      "outputs": [],
      "stateMutability": "payable",
      "type": "function"
    }
  ],
  "bytecode": "0x60a0604052306080523480156200001557600080fd5b506200002062000026565b620000e7565b600054610100900460ff1615620000935760405162461bcd60e51b815260206004820152602760248201527f496e697469616c697a61626c653a20636f6e747261637420697320696e697469604482015266616c697a696e6760c81b606482015260840160405180910390fd5b60005460ff90811614620000e5576000805460ff191660ff9081179091556040519081527f7f26b83ff96e1f2b6a682f133852f6798a09c465da95921460cefb38474024989060200160405180910390a15b565b60805161375e6200011f60003960008181610c2401528181610c6401528181611063015281816110a30152611132015261375e6000f3fe6080604052600436106101ee5760003560e01c806352d1902d1161010d57806395d89b41116100a0578063c87b56dd1161006f578063c87b56dd14610551578063d547741f14610571578063e985e9c514610591578063f2fde38b146105da578063faf4a931146105fa57600080fd5b806395d89b41146104e7578063a217fddf146104fc578063a22cb46514610511578063b88d4fde1461053157600080fd5b8063715018a6116100dc578063715018a614610474578063773c02d4146104895780638da5cb5b146104a957806391d14854146104c757600080fd5b806352d1902d146103ff5780635dc4fe7e146104145780636352211e1461043457806370a082311461045457600080fd5b8063248a9ca3116101855780633659cfe6116101545780633659cfe6146103c457806342842e0e1461031457806344df8e70146103e45780634f1ef286146103ec57600080fd5b8063248a9ca31461033457806324d7806c146103645780632f2ff15d1461038457806336568abe146103a457600080fd5b8063095ea7b3116101c1578063095ea7b3146102a457806318160ddd146102c45780631f52b76c146102e757806323b872dd1461031457600080fd5b806301ffc9a7146101f357806306fdde0314610228578063077f224a1461024a578063081812fc1461026c575b600080fd5b3480156101ff57600080fd5b5061021361020e366004612c99565b61060d565b60405190151581526020015b60405180910390f35b34801561023457600080fd5b5061023d61061e565b60405161021f9190612d06565b34801561025657600080fd5b5061026a610265366004612e01565b6106b0565b005b34801561027857600080fd5b5061028c610287366004612e75565b6107ee565b6040516001600160a01b03909116815260200161021f565b3480156102b057600080fd5b5061026a6102bf366004612e8e565b610815565b3480156102d057600080fd5b506102d961092a565b60405190815260200161021f565b3480156102f357600080fd5b50610307610302366004612e75565b61093c565b60405161021f9190612eb8565b34801561032057600080fd5b5061026a61032f366004612f3b565b610b38565b34801561034057600080fd5b506102d961034f366004612e75565b600090815260c9602052604090206001015490565b34801561037057600080fd5b5061021361037f366004612f77565b610b6b565b34801561039057600080fd5b5061026a61039f366004612f92565b610b77565b3480156103b057600080fd5b5061026a6103bf366004612f92565b610b9c565b3480156103d057600080fd5b5061026a6103df366004612f77565b610c1a565b61026a610cf9565b61026a6103fa366004612fbe565b611059565b34801561040b57600080fd5b506102d9611125565b34801561042057600080fd5b5061026a61042f366004612f77565b6111d8565b34801561044057600080fd5b5061028c61044f366004612e75565b611258565b34801561046057600080fd5b506102d961046f366004612f77565b611298565b34801561048057600080fd5b5061026a6112c3565b34801561049557600080fd5b506102d96104a4366004612f77565b6112d7565b3480156104b557600080fd5b506097546001600160a01b031661028c565b3480156104d357600080fd5b506102136104e2366004612f92565b611300565b3480156104f357600080fd5b5061023d61132b565b34801561050857600080fd5b506102d9600081565b34801561051d57600080fd5b5061026a61052c36600461301a565b61133a565b34801561053d57600080fd5b5061026a61054c366004613051565b611345565b34801561055d57600080fd5b5061023d61056c366004612e75565b611379565b34801561057d57600080fd5b5061026a61058c366004612f92565b6114b0565b34801561059d57600080fd5b506102136105ac3660046130b9565b6001600160a01b039182166000908152606a6020908152604080832093909416825291909152205460ff1690565b3480156105e657600080fd5b5061026a6105f5366004612f77565b6114d5565b6102d96106083660046130f7565b61154b565b600061061882611a35565b92915050565b60606065805461062d906131e0565b80601f0160208091040260200160405190810160405280929190818152602001828054610659906131e0565b80156106a65780601f1061067b576101008083540402835291602001916106a6565b820191906000526020600020905b81548152906001019060200180831161068957829003601f168201915b5050505050905090565b600054610100900460ff16158080156106d05750600054600160ff909116105b806106ea5750303b1580156106ea575060005460ff166001145b6107525760405162461bcd60e51b815260206004820152602e60248201527f496e697469616c697a61626c653a20636f6e747261637420697320616c72656160448201526d191e481a5b9a5d1a585b1a5e995960921b60648201526084015b60405180910390fd5b6000805460ff191660011790558015610775576000805461ff0019166101001790555b61077d611a5a565b610785611a89565b61078f8484611ab0565b610797611a89565b6107a2600083611ae1565b80156107e8576000805461ff0019169055604051600181527f7f26b83ff96e1f2b6a682f133852f6798a09c465da95921460cefb38474024989060200160405180910390a15b50505050565b60006107f982611b67565b506000908152606960205260409020546001600160a01b031690565b600061082082611bc6565b9050806001600160a01b0316836001600160a01b03160361088d5760405162461bcd60e51b815260206004820152602160248201527f4552433732313a20617070726f76616c20746f2063757272656e74206f776e656044820152603960f91b6064820152608401610749565b336001600160a01b03821614806108a957506108a981336105ac565b61091b5760405162461bcd60e51b815260206004820152603d60248201527f4552433732313a20617070726f76652063616c6c6572206973206e6f7420746f60448201527f6b656e206f776e6572206f7220617070726f76656420666f7220616c6c0000006064820152608401610749565b6109258383611c26565b505050565b6000610937610162611c94565b905090565b6040805160c081018252600080825260208083018290528284018290526060808401819052608084015260a083018290528351808501909452600f84526e125b9d985b1a59081d1bdad95b9259608a1b9084015290916109a19061015f908590611c9f565b6001600160a01b03818116600090815261016760209081526040808320815160c08101835281548152600182015495861693810193909352600160a01b90940463ffffffff169082015260028301805494955091939092916060840191610a07906131e0565b80601f0160208091040260200160405190810160405280929190818152602001828054610a33906131e0565b8015610a805780601f10610a5557610100808354040283529160200191610a80565b820191906000526020600020905b815481529060010190602001808311610a6357829003601f168201915b50505050508152602001600382018054610a99906131e0565b80601f0160208091040260200160405190810160405280929190818152602001828054610ac5906131e0565b8015610b125780601f10610ae757610100808354040283529160200191610b12565b820191906000526020600020905b815481529060010190602001808311610af557829003601f168201915b5050509183525050600491909101546001600160a01b0316602090910152949350505050565b6001600160a01b03831615610b6057604051633859b9e960e01b815260040160405180910390fd5b610925838383611cb4565b60006106188183611300565b600082815260c96020526040902060010154610b9281611ccf565b6109258383611ae1565b6001600160a01b0381163314610c0c5760405162461bcd60e51b815260206004820152602f60248201527f416363657373436f6e74726f6c3a2063616e206f6e6c792072656e6f756e636560448201526e103937b632b9903337b91039b2b63360891b6064820152608401610749565b610c168282611cd9565b5050565b6001600160a01b037f0000000000000000000000000000000000000000000000000000000000000000163003610c625760405162461bcd60e51b81526004016107499061321a565b7f00000000000000000000000000000000000000000000000000000000000000006001600160a01b0316610cab6000805160206136e2833981519152546001600160a01b031690565b6001600160a01b031614610cd15760405162461bcd60e51b815260040161074990613266565b610cda81611d40565b60408051600080825260208201909252610cf691839190611d48565b50565b610d0561016233611eb3565b610d5b5760405162461bcd60e51b815260206004820152602160248201527f546865206163636f756e7420646f6573206e6f7420686176652070726f66696c6044820152606560f81b6064820152608401610749565b6000610d6961016233611ec8565b9050610d7761016233611edd565b50610d8461015f82611ef2565b5033600090815261016760209081526040808320815160c0810183528154815260018201546001600160a01b03811694820194909452600160a01b90930463ffffffff1691830191909152600281018054606084019190610de4906131e0565b80601f0160208091040260200160405190810160405280929190818152602001828054610e10906131e0565b8015610e5d5780601f10610e3257610100808354040283529160200191610e5d565b820191906000526020600020905b815481529060010190602001808311610e4057829003601f168201915b50505050508152602001600382018054610e76906131e0565b80601f0160208091040260200160405190810160405280929190818152602001828054610ea2906131e0565b8015610eef5780601f10610ec457610100808354040283529160200191610eef565b820191906000526020600020905b815481529060010190602001808311610ed257829003601f168201915b5050509183525050600491909101546001600160a01b0390811660209283015260a083015181166000908152610166835260408082205481513381870152825180820390960186528083019283905263163b7bd360e21b9092529495509093909116916358edef4c91610f659190604401612d06565b6020604051808303816000875af1158015610f84573d6000803e3d6000fd5b505050506040513d601f19601f82011682018060405250810190610fa891906132b2565b9050600181151514610fcc5760405162461bcd60e51b8152600401610749906132cf565b336000908152610167602052604081208181556001810180546001600160c01b031916905590610fff6002830182612c35565b61100d600383016000612c35565b5060040180546001600160a01b031916905560405183815233907fcc16f5dbb4873280815c1ee09dbd06736cffcc184412cf7a71a0fdb75d397ca59060200160405180910390a2505050565b6001600160a01b037f00000000000000000000000000000000000000000000000000000000000000001630036110a15760405162461bcd60e51b81526004016107499061321a565b7f00000000000000000000000000000000000000000000000000000000000000006001600160a01b03166110ea6000805160206136e2833981519152546001600160a01b031690565b6001600160a01b0316146111105760405162461bcd60e51b815260040161074990613266565b61111982611d40565b610c1682826001611d48565b6000306001600160a01b037f000000000000000000000000000000000000000000000000000000000000000016146111c55760405162461bcd60e51b815260206004820152603860248201527f555550535570677261646561626c653a206d757374206e6f742062652063616c60448201527f6c6564207468726f7567682064656c656761746563616c6c00000000000000006064820152608401610749565b506000805160206136e283398151915290565b6111e0611efe565b6001600160a01b03811661122d5760405162461bcd60e51b815260206004820152601460248201527373746f72616765207a65726f206164647265737360601b6044820152606401610749565b6001600160a01b031660008181526101666020526040902080546001600160a01b0319169091179055565b6000610618826040518060400160405280600f81526020016e125b9d985b1a59081d1bdad95b9259608a1b81525061015f611c9f9092919063ffffffff16565b6000806112a761016284611f58565b509050806112b65760006112b9565b60015b60ff169392505050565b6112cb611efe565b6112d56000611f7f565b565b6000610618826040518060600160405280602c81526020016136b6602c91396101629190611fd1565b600091825260c9602090815260408084206001600160a01b0393909316845291905290205460ff1690565b60606066805461062d906131e0565b610c16338383611fe7565b6001600160a01b0384161561136d57604051633859b9e960e01b815260040160405180910390fd5b6107e8848484846120b5565b606060006113bb836040518060400160405280600f81526020016e151bdad95b881b9bdd08195e1a5cdd608a1b81525061015f611c9f9092919063ffffffff16565b6001600160a01b038116600090815261016760205260408120600301805492935090916113e7906131e0565b90501161140357604051806020016040528060008152506114a9565b6001600160a01b038116600090815261016760205260409020600301805461142a906131e0565b80601f0160208091040260200160405190810160405280929190818152602001828054611456906131e0565b80156114a35780601f10611478576101008083540402835291602001916114a3565b820191906000526020600020905b81548152906001019060200180831161148657829003601f168201915b50505050505b9392505050565b600082815260c960205260409020600101546114cb81611ccf565b6109258383611cd9565b6114dd611efe565b6001600160a01b0381166115425760405162461bcd60e51b815260206004820152602660248201527f4f776e61626c653a206e6577206f776e657220697320746865207a65726f206160448201526564647265737360d01b6064820152608401610749565b610cf681611f7f565b60a08201516000906001600160a01b03166115795760405163e57ffd0760e01b815260040160405180910390fd5b60a08301516001600160a01b0390811660009081526101666020526040902054166115e65760405162461bcd60e51b815260206004820152601760248201527f73746f72616765206e6f7420696e697469616c697a65640000000000000000006044820152606401610749565b60006115f461016233611eb3565b1561185a5761160561016233611ec8565b33600090815261016760209081526040808320815160c0810183528154815260018201546001600160a01b03811694820194909452600160a01b90930463ffffffff169183019190915260028101805494955092939192909160608401919061166d906131e0565b80601f0160208091040260200160405190810160405280929190818152602001828054611699906131e0565b80156116e65780601f106116bb576101008083540402835291602001916116e6565b820191906000526020600020905b8154815290600101906020018083116116c957829003601f168201915b505050505081526020016003820180546116ff906131e0565b80601f016020809104026020016040519081016040528092919081815260200182805461172b906131e0565b80156117785780601f1061174d57610100808354040283529160200191611778565b820191906000526020600020905b81548152906001019060200180831161175b57829003601f168201915b5050509183525050600491909101546001600160a01b0390811660209092019190915260a0878101519083015192935081169116146118545760a08101516001600160a01b03908116600090815261016660209081526040918290205482513381840152835180820390930183528084019384905263163b7bd360e21b909352909216916358edef4c9161180f9190604401612d06565b6020604051808303816000875af115801561182e573d6000803e3d6000fd5b505050506040513d601f19601f8201168201806040525081019061185291906132b2565b505b5061188b565b61186961016580546001019055565b506101655461187b610162338361212d565b5061188961015f8233612143565b505b336000908152610167602090815260409182902086518155908601516001820180549388015163ffffffff16600160a01b026001600160c01b03199094166001600160a01b03929092169190911792909217909155606085015185919060028201906118f7908261335f565b506080820151600382019061190c908261335f565b5060a09182015160049190910180546001600160a01b0319166001600160a01b039283161790559085015181166000908152610166602090815260408083205490519293169163cf5ba53f9161196691339189910161341f565b6040516020818303038152906040526040518263ffffffff1660e01b81526004016119919190612d06565b6020604051808303816000875af11580156119b0573d6000803e3d6000fd5b505050506040513d601f19601f820116820180604052508101906119d491906132b2565b90506001811515146119f85760405162461bcd60e51b8152600401610749906132cf565b60405182815233907f0f6798a560793a54c3bcfe86a93cde1e73087d944c0ea20544137d41213968859060200160405180910390a2509392505050565b60006001600160e01b03198216637965db0b60e01b1480610618575061061882612159565b600054610100900460ff16611a815760405162461bcd60e51b815260040161074990613443565b6112d56121a9565b600054610100900460ff166112d55760405162461bcd60e51b815260040161074990613443565b600054610100900460ff16611ad75760405162461bcd60e51b815260040161074990613443565b610c1682826121d9565b611aeb8282611300565b610c1657600082815260c9602090815260408083206001600160a01b03851684529091529020805460ff19166001179055611b233390565b6001600160a01b0316816001600160a01b0316837f2f8788117e7eff1d82e926ec794901d17c78024a50270940304540a733656f0d60405160405180910390a45050565b6000818152606760205260409020546001600160a01b0316610cf65760405162461bcd60e51b8152602060048201526018602482015277115490cdcc8c4e881a5b9d985b1a59081d1bdad95b88125160421b6044820152606401610749565b6000818152606760205260408120546001600160a01b0316806106185760405162461bcd60e51b8152602060048201526018602482015277115490cdcc8c4e881a5b9d985b1a59081d1bdad95b88125160421b6044820152606401610749565b600081815260696020526040902080546001600160a01b0319166001600160a01b0384169081179091558190611c5b82611bc6565b6001600160a01b03167f8c5be1e5ebec7d5bd14f71427d1e84f3dd0314c0f7b2291e5b200ac8c7c3b92560405160405180910390a45050565b600061061882612219565b6000611cac848484612224565b949350505050565b61092583838360405180602001604052806000815250611345565b610cf68133612270565b611ce38282611300565b15610c1657600082815260c9602090815260408083206001600160a01b0385168085529252808320805460ff1916905551339285917ff6391f5c32d9c69d2a47ea670b442974b53935d1edc7fd64eb21e047a839171b9190a45050565b610cf6611efe565b7f4910fdfa16fed3260ed0e7147f7cc6da11a60208b5b9406d12a635614ffd91435460ff1615611d7b57610925836122c9565b826001600160a01b03166352d1902d6040518163ffffffff1660e01b8152600401602060405180830381865afa925050508015611dd5575060408051601f3d908101601f19168201909252611dd29181019061348e565b60015b611e385760405162461bcd60e51b815260206004820152602e60248201527f45524331393637557067726164653a206e657720696d706c656d656e7461746960448201526d6f6e206973206e6f74205555505360901b6064820152608401610749565b6000805160206136e28339815191528114611ea75760405162461bcd60e51b815260206004820152602960248201527f45524331393637557067726164653a20756e737570706f727465642070726f786044820152681a58589b195555525160ba1b6064820152608401610749565b50610925838383612365565b60006114a9836001600160a01b03841661238a565b60006114a9836001600160a01b038416612396565b60006114a9836001600160a01b038416612406565b60006114a98383612406565b6097546001600160a01b031633146112d55760405162461bcd60e51b815260206004820181905260248201527f4f776e61626c653a2063616c6c6572206973206e6f7420746865206f776e65726044820152606401610749565b6000808080611f70866001600160a01b038716612423565b909450925050505b9250929050565b609780546001600160a01b038381166001600160a01b0319831681179093556040519116919082907f8be0079c531659141344cd1fd0a4f28419497f9722a3daafe3b4186f6b6457e090600090a35050565b6000611cac846001600160a01b03851684612224565b816001600160a01b0316836001600160a01b0316036120485760405162461bcd60e51b815260206004820152601960248201527f4552433732313a20617070726f766520746f2063616c6c6572000000000000006044820152606401610749565b6001600160a01b038381166000818152606a6020908152604080832094871680845294825291829020805460ff191686151590811790915591519182527f17307eab39ab6107e8899845ad3d59bd9653f200f220920489ca2b5937696c31910160405180910390a3505050565b6120bf338361245d565b6121215760405162461bcd60e51b815260206004820152602d60248201527f4552433732313a2063616c6c6572206973206e6f7420746f6b656e206f776e6560448201526c1c881bdc88185c1c1c9bdd9959609a1b6064820152608401610749565b6107e8848484846124db565b6000611cac846001600160a01b0385168461250e565b6000611cac84846001600160a01b03851661250e565b60006001600160e01b031982166380ac58cd60e01b148061218a57506001600160e01b03198216635b5e139f60e01b145b8061061857506301ffc9a760e01b6001600160e01b0319831614610618565b600054610100900460ff166121d05760405162461bcd60e51b815260040161074990613443565b6112d533611f7f565b600054610100900460ff166122005760405162461bcd60e51b815260040161074990613443565b606561220c838261335f565b506066610925828261335f565b60006106188261252b565b6000828152600284016020526040812054801515806122485750612248858561238a565b83906122675760405162461bcd60e51b81526004016107499190612d06565b50949350505050565b61227a8282611300565b610c165761228781612535565b612292836020612547565b6040516020016122a39291906134a7565b60408051601f198184030181529082905262461bcd60e51b825261074991600401612d06565b6001600160a01b0381163b6123365760405162461bcd60e51b815260206004820152602d60248201527f455243313936373a206e657720696d706c656d656e746174696f6e206973206e60448201526c1bdd08184818dbdb9d1c9858dd609a1b6064820152608401610749565b6000805160206136e283398151915280546001600160a01b0319166001600160a01b0392909216919091179055565b61236e836126e3565b60008251118061237b5750805b15610925576107e88383612723565b60006114a98383612748565b6000818152600283016020526040812054801515806123ba57506123ba848461238a565b6114a95760405162461bcd60e51b815260206004820152601e60248201527f456e756d657261626c654d61703a206e6f6e6578697374656e74206b657900006044820152606401610749565b600081815260028301602052604081208190556114a98383612760565b600081815260028301602052604081205481908061245257612445858561238a565b925060009150611f789050565b600192509050611f78565b60008061246983611bc6565b9050806001600160a01b0316846001600160a01b031614806124b057506001600160a01b038082166000908152606a602090815260408083209388168352929052205460ff165b80611cac5750836001600160a01b03166124c9846107ee565b6001600160a01b031614949350505050565b6124e684848461276c565b6124f2848484846128d0565b6107e85760405162461bcd60e51b81526004016107499061351c565b60008281526002840160205260408120829055611cac84846129d1565b6000610618825490565b60606106186001600160a01b03831660145b60606000612556836002613584565b61256190600261359b565b67ffffffffffffffff81111561257957612579612d19565b6040519080825280601f01601f1916602001820160405280156125a3576020820181803683370190505b509050600360fc1b816000815181106125be576125be6135ae565b60200101906001600160f81b031916908160001a905350600f60fb1b816001815181106125ed576125ed6135ae565b60200101906001600160f81b031916908160001a9053506000612611846002613584565b61261c90600161359b565b90505b6001811115612694576f181899199a1a9b1b9c1cb0b131b232b360811b85600f1660108110612650576126506135ae565b1a60f81b828281518110612666576126666135ae565b60200101906001600160f81b031916908160001a90535060049490941c9361268d816135c4565b905061261f565b5083156114a95760405162461bcd60e51b815260206004820181905260248201527f537472696e67733a20686578206c656e67746820696e73756666696369656e746044820152606401610749565b6126ec816122c9565b6040516001600160a01b038216907fbc7cd75a20ee27fd9adebab32041f755214dbc6bffa90cc0225b39da2e5c2d3b90600090a250565b60606114a98383604051806060016040528060278152602001613702602791396129dd565b600081815260018301602052604081205415156114a9565b60006114a98383612a55565b826001600160a01b031661277f82611bc6565b6001600160a01b0316146127a55760405162461bcd60e51b8152600401610749906135db565b6001600160a01b0382166128075760405162461bcd60e51b8152602060048201526024808201527f4552433732313a207472616e7366657220746f20746865207a65726f206164646044820152637265737360e01b6064820152608401610749565b826001600160a01b031661281a82611bc6565b6001600160a01b0316146128405760405162461bcd60e51b8152600401610749906135db565b600081815260696020908152604080832080546001600160a01b03199081169091556001600160a01b0387811680865260688552838620805460001901905590871680865283862080546001019055868652606790945282852080549092168417909155905184937fddf252ad1be2c89b69c2b068fc378daa952ba7f163c4a11628f55a4df523b3ef91a4505050565b60006001600160a01b0384163b156129c657604051630a85bd0160e11b81526001600160a01b0385169063150b7a0290612914903390899088908890600401613620565b6020604051808303816000875af192505050801561294f575060408051601f3d908101601f1916820190925261294c91810190613653565b60015b6129ac573d80801561297d576040519150601f19603f3d011682016040523d82523d6000602084013e612982565b606091505b5080516000036129a45760405162461bcd60e51b81526004016107499061351c565b805181602001fd5b6001600160e01b031916630a85bd0160e11b149050611cac565b506001949350505050565b60006114a98383612b48565b6060600080856001600160a01b0316856040516129fa9190613670565b600060405180830381855af49150503d8060008114612a35576040519150601f19603f3d011682016040523d82523d6000602084013e612a3a565b606091505b5091509150612a4b86838387612b97565b9695505050505050565b60008181526001830160205260408120548015612b3e576000612a7960018361368c565b8554909150600090612a8d9060019061368c565b9050818114612af2576000866000018281548110612aad57612aad6135ae565b9060005260206000200154905080876000018481548110612ad057612ad06135ae565b6000918252602080832090910192909255918252600188019052604090208390555b8554869080612b0357612b0361369f565b600190038181906000526020600020016000905590558560010160008681526020019081526020016000206000905560019350505050610618565b6000915050610618565b6000818152600183016020526040812054612b8f57508154600181810184556000848152602080822090930184905584548482528286019093526040902091909155610618565b506000610618565b60608315612c06578251600003612bff576001600160a01b0385163b612bff5760405162461bcd60e51b815260206004820152601d60248201527f416464726573733a2063616c6c20746f206e6f6e2d636f6e74726163740000006044820152606401610749565b5081611cac565b611cac8383815115612c1b5781518083602001fd5b8060405162461bcd60e51b81526004016107499190612d06565b508054612c41906131e0565b6000825580601f10612c51575050565b601f016020900490600052602060002090810190610cf691905b80821115612c7f5760008155600101612c6b565b5090565b6001600160e01b031981168114610cf657600080fd5b600060208284031215612cab57600080fd5b81356114a981612c83565b60005b83811015612cd1578181015183820152602001612cb9565b50506000910152565b60008151808452612cf2816020860160208601612cb6565b601f01601f19169290920160200192915050565b6020815260006114a96020830184612cda565b634e487b7160e01b600052604160045260246000fd5b60405160c0810167ffffffffffffffff81118282101715612d5257612d52612d19565b60405290565b600082601f830112612d6957600080fd5b813567ffffffffffffffff80821115612d8457612d84612d19565b604051601f8301601f19908116603f01168101908282118183101715612dac57612dac612d19565b81604052838152866020858801011115612dc557600080fd5b836020870160208301376000602085830101528094505050505092915050565b80356001600160a01b0381168114612dfc57600080fd5b919050565b600080600060608486031215612e1657600080fd5b833567ffffffffffffffff80821115612e2e57600080fd5b612e3a87838801612d58565b94506020860135915080821115612e5057600080fd5b50612e5d86828701612d58565b925050612e6c60408501612de5565b90509250925092565b600060208284031215612e8757600080fd5b5035919050565b60008060408385031215612ea157600080fd5b612eaa83612de5565b946020939093013593505050565b60208152815160208201526000602083015160018060a01b03808216604085015263ffffffff60408601511660608501526060850151915060c06080850152612f0460e0850183612cda565b91506080850151601f198584030160a0860152612f218382612cda565b9250508060a08601511660c0850152508091505092915050565b600080600060608486031215612f5057600080fd5b612f5984612de5565b9250612f6760208501612de5565b9150604084013590509250925092565b600060208284031215612f8957600080fd5b6114a982612de5565b60008060408385031215612fa557600080fd5b82359150612fb560208401612de5565b90509250929050565b60008060408385031215612fd157600080fd5b612fda83612de5565b9150602083013567ffffffffffffffff811115612ff657600080fd5b61300285828601612d58565b9150509250929050565b8015158114610cf657600080fd5b6000806040838503121561302d57600080fd5b61303683612de5565b915060208301356130468161300c565b809150509250929050565b6000806000806080858703121561306757600080fd5b61307085612de5565b935061307e60208601612de5565b925060408501359150606085013567ffffffffffffffff8111156130a157600080fd5b6130ad87828801612d58565b91505092959194509250565b600080604083850312156130cc57600080fd5b6130d583612de5565b9150612fb560208401612de5565b803563ffffffff81168114612dfc57600080fd5b6000806040838503121561310a57600080fd5b823567ffffffffffffffff8082111561312257600080fd5b9084019060c0828703121561313657600080fd5b61313e612d2f565b8235815261314e60208401612de5565b602082015261315f604084016130e3565b604082015260608301358281111561317657600080fd5b61318288828601612d58565b60608301525060808301358281111561319a57600080fd5b6131a688828601612d58565b6080830152506131b860a08401612de5565b60a0820152935060208501359150808211156131d357600080fd5b5061300285828601612d58565b600181811c908216806131f457607f821691505b60208210810361321457634e487b7160e01b600052602260045260246000fd5b50919050565b6020808252602c908201527f46756e6374696f6e206d7573742062652063616c6c6564207468726f7567682060408201526b19195b1959d85d1958d85b1b60a21b606082015260800190565b6020808252602c908201527f46756e6374696f6e206d7573742062652063616c6c6564207468726f7567682060408201526b6163746976652070726f787960a01b606082015260800190565b6000602082840312156132c457600080fd5b81516114a98161300c565b60208082526022908201527f696e76616c696420726573706f6e73652066726f6d20646174612073746f7261604082015261676560f01b606082015260800190565b601f82111561092557600081815260208120601f850160051c810160208610156133385750805b601f850160051c820191505b8181101561335757828155600101613344565b505050505050565b815167ffffffffffffffff81111561337957613379612d19565b61338d8161338784546131e0565b84613311565b602080601f8311600181146133c257600084156133aa5750858301515b600019600386901b1c1916600185901b178555613357565b600085815260208120601f198616915b828110156133f1578886015182559484019460019091019084016133d2565b508582101561340f5787850151600019600388901b60f8161c191681555b5050505050600190811b01905550565b6001600160a01b0383168152604060208201819052600090611cac90830184612cda565b6020808252602b908201527f496e697469616c697a61626c653a20636f6e7472616374206973206e6f74206960408201526a6e697469616c697a696e6760a81b606082015260800190565b6000602082840312156134a057600080fd5b5051919050565b7f416363657373436f6e74726f6c3a206163636f756e74200000000000000000008152600083516134df816017850160208801612cb6565b7001034b99036b4b9b9b4b733903937b6329607d1b6017918401918201528351613510816028840160208801612cb6565b01602801949350505050565b60208082526032908201527f4552433732313a207472616e7366657220746f206e6f6e20455243373231526560408201527131b2b4bb32b91034b6b83632b6b2b73a32b960711b606082015260800190565b634e487b7160e01b600052601160045260246000fd5b80820281158282048414176106185761061861356e565b808201808211156106185761061861356e565b634e487b7160e01b600052603260045260246000fd5b6000816135d3576135d361356e565b506000190190565b60208082526025908201527f4552433732313a207472616e736665722066726f6d20696e636f72726563742060408201526437bbb732b960d91b606082015260800190565b6001600160a01b0385811682528416602082015260408101839052608060608201819052600090612a4b90830184612cda565b60006020828403121561366557600080fd5b81516114a981612c83565b60008251613682818460208701612cb6565b9190910192915050565b818103818111156106185761061861356e565b634e487b7160e01b600052603160045260246000fdfe5468652077616c6c657420646f6573206e6f742068617665206120636f6d706c657465642070726f66696c65360894a13ba1a3210667c828492db98dca3e2076cc3735a920a3ca505d382bbc416464726573733a206c6f772d6c6576656c2064656c65676174652063616c6c206661696c6564a264697066735822122002ed85b0b5f4d68d5f1c3287a166bb2d66cfe8315286e1ed0becb03474b8e97964736f6c63430008130033",
  "linkReferences": {},
  "deployedLinkReferences": {}
}