{
  "_format": "hh-sol-artifact-1",
  "contractName": "Profile",
  "sourceName": "contracts/Profile.sol",
  "abi": [
    {
      "inputs": [],
      "stateMutability": "nonpayable",
      "type": "constructor"
    },
    {
      "inputs": [],
      "name": "TokenTransferProhibited",
      "type": "error"
    },
    {
      "anonymous": false,
      "inputs": [
        {
          "indexed": false,
          "internalType": "address",
          "name": "previousAdmin",
          "type": "address"
        },
        {
          "indexed": false,
          "internalType": "address",
          "name": "newAdmin",
          "type": "address"
        }
      ],
      "name": "AdminChanged",
      "type": "event"
    },
    {
      "anonymous": false,
      "inputs": [
        {
          "indexed": true,
          "internalType": "address",
          "name": "owner",
          "type": "address"
        },
        {
          "indexed": true,
          "internalType": "address",
          "name": "approved",
          "type": "address"
        },
        {
          "indexed": true,
          "internalType": "uint256",
          "name": "tokenId",
          "type": "uint256"
        }
      ],
      "name": "Approval",
      "type": "event"
    },
    {
      "anonymous": false,
      "inputs": [
        {
          "indexed": true,
          "internalType": "address",
          "name": "owner",
          "type": "address"
        },
        {
          "indexed": true,
          "internalType": "address",
          "name": "operator",
          "type": "address"
        },
        {
          "indexed": false,
          "internalType": "bool",
          "name": "approved",
          "type": "bool"
        }
      ],
      "name": "ApprovalForAll",
      "type": "event"
    },
    {
      "anonymous": false,
      "inputs": [
        {
          "indexed": true,
          "internalType": "address",
          "name": "beacon",
          "type": "address"
        }
      ],
      "name": "BeaconUpgraded",
      "type": "event"
    },
    {
      "anonymous": false,
      "inputs": [
        {
          "indexed": true,
          "internalType": "address",
          "name": "to",
          "type": "address"
        },
        {
          "indexed": false,
          "internalType": "uint256",
          "name": "tokenId",
          "type": "uint256"
        }
      ],
      "name": "Burn",
      "type": "event"
    },
    {
      "anonymous": false,
      "inputs": [
        {
          "indexed": false,
          "internalType": "uint8",
          "name": "version",
          "type": "uint8"
        }
      ],
      "name": "Initialized",
      "type": "event"
    },
    {
      "anonymous": false,
      "inputs": [
        {
          "indexed": true,
          "internalType": "address",
          "name": "to",
          "type": "address"
        },
        {
          "indexed": false,
          "internalType": "uint256",
          "name": "tokenId",
          "type": "uint256"
        }
      ],
      "name": "Mint",
      "type": "event"
    },
    {
      "anonymous": false,
      "inputs": [
        {
          "indexed": true,
          "internalType": "address",
          "name": "previousOwner",
          "type": "address"
        },
        {
          "indexed": true,
          "internalType": "address",
          "name": "newOwner",
          "type": "address"
        }
      ],
      "name": "OwnershipTransferred",
      "type": "event"
    },
    {
      "anonymous": false,
      "inputs": [
        {
          "indexed": true,
          "internalType": "bytes32",
          "name": "role",
          "type": "bytes32"
        },
        {
          "indexed": true,
          "internalType": "bytes32",
          "name": "previousAdminRole",
          "type": "bytes32"
        },
        {
          "indexed": true,
          "internalType": "bytes32",
          "name": "newAdminRole",
          "type": "bytes32"
        }
      ],
      "name": "RoleAdminChanged",
      "type": "event"
    },
    {
      "anonymous": false,
      "inputs": [
        {
          "indexed": true,
          "internalType": "bytes32",
          "name": "role",
          "type": "bytes32"
        },
        {
          "indexed": true,
          "internalType": "address",
          "name": "account",
          "type": "address"
        },
        {
          "indexed": true,
          "internalType": "address",
          "name": "sender",
          "type": "address"
        }
      ],
      "name": "RoleGranted",
      "type": "event"
    },
    {
      "anonymous": false,
      "inputs": [
        {
          "indexed": true,
          "internalType": "bytes32",
          "name": "role",
          "type": "bytes32"
        },
        {
          "indexed": true,
          "internalType": "address",
          "name": "account",
          "type": "address"
        },
        {
          "indexed": true,
          "internalType": "address",
          "name": "sender",
          "type": "address"
        }
      ],
      "name": "RoleRevoked",
      "type": "event"
    },
    {
      "anonymous": false,
      "inputs": [
        {
          "indexed": true,
          "internalType": "address",
          "name": "from",
          "type": "address"
        },
        {
          "indexed": true,
          "internalType": "address",
          "name": "to",
          "type": "address"
        },
        {
          "indexed": true,
          "internalType": "uint256",
          "name": "tokenId",
          "type": "uint256"
        }
      ],
      "name": "Transfer",
      "type": "event"
    },
    {
      "anonymous": false,
      "inputs": [
        {
          "indexed": true,
          "internalType": "address",
          "name": "implementation",
          "type": "address"
        }
      ],
      "name": "Upgraded",
      "type": "event"
    },
    {
      "inputs": [],
      "name": "DEFAULT_ADMIN_ROLE",
      "outputs": [
        {
          "internalType": "bytes32",
          "name": "",
          "type": "bytes32"
        }
      ],
      "stateMutability": "view",
      "type": "function"
    },
    {
      "inputs": [
        {
          "internalType": "address",
          "name": "to",
          "type": "address"
        },
        {
          "internalType": "uint256",
          "name": "tokenId",
          "type": "uint256"
        }
      ],
      "name": "approve",
      "outputs": [],
      "stateMutability": "nonpayable",
      "type": "function"
    },
    {
      "inputs": [
        {
          "internalType": "address",
          "name": "owner",
          "type": "address"
        }
      ],
      "name": "balanceOf",
      "outputs": [
        {
          "internalType": "uint256",
          "name": "",
          "type": "uint256"
        }
      ],
      "stateMutability": "view",
      "type": "function"
    },
    {
      "inputs": [],
      "name": "burn",
      "outputs": [],
      "stateMutability": "nonpayable",
      "type": "function"
    },
    {
      "inputs": [
        {
          "internalType": "uint256",
          "name": "tokenId",
          "type": "uint256"
        }
      ],
      "name": "getApproved",
      "outputs": [
        {
          "internalType": "address",
          "name": "",
          "type": "address"
        }
      ],
      "stateMutability": "view",
      "type": "function"
    },
    {
      "inputs": [
        {
          "internalType": "bytes32",
          "name": "role",
          "type": "bytes32"
        }
      ],
      "name": "getRoleAdmin",
      "outputs": [
        {
          "internalType": "bytes32",
          "name": "",
          "type": "bytes32"
        }
      ],
      "stateMutability": "view",
      "type": "function"
    },
    {
      "inputs": [
        {
          "internalType": "bytes32",
          "name": "role",
          "type": "bytes32"
        },
        {
          "internalType": "address",
          "name": "account",
          "type": "address"
        }
      ],
      "name": "grantRole",
      "outputs": [],
      "stateMutability": "nonpayable",
      "type": "function"
    },
    {
      "inputs": [
        {
          "internalType": "bytes32",
          "name": "role",
          "type": "bytes32"
        },
        {
          "internalType": "address",
          "name": "account",
          "type": "address"
        }
      ],
      "name": "hasRole",
      "outputs": [
        {
          "internalType": "bool",
          "name": "",
          "type": "bool"
        }
      ],
      "stateMutability": "view",
      "type": "function"
    },
    {
      "inputs": [
        {
          "internalType": "string",
          "name": "name",
          "type": "string"
        },
        {
          "internalType": "string",
          "name": "symbol",
          "type": "string"
        }
      ],
      "name": "initialize",
      "outputs": [],
      "stateMutability": "nonpayable",
      "type": "function"
    },
    {
      "inputs": [
        {
          "internalType": "address",
          "name": "account",
          "type": "address"
        }
      ],
      "name": "isAdmin",
      "outputs": [
        {
          "internalType": "bool",
          "name": "",
          "type": "bool"
        }
      ],
      "stateMutability": "view",
      "type": "function"
    },
    {
      "inputs": [
        {
          "internalType": "address",
          "name": "owner",
          "type": "address"
        },
        {
          "internalType": "address",
          "name": "operator",
          "type": "address"
        }
      ],
      "name": "isApprovedForAll",
      "outputs": [
        {
          "internalType": "bool",
          "name": "",
          "type": "bool"
        }
      ],
      "stateMutability": "view",
      "type": "function"
    },
    {
      "inputs": [
        {
          "internalType": "string",
          "name": "data",
          "type": "string"
        }
      ],
      "name": "mint",
      "outputs": [
        {
          "internalType": "uint256",
          "name": "",
          "type": "uint256"
        }
      ],
      "stateMutability": "nonpayable",
      "type": "function"
    },
    {
      "inputs": [],
      "name": "name",
      "outputs": [
        {
          "internalType": "string",
          "name": "",
          "type": "string"
        }
      ],
      "stateMutability": "view",
      "type": "function"
    },
    {
      "inputs": [],
      "name": "owner",
      "outputs": [
        {
          "internalType": "address",
          "name": "",
          "type": "address"
        }
      ],
      "stateMutability": "view",
      "type": "function"
    },
    {
      "inputs": [
        {
          "internalType": "uint256",
          "name": "tokenId",
          "type": "uint256"
        }
      ],
      "name": "ownerOf",
      "outputs": [
        {
          "internalType": "address",
          "name": "",
          "type": "address"
        }
      ],
      "stateMutability": "view",
      "type": "function"
    },
    {
      "inputs": [],
      "name": "proxiableUUID",
      "outputs": [
        {
          "internalType": "bytes32",
          "name": "",
          "type": "bytes32"
        }
      ],
      "stateMutability": "view",
      "type": "function"
    },
    {
      "inputs": [],
      "name": "renounceOwnership",
      "outputs": [],
      "stateMutability": "nonpayable",
      "type": "function"
    },
    {
      "inputs": [
        {
          "internalType": "bytes32",
          "name": "role",
          "type": "bytes32"
        },
        {
          "internalType": "address",
          "name": "account",
          "type": "address"
        }
      ],
      "name": "renounceRole",
      "outputs": [],
      "stateMutability": "nonpayable",
      "type": "function"
    },
    {
      "inputs": [
        {
          "internalType": "bytes32",
          "name": "role",
          "type": "bytes32"
        },
        {
          "internalType": "address",
          "name": "account",
          "type": "address"
        }
      ],
      "name": "revokeRole",
      "outputs": [],
      "stateMutability": "nonpayable",
      "type": "function"
    },
    {
      "inputs": [
        {
          "internalType": "address",
          "name": "from",
          "type": "address"
        },
        {
          "internalType": "address",
          "name": "to",
          "type": "address"
        },
        {
          "internalType": "uint256",
          "name": "tokenId",
          "type": "uint256"
        }
      ],
      "name": "safeTransferFrom",
      "outputs": [],
      "stateMutability": "nonpayable",
      "type": "function"
    },
    {
      "inputs": [
        {
          "internalType": "address",
          "name": "from",
          "type": "address"
        },
        {
          "internalType": "address",
          "name": "to",
          "type": "address"
        },
        {
          "internalType": "uint256",
          "name": "tokenId",
          "type": "uint256"
        },
        {
          "internalType": "bytes",
          "name": "data",
          "type": "bytes"
        }
      ],
      "name": "safeTransferFrom",
      "outputs": [],
      "stateMutability": "nonpayable",
      "type": "function"
    },
    {
      "inputs": [
        {
          "internalType": "address",
          "name": "operator",
          "type": "address"
        },
        {
          "internalType": "bool",
          "name": "approved",
          "type": "bool"
        }
      ],
      "name": "setApprovalForAll",
      "outputs": [],
      "stateMutability": "nonpayable",
      "type": "function"
    },
    {
      "inputs": [
        {
          "internalType": "bytes4",
          "name": "interfaceId",
          "type": "bytes4"
        }
      ],
      "name": "supportsInterface",
      "outputs": [
        {
          "internalType": "bool",
          "name": "",
          "type": "bool"
        }
      ],
      "stateMutability": "view",
      "type": "function"
    },
    {
      "inputs": [],
      "name": "symbol",
      "outputs": [
        {
          "internalType": "string",
          "name": "",
          "type": "string"
        }
      ],
      "stateMutability": "view",
      "type": "function"
    },
    {
      "inputs": [
        {
          "internalType": "address",
          "name": "from",
          "type": "address"
        }
      ],
      "name": "tokenIdOf",
      "outputs": [
        {
          "internalType": "uint256",
          "name": "",
          "type": "uint256"
        }
      ],
      "stateMutability": "view",
      "type": "function"
    },
    {
      "inputs": [
        {
          "internalType": "uint256",
          "name": "tokenId",
          "type": "uint256"
        }
      ],
      "name": "tokenURI",
      "outputs": [
        {
          "internalType": "string",
          "name": "",
          "type": "string"
        }
      ],
      "stateMutability": "view",
      "type": "function"
    },
    {
      "inputs": [],
      "name": "totalSupply",
      "outputs": [
        {
          "internalType": "uint256",
          "name": "",
          "type": "uint256"
        }
      ],
      "stateMutability": "view",
      "type": "function"
    },
    {
      "inputs": [
        {
          "internalType": "address",
          "name": "from",
          "type": "address"
        },
        {
          "internalType": "address",
          "name": "to",
          "type": "address"
        },
        {
          "internalType": "uint256",
          "name": "tokenId",
          "type": "uint256"
        }
      ],
      "name": "transferFrom",
      "outputs": [],
      "stateMutability": "nonpayable",
      "type": "function"
    },
    {
      "inputs": [
        {
          "internalType": "address",
          "name": "newOwner",
          "type": "address"
        }
      ],
      "name": "transferOwnership",
      "outputs": [],
      "stateMutability": "nonpayable",
      "type": "function"
    },
    {
      "inputs": [
        {
          "internalType": "address",
          "name": "newImplementation",
          "type": "address"
        }
      ],
      "name": "upgradeTo",
      "outputs": [],
      "stateMutability": "nonpayable",
      "type": "function"
    },
    {
      "inputs": [
        {
          "internalType": "address",
          "name": "newImplementation",
          "type": "address"
        },
        {
          "internalType": "bytes",
          "name": "data",
          "type": "bytes"
        }
      ],
      "name": "upgradeToAndCall",
      "outputs": [],
      "stateMutability": "payable",
      "type": "function"
    }
  ],
  "bytecode": "0x60a0604052306080523480156200001557600080fd5b506200002062000026565b620000e7565b600054610100900460ff1615620000935760405162461bcd60e51b815260206004820152602760248201527f496e697469616c697a61626c653a20636f6e747261637420697320696e697469604482015266616c697a696e6760c81b606482015260840160405180910390fd5b60005460ff90811614620000e5576000805460ff191660ff9081179091556040519081527f7f26b83ff96e1f2b6a682f133852f6798a09c465da95921460cefb38474024989060200160405180910390a15b565b608051612bbe6200011f600039600081816108a6015281816108e601528181610b9901528181610bd90152610c680152612bbe6000f3fe6080604052600436106101d85760003560e01c806352d1902d11610102578063a217fddf11610095578063d547741f11610064578063d547741f1461051b578063d85d3d271461053b578063e985e9c51461055b578063f2fde38b146105a457600080fd5b8063a217fddf146104a6578063a22cb465146104bb578063b88d4fde146104db578063c87b56dd146104fb57600080fd5b8063773c02d4116100d1578063773c02d4146104335780638da5cb5b1461045357806391d148541461047157806395d89b411461049157600080fd5b806352d1902d146103c95780636352211e146103de57806370a08231146103fe578063715018a61461041e57600080fd5b806324d7806c1161017a57806342842e0e1161014957806342842e0e146102b157806344df8e70146103815780634cd88b76146103965780634f1ef286146103b657600080fd5b806324d7806c146103015780632f2ff15d1461032157806336568abe146103415780633659cfe61461036157600080fd5b8063095ea7b3116101b6578063095ea7b31461026c57806318160ddd1461028e57806323b872dd146102b1578063248a9ca3146102d157600080fd5b806301ffc9a7146101dd57806306fdde0314610212578063081812fc14610234575b600080fd5b3480156101e957600080fd5b506101fd6101f8366004612313565b6105c4565b60405190151581526020015b60405180910390f35b34801561021e57600080fd5b506102276105d5565b6040516102099190612380565b34801561024057600080fd5b5061025461024f366004612393565b610667565b6040516001600160a01b039091168152602001610209565b34801561027857600080fd5b5061028c6102873660046123c8565b61068e565b005b34801561029a57600080fd5b506102a36107a8565b604051908152602001610209565b3480156102bd57600080fd5b5061028c6102cc3660046123f2565b6107ba565b3480156102dd57600080fd5b506102a36102ec366004612393565b600090815260c9602052604090206001015490565b34801561030d57600080fd5b506101fd61031c36600461242e565b6107ed565b34801561032d57600080fd5b5061028c61033c366004612449565b6107f9565b34801561034d57600080fd5b5061028c61035c366004612449565b61081e565b34801561036d57600080fd5b5061028c61037c36600461242e565b61089c565b34801561038d57600080fd5b5061028c61097b565b3480156103a257600080fd5b5061028c6103b1366004612518565b610a58565b61028c6103c436600461257c565b610b8f565b3480156103d557600080fd5b506102a3610c5b565b3480156103ea57600080fd5b506102546103f9366004612393565b610d0e565b34801561040a57600080fd5b506102a361041936600461242e565b610d4e565b34801561042a57600080fd5b5061028c610d79565b34801561043f57600080fd5b506102a361044e36600461242e565b610d8d565b34801561045f57600080fd5b506097546001600160a01b0316610254565b34801561047d57600080fd5b506101fd61048c366004612449565b610db6565b34801561049d57600080fd5b50610227610de1565b3480156104b257600080fd5b506102a3600081565b3480156104c757600080fd5b5061028c6104d63660046125c0565b610df0565b3480156104e757600080fd5b5061028c6104f63660046125fc565b610dfb565b34801561050757600080fd5b50610227610516366004612393565b610e35565b34801561052757600080fd5b5061028c610536366004612449565b610f66565b34801561054757600080fd5b506102a3610556366004612664565b610f8b565b34801561056757600080fd5b506101fd610576366004612699565b6001600160a01b039182166000908152606a6020908152604080832093909416825291909152205460ff1690565b3480156105b057600080fd5b5061028c6105bf36600461242e565b611039565b60006105cf826110af565b92915050565b6060606580546105e4906126c3565b80601f0160208091040260200160405190810160405280929190818152602001828054610610906126c3565b801561065d5780601f106106325761010080835404028352916020019161065d565b820191906000526020600020905b81548152906001019060200180831161064057829003601f168201915b5050505050905090565b6000610672826110d4565b506000908152606960205260409020546001600160a01b031690565b600061069982611133565b9050806001600160a01b0316836001600160a01b03160361070b5760405162461bcd60e51b815260206004820152602160248201527f4552433732313a20617070726f76616c20746f2063757272656e74206f776e656044820152603960f91b60648201526084015b60405180910390fd5b336001600160a01b038216148061072757506107278133610576565b6107995760405162461bcd60e51b815260206004820152603d60248201527f4552433732313a20617070726f76652063616c6c6572206973206e6f7420746f60448201527f6b656e206f776e6572206f7220617070726f76656420666f7220616c6c0000006064820152608401610702565b6107a38383611193565b505050565b60006107b5610162611201565b905090565b6001600160a01b038316156107e257604051633859b9e960e01b815260040160405180910390fd5b6107a383838361120c565b60006105cf8183610db6565b600082815260c9602052604090206001015461081481611227565b6107a38383611231565b6001600160a01b038116331461088e5760405162461bcd60e51b815260206004820152602f60248201527f416363657373436f6e74726f6c3a2063616e206f6e6c792072656e6f756e636560448201526e103937b632b9903337b91039b2b63360891b6064820152608401610702565b61089882826112b7565b5050565b6001600160a01b037f00000000000000000000000000000000000000000000000000000000000000001630036108e45760405162461bcd60e51b8152600401610702906126fd565b7f00000000000000000000000000000000000000000000000000000000000000006001600160a01b031661092d600080516020612b42833981519152546001600160a01b031690565b6001600160a01b0316146109535760405162461bcd60e51b815260040161070290612749565b61095c8161131e565b6040805160008082526020820190925261097891839190611326565b50565b61098761016233611491565b6109dd5760405162461bcd60e51b815260206004820152602160248201527f546865206163636f756e7420646f6573206e6f74206861766520616e792053426044820152601560fa1b6064820152608401610702565b60006109eb610162336114a6565b90506109f9610162336114bb565b50610a0661015f826114d0565b5033600090815261016560205260408120610a20916122af565b60405181815233907fcc16f5dbb4873280815c1ee09dbd06736cffcc184412cf7a71a0fdb75d397ca59060200160405180910390a250565b600054610100900460ff1615808015610a785750600054600160ff909116105b80610a925750303b158015610a92575060005460ff166001145b610af55760405162461bcd60e51b815260206004820152602e60248201527f496e697469616c697a61626c653a20636f6e747261637420697320616c72656160448201526d191e481a5b9a5d1a585b1a5e995960921b6064820152608401610702565b6000805460ff191660011790558015610b18576000805461ff0019166101001790555b610b206114dc565b610b2861150b565b610b328383611532565b610b3a61150b565b610b45600033611231565b80156107a3576000805461ff0019169055604051600181527f7f26b83ff96e1f2b6a682f133852f6798a09c465da95921460cefb38474024989060200160405180910390a1505050565b6001600160a01b037f0000000000000000000000000000000000000000000000000000000000000000163003610bd75760405162461bcd60e51b8152600401610702906126fd565b7f00000000000000000000000000000000000000000000000000000000000000006001600160a01b0316610c20600080516020612b42833981519152546001600160a01b031690565b6001600160a01b031614610c465760405162461bcd60e51b815260040161070290612749565b610c4f8261131e565b61089882826001611326565b6000306001600160a01b037f00000000000000000000000000000000000000000000000000000000000000001614610cfb5760405162461bcd60e51b815260206004820152603860248201527f555550535570677261646561626c653a206d757374206e6f742062652063616c60448201527f6c6564207468726f7567682064656c656761746563616c6c00000000000000006064820152608401610702565b50600080516020612b4283398151915290565b60006105cf826040518060400160405280600f81526020016e125b9d985b1a59081d1bdad95b9259608a1b81525061015f6115639092919063ffffffff16565b600080610d5d61016284611578565b50905080610d6c576000610d6f565b60015b60ff169392505050565b610d8161159f565b610d8b60006115f9565b565b60006105cf826040518060600160405280602c8152602001612b16602c9139610162919061164b565b600091825260c9602090815260408084206001600160a01b0393909316845291905290205460ff1690565b6060606680546105e4906126c3565b610898338383611661565b6001600160a01b03841615610e2357604051633859b9e960e01b815260040160405180910390fd5b610e2f8484848461172f565b50505050565b60606000610e77836040518060400160405280600f81526020016e151bdad95b881b9bdd08195e1a5cdd608a1b81525061015f6115639092919063ffffffff16565b6001600160a01b03811660009081526101656020526040812080549293509091610ea0906126c3565b905011610ebc5760405180602001604052806000815250610f5f565b6001600160a01b0381166000908152610165602052604090208054610ee0906126c3565b80601f0160208091040260200160405190810160405280929190818152602001828054610f0c906126c3565b8015610f595780601f10610f2e57610100808354040283529160200191610f59565b820191906000526020600020905b815481529060010190602001808311610f3c57829003601f168201915b50505050505b9392505050565b600082815260c96020526040902060010154610f8181611227565b6107a383836112b7565b600080610f9a61016233611491565b15610fb257610fab610162336114a6565b9050610fe3565b610fc161016680546001019055565b5061016654610fd361016233836117a7565b50610fe161015f82336117bd565b505b33600090815261016560205260409020610ffd84826127e3565b5060405181815233907f0f6798a560793a54c3bcfe86a93cde1e73087d944c0ea20544137d41213968859060200160405180910390a292915050565b61104161159f565b6001600160a01b0381166110a65760405162461bcd60e51b815260206004820152602660248201527f4f776e61626c653a206e6577206f776e657220697320746865207a65726f206160448201526564647265737360d01b6064820152608401610702565b610978816115f9565b60006001600160e01b03198216637965db0b60e01b14806105cf57506105cf826117d3565b6000818152606760205260409020546001600160a01b03166109785760405162461bcd60e51b8152602060048201526018602482015277115490cdcc8c4e881a5b9d985b1a59081d1bdad95b88125160421b6044820152606401610702565b6000818152606760205260408120546001600160a01b0316806105cf5760405162461bcd60e51b8152602060048201526018602482015277115490cdcc8c4e881a5b9d985b1a59081d1bdad95b88125160421b6044820152606401610702565b600081815260696020526040902080546001600160a01b0319166001600160a01b03841690811790915581906111c882611133565b6001600160a01b03167f8c5be1e5ebec7d5bd14f71427d1e84f3dd0314c0f7b2291e5b200ac8c7c3b92560405160405180910390a45050565b60006105cf82611823565b6107a383838360405180602001604052806000815250610dfb565b610978813361182e565b61123b8282610db6565b61089857600082815260c9602090815260408083206001600160a01b03851684529091529020805460ff191660011790556112733390565b6001600160a01b0316816001600160a01b0316837f2f8788117e7eff1d82e926ec794901d17c78024a50270940304540a733656f0d60405160405180910390a45050565b6112c18282610db6565b1561089857600082815260c9602090815260408083206001600160a01b0385168085529252808320805460ff1916905551339285917ff6391f5c32d9c69d2a47ea670b442974b53935d1edc7fd64eb21e047a839171b9190a45050565b61097861159f565b7f4910fdfa16fed3260ed0e7147f7cc6da11a60208b5b9406d12a635614ffd91435460ff1615611359576107a383611887565b826001600160a01b03166352d1902d6040518163ffffffff1660e01b8152600401602060405180830381865afa9250505080156113b3575060408051601f3d908101601f191682019092526113b0918101906128a3565b60015b6114165760405162461bcd60e51b815260206004820152602e60248201527f45524331393637557067726164653a206e657720696d706c656d656e7461746960448201526d6f6e206973206e6f74205555505360901b6064820152608401610702565b600080516020612b4283398151915281146114855760405162461bcd60e51b815260206004820152602960248201527f45524331393637557067726164653a20756e737570706f727465642070726f786044820152681a58589b195555525160ba1b6064820152608401610702565b506107a3838383611923565b6000610f5f836001600160a01b038416611948565b6000610f5f836001600160a01b038416611954565b6000610f5f836001600160a01b0384166119c4565b6000610f5f83836119c4565b600054610100900460ff166115035760405162461bcd60e51b8152600401610702906128bc565b610d8b6119e1565b600054610100900460ff16610d8b5760405162461bcd60e51b8152600401610702906128bc565b600054610100900460ff166115595760405162461bcd60e51b8152600401610702906128bc565b6108988282611a11565b6000611570848484611a51565b949350505050565b6000808080611590866001600160a01b038716611a9d565b909450925050505b9250929050565b6097546001600160a01b03163314610d8b5760405162461bcd60e51b815260206004820181905260248201527f4f776e61626c653a2063616c6c6572206973206e6f7420746865206f776e65726044820152606401610702565b609780546001600160a01b038381166001600160a01b0319831681179093556040519116919082907f8be0079c531659141344cd1fd0a4f28419497f9722a3daafe3b4186f6b6457e090600090a35050565b6000611570846001600160a01b03851684611a51565b816001600160a01b0316836001600160a01b0316036116c25760405162461bcd60e51b815260206004820152601960248201527f4552433732313a20617070726f766520746f2063616c6c6572000000000000006044820152606401610702565b6001600160a01b038381166000818152606a6020908152604080832094871680845294825291829020805460ff191686151590811790915591519182527f17307eab39ab6107e8899845ad3d59bd9653f200f220920489ca2b5937696c31910160405180910390a3505050565b6117393383611ad7565b61179b5760405162461bcd60e51b815260206004820152602d60248201527f4552433732313a2063616c6c6572206973206e6f7420746f6b656e206f776e6560448201526c1c881bdc88185c1c1c9bdd9959609a1b6064820152608401610702565b610e2f84848484611b55565b6000611570846001600160a01b03851684611b88565b600061157084846001600160a01b038516611b88565b60006001600160e01b031982166380ac58cd60e01b148061180457506001600160e01b03198216635b5e139f60e01b145b806105cf57506301ffc9a760e01b6001600160e01b03198316146105cf565b60006105cf82611ba5565b6118388282610db6565b6108985761184581611baf565b611850836020611bc1565b604051602001611861929190612907565b60408051601f198184030181529082905262461bcd60e51b825261070291600401612380565b6001600160a01b0381163b6118f45760405162461bcd60e51b815260206004820152602d60248201527f455243313936373a206e657720696d706c656d656e746174696f6e206973206e60448201526c1bdd08184818dbdb9d1c9858dd609a1b6064820152608401610702565b600080516020612b4283398151915280546001600160a01b0319166001600160a01b0392909216919091179055565b61192c83611d5d565b6000825111806119395750805b156107a357610e2f8383611d9d565b6000610f5f8383611dc2565b60008181526002830160205260408120548015158061197857506119788484611948565b610f5f5760405162461bcd60e51b815260206004820152601e60248201527f456e756d657261626c654d61703a206e6f6e6578697374656e74206b657900006044820152606401610702565b60008181526002830160205260408120819055610f5f8383611dda565b600054610100900460ff16611a085760405162461bcd60e51b8152600401610702906128bc565b610d8b336115f9565b600054610100900460ff16611a385760405162461bcd60e51b8152600401610702906128bc565b6065611a4483826127e3565b5060666107a382826127e3565b600082815260028401602052604081205480151580611a755750611a758585611948565b8390611a945760405162461bcd60e51b81526004016107029190612380565b50949350505050565b6000818152600283016020526040812054819080611acc57611abf8585611948565b9250600091506115989050565b600192509050611598565b600080611ae383611133565b9050806001600160a01b0316846001600160a01b03161480611b2a57506001600160a01b038082166000908152606a602090815260408083209388168352929052205460ff165b806115705750836001600160a01b0316611b4384610667565b6001600160a01b031614949350505050565b611b60848484611de6565b611b6c84848484611f4a565b610e2f5760405162461bcd60e51b81526004016107029061297c565b60008281526002840160205260408120829055611570848461204b565b60006105cf825490565b60606105cf6001600160a01b03831660145b60606000611bd08360026129e4565b611bdb9060026129fb565b67ffffffffffffffff811115611bf357611bf3612475565b6040519080825280601f01601f191660200182016040528015611c1d576020820181803683370190505b509050600360fc1b81600081518110611c3857611c38612a0e565b60200101906001600160f81b031916908160001a905350600f60fb1b81600181518110611c6757611c67612a0e565b60200101906001600160f81b031916908160001a9053506000611c8b8460026129e4565b611c969060016129fb565b90505b6001811115611d0e576f181899199a1a9b1b9c1cb0b131b232b360811b85600f1660108110611cca57611cca612a0e565b1a60f81b828281518110611ce057611ce0612a0e565b60200101906001600160f81b031916908160001a90535060049490941c93611d0781612a24565b9050611c99565b508315610f5f5760405162461bcd60e51b815260206004820181905260248201527f537472696e67733a20686578206c656e67746820696e73756666696369656e746044820152606401610702565b611d6681611887565b6040516001600160a01b038216907fbc7cd75a20ee27fd9adebab32041f755214dbc6bffa90cc0225b39da2e5c2d3b90600090a250565b6060610f5f8383604051806060016040528060278152602001612b6260279139612057565b60008181526001830160205260408120541515610f5f565b6000610f5f83836120cf565b826001600160a01b0316611df982611133565b6001600160a01b031614611e1f5760405162461bcd60e51b815260040161070290612a3b565b6001600160a01b038216611e815760405162461bcd60e51b8152602060048201526024808201527f4552433732313a207472616e7366657220746f20746865207a65726f206164646044820152637265737360e01b6064820152608401610702565b826001600160a01b0316611e9482611133565b6001600160a01b031614611eba5760405162461bcd60e51b815260040161070290612a3b565b600081815260696020908152604080832080546001600160a01b03199081169091556001600160a01b0387811680865260688552838620805460001901905590871680865283862080546001019055868652606790945282852080549092168417909155905184937fddf252ad1be2c89b69c2b068fc378daa952ba7f163c4a11628f55a4df523b3ef91a4505050565b60006001600160a01b0384163b1561204057604051630a85bd0160e11b81526001600160a01b0385169063150b7a0290611f8e903390899088908890600401612a80565b6020604051808303816000875af1925050508015611fc9575060408051601f3d908101601f19168201909252611fc691810190612ab3565b60015b612026573d808015611ff7576040519150601f19603f3d011682016040523d82523d6000602084013e611ffc565b606091505b50805160000361201e5760405162461bcd60e51b81526004016107029061297c565b805181602001fd5b6001600160e01b031916630a85bd0160e11b149050611570565b506001949350505050565b6000610f5f83836121c2565b6060600080856001600160a01b0316856040516120749190612ad0565b600060405180830381855af49150503d80600081146120af576040519150601f19603f3d011682016040523d82523d6000602084013e6120b4565b606091505b50915091506120c586838387612211565b9695505050505050565b600081815260018301602052604081205480156121b85760006120f3600183612aec565b855490915060009061210790600190612aec565b905081811461216c57600086600001828154811061212757612127612a0e565b906000526020600020015490508087600001848154811061214a5761214a612a0e565b6000918252602080832090910192909255918252600188019052604090208390555b855486908061217d5761217d612aff565b6001900381819060005260206000200160009055905585600101600086815260200190815260200160002060009055600193505050506105cf565b60009150506105cf565b6000818152600183016020526040812054612209575081546001818101845560008481526020808220909301849055845484825282860190935260409020919091556105cf565b5060006105cf565b60608315612280578251600003612279576001600160a01b0385163b6122795760405162461bcd60e51b815260206004820152601d60248201527f416464726573733a2063616c6c20746f206e6f6e2d636f6e74726163740000006044820152606401610702565b5081611570565b61157083838151156122955781518083602001fd5b8060405162461bcd60e51b81526004016107029190612380565b5080546122bb906126c3565b6000825580601f106122cb575050565b601f01602090049060005260206000209081019061097891905b808211156122f957600081556001016122e5565b5090565b6001600160e01b03198116811461097857600080fd5b60006020828403121561232557600080fd5b8135610f5f816122fd565b60005b8381101561234b578181015183820152602001612333565b50506000910152565b6000815180845261236c816020860160208601612330565b601f01601f19169290920160200192915050565b602081526000610f5f6020830184612354565b6000602082840312156123a557600080fd5b5035919050565b80356001600160a01b03811681146123c357600080fd5b919050565b600080604083850312156123db57600080fd5b6123e4836123ac565b946020939093013593505050565b60008060006060848603121561240757600080fd5b612410846123ac565b925061241e602085016123ac565b9150604084013590509250925092565b60006020828403121561244057600080fd5b610f5f826123ac565b6000806040838503121561245c57600080fd5b8235915061246c602084016123ac565b90509250929050565b634e487b7160e01b600052604160045260246000fd5b600082601f83011261249c57600080fd5b813567ffffffffffffffff808211156124b7576124b7612475565b604051601f8301601f19908116603f011681019082821181831017156124df576124df612475565b816040528381528660208588010111156124f857600080fd5b836020870160208301376000602085830101528094505050505092915050565b6000806040838503121561252b57600080fd5b823567ffffffffffffffff8082111561254357600080fd5b61254f8683870161248b565b9350602085013591508082111561256557600080fd5b506125728582860161248b565b9150509250929050565b6000806040838503121561258f57600080fd5b612598836123ac565b9150602083013567ffffffffffffffff8111156125b457600080fd5b6125728582860161248b565b600080604083850312156125d357600080fd5b6125dc836123ac565b9150602083013580151581146125f157600080fd5b809150509250929050565b6000806000806080858703121561261257600080fd5b61261b856123ac565b9350612629602086016123ac565b925060408501359150606085013567ffffffffffffffff81111561264c57600080fd5b6126588782880161248b565b91505092959194509250565b60006020828403121561267657600080fd5b813567ffffffffffffffff81111561268d57600080fd5b6115708482850161248b565b600080604083850312156126ac57600080fd5b6126b5836123ac565b915061246c602084016123ac565b600181811c908216806126d757607f821691505b6020821081036126f757634e487b7160e01b600052602260045260246000fd5b50919050565b6020808252602c908201527f46756e6374696f6e206d7573742062652063616c6c6564207468726f7567682060408201526b19195b1959d85d1958d85b1b60a21b606082015260800190565b6020808252602c908201527f46756e6374696f6e206d7573742062652063616c6c6564207468726f7567682060408201526b6163746976652070726f787960a01b606082015260800190565b601f8211156107a357600081815260208120601f850160051c810160208610156127bc5750805b601f850160051c820191505b818110156127db578281556001016127c8565b505050505050565b815167ffffffffffffffff8111156127fd576127fd612475565b6128118161280b84546126c3565b84612795565b602080601f831160018114612846576000841561282e5750858301515b600019600386901b1c1916600185901b1785556127db565b600085815260208120601f198616915b8281101561287557888601518255948401946001909101908401612856565b50858210156128935787850151600019600388901b60f8161c191681555b5050505050600190811b01905550565b6000602082840312156128b557600080fd5b5051919050565b6020808252602b908201527f496e697469616c697a61626c653a20636f6e7472616374206973206e6f74206960408201526a6e697469616c697a696e6760a81b606082015260800190565b7f416363657373436f6e74726f6c3a206163636f756e742000000000000000000081526000835161293f816017850160208801612330565b7001034b99036b4b9b9b4b733903937b6329607d1b6017918401918201528351612970816028840160208801612330565b01602801949350505050565b60208082526032908201527f4552433732313a207472616e7366657220746f206e6f6e20455243373231526560408201527131b2b4bb32b91034b6b83632b6b2b73a32b960711b606082015260800190565b634e487b7160e01b600052601160045260246000fd5b80820281158282048414176105cf576105cf6129ce565b808201808211156105cf576105cf6129ce565b634e487b7160e01b600052603260045260246000fd5b600081612a3357612a336129ce565b506000190190565b60208082526025908201527f4552433732313a207472616e736665722066726f6d20696e636f72726563742060408201526437bbb732b960d91b606082015260800190565b6001600160a01b03858116825284166020820152604081018390526080606082018190526000906120c590830184612354565b600060208284031215612ac557600080fd5b8151610f5f816122fd565b60008251612ae2818460208701612330565b9190910192915050565b818103818111156105cf576105cf6129ce565b634e487b7160e01b600052603160045260246000fdfe5468652077616c6c657420646f6573206e6f742068617665206120636f6d706c657465642070726f66696c65360894a13ba1a3210667c828492db98dca3e2076cc3735a920a3ca505d382bbc416464726573733a206c6f772d6c6576656c2064656c65676174652063616c6c206661696c6564a2646970667358221220509eaba149e1ec95572542bca0675f60a3e895eb5123d34f86e2a9e3b1fe63b664736f6c63430008120033",
  "linkReferences": {},
  "deployedLinkReferences": {}
}