{
  "_format": "hh-sol-artifact-1",
  "contractName": "ProfileSapphireCartridge",
  "sourceName": "contracts/catridge/ProfileSapphireCartridge.sol",
  "abi": [
    {
      "inputs": [
        {
          "internalType": "address",
          "name": "_storage",
          "type": "address"
        },
        {
          "internalType": "address",
          "name": "profile",
          "type": "address"
        }
      ],
      "stateMutability": "nonpayable",
      "type": "constructor"
    },
    {
      "inputs": [],
      "name": "AutoConfigUnavailable",
      "type": "error"
    },
    {
      "inputs": [],
      "name": "MissingRemoteAddr",
      "type": "error"
    },
    {
      "inputs": [],
      "name": "MissingRemoteChainId",
      "type": "error"
    },
    {
      "inputs": [],
      "name": "NotMessageBus",
      "type": "error"
    },
    {
      "inputs": [],
      "name": "NotRemoteEndpoint",
      "type": "error"
    },
    {
      "inputs": [],
      "name": "OnlyProfileContractAccess",
      "type": "error"
    },
    {
      "inputs": [],
      "name": "ReceiverError",
      "type": "error"
    },
    {
      "inputs": [],
      "name": "SelfCallDisallowed",
      "type": "error"
    },
    {
      "inputs": [
        {
          "internalType": "uint256",
          "name": "expected",
          "type": "uint256"
        },
        {
          "internalType": "uint256",
          "name": "got",
          "type": "uint256"
        }
      ],
      "name": "WrongSeqNum",
      "type": "error"
    },
    {
      "inputs": [
        {
          "internalType": "bytes",
          "name": "args",
          "type": "bytes"
        }
      ],
      "name": "create",
      "outputs": [
        {
          "internalType": "bool",
          "name": "",
          "type": "bool"
        }
      ],
      "stateMutability": "payable",
      "type": "function"
    },
    {
      "inputs": [
        {
          "internalType": "address",
          "name": "_sender",
          "type": "address"
        },
        {
          "internalType": "uint64",
          "name": "_senderChainId",
          "type": "uint64"
        },
        {
          "internalType": "bytes",
          "name": "_message",
          "type": "bytes"
        },
        {
          "internalType": "address",
          "name": "",
          "type": "address"
        }
      ],
      "name": "executeMessage",
      "outputs": [
        {
          "internalType": "uint256",
          "name": "",
          "type": "uint256"
        }
      ],
      "stateMutability": "payable",
      "type": "function"
    },
    {
      "inputs": [],
      "name": "fetch",
      "outputs": [
        {
          "internalType": "string",
          "name": "",
          "type": "string"
        }
      ],
      "stateMutability": "view",
      "type": "function"
    },
    {
      "inputs": [
        {
          "internalType": "bytes",
          "name": "args",
          "type": "bytes"
        }
      ],
      "name": "remove",
      "outputs": [
        {
          "internalType": "bool",
          "name": "",
          "type": "bool"
        }
      ],
      "stateMutability": "payable",
      "type": "function"
    },
    {
      "inputs": [],
      "name": "typeOf",
      "outputs": [
        {
          "internalType": "bytes32",
          "name": "",
          "type": "bytes32"
        }
      ],
      "stateMutability": "pure",
      "type": "function"
    }
  ],
  "bytecode": "0x60c06040523480156200001157600080fd5b50604051620014633803806200146383398101604081905262000034916200088f565b81806200004c67736170706869726560c01b62000149565b81620000588262000332565b6200006484846200035c565b60006001600160a01b0384166200008e57604051635f9997df60e01b815260040160405180910390fd5b82600003620000b057604051630a9e222360e41b815260040160405180910390fd5b600080546001600160a01b0319166001600160a01b03868116919091179091556001849055821660805280151560a052620000ea6200038c565b158015620000f757504683145b1562000116576040516336fc0b5f60e21b815260040160405180910390fd5b5050506001600160a01b039094166000908152600560205260409020805460ff1916600117905550620008c79350505050565b60004661053914806200015d575046617a69145b15620001725750641b1bd8d85b60da1b919050565b60006200017f46620003b4565b9150508015620002ff578267657468657265756d60c01b03620001ad575065676f65726c6960d01b92915050565b826262736360e81b03620001d157506a189cd8cb5d195cdd1b995d60aa1b92915050565b82663837b63cb3b7b760c91b03620001fc57506d706f6c79676f6e2d6d756d62616960901b92915050565b826566616e746f6d60d01b036200022657506d19985b9d1bdb4b5d195cdd1b995d60921b92915050565b8267736170706869726560c01b036200025457506f1cd85c1c1a1a5c994b5d195cdd1b995d60821b92915050565b826b617262697472756d2d6f6e6560a01b036200028657506f185c989a5d1c9d5b4b5d195cdd1b995d60821b92915050565b826c617262697472756d2d6e6f766160981b03620002b957506f185c989a5d1c9d5b4b5d195cdd1b995d60821b92915050565b82686176616c616e63686560b81b03620002e657506d6176616c616e6368652d66756a6960901b92915050565b60405163047a7e4960e21b815260040160405180910390fd5b6200030a836200066b565b6000036200032b5760405163047a7e4960e21b815260040160405180910390fd5b5090919050565b600081641b1bd8d85b60da1b036200034b575046919050565b62000356826200066b565b92915050565b600081641b1bd8d85b60da1b036200037657508162000356565b60006200038346620003b4565b50949350505050565b600080546080516001600160a01b039081169116148015620003af575060015446145b905090565b60008082600103620003df5750734066d196a423b2b3b8b054f4f40efb47a74e200c92600092509050565b8260050362000407575073f25170f86e4291a99a9a560032fe9948b8bcfbb292600192509050565b82600a036200042f5750730d71d18126e03646eb09fec929e2ae87b7cae69d92600092509050565b826038036200045757507395714818fdd7a5454f73da9c777b3ee6ebaeea6b92600092509050565b826061036200047f575073ad204986d6cb67a5bc76a3cb8974823f43cb9aaa92600192509050565b82608903620004a7575073afdb9c40c7144022811f034ee07ce2e110093fe692600092509050565b8260fa03620004cf575073ff4e183a0ceb4fa98e63bbf8077b929c8e5a2ba492600092509050565b82610fa203620004f8575073b92d6933a024bcca9a21669a480c236cbc97311092600192509050565b826105050362000521575073940daaba3f713abfabd79cdd991466fe698cbe5492600092509050565b82615afe036200054a5750739b36f165bab9ebe611d491180418d8de4b8f3a1f92600092509050565b82615aff03620005735750739bb46d5100d2db4608112026951c9c965b233f4d92600192509050565b8261a4b1036200059c5750733ad9d0648cdaa2426331e894e980d0a5ed16257f92600092509050565b8261a4ba03620005c5575073f5c6825015280cdfd0b56903f9f8b5a2233476f592600092509050565b8261a86903620005ee575073e9533976c590200e32d95c53f06ae12d292cfc4792600192509050565b8261a86a03620006175750735a926eeeafc4d217add17e9641e8ce23cd01ad5792600092509050565b826201388103620006415750737d43aabc515c356145049227cee54b608342c0ad92600192509050565b8262066eeb03620002e65750737d43aabc515c356145049227cee54b608342c0ad92600192509050565b60008167657468657265756d60c01b036200068857506001919050565b8165676f65726c6960d01b03620006a157506005919050565b81676f7074696d69736d60c01b03620006bc5750600a919050565b816262736360e81b03620006d257506038919050565b816a189cd8cb5d195cdd1b995d60aa1b03620006f057506061919050565b81663837b63cb3b7b760c91b036200070a57506089919050565b816566616e746f6d60d01b0362000723575060fa919050565b816d19985b9d1bdb4b5d195cdd1b995d60921b03620007455750610fa2919050565b816836b7b7b73934bb32b960b91b03620007625750610505919050565b816b617262697472756d2d6f6e6560a01b0362000782575061a4b1919050565b816c617262697472756d2d6e6f766160981b03620007a3575061a4ba919050565b8167736170706869726560c01b03620007bf5750615afe919050565b816f1cd85c1c1a1a5c994b5d195cdd1b995d60821b03620007e35750615aff919050565b816d706f6c79676f6e2d6d756d62616960901b0362000806575062013881919050565b81686176616c616e63686560b81b0362000823575061a86a919050565b816d6176616c616e6368652d66756a6960901b0362000845575061a931919050565b816f185c989a5d1c9d5b4b5d195cdd1b995d60821b036200086a575062066eeb919050565b506000919050565b80516001600160a01b03811681146200088a57600080fd5b919050565b60008060408385031215620008a357600080fd5b620008ae8362000872565b9150620008be6020840162000872565b90509250929050565b60805160a051610b5362000910600039600061027c0152600081816101ac015281816104550152818161054e015281816105f60152818161067c01526107200152610b536000f3fe60806040526004361061004a5760003560e01c806357fc69d51461004f57806358edef4c146100775780639c649fdf1461009a578063a95c372d146100ad578063cf5ba53f146100d4575b600080fd5b34801561005b57600080fd5b506100646100e7565b6040519081526020015b60405180910390f35b61008a61008536600461077f565b610132565b604051901515815260200161006e565b6100646100a836600461084c565b61019f565b3480156100b957600080fd5b506040805160208101825260008152905161006e919061094a565b61008a6100e236600461077f565b61038e565b6000604051602001610117906020808252600a908201526973617070686972652d3160b01b604082015260600190565b60405160208183030381529060405280519060200120905090565b3360009081526005602052604081205460ff1615156001146101675760405163142c5f5160e31b815260040160405180910390fd5b6101966040518060400160405280600d81526020016c72656d6f766550726f66696c6560981b815250836103ee565b50600192915050565b6000336001600160a01b037f000000000000000000000000000000000000000000000000000000000000000016146101ea5760405163331f9a1960e11b815260040160405180910390fd5b6000546001600160a01b03878116911614158061021357506001548567ffffffffffffffff1614155b1561023157604051636e3ae14560e01b815260040160405180910390fd5b60006102406004828688610964565b6102499161098e565b9050600061025b602460048789610964565b610264916109be565b9050366000610276876024818b610964565b915091507f0000000000000000000000000000000000000000000000000000000000000000156102e55760045483146102d1576004805460405163d0257bb160e01b8152918201526024810184905260440160405180910390fd5b6004600081546102e0906109f2565b909155505b6001600160e01b0319841660009081526002602052604081205461075f8115021767ffffffffffffffff811691821591610325908690869063ffffffff16565b9050600181600281111561033b5761033b610a0b565b03610350576002975050505050505050610385565b600281600281111561036457610364610a0b565b03610379576001975050505050505050610385565b60009750505050505050505b95945050505050565b3360009081526005602052604081205460ff1615156001146103c35760405163142c5f5160e31b815260040160405180910390fd5b6101966040518060400160405280600d81526020016c63726561746550726f66696c6560981b815250835b60008083805190602001206003548460405160200161040f93929190610a21565b6040516020818303038152906040529050600061042c82516105db565b905061043661071a565b1561053157604051639c649fdf60e01b81526000906001600160a01b037f00000000000000000000000000000000000000000000000000000000000000001690639c649fdf90610490903090469088908390600401610a57565b6020604051808303816000875af11580156104af573d6000803e3d6000fd5b505050506040513d601f19601f820116820180604052508101906104d39190610a9d565b9050806001146104f657604051631dc9e9b560e31b815260040160405180910390fd5b811561052b5760405160009083156108fc0290849083818181858288f19350505050158015610529573d6000803e3d6000fd5b505b506105be565b600054600154604051634f9e72ad60e11b81526001600160a01b037f0000000000000000000000000000000000000000000000000000000000000000811693639f3ce55a93869361058b9392909216918890600401610ab6565b6000604051808303818588803b1580156105a457600080fd5b505af11580156105b8573d6000803e3d6000fd5b50505050505b6003600081546105cd906109f2565b909155509150505b92915050565b60006105e561071a565b156105f257506000919050565b60007f00000000000000000000000000000000000000000000000000000000000000006001600160a01b03166395e911a86040518163ffffffff1660e01b8152600401602060405180830381865afa158015610652573d6000803e3d6000fd5b505050506040513d601f19601f820116820180604052508101906106769190610a9d565b905060007f00000000000000000000000000000000000000000000000000000000000000006001600160a01b031663f60bbe2a6040518163ffffffff1660e01b8152600401602060405180830381865afa1580156106d8573d6000803e3d6000fd5b505050506040513d601f19601f820116820180604052508101906106fc9190610a9d565b90506107088185610add565b6107129083610af4565b949350505050565b600080547f00000000000000000000000000000000000000000000000000000000000000006001600160a01b03908116911614801561075a575060015446145b905090565b610767610b07565b565b634e487b7160e01b600052604160045260246000fd5b60006020828403121561079157600080fd5b813567ffffffffffffffff808211156107a957600080fd5b818401915084601f8301126107bd57600080fd5b8135818111156107cf576107cf610769565b604051601f8201601f19908116603f011681019083821181831017156107f7576107f7610769565b8160405282815287602084870101111561081057600080fd5b826020860160208301376000928101602001929092525095945050505050565b80356001600160a01b038116811461084757600080fd5b919050565b60008060008060006080868803121561086457600080fd5b61086d86610830565b9450602086013567ffffffffffffffff808216821461088b57600080fd5b909450604087013590808211156108a157600080fd5b818801915088601f8301126108b557600080fd5b8135818111156108c457600080fd5b8960208285010111156108d657600080fd5b6020830195508094505050506108ee60608701610830565b90509295509295909350565b60005b838110156109155781810151838201526020016108fd565b50506000910152565b600081518084526109368160208601602086016108fa565b601f01601f19169290920160200192915050565b60208152600061095d602083018461091e565b9392505050565b6000808585111561097457600080fd5b8386111561098157600080fd5b5050820193919092039150565b6001600160e01b031981358181169160048510156109b65780818660040360031b1b83161692505b505092915050565b803560208310156105d557600019602084900360031b1b1692915050565b634e487b7160e01b600052601160045260246000fd5b600060018201610a0457610a046109dc565b5060010190565b634e487b7160e01b600052602160045260246000fd5b63ffffffff60e01b8416815282600482015260008251610a488160248501602087016108fa565b91909101602401949350505050565b600060018060a01b03808716835267ffffffffffffffff8616602084015260806040840152610a89608084018661091e565b915080841660608401525095945050505050565b600060208284031215610aaf57600080fd5b5051919050565b60018060a01b0384168152826020820152606060408201526000610385606083018461091e565b80820281158282048414176105d5576105d56109dc565b808201808211156105d5576105d56109dc565b634e487b7160e01b600052605160045260246000fdfea26469706673582212201f1cc3ff35cfdf6451fe6fbf909a3d22cde8e09a1340cd202bb1ebc2003caaee64736f6c63430008130033",
  "linkReferences": {},
  "deployedLinkReferences": {}
}