{
  "_format": "hh-sol-artifact-1",
  "contractName": "ProfileSapphireCartridge",
  "sourceName": "contracts/catridge/ProfileSapphireCartridge.sol",
  "abi": [
    {
      "inputs": [
        {
          "internalType": "address",
          "name": "_storage",
          "type": "address"
        },
        {
          "internalType": "address",
          "name": "profile",
          "type": "address"
        }
      ],
      "stateMutability": "nonpayable",
      "type": "constructor"
    },
    {
      "inputs": [],
      "name": "AutoConfigUnavailable",
      "type": "error"
    },
    {
      "inputs": [],
      "name": "MissingRemoteAddr",
      "type": "error"
    },
    {
      "inputs": [],
      "name": "MissingRemoteChainId",
      "type": "error"
    },
    {
      "inputs": [],
      "name": "NotMessageBus",
      "type": "error"
    },
    {
      "inputs": [],
      "name": "NotRemoteEndpoint",
      "type": "error"
    },
    {
      "inputs": [],
      "name": "OnlyProfileContractAccess",
      "type": "error"
    },
    {
      "inputs": [],
      "name": "ReceiverError",
      "type": "error"
    },
    {
      "inputs": [],
      "name": "SelfCallDisallowed",
      "type": "error"
    },
    {
      "inputs": [
        {
          "internalType": "uint256",
          "name": "expected",
          "type": "uint256"
        },
        {
          "internalType": "uint256",
          "name": "got",
          "type": "uint256"
        }
      ],
      "name": "WrongSeqNum",
      "type": "error"
    },
    {
      "inputs": [
        {
          "internalType": "bytes",
          "name": "args",
          "type": "bytes"
        }
      ],
      "name": "create",
      "outputs": [
        {
          "internalType": "bool",
          "name": "",
          "type": "bool"
        }
      ],
      "stateMutability": "payable",
      "type": "function"
    },
    {
      "inputs": [
        {
          "internalType": "address",
          "name": "_sender",
          "type": "address"
        },
        {
          "internalType": "uint64",
          "name": "_senderChainId",
          "type": "uint64"
        },
        {
          "internalType": "bytes",
          "name": "_message",
          "type": "bytes"
        },
        {
          "internalType": "address",
          "name": "",
          "type": "address"
        }
      ],
      "name": "executeMessage",
      "outputs": [
        {
          "internalType": "uint256",
          "name": "",
          "type": "uint256"
        }
      ],
      "stateMutability": "payable",
      "type": "function"
    },
    {
      "inputs": [
        {
          "internalType": "address",
          "name": "user",
          "type": "address"
        }
      ],
      "name": "fetch",
      "outputs": [
        {
          "internalType": "string",
          "name": "",
          "type": "string"
        }
      ],
      "stateMutability": "view",
      "type": "function"
    },
    {
      "inputs": [
        {
          "internalType": "bytes",
          "name": "args",
          "type": "bytes"
        }
      ],
      "name": "remove",
      "outputs": [
        {
          "internalType": "bool",
          "name": "",
          "type": "bool"
        }
      ],
      "stateMutability": "payable",
      "type": "function"
    },
    {
      "inputs": [],
      "name": "typeOf",
      "outputs": [
        {
          "internalType": "bytes32",
          "name": "",
          "type": "bytes32"
        }
      ],
      "stateMutability": "pure",
      "type": "function"
    }
  ],
  "bytecode": "0x60c06040523480156200001157600080fd5b50604051620014923803806200149283398101604081905262000034916200088f565b81806200004c67736170706869726560c01b62000149565b81620000588262000332565b6200006484846200035c565b60006001600160a01b0384166200008e57604051635f9997df60e01b815260040160405180910390fd5b82600003620000b057604051630a9e222360e41b815260040160405180910390fd5b600080546001600160a01b0319166001600160a01b03868116919091179091556001849055821660805280151560a052620000ea6200038c565b158015620000f757504683145b1562000116576040516336fc0b5f60e21b815260040160405180910390fd5b5050506001600160a01b039094166000908152600560205260409020805460ff1916600117905550620008c79350505050565b60004661053914806200015d575046617a69145b15620001725750641b1bd8d85b60da1b919050565b60006200017f46620003b4565b9150508015620002ff578267657468657265756d60c01b03620001ad575065676f65726c6960d01b92915050565b826262736360e81b03620001d157506a189cd8cb5d195cdd1b995d60aa1b92915050565b82663837b63cb3b7b760c91b03620001fc57506d706f6c79676f6e2d6d756d62616960901b92915050565b826566616e746f6d60d01b036200022657506d19985b9d1bdb4b5d195cdd1b995d60921b92915050565b8267736170706869726560c01b036200025457506f1cd85c1c1a1a5c994b5d195cdd1b995d60821b92915050565b826b617262697472756d2d6f6e6560a01b036200028657506f185c989a5d1c9d5b4b5d195cdd1b995d60821b92915050565b826c617262697472756d2d6e6f766160981b03620002b957506f185c989a5d1c9d5b4b5d195cdd1b995d60821b92915050565b82686176616c616e63686560b81b03620002e657506d6176616c616e6368652d66756a6960901b92915050565b60405163047a7e4960e21b815260040160405180910390fd5b6200030a836200066b565b6000036200032b5760405163047a7e4960e21b815260040160405180910390fd5b5090919050565b600081641b1bd8d85b60da1b036200034b575046919050565b62000356826200066b565b92915050565b600081641b1bd8d85b60da1b036200037657508162000356565b60006200038346620003b4565b50949350505050565b600080546080516001600160a01b039081169116148015620003af575060015446145b905090565b60008082600103620003df5750734066d196a423b2b3b8b054f4f40efb47a74e200c92600092509050565b8260050362000407575073f25170f86e4291a99a9a560032fe9948b8bcfbb292600192509050565b82600a036200042f5750730d71d18126e03646eb09fec929e2ae87b7cae69d92600092509050565b826038036200045757507395714818fdd7a5454f73da9c777b3ee6ebaeea6b92600092509050565b826061036200047f575073ad204986d6cb67a5bc76a3cb8974823f43cb9aaa92600192509050565b82608903620004a7575073afdb9c40c7144022811f034ee07ce2e110093fe692600092509050565b8260fa03620004cf575073ff4e183a0ceb4fa98e63bbf8077b929c8e5a2ba492600092509050565b82610fa203620004f8575073b92d6933a024bcca9a21669a480c236cbc97311092600192509050565b826105050362000521575073940daaba3f713abfabd79cdd991466fe698cbe5492600092509050565b82615afe036200054a5750739b36f165bab9ebe611d491180418d8de4b8f3a1f92600092509050565b82615aff03620005735750739bb46d5100d2db4608112026951c9c965b233f4d92600192509050565b8261a4b1036200059c5750733ad9d0648cdaa2426331e894e980d0a5ed16257f92600092509050565b8261a4ba03620005c5575073f5c6825015280cdfd0b56903f9f8b5a2233476f592600092509050565b8261a86903620005ee575073e9533976c590200e32d95c53f06ae12d292cfc4792600192509050565b8261a86a03620006175750735a926eeeafc4d217add17e9641e8ce23cd01ad5792600092509050565b826201388103620006415750737d43aabc515c356145049227cee54b608342c0ad92600192509050565b8262066eeb03620002e65750737d43aabc515c356145049227cee54b608342c0ad92600192509050565b60008167657468657265756d60c01b036200068857506001919050565b8165676f65726c6960d01b03620006a157506005919050565b81676f7074696d69736d60c01b03620006bc5750600a919050565b816262736360e81b03620006d257506038919050565b816a189cd8cb5d195cdd1b995d60aa1b03620006f057506061919050565b81663837b63cb3b7b760c91b036200070a57506089919050565b816566616e746f6d60d01b0362000723575060fa919050565b816d19985b9d1bdb4b5d195cdd1b995d60921b03620007455750610fa2919050565b816836b7b7b73934bb32b960b91b03620007625750610505919050565b816b617262697472756d2d6f6e6560a01b0362000782575061a4b1919050565b816c617262697472756d2d6e6f766160981b03620007a3575061a4ba919050565b8167736170706869726560c01b03620007bf5750615afe919050565b816f1cd85c1c1a1a5c994b5d195cdd1b995d60821b03620007e35750615aff919050565b816d706f6c79676f6e2d6d756d62616960901b0362000806575062013881919050565b81686176616c616e63686560b81b0362000823575061a86a919050565b816d6176616c616e6368652d66756a6960901b0362000845575061a931919050565b816f185c989a5d1c9d5b4b5d195cdd1b995d60821b036200086a575062066eeb919050565b506000919050565b80516001600160a01b03811681146200088a57600080fd5b919050565b60008060408385031215620008a357600080fd5b620008ae8362000872565b9150620008be6020840162000872565b90509250929050565b60805160a051610b826200091060003960006102900152600081816101c001528181610469015281816105620152818161060a0152818161069001526107340152610b826000f3fe60806040526004361061004a5760003560e01c806357fc69d51461004f57806358edef4c146100775780639c649fdf1461009a578063cf5ba53f146100ad578063f109a0be146100c0575b600080fd5b34801561005b57600080fd5b506100646100fb565b6040519081526020015b60405180910390f35b61008a610085366004610793565b610146565b604051901515815260200161006e565b6100646100a8366004610860565b6101b3565b61008a6100bb366004610793565b6103a2565b3480156100cc57600080fd5b506100ee6100db36600461090e565b5060408051602081019091526000815290565b60405161006e9190610980565b600060405160200161012b906020808252600a908201526973617070686972652d3160b01b604082015260600190565b60405160208183030381529060405280519060200120905090565b3360009081526005602052604081205460ff16151560011461017b5760405163142c5f5160e31b815260040160405180910390fd5b6101aa6040518060400160405280600d81526020016c72656d6f766550726f66696c6560981b81525083610402565b50600192915050565b6000336001600160a01b037f000000000000000000000000000000000000000000000000000000000000000016146101fe5760405163331f9a1960e11b815260040160405180910390fd5b6000546001600160a01b03878116911614158061022757506001548567ffffffffffffffff1614155b1561024557604051636e3ae14560e01b815260040160405180910390fd5b60006102546004828688610993565b61025d916109bd565b9050600061026f602460048789610993565b610278916109ed565b905036600061028a876024818b610993565b915091507f0000000000000000000000000000000000000000000000000000000000000000156102f95760045483146102e5576004805460405163d0257bb160e01b8152918201526024810184905260440160405180910390fd5b6004600081546102f490610a21565b909155505b6001600160e01b031984166000908152600260205260408120546107738115021767ffffffffffffffff811691821591610339908690869063ffffffff16565b9050600181600281111561034f5761034f610a3a565b03610364576002975050505050505050610399565b600281600281111561037857610378610a3a565b0361038d576001975050505050505050610399565b60009750505050505050505b95945050505050565b3360009081526005602052604081205460ff1615156001146103d75760405163142c5f5160e31b815260040160405180910390fd5b6101aa6040518060400160405280600d81526020016c63726561746550726f66696c6560981b815250835b60008083805190602001206003548460405160200161042393929190610a50565b6040516020818303038152906040529050600061044082516105ef565b905061044a61072e565b1561054557604051639c649fdf60e01b81526000906001600160a01b037f00000000000000000000000000000000000000000000000000000000000000001690639c649fdf906104a4903090469088908390600401610a86565b6020604051808303816000875af11580156104c3573d6000803e3d6000fd5b505050506040513d601f19601f820116820180604052508101906104e79190610acc565b90508060011461050a57604051631dc9e9b560e31b815260040160405180910390fd5b811561053f5760405160009083156108fc0290849083818181858288f1935050505015801561053d573d6000803e3d6000fd5b505b506105d2565b600054600154604051634f9e72ad60e11b81526001600160a01b037f0000000000000000000000000000000000000000000000000000000000000000811693639f3ce55a93869361059f9392909216918890600401610ae5565b6000604051808303818588803b1580156105b857600080fd5b505af11580156105cc573d6000803e3d6000fd5b50505050505b6003600081546105e190610a21565b909155509150505b92915050565b60006105f961072e565b1561060657506000919050565b60007f00000000000000000000000000000000000000000000000000000000000000006001600160a01b03166395e911a86040518163ffffffff1660e01b8152600401602060405180830381865afa158015610666573d6000803e3d6000fd5b505050506040513d601f19601f8201168201806040525081019061068a9190610acc565b905060007f00000000000000000000000000000000000000000000000000000000000000006001600160a01b031663f60bbe2a6040518163ffffffff1660e01b8152600401602060405180830381865afa1580156106ec573d6000803e3d6000fd5b505050506040513d601f19601f820116820180604052508101906107109190610acc565b905061071c8185610b0c565b6107269083610b23565b949350505050565b600080547f00000000000000000000000000000000000000000000000000000000000000006001600160a01b03908116911614801561076e575060015446145b905090565b61077b610b36565b565b634e487b7160e01b600052604160045260246000fd5b6000602082840312156107a557600080fd5b813567ffffffffffffffff808211156107bd57600080fd5b818401915084601f8301126107d157600080fd5b8135818111156107e3576107e361077d565b604051601f8201601f19908116603f0116810190838211818310171561080b5761080b61077d565b8160405282815287602084870101111561082457600080fd5b826020860160208301376000928101602001929092525095945050505050565b80356001600160a01b038116811461085b57600080fd5b919050565b60008060008060006080868803121561087857600080fd5b61088186610844565b9450602086013567ffffffffffffffff808216821461089f57600080fd5b909450604087013590808211156108b557600080fd5b818801915088601f8301126108c957600080fd5b8135818111156108d857600080fd5b8960208285010111156108ea57600080fd5b60208301955080945050505061090260608701610844565b90509295509295909350565b60006020828403121561092057600080fd5b61092982610844565b9392505050565b60005b8381101561094b578181015183820152602001610933565b50506000910152565b6000815180845261096c816020860160208601610930565b601f01601f19169290920160200192915050565b6020815260006109296020830184610954565b600080858511156109a357600080fd5b838611156109b057600080fd5b5050820193919092039150565b6001600160e01b031981358181169160048510156109e55780818660040360031b1b83161692505b505092915050565b803560208310156105e957600019602084900360031b1b1692915050565b634e487b7160e01b600052601160045260246000fd5b600060018201610a3357610a33610a0b565b5060010190565b634e487b7160e01b600052602160045260246000fd5b63ffffffff60e01b8416815282600482015260008251610a77816024850160208701610930565b91909101602401949350505050565b600060018060a01b03808716835267ffffffffffffffff8616602084015260806040840152610ab86080840186610954565b915080841660608401525095945050505050565b600060208284031215610ade57600080fd5b5051919050565b60018060a01b03841681528260208201526060604082015260006103996060830184610954565b80820281158282048414176105e9576105e9610a0b565b808201808211156105e9576105e9610a0b565b634e487b7160e01b600052605160045260246000fdfea2646970667358221220d23c88b0a9a05b027b0905a0ca32c4365d98b4a4a25286e71975844d72a2882864736f6c63430008130033",
  "linkReferences": {},
  "deployedLinkReferences": {}
}