{
  "_format": "hh-sol-artifact-1",
  "contractName": "BaseEndpoint",
  "sourceName": "@oasisprotocol/sapphire-contracts/contracts/opl/Endpoint.sol",
  "abi": [
    {
      "inputs": [
        {
          "internalType": "address",
          "name": "_remote",
          "type": "address"
        },
        {
          "internalType": "uint256",
          "name": "_remoteChainId",
          "type": "uint256"
        },
        {
          "internalType": "address",
          "name": "_messageBus",
          "type": "address"
        },
        {
          "internalType": "bool",
          "name": "_inOrder",
          "type": "bool"
        }
      ],
      "stateMutability": "nonpayable",
      "type": "constructor"
    },
    {
      "inputs": [],
      "name": "MissingRemoteAddr",
      "type": "error"
    },
    {
      "inputs": [],
      "name": "MissingRemoteChainId",
      "type": "error"
    },
    {
      "inputs": [],
      "name": "NotMessageBus",
      "type": "error"
    },
    {
      "inputs": [],
      "name": "NotRemoteEndpoint",
      "type": "error"
    },
    {
      "inputs": [],
      "name": "SelfCallDisallowed",
      "type": "error"
    },
    {
      "inputs": [
        {
          "internalType": "uint256",
          "name": "expected",
          "type": "uint256"
        },
        {
          "internalType": "uint256",
          "name": "got",
          "type": "uint256"
        }
      ],
      "name": "WrongSeqNum",
      "type": "error"
    },
    {
      "inputs": [
        {
          "internalType": "address",
          "name": "_sender",
          "type": "address"
        },
        {
          "internalType": "uint64",
          "name": "_senderChainId",
          "type": "uint64"
        },
        {
          "internalType": "bytes",
          "name": "_message",
          "type": "bytes"
        },
        {
          "internalType": "address",
          "name": "",
          "type": "address"
        }
      ],
      "name": "executeMessage",
      "outputs": [
        {
          "internalType": "uint256",
          "name": "",
          "type": "uint256"
        }
      ],
      "stateMutability": "payable",
      "type": "function"
    }
  ],
  "bytecode": "0x60c060405234801561001057600080fd5b506040516105aa3803806105aa83398101604081905261002f91610125565b6001600160a01b03841661005657604051635f9997df60e01b815260040160405180910390fd5b8260000361007757604051630a9e222360e41b815260040160405180910390fd5b600080546001600160a01b0319166001600160a01b03868116919091179091556001849055821660805280151560a0526100af6100e2565b1580156100bb57504683145b156100d9576040516336fc0b5f60e21b815260040160405180910390fd5b50505050610179565b600080546080516001600160a01b039081169116148015610104575060015446145b905090565b80516001600160a01b038116811461012057600080fd5b919050565b6000806000806080858703121561013b57600080fd5b61014485610109565b93506020850151925061015960408601610109565b91506060850151801515811461016e57600080fd5b939692955090935050565b60805160a05161040d61019d6000396000610125015260006055015261040d6000f3fe60806040526004361061001e5760003560e01c80639c649fdf14610023575b600080fd5b61003661003136600461025d565b610048565b60405190815260200160405180910390f35b6000336001600160a01b037f000000000000000000000000000000000000000000000000000000000000000016146100935760405163331f9a1960e11b815260040160405180910390fd5b6000546001600160a01b0387811691161415806100bc57506001548567ffffffffffffffff1614155b156100da57604051636e3ae14560e01b815260040160405180910390fd5b60006100e9600482868861030b565b6100f291610335565b9050600061010460246004878961030b565b61010d91610365565b905036600061011f876024818b61030b565b915091507f00000000000000000000000000000000000000000000000000000000000000001561018e57600454831461017a576004805460405163d0257bb160e01b8152918201526024810184905260440160405180910390fd5b60046000815461018990610384565b909155505b6001600160e01b031984166000908152600260205260408120546102378115021767ffffffffffffffff8116918215916101ce908690869063ffffffff16565b905060018160028111156101e4576101e46103ab565b036101f957600297505050505050505061022e565b600281600281111561020d5761020d6103ab565b0361022257600197505050505050505061022e565b60009750505050505050505b95945050505050565b61023f6103c1565b565b80356001600160a01b038116811461025857600080fd5b919050565b60008060008060006080868803121561027557600080fd5b61027e86610241565b9450602086013567ffffffffffffffff808216821461029c57600080fd5b909450604087013590808211156102b257600080fd5b818801915088601f8301126102c657600080fd5b8135818111156102d557600080fd5b8960208285010111156102e757600080fd5b6020830195508094505050506102ff60608701610241565b90509295509295909350565b6000808585111561031b57600080fd5b8386111561032857600080fd5b5050820193919092039150565b6001600160e01b0319813581811691600485101561035d5780818660040360031b1b83161692505b505092915050565b8035602083101561037e57600019602084900360031b1b165b92915050565b6000600182016103a457634e487b7160e01b600052601160045260246000fd5b5060010190565b634e487b7160e01b600052602160045260246000fd5b634e487b7160e01b600052605160045260246000fdfea2646970667358221220c4ae2526e4a0a6abcd8da836b9dcd9140bf98aeefb272570dde4b78893e1b4dc64736f6c63430008130033",
  "linkReferences": {},
  "deployedLinkReferences": {}
}