{
  "_format": "hh-sol-artifact-1",
  "contractName": "Endpoint",
  "sourceName": "@oasisprotocol/sapphire-contracts/contracts/opl/Endpoint.sol",
  "abi": [
    {
      "inputs": [
        {
          "internalType": "address",
          "name": "_remote",
          "type": "address"
        },
        {
          "internalType": "bytes32",
          "name": "_remoteChainName",
          "type": "bytes32"
        }
      ],
      "stateMutability": "nonpayable",
      "type": "constructor"
    },
    {
      "inputs": [],
      "name": "AutoConfigUnavailable",
      "type": "error"
    },
    {
      "inputs": [],
      "name": "MissingRemoteAddr",
      "type": "error"
    },
    {
      "inputs": [],
      "name": "MissingRemoteChainId",
      "type": "error"
    },
    {
      "inputs": [],
      "name": "NotMessageBus",
      "type": "error"
    },
    {
      "inputs": [],
      "name": "NotRemoteEndpoint",
      "type": "error"
    },
    {
      "inputs": [],
      "name": "SelfCallDisallowed",
      "type": "error"
    },
    {
      "inputs": [
        {
          "internalType": "uint256",
          "name": "expected",
          "type": "uint256"
        },
        {
          "internalType": "uint256",
          "name": "got",
          "type": "uint256"
        }
      ],
      "name": "WrongSeqNum",
      "type": "error"
    },
    {
      "inputs": [
        {
          "internalType": "address",
          "name": "_sender",
          "type": "address"
        },
        {
          "internalType": "uint64",
          "name": "_senderChainId",
          "type": "uint64"
        },
        {
          "internalType": "bytes",
          "name": "_message",
          "type": "bytes"
        },
        {
          "internalType": "address",
          "name": "",
          "type": "address"
        }
      ],
      "name": "executeMessage",
      "outputs": [
        {
          "internalType": "uint256",
          "name": "",
          "type": "uint256"
        }
      ],
      "stateMutability": "payable",
      "type": "function"
    }
  ],
  "bytecode": "0x60c060405234801561001057600080fd5b50604051610a94380380610a9483398101604081905261002f91610629565b81610039826100fa565b6100438484610121565b60006001600160a01b03841661006c57604051635f9997df60e01b815260040160405180910390fd5b8260000361008d57604051630a9e222360e41b815260040160405180910390fd5b600080546001600160a01b0319166001600160a01b03868116919091179091556001849055821660805280151560a0526100c561014d565b1580156100d157504683145b156100ef576040516336fc0b5f60e21b815260040160405180910390fd5b505050505050610663565b600081641b1bd8d85b60da1b03610112575046919050565b61011b82610174565b92915050565b600081641b1bd8d85b60da1b0361013957508161011b565b60006101444661036a565b50949350505050565b600080546080516001600160a01b03908116911614801561016f575060015446145b905090565b60008167657468657265756d60c01b0361019057506001919050565b8165676f65726c6960d01b036101a857506005919050565b81676f7074696d69736d60c01b036101c25750600a919050565b816262736360e81b036101d757506038919050565b816a189cd8cb5d195cdd1b995d60aa1b036101f457506061919050565b81663837b63cb3b7b760c91b0361020d57506089919050565b816566616e746f6d60d01b03610225575060fa919050565b816d19985b9d1bdb4b5d195cdd1b995d60921b036102465750610fa2919050565b816836b7b7b73934bb32b960b91b036102625750610505919050565b816b617262697472756d2d6f6e6560a01b03610281575061a4b1919050565b816c617262697472756d2d6e6f766160981b036102a1575061a4ba919050565b8167736170706869726560c01b036102bc5750615afe919050565b816f1cd85c1c1a1a5c994b5d195cdd1b995d60821b036102df5750615aff919050565b816d706f6c79676f6e2d6d756d62616960901b03610301575062013881919050565b81686176616c616e63686560b81b0361031d575061a86a919050565b816d6176616c616e6368652d66756a6960901b0361033e575061a931919050565b816f185c989a5d1c9d5b4b5d195cdd1b995d60821b03610362575062066eeb919050565b506000919050565b600080826001036103945750734066d196a423b2b3b8b054f4f40efb47a74e200c92600092509050565b826005036103bb575073f25170f86e4291a99a9a560032fe9948b8bcfbb292600192509050565b82600a036103e25750730d71d18126e03646eb09fec929e2ae87b7cae69d92600092509050565b8260380361040957507395714818fdd7a5454f73da9c777b3ee6ebaeea6b92600092509050565b82606103610430575073ad204986d6cb67a5bc76a3cb8974823f43cb9aaa92600192509050565b82608903610457575073afdb9c40c7144022811f034ee07ce2e110093fe692600092509050565b8260fa0361047e575073ff4e183a0ceb4fa98e63bbf8077b929c8e5a2ba492600092509050565b82610fa2036104a6575073b92d6933a024bcca9a21669a480c236cbc97311092600192509050565b82610505036104ce575073940daaba3f713abfabd79cdd991466fe698cbe5492600092509050565b82615afe036104f65750739b36f165bab9ebe611d491180418d8de4b8f3a1f92600092509050565b82615aff0361051e5750739bb46d5100d2db4608112026951c9c965b233f4d92600192509050565b8261a4b1036105465750733ad9d0648cdaa2426331e894e980d0a5ed16257f92600092509050565b8261a4ba0361056e575073f5c6825015280cdfd0b56903f9f8b5a2233476f592600092509050565b8261a86903610596575073e9533976c590200e32d95c53f06ae12d292cfc4792600192509050565b8261a86a036105be5750735a926eeeafc4d217add17e9641e8ce23cd01ad5792600092509050565b8262013881036105e75750737d43aabc515c356145049227cee54b608342c0ad92600192509050565b8262066eeb036106105750737d43aabc515c356145049227cee54b608342c0ad92600192509050565b60405163047a7e4960e21b815260040160405180910390fd5b6000806040838503121561063c57600080fd5b82516001600160a01b038116811461065357600080fd5b6020939093015192949293505050565b60805160a05161040d6106876000396000610125015260006055015261040d6000f3fe60806040526004361061001e5760003560e01c80639c649fdf14610023575b600080fd5b61003661003136600461025d565b610048565b60405190815260200160405180910390f35b6000336001600160a01b037f000000000000000000000000000000000000000000000000000000000000000016146100935760405163331f9a1960e11b815260040160405180910390fd5b6000546001600160a01b0387811691161415806100bc57506001548567ffffffffffffffff1614155b156100da57604051636e3ae14560e01b815260040160405180910390fd5b60006100e9600482868861030b565b6100f291610335565b9050600061010460246004878961030b565b61010d91610365565b905036600061011f876024818b61030b565b915091507f00000000000000000000000000000000000000000000000000000000000000001561018e57600454831461017a576004805460405163d0257bb160e01b8152918201526024810184905260440160405180910390fd5b60046000815461018990610384565b909155505b6001600160e01b031984166000908152600260205260408120546102378115021767ffffffffffffffff8116918215916101ce908690869063ffffffff16565b905060018160028111156101e4576101e46103ab565b036101f957600297505050505050505061022e565b600281600281111561020d5761020d6103ab565b0361022257600197505050505050505061022e565b60009750505050505050505b95945050505050565b61023f6103c1565b565b80356001600160a01b038116811461025857600080fd5b919050565b60008060008060006080868803121561027557600080fd5b61027e86610241565b9450602086013567ffffffffffffffff808216821461029c57600080fd5b909450604087013590808211156102b257600080fd5b818801915088601f8301126102c657600080fd5b8135818111156102d557600080fd5b8960208285010111156102e757600080fd5b6020830195508094505050506102ff60608701610241565b90509295509295909350565b6000808585111561031b57600080fd5b8386111561032857600080fd5b5050820193919092039150565b6001600160e01b0319813581811691600485101561035d5780818660040360031b1b83161692505b505092915050565b8035602083101561037e57600019602084900360031b1b165b92915050565b6000600182016103a457634e487b7160e01b600052601160045260246000fd5b5060010190565b634e487b7160e01b600052602160045260246000fd5b634e487b7160e01b600052605160045260246000fdfea264697066735822122015351a008aefc5eda96bebe7bda83cb97038dc0c65131d61cad1025634df608964736f6c63430008130033",
  "linkReferences": {},
  "deployedLinkReferences": {}
}