{
  "_format": "hh-sol-artifact-1",
  "contractName": "SapphireStorage",
  "sourceName": "contracts/sapphire/storage/SapphireStorage.sol",
  "abi": [
    {
      "inputs": [
        {
          "internalType": "address",
          "name": "_sbt",
          "type": "address"
        }
      ],
      "stateMutability": "nonpayable",
      "type": "constructor"
    },
    {
      "inputs": [],
      "name": "AutoConfigUnavailable",
      "type": "error"
    },
    {
      "inputs": [],
      "name": "InvalidShortString",
      "type": "error"
    },
    {
      "inputs": [],
      "name": "MissingRemoteAddr",
      "type": "error"
    },
    {
      "inputs": [],
      "name": "MissingRemoteChainId",
      "type": "error"
    },
    {
      "inputs": [],
      "name": "NotMessageBus",
      "type": "error"
    },
    {
      "inputs": [],
      "name": "NotRemoteEndpoint",
      "type": "error"
    },
    {
      "inputs": [],
      "name": "SelfCallDisallowed",
      "type": "error"
    },
    {
      "inputs": [
        {
          "internalType": "string",
          "name": "str",
          "type": "string"
        }
      ],
      "name": "StringTooLong",
      "type": "error"
    },
    {
      "inputs": [],
      "name": "Unauthorized",
      "type": "error"
    },
    {
      "inputs": [
        {
          "internalType": "uint256",
          "name": "expected",
          "type": "uint256"
        },
        {
          "internalType": "uint256",
          "name": "got",
          "type": "uint256"
        }
      ],
      "name": "WrongSeqNum",
      "type": "error"
    },
    {
      "anonymous": false,
      "inputs": [],
      "name": "EIP712DomainChanged",
      "type": "event"
    },
    {
      "inputs": [],
      "name": "eip712Domain",
      "outputs": [
        {
          "internalType": "bytes1",
          "name": "fields",
          "type": "bytes1"
        },
        {
          "internalType": "string",
          "name": "name",
          "type": "string"
        },
        {
          "internalType": "string",
          "name": "version",
          "type": "string"
        },
        {
          "internalType": "uint256",
          "name": "chainId",
          "type": "uint256"
        },
        {
          "internalType": "address",
          "name": "verifyingContract",
          "type": "address"
        },
        {
          "internalType": "bytes32",
          "name": "salt",
          "type": "bytes32"
        },
        {
          "internalType": "uint256[]",
          "name": "extensions",
          "type": "uint256[]"
        }
      ],
      "stateMutability": "view",
      "type": "function"
    },
    {
      "inputs": [
        {
          "internalType": "address",
          "name": "_sender",
          "type": "address"
        },
        {
          "internalType": "uint64",
          "name": "_senderChainId",
          "type": "uint64"
        },
        {
          "internalType": "bytes",
          "name": "_message",
          "type": "bytes"
        },
        {
          "internalType": "address",
          "name": "",
          "type": "address"
        }
      ],
      "name": "executeMessage",
      "outputs": [
        {
          "internalType": "uint256",
          "name": "",
          "type": "uint256"
        }
      ],
      "stateMutability": "payable",
      "type": "function"
    },
    {
      "inputs": [
        {
          "components": [
            {
              "internalType": "address",
              "name": "requester",
              "type": "address"
            },
            {
              "internalType": "uint256",
              "name": "expiry",
              "type": "uint256"
            },
            {
              "internalType": "bytes",
              "name": "signature",
              "type": "bytes"
            }
          ],
          "internalType": "struct SapphireStorage.PrivacyAccessRequest",
          "name": "req",
          "type": "tuple"
        }
      ],
      "name": "getProfile",
      "outputs": [
        {
          "internalType": "string",
          "name": "",
          "type": "string"
        }
      ],
      "stateMutability": "view",
      "type": "function"
    },
    {
      "inputs": [
        {
          "internalType": "address",
          "name": "forwarder",
          "type": "address"
        }
      ],
      "name": "isTrustedForwarder",
      "outputs": [
        {
          "internalType": "bool",
          "name": "",
          "type": "bool"
        }
      ],
      "stateMutability": "view",
      "type": "function"
    }
  ],
  "bytecode": "0x6101c06040523480156200001257600080fd5b506040516200201838038062002018833981016040819052620000359162000bcb565b6040518060400160405280600f81526020016e536170706869726553746f7261676560881b815250604051806040016040528060018152602001603160f81b815250826200008f6262736360e81b6200032260201b60201c565b46615aff14620000a1576000620000a4565b60005b828281620000b2826200050b565b620000be848462000535565b60006001600160a01b038416620000e857604051635f9997df60e01b815260040160405180910390fd5b826000036200010a57604051630a9e222360e41b815260040160405180910390fd5b600080546001600160a01b0319166001600160a01b03868116919091179091556001849055821660805280151560a0526200014462000565565b1580156200015157504683145b1562000170576040516336fc0b5f60e21b815260040160405180910390fd5b5050506001600160a01b0390931660c0525062000196935085925060059150506200058d565b61018052620001a78160066200058d565b6101a052815160208084019190912061014052815190820120610160524661010052620002386101405161016051604080517f8b73c3c69bb8fe3d512ecc4cf759cc79239f7b179b0ffacaa9a75d522b39400f60208201529081019290925260608201524660808201523060a082015260009060c00160405160208183030381529060405280519060200120905090565b60e05250503061012052604080518082018252600d8082526c63726561746550726f66696c6560981b6020928301527fc7902ffb625b4ba4efbbb4f9fc92ce325c41012493ef205a7c45b7489e54a8a780546001600160401b0362000584620005c5861b1781166001600160401b03199283161790925584518086019095529184526c72656d6f766550726f66696c6560981b93830193909352636daf810760e01b600052600282527febf57a9308776084236b17d202b8c7e40116e538378cffa7c03a2f70eb9a03758054620005c96200060c90941b9390931790931691161790555062000ec7565b600046610539148062000336575046617a69145b156200034b5750641b1bd8d85b60da1b919050565b600062000358466200064e565b9150508015620004d8578267657468657265756d60c01b0362000386575065676f65726c6960d01b92915050565b826262736360e81b03620003aa57506a189cd8cb5d195cdd1b995d60aa1b92915050565b82663837b63cb3b7b760c91b03620003d557506d706f6c79676f6e2d6d756d62616960901b92915050565b826566616e746f6d60d01b03620003ff57506d19985b9d1bdb4b5d195cdd1b995d60921b92915050565b8267736170706869726560c01b036200042d57506f1cd85c1c1a1a5c994b5d195cdd1b995d60821b92915050565b826b617262697472756d2d6f6e6560a01b036200045f57506f185c989a5d1c9d5b4b5d195cdd1b995d60821b92915050565b826c617262697472756d2d6e6f766160981b036200049257506f185c989a5d1c9d5b4b5d195cdd1b995d60821b92915050565b82686176616c616e63686560b81b03620004bf57506d6176616c616e6368652d66756a6960901b92915050565b60405163047a7e4960e21b815260040160405180910390fd5b620004e38362000905565b600003620005045760405163047a7e4960e21b815260040160405180910390fd5b5090919050565b600081641b1bd8d85b60da1b0362000524575046919050565b6200052f8262000905565b92915050565b600081641b1bd8d85b60da1b036200054f5750816200052f565b60006200055c466200064e565b50949350505050565b600080546080516001600160a01b03908116911614801562000588575060015446145b905090565b6000602083511015620005ad57620005a58362000b0c565b90506200052f565b81620005ba848262000c97565b5060ff90506200052f565b60008080620005d78486018662000d63565b6001600160a01b0382166000908152600760205260409020919350915062000600828262000c97565b50600295945050505050565b6000806200061d8385018562000e32565b6001600160a01b038116600090815260076020526040812091925062000644919062000b58565b5060029392505050565b60008082600103620006795750734066d196a423b2b3b8b054f4f40efb47a74e200c92600092509050565b82600503620006a1575073f25170f86e4291a99a9a560032fe9948b8bcfbb292600192509050565b82600a03620006c95750730d71d18126e03646eb09fec929e2ae87b7cae69d92600092509050565b82603803620006f157507395714818fdd7a5454f73da9c777b3ee6ebaeea6b92600092509050565b8260610362000719575073ad204986d6cb67a5bc76a3cb8974823f43cb9aaa92600192509050565b8260890362000741575073afdb9c40c7144022811f034ee07ce2e110093fe692600092509050565b8260fa0362000769575073ff4e183a0ceb4fa98e63bbf8077b929c8e5a2ba492600092509050565b82610fa20362000792575073b92d6933a024bcca9a21669a480c236cbc97311092600192509050565b8261050503620007bb575073940daaba3f713abfabd79cdd991466fe698cbe5492600092509050565b82615afe03620007e45750739b36f165bab9ebe611d491180418d8de4b8f3a1f92600092509050565b82615aff036200080d5750739bb46d5100d2db4608112026951c9c965b233f4d92600192509050565b8261a4b103620008365750733ad9d0648cdaa2426331e894e980d0a5ed16257f92600092509050565b8261a4ba036200085f575073f5c6825015280cdfd0b56903f9f8b5a2233476f592600092509050565b8261a8690362000888575073e9533976c590200e32d95c53f06ae12d292cfc4792600192509050565b8261a86a03620008b15750735a926eeeafc4d217add17e9641e8ce23cd01ad5792600092509050565b826201388103620008db5750737d43aabc515c356145049227cee54b608342c0ad92600192509050565b8262066eeb03620004bf5750737d43aabc515c356145049227cee54b608342c0ad92600192509050565b60008167657468657265756d60c01b036200092257506001919050565b8165676f65726c6960d01b036200093b57506005919050565b81676f7074696d69736d60c01b03620009565750600a919050565b816262736360e81b036200096c57506038919050565b816a189cd8cb5d195cdd1b995d60aa1b036200098a57506061919050565b81663837b63cb3b7b760c91b03620009a457506089919050565b816566616e746f6d60d01b03620009bd575060fa919050565b816d19985b9d1bdb4b5d195cdd1b995d60921b03620009df5750610fa2919050565b816836b7b7b73934bb32b960b91b03620009fc5750610505919050565b816b617262697472756d2d6f6e6560a01b0362000a1c575061a4b1919050565b816c617262697472756d2d6e6f766160981b0362000a3d575061a4ba919050565b8167736170706869726560c01b0362000a595750615afe919050565b816f1cd85c1c1a1a5c994b5d195cdd1b995d60821b0362000a7d5750615aff919050565b816d706f6c79676f6e2d6d756d62616960901b0362000aa0575062013881919050565b81686176616c616e63686560b81b0362000abd575061a86a919050565b816d6176616c616e6368652d66756a6960901b0362000adf575061a931919050565b816f185c989a5d1c9d5b4b5d195cdd1b995d60821b0362000b04575062066eeb919050565b506000919050565b600080829050601f8151111562000b43578260405163305a27a960e01b815260040162000b3a919062000e52565b60405180910390fd5b805162000b508262000ea2565b179392505050565b50805462000b669062000c08565b6000825580601f1062000b77575050565b601f01602090049060005260206000209081019062000b97919062000b9a565b50565b5b8082111562000bb1576000815560010162000b9b565b5090565b6001600160a01b038116811462000b9757600080fd5b60006020828403121562000bde57600080fd5b815162000beb8162000bb5565b9392505050565b634e487b7160e01b600052604160045260246000fd5b600181811c9082168062000c1d57607f821691505b60208210810362000c3e57634e487b7160e01b600052602260045260246000fd5b50919050565b601f82111562000c9257600081815260208120601f850160051c8101602086101562000c6d5750805b601f850160051c820191505b8181101562000c8e5782815560010162000c79565b5050505b505050565b81516001600160401b0381111562000cb35762000cb362000bf2565b62000ccb8162000cc4845462000c08565b8462000c44565b602080601f83116001811462000d03576000841562000cea5750858301515b600019600386901b1c1916600185901b17855562000c8e565b600085815260208120601f198616915b8281101562000d345788860151825594840194600190910190840162000d13565b508582101562000d535787850151600019600388901b60f8161c191681555b5050505050600190811b01905550565b6000806040838503121562000d7757600080fd5b823562000d848162000bb5565b915060208301356001600160401b038082111562000da157600080fd5b818501915085601f83011262000db657600080fd5b81358181111562000dcb5762000dcb62000bf2565b604051601f8201601f19908116603f0116810190838211818310171562000df65762000df662000bf2565b8160405282815288602084870101111562000e1057600080fd5b8260208601602083013760006020848301015280955050505050509250929050565b60006020828403121562000e4557600080fd5b813562000beb8162000bb5565b600060208083528351808285015260005b8181101562000e815785810183015185820160400152820162000e63565b506000604082860101526040601f19601f8301168501019250505092915050565b8051602080830151919081101562000c3e5760001960209190910360031b1b16919050565b60805160a05160c05160e05161010051610120516101405161016051610180516101a0516110d662000f4260003960006101550152600061012a0152600061081c015260006107f40152600061074f01526000610779015260006107a301526000606101526000610282015260006101b201526110d66000f3fe60806040526004361061003f5760003560e01c8063572b6c051461004457806384b0196e146100a65780639c649fdf146100ce578063fdf806cc146100ef575b600080fd5b34801561005057600080fd5b5061009161005f366004610b6d565b7f00000000000000000000000000000000000000000000000000000000000000006001600160a01b0390811691161490565b60405190151581526020015b60405180910390f35b3480156100b257600080fd5b506100bb61011c565b60405161009d9796959493929190610bd7565b6100e16100dc366004610c6d565b6101a5565b60405190815260200161009d565b3480156100fb57600080fd5b5061010f61010a366004610d1d565b610395565b60405161009d9190610d58565b6000606080828080836101507f00000000000000000000000000000000000000000000000000000000000000006005610607565b61017b7f00000000000000000000000000000000000000000000000000000000000000006006610607565b60408051600080825260208201909252600f60f81b9b939a50919850469750309650945092509050565b6000336001600160a01b037f000000000000000000000000000000000000000000000000000000000000000016146101f05760405163331f9a1960e11b815260040160405180910390fd5b6000546001600160a01b03878116911614158061021957506001548567ffffffffffffffff1614155b1561023757604051636e3ae14560e01b815260040160405180910390fd5b60006102466004828688610d81565b61024f91610dab565b90506000610261602460048789610d81565b61026a91610ddb565b905036600061027c876024818b610d81565b915091507f0000000000000000000000000000000000000000000000000000000000000000156102ec5760045483146102d8576004805460405163d0257bb160e01b815291820152602481018490526044015b60405180910390fd5b6004600081546102e790610df9565b909155505b6001600160e01b03198416600090815260026020526040812054610af08115021767ffffffffffffffff81169182159161032c908690869063ffffffff16565b9050600181600281111561034257610342610e20565b0361035757600297505050505050505061038c565b600281600281111561036b5761036b610e20565b0361038057600197505050505050505061038c565b60009750505050505050505b95945050505050565b60608180602001354211156103bc576040516282b42960e81b815260040160405180910390fd5b60006104327f4e0a8a1be2f255260cf875fc41ce8a018702331610d9425c63b4b883f06422c56103ef6020850185610b6d565b604080516020818101949094526001600160a01b0390921690820152908401356060820152608001604051602081830303815290604052805190602001206106b2565b90506000610481826104476040860186610e36565b8080601f0160208091040260200160405190810160405280939291908181526020018383808284376000920191909152506106df92505050565b90506104906020840184610b6d565b6001600160a01b0316816001600160a01b0316146104c0576040516282b42960e81b815260040160405180910390fd5b600760006104d16020880188610b6d565b6001600160a01b03166001600160a01b0316815260200190815260200160002080546104fc90610e7d565b80601f016020809104026020016040519081016040528092919081815260200182805461052890610e7d565b80156105755780601f1061054a57610100808354040283529160200191610575565b820191906000526020600020905b81548152906001019060200180831161055857829003601f168201915b50505050509350505050919050565b6000808061059484860186610eb7565b6001600160a01b038216600090815260076020526040902091935091506105bb8282610fca565b506002925050505b92915050565b6000806105d883850185610b6d565b6001600160a01b03811660009081526007602052604081209192506105fd9190610afa565b5060029392505050565b606060ff83146106215761061a83610703565b90506105c3565b81805461062d90610e7d565b80601f016020809104026020016040519081016040528092919081815260200182805461065990610e7d565b80156106a65780601f1061067b576101008083540402835291602001916106a6565b820191906000526020600020905b81548152906001019060200180831161068957829003601f168201915b505050505090506105c3565b60006105c36106bf610742565b8360405161190160f01b8152600281019290925260228201526042902090565b60008060006106ee8585610872565b915091506106fb816108b7565b509392505050565b6060600061071083610a04565b604080516020808252818301909252919250600091906020820181803683375050509182525060208101929092525090565b6000306001600160a01b037f00000000000000000000000000000000000000000000000000000000000000001614801561079b57507f000000000000000000000000000000000000000000000000000000000000000046145b156107c557507f000000000000000000000000000000000000000000000000000000000000000090565b61086d604080517f8b73c3c69bb8fe3d512ecc4cf759cc79239f7b179b0ffacaa9a75d522b39400f60208201527f0000000000000000000000000000000000000000000000000000000000000000918101919091527f000000000000000000000000000000000000000000000000000000000000000060608201524660808201523060a082015260009060c00160405160208183030381529060405280519060200120905090565b905090565b60008082516041036108a85760208301516040840151606085015160001a61089c87828585610a2c565b945094505050506108b0565b506000905060025b9250929050565b60008160048111156108cb576108cb610e20565b036108d35750565b60018160048111156108e7576108e7610e20565b036109345760405162461bcd60e51b815260206004820152601860248201527f45434453413a20696e76616c6964207369676e6174757265000000000000000060448201526064016102cf565b600281600481111561094857610948610e20565b036109955760405162461bcd60e51b815260206004820152601f60248201527f45434453413a20696e76616c6964207369676e6174757265206c656e6774680060448201526064016102cf565b60038160048111156109a9576109a9610e20565b03610a015760405162461bcd60e51b815260206004820152602260248201527f45434453413a20696e76616c6964207369676e6174757265202773272076616c604482015261756560f01b60648201526084016102cf565b50565b600060ff8216601f8111156105c357604051632cd44ac360e21b815260040160405180910390fd5b6000807f7fffffffffffffffffffffffffffffff5d576e7357a4501ddfe92f46681b20a0831115610a635750600090506003610ae7565b6040805160008082526020820180845289905260ff881692820192909252606081018690526080810185905260019060a0016020604051602081039080840390855afa158015610ab7573d6000803e3d6000fd5b5050604051601f1901519150506001600160a01b038116610ae057600060019250925050610ae7565b9150600090505b94509492505050565b610af861108a565b565b508054610b0690610e7d565b6000825580601f10610b16575050565b601f016020900490600052602060002090810190610a0191905b80821115610b445760008155600101610b30565b5090565b6001600160a01b0381168114610a0157600080fd5b8035610b6881610b48565b919050565b600060208284031215610b7f57600080fd5b8135610b8a81610b48565b9392505050565b6000815180845260005b81811015610bb757602081850181015186830182015201610b9b565b506000602082860101526020601f19601f83011685010191505092915050565b60ff60f81b881681526000602060e081840152610bf760e084018a610b91565b8381036040850152610c09818a610b91565b606085018990526001600160a01b038816608086015260a0850187905284810360c0860152855180825283870192509083019060005b81811015610c5b57835183529284019291840191600101610c3f565b50909c9b505050505050505050505050565b600080600080600060808688031215610c8557600080fd5b8535610c9081610b48565b9450602086013567ffffffffffffffff8082168214610cae57600080fd5b90945060408701359080821115610cc457600080fd5b818801915088601f830112610cd857600080fd5b813581811115610ce757600080fd5b896020828501011115610cf957600080fd5b602083019550809450505050610d1160608701610b5d565b90509295509295909350565b600060208284031215610d2f57600080fd5b813567ffffffffffffffff811115610d4657600080fd5b820160608185031215610b8a57600080fd5b602081526000610b8a6020830184610b91565b634e487b7160e01b600052604160045260246000fd5b60008085851115610d9157600080fd5b83861115610d9e57600080fd5b5050820193919092039150565b6001600160e01b03198135818116916004851015610dd35780818660040360031b1b83161692505b505092915050565b803560208310156105c357600019602084900360031b1b1692915050565b600060018201610e1957634e487b7160e01b600052601160045260246000fd5b5060010190565b634e487b7160e01b600052602160045260246000fd5b6000808335601e19843603018112610e4d57600080fd5b83018035915067ffffffffffffffff821115610e6857600080fd5b6020019150368190038213156108b057600080fd5b600181811c90821680610e9157607f821691505b602082108103610eb157634e487b7160e01b600052602260045260246000fd5b50919050565b60008060408385031215610eca57600080fd5b8235610ed581610b48565b9150602083013567ffffffffffffffff80821115610ef257600080fd5b818501915085601f830112610f0657600080fd5b813581811115610f1857610f18610d6b565b604051601f8201601f19908116603f01168101908382118183101715610f4057610f40610d6b565b81604052828152886020848701011115610f5957600080fd5b8260208601602083013760006020848301015280955050505050509250929050565b601f821115610fc557600081815260208120601f850160051c81016020861015610fa25750805b601f850160051c820191505b81811015610fc157828155600101610fae565b5050505b505050565b815167ffffffffffffffff811115610fe457610fe4610d6b565b610ff881610ff28454610e7d565b84610f7b565b602080601f83116001811461102d57600084156110155750858301515b600019600386901b1c1916600185901b178555610fc1565b600085815260208120601f198616915b8281101561105c5788860151825594840194600190910190840161103d565b508582101561107a5787850151600019600388901b60f8161c191681555b5050505050600190811b01905550565b634e487b7160e01b600052605160045260246000fdfea2646970667358221220203b46efcc7d67ae41fd63532948e403a0cd57d4627fad811c18c0791f8f176664736f6c63430008130033",
  "linkReferences": {},
  "deployedLinkReferences": {}
}