{
  "_format": "hh-sol-artifact-1",
  "contractName": "SapphireStorage",
  "sourceName": "contracts/sapphire/storage/SapphireStorage.sol",
  "abi": [
    {
      "inputs": [
        {
          "internalType": "address",
          "name": "_sbt",
          "type": "address"
        }
      ],
      "stateMutability": "nonpayable",
      "type": "constructor"
    },
    {
      "inputs": [],
      "name": "AutoConfigUnavailable",
      "type": "error"
    },
    {
      "inputs": [],
      "name": "MissingRemoteAddr",
      "type": "error"
    },
    {
      "inputs": [],
      "name": "MissingRemoteChainId",
      "type": "error"
    },
    {
      "inputs": [],
      "name": "NotMessageBus",
      "type": "error"
    },
    {
      "inputs": [],
      "name": "NotRemoteEndpoint",
      "type": "error"
    },
    {
      "inputs": [],
      "name": "SelfCallDisallowed",
      "type": "error"
    },
    {
      "inputs": [
        {
          "internalType": "uint256",
          "name": "expected",
          "type": "uint256"
        },
        {
          "internalType": "uint256",
          "name": "got",
          "type": "uint256"
        }
      ],
      "name": "WrongSeqNum",
      "type": "error"
    },
    {
      "inputs": [
        {
          "internalType": "address",
          "name": "_sender",
          "type": "address"
        },
        {
          "internalType": "uint64",
          "name": "_senderChainId",
          "type": "uint64"
        },
        {
          "internalType": "bytes",
          "name": "_message",
          "type": "bytes"
        },
        {
          "internalType": "address",
          "name": "",
          "type": "address"
        }
      ],
      "name": "executeMessage",
      "outputs": [
        {
          "internalType": "uint256",
          "name": "",
          "type": "uint256"
        }
      ],
      "stateMutability": "payable",
      "type": "function"
    },
    {
      "inputs": [
        {
          "internalType": "address",
          "name": "user",
          "type": "address"
        }
      ],
      "name": "getProfile",
      "outputs": [
        {
          "internalType": "string",
          "name": "",
          "type": "string"
        }
      ],
      "stateMutability": "view",
      "type": "function"
    },
    {
      "inputs": [
        {
          "internalType": "address",
          "name": "forwarder",
          "type": "address"
        }
      ],
      "name": "isTrustedForwarder",
      "outputs": [
        {
          "internalType": "bool",
          "name": "",
          "type": "bool"
        }
      ],
      "stateMutability": "view",
      "type": "function"
    }
  ],
  "bytecode": "0x60e06040523480156200001157600080fd5b50604051620015c6380380620015c6833981016040819052620000349162000a3a565b80620000466262736360e81b620001d5565b46615aff14620000585760006200005b565b60005b8282816200006982620003be565b620000758484620003e8565b60006001600160a01b0384166200009f57604051635f9997df60e01b815260040160405180910390fd5b82600003620000c157604051630a9e222360e41b815260040160405180910390fd5b600080546001600160a01b0319166001600160a01b03868116919091179091556001849055821660805280151560a052620000fb62000418565b1580156200010857504683145b1562000127576040516336fc0b5f60e21b815260040160405180910390fd5b505050505050806001600160a01b031660c0816001600160a01b0316815250505050506200018c6040518060400160405280600d81526020016c63726561746550726f66696c6560981b8152506200044060201b62000388176200048760201b60201c565b620001ce6040518060400160405280600d81526020016c72656d6f766550726f66696c6560981b815250620004c760201b620003cd176200048760201b60201c565b5062000cc1565b6000466105391480620001e9575046617a69145b15620001fe5750641b1bd8d85b60da1b919050565b60006200020b4662000509565b91505080156200038b578267657468657265756d60c01b0362000239575065676f65726c6960d01b92915050565b826262736360e81b036200025d57506a189cd8cb5d195cdd1b995d60aa1b92915050565b82663837b63cb3b7b760c91b036200028857506d706f6c79676f6e2d6d756d62616960901b92915050565b826566616e746f6d60d01b03620002b257506d19985b9d1bdb4b5d195cdd1b995d60921b92915050565b8267736170706869726560c01b03620002e057506f1cd85c1c1a1a5c994b5d195cdd1b995d60821b92915050565b826b617262697472756d2d6f6e6560a01b036200031257506f185c989a5d1c9d5b4b5d195cdd1b995d60821b92915050565b826c617262697472756d2d6e6f766160981b036200034557506f185c989a5d1c9d5b4b5d195cdd1b995d60821b92915050565b82686176616c616e63686560b81b036200037257506d6176616c616e6368652d66756a6960901b92915050565b60405163047a7e4960e21b815260040160405180910390fd5b6200039683620007c0565b600003620003b75760405163047a7e4960e21b815260040160405180910390fd5b5090919050565b600081641b1bd8d85b60da1b03620003d7575046919050565b620003e282620007c0565b92915050565b600081641b1bd8d85b60da1b0362000402575081620003e2565b60006200040f4662000509565b50949350505050565b600080546080516001600160a01b0390811691161480156200043b575060015446145b905090565b60008080620004528486018662000a77565b6001600160a01b038216600090815260056020526040902091935091506200047b828262000bd5565b50600295945050505050565b81516020928301206001600160e01b03191660009081526002909252604090912080546001600160401b0319166001600160401b03909216919091179055565b600080620004d88385018562000ca1565b6001600160a01b0381166000908152600560205260408120919250620004ff9190620009c7565b5060029392505050565b60008082600103620005345750734066d196a423b2b3b8b054f4f40efb47a74e200c92600092509050565b826005036200055c575073f25170f86e4291a99a9a560032fe9948b8bcfbb292600192509050565b82600a03620005845750730d71d18126e03646eb09fec929e2ae87b7cae69d92600092509050565b82603803620005ac57507395714818fdd7a5454f73da9c777b3ee6ebaeea6b92600092509050565b82606103620005d4575073ad204986d6cb67a5bc76a3cb8974823f43cb9aaa92600192509050565b82608903620005fc575073afdb9c40c7144022811f034ee07ce2e110093fe692600092509050565b8260fa0362000624575073ff4e183a0ceb4fa98e63bbf8077b929c8e5a2ba492600092509050565b82610fa2036200064d575073b92d6933a024bcca9a21669a480c236cbc97311092600192509050565b826105050362000676575073940daaba3f713abfabd79cdd991466fe698cbe5492600092509050565b82615afe036200069f5750739b36f165bab9ebe611d491180418d8de4b8f3a1f92600092509050565b82615aff03620006c85750739bb46d5100d2db4608112026951c9c965b233f4d92600192509050565b8261a4b103620006f15750733ad9d0648cdaa2426331e894e980d0a5ed16257f92600092509050565b8261a4ba036200071a575073f5c6825015280cdfd0b56903f9f8b5a2233476f592600092509050565b8261a8690362000743575073e9533976c590200e32d95c53f06ae12d292cfc4792600192509050565b8261a86a036200076c5750735a926eeeafc4d217add17e9641e8ce23cd01ad5792600092509050565b826201388103620007965750737d43aabc515c356145049227cee54b608342c0ad92600192509050565b8262066eeb03620003725750737d43aabc515c356145049227cee54b608342c0ad92600192509050565b60008167657468657265756d60c01b03620007dd57506001919050565b8165676f65726c6960d01b03620007f657506005919050565b81676f7074696d69736d60c01b03620008115750600a919050565b816262736360e81b036200082757506038919050565b816a189cd8cb5d195cdd1b995d60aa1b036200084557506061919050565b81663837b63cb3b7b760c91b036200085f57506089919050565b816566616e746f6d60d01b0362000878575060fa919050565b816d19985b9d1bdb4b5d195cdd1b995d60921b036200089a5750610fa2919050565b816836b7b7b73934bb32b960b91b03620008b75750610505919050565b816b617262697472756d2d6f6e6560a01b03620008d7575061a4b1919050565b816c617262697472756d2d6e6f766160981b03620008f8575061a4ba919050565b8167736170706869726560c01b03620009145750615afe919050565b816f1cd85c1c1a1a5c994b5d195cdd1b995d60821b03620009385750615aff919050565b816d706f6c79676f6e2d6d756d62616960901b036200095b575062013881919050565b81686176616c616e63686560b81b0362000978575061a86a919050565b816d6176616c616e6368652d66756a6960901b036200099a575061a931919050565b816f185c989a5d1c9d5b4b5d195cdd1b995d60821b03620009bf575062066eeb919050565b506000919050565b508054620009d59062000b46565b6000825580601f10620009e6575050565b601f01602090049060005260206000209081019062000a06919062000a09565b50565b5b8082111562000a20576000815560010162000a0a565b5090565b6001600160a01b038116811462000a0657600080fd5b60006020828403121562000a4d57600080fd5b815162000a5a8162000a24565b9392505050565b634e487b7160e01b600052604160045260246000fd5b6000806040838503121562000a8b57600080fd5b823562000a988162000a24565b915060208301356001600160401b038082111562000ab557600080fd5b818501915085601f83011262000aca57600080fd5b81358181111562000adf5762000adf62000a61565b604051601f8201601f19908116603f0116810190838211818310171562000b0a5762000b0a62000a61565b8160405282815288602084870101111562000b2457600080fd5b8260208601602083013760006020848301015280955050505050509250929050565b600181811c9082168062000b5b57607f821691505b60208210810362000b7c57634e487b7160e01b600052602260045260246000fd5b50919050565b601f82111562000bd057600081815260208120601f850160051c8101602086101562000bab5750805b601f850160051c820191505b8181101562000bcc5782815560010162000bb7565b5050505b505050565b81516001600160401b0381111562000bf15762000bf162000a61565b62000c098162000c02845462000b46565b8462000b82565b602080601f83116001811462000c41576000841562000c285750858301515b600019600386901b1c1916600185901b17855562000bcc565b600085815260208120601f198616915b8281101562000c725788860151825594840194600190910190840162000c51565b508582101562000c915787850151600019600388901b60f8161c191681555b5050505050600190811b01905550565b60006020828403121562000cb457600080fd5b813562000a5a8162000a24565b60805160a05160c0516108d662000cf06000396000608c01526000610276015260006101a601526108d66000f3fe6080604052600436106100345760003560e01c80630f53a47014610039578063572b6c051461006f5780639c649fdf146100cc575b600080fd5b34801561004557600080fd5b50610059610054366004610490565b6100ed565b60405161006691906104b4565b60405180910390f35b34801561007b57600080fd5b506100bc61008a366004610490565b7f00000000000000000000000000000000000000000000000000000000000000006001600160a01b0390811691161490565b6040519015158152602001610066565b6100df6100da366004610502565b610199565b604051908152602001610066565b6001600160a01b0381166000908152600560205260409020805460609190610114906105b2565b80601f0160208091040260200160405190810160405280929190818152602001828054610140906105b2565b801561018d5780601f106101625761010080835404028352916020019161018d565b820191906000526020600020905b81548152906001019060200180831161017057829003601f168201915b50505050509050919050565b6000336001600160a01b037f000000000000000000000000000000000000000000000000000000000000000016146101e45760405163331f9a1960e11b815260040160405180910390fd5b6000546001600160a01b03878116911614158061020d57506001548567ffffffffffffffff1614155b1561022b57604051636e3ae14560e01b815260040160405180910390fd5b600061023a60048286886105ec565b61024391610616565b905060006102556024600487896105ec565b61025e91610646565b9050366000610270876024818b6105ec565b915091507f0000000000000000000000000000000000000000000000000000000000000000156102df5760045483146102cb576004805460405163d0257bb160e01b8152918201526024810184905260440160405180910390fd5b6004600081546102da90610664565b909155505b6001600160e01b0319841660009081526002602052604081205461040b8115021767ffffffffffffffff81169182159161031f908690869063ffffffff16565b905060018160028111156103355761033561068b565b0361034a57600297505050505050505061037f565b600281600281111561035e5761035e61068b565b0361037357600197505050505050505061037f565b60009750505050505050505b95945050505050565b60008080610398848601866106b7565b6001600160a01b038216600090815260056020526040902091935091506103bf82826107ca565b506002925050505b92915050565b6000806103dc83850185610490565b6001600160a01b03811660009081526005602052604081209192506104019190610415565b5060029392505050565b61041361088a565b565b508054610421906105b2565b6000825580601f10610431575050565b601f01602090049060005260206000209081019061044f9190610452565b50565b5b808211156104675760008155600101610453565b5090565b6001600160a01b038116811461044f57600080fd5b803561048b8161046b565b919050565b6000602082840312156104a257600080fd5b81356104ad8161046b565b9392505050565b600060208083528351808285015260005b818110156104e1578581018301518582016040015282016104c5565b506000604082860101526040601f19601f8301168501019250505092915050565b60008060008060006080868803121561051a57600080fd5b85356105258161046b565b9450602086013567ffffffffffffffff808216821461054357600080fd5b9094506040870135908082111561055957600080fd5b818801915088601f83011261056d57600080fd5b81358181111561057c57600080fd5b89602082850101111561058e57600080fd5b6020830195508094505050506105a660608701610480565b90509295509295909350565b600181811c908216806105c657607f821691505b6020821081036105e657634e487b7160e01b600052602260045260246000fd5b50919050565b600080858511156105fc57600080fd5b8386111561060957600080fd5b5050820193919092039150565b6001600160e01b0319813581811691600485101561063e5780818660040360031b1b83161692505b505092915050565b803560208310156103c757600019602084900360031b1b1692915050565b60006001820161068457634e487b7160e01b600052601160045260246000fd5b5060010190565b634e487b7160e01b600052602160045260246000fd5b634e487b7160e01b600052604160045260246000fd5b600080604083850312156106ca57600080fd5b82356106d58161046b565b9150602083013567ffffffffffffffff808211156106f257600080fd5b818501915085601f83011261070657600080fd5b813581811115610718576107186106a1565b604051601f8201601f19908116603f01168101908382118183101715610740576107406106a1565b8160405282815288602084870101111561075957600080fd5b8260208601602083013760006020848301015280955050505050509250929050565b601f8211156107c557600081815260208120601f850160051c810160208610156107a25750805b601f850160051c820191505b818110156107c1578281556001016107ae565b5050505b505050565b815167ffffffffffffffff8111156107e4576107e46106a1565b6107f8816107f284546105b2565b8461077b565b602080601f83116001811461082d57600084156108155750858301515b600019600386901b1c1916600185901b1785556107c1565b600085815260208120601f198616915b8281101561085c5788860151825594840194600190910190840161083d565b508582101561087a5787850151600019600388901b60f8161c191681555b5050505050600190811b01905550565b634e487b7160e01b600052605160045260246000fdfea26469706673582212209ea83453eae7f2a1c71dbad99fcbe4671e95c467c46dbef3e5ea6868b78991c164736f6c63430008130033",
  "linkReferences": {},
  "deployedLinkReferences": {}
}