{
  "_format": "hh-sol-artifact-1",
  "contractName": "StorageAccessSignatureLibrary",
  "sourceName": "contracts/library/StorageAccessSignatureLibrary.sol",
  "abi": [
    {
      "inputs": [
        {
          "internalType": "address",
          "name": "account",
          "type": "address"
        },
        {
          "internalType": "bytes",
          "name": "signature",
          "type": "bytes"
        }
      ],
      "name": "recoverSigner",
      "outputs": [
        {
          "internalType": "address",
          "name": "",
          "type": "address"
        }
      ],
      "stateMutability": "pure",
      "type": "function"
    },
    {
      "inputs": [
        {
          "internalType": "bytes",
          "name": "signature",
          "type": "bytes"
        }
      ],
      "name": "verify",
      "outputs": [
        {
          "internalType": "bool",
          "name": "",
          "type": "bool"
        }
      ],
      "stateMutability": "view",
      "type": "function"
    }
  ],
  "bytecode": "0x61054b61003a600b82828239805160001a60731461002d57634e487b7160e01b600052600060045260246000fd5b30600052607381538281f3fe73000000000000000000000000000000000000000030146080604052600436106100405760003560e01c80638e760afe14610045578063e53e3a041461006d575b600080fd5b610058610053366004610466565b610098565b60405190151581526020015b60405180910390f35b61008061007b3660046104a3565b6100b7565b6040516001600160a01b039091168152602001610064565b6000806100a533846100b7565b6001600160a01b031633149392505050565b6040516bffffffffffffffffffffffff19606084901b1660208201526000908190603401604051602081830303815290604052805190602001209050600061012c827f19457468657265756d205369676e6564204d6573736167653a0a3332000000006000908152601c91909152603c902090565b9050600061013a8286610144565b9695505050505050565b60008060006101538585610168565b91509150610160816101ad565b509392505050565b600080825160410361019e5760208301516040840151606085015160001a610192878285856102ff565b945094505050506101a6565b506000905060025b9250929050565b60008160048111156101c1576101c16104ff565b036101c95750565b60018160048111156101dd576101dd6104ff565b0361022f5760405162461bcd60e51b815260206004820152601860248201527f45434453413a20696e76616c6964207369676e6174757265000000000000000060448201526064015b60405180910390fd5b6002816004811115610243576102436104ff565b036102905760405162461bcd60e51b815260206004820152601f60248201527f45434453413a20696e76616c6964207369676e6174757265206c656e677468006044820152606401610226565b60038160048111156102a4576102a46104ff565b036102fc5760405162461bcd60e51b815260206004820152602260248201527f45434453413a20696e76616c6964207369676e6174757265202773272076616c604482015261756560f01b6064820152608401610226565b50565b6000807f7fffffffffffffffffffffffffffffff5d576e7357a4501ddfe92f46681b20a083111561033657506000905060036103ba565b6040805160008082526020820180845289905260ff881692820192909252606081018690526080810185905260019060a0016020604051602081039080840390855afa15801561038a573d6000803e3d6000fd5b5050604051601f1901519150506001600160a01b0381166103b3576000600192509250506103ba565b9150600090505b94509492505050565b634e487b7160e01b600052604160045260246000fd5b600082601f8301126103ea57600080fd5b813567ffffffffffffffff80821115610405576104056103c3565b604051601f8301601f19908116603f0116810190828211818310171561042d5761042d6103c3565b8160405283815286602085880101111561044657600080fd5b836020870160208301376000602085830101528094505050505092915050565b60006020828403121561047857600080fd5b813567ffffffffffffffff81111561048f57600080fd5b61049b848285016103d9565b949350505050565b600080604083850312156104b657600080fd5b82356001600160a01b03811681146104cd57600080fd5b9150602083013567ffffffffffffffff8111156104e957600080fd5b6104f5858286016103d9565b9150509250929050565b634e487b7160e01b600052602160045260246000fdfea2646970667358221220f23d802c5939b74802ae57159a61b5080ea491d9d35e2b55f0db33a1fe25c09064736f6c63430008130033",
  "linkReferences": {},
  "deployedLinkReferences": {}
}