{
  "_format": "hh-sol-artifact-1",
  "contractName": "SapphireStorageSignatureTest",
  "sourceName": "contracts/sapphire/storage/SapphireStorageSignatureTest.sol",
  "abi": [
    {
      "inputs": [],
      "stateMutability": "nonpayable",
      "type": "constructor"
    },
    {
      "inputs": [],
      "name": "InvalidShortString",
      "type": "error"
    },
    {
      "inputs": [
        {
          "internalType": "string",
          "name": "str",
          "type": "string"
        }
      ],
      "name": "StringTooLong",
      "type": "error"
    },
    {
      "inputs": [],
      "name": "Unauthorized",
      "type": "error"
    },
    {
      "anonymous": false,
      "inputs": [],
      "name": "EIP712DomainChanged",
      "type": "event"
    },
    {
      "inputs": [
        {
          "internalType": "string",
          "name": "data",
          "type": "string"
        }
      ],
      "name": "createProfile",
      "outputs": [],
      "stateMutability": "nonpayable",
      "type": "function"
    },
    {
      "inputs": [],
      "name": "eip712Domain",
      "outputs": [
        {
          "internalType": "bytes1",
          "name": "fields",
          "type": "bytes1"
        },
        {
          "internalType": "string",
          "name": "name",
          "type": "string"
        },
        {
          "internalType": "string",
          "name": "version",
          "type": "string"
        },
        {
          "internalType": "uint256",
          "name": "chainId",
          "type": "uint256"
        },
        {
          "internalType": "address",
          "name": "verifyingContract",
          "type": "address"
        },
        {
          "internalType": "bytes32",
          "name": "salt",
          "type": "bytes32"
        },
        {
          "internalType": "uint256[]",
          "name": "extensions",
          "type": "uint256[]"
        }
      ],
      "stateMutability": "view",
      "type": "function"
    },
    {
      "inputs": [
        {
          "components": [
            {
              "internalType": "address",
              "name": "requester",
              "type": "address"
            },
            {
              "internalType": "uint256",
              "name": "expiry",
              "type": "uint256"
            },
            {
              "internalType": "bytes",
              "name": "signature",
              "type": "bytes"
            }
          ],
          "internalType": "struct SapphireStorageSignatureTest.PrivacyAccessRequest",
          "name": "req",
          "type": "tuple"
        }
      ],
      "name": "getProfile",
      "outputs": [
        {
          "internalType": "string",
          "name": "",
          "type": "string"
        }
      ],
      "stateMutability": "view",
      "type": "function"
    }
  ],
  "bytecode": "0x6101606040523480156200001257600080fd5b50604080518082018252601c81527f536170706869726553746f726167655369676e61747572655465737400000000602080830191909152825180840190935260018352603160f81b90830152906200006d8260006200011b565b610120526200007e8160016200011b565b61014052815160208084019190912060e052815190820120610100524660a0526200010c60e05161010051604080517f8b73c3c69bb8fe3d512ecc4cf759cc79239f7b179b0ffacaa9a75d522b39400f60208201529081019290925260608201524660808201523060a082015260009060c00160405160208183030381529060405280519060200120905090565b60805250503060c05262000386565b60006020835110156200013b57620001338362000154565b90506200014e565b8162000148848262000245565b5060ff90505b92915050565b600080829050601f815111156200018b578260405163305a27a960e01b815260040162000182919062000311565b60405180910390fd5b8051620001988262000361565b179392505050565b634e487b7160e01b600052604160045260246000fd5b600181811c90821680620001cb57607f821691505b602082108103620001ec57634e487b7160e01b600052602260045260246000fd5b50919050565b601f8211156200024057600081815260208120601f850160051c810160208610156200021b5750805b601f850160051c820191505b818110156200023c5782815560010162000227565b5050505b505050565b81516001600160401b03811115620002615762000261620001a0565b6200027981620002728454620001b6565b84620001f2565b602080601f831160018114620002b15760008415620002985750858301515b600019600386901b1c1916600185901b1785556200023c565b600085815260208120601f198616915b82811015620002e257888601518255948401946001909101908401620002c1565b5085821015620003015787850151600019600388901b60f8161c191681555b5050505050600190811b01905550565b600060208083528351808285015260005b81811015620003405785810183015185820160400152820162000322565b506000604082860101526040601f19601f8301168501019250505092915050565b80516020808301519190811015620001ec5760001960209190910360031b1b16919050565b60805160a05160c05160e051610100516101205161014051610be3620003df600039600060f60152600060cc0152600061054c015260006105240152600061047f015260006104a9015260006104d30152610be36000f3fe608060405234801561001057600080fd5b50600436106100415760003560e01c8063334c3f0e1461004657806384b0196e1461005b578063fdf806cc1461007f575b600080fd5b610059610054366004610825565b61009f565b005b6100636100be565b60405161007697969594939291906108dd565b60405180910390f35b61009261008d366004610973565b610146565b60405161007691906109b5565b3360009081526002602052604090206100b9828483610a66565b505050565b6000606080828080836100f17f000000000000000000000000000000000000000000000000000000000000000083610335565b61011c7f00000000000000000000000000000000000000000000000000000000000000006001610335565b60408051600080825260208201909252600f60f81b9b939a50919850469750309650945092509050565b606081806020013542111561016d576040516282b42960e81b815260040160405180910390fd5b60006101e37f4e0a8a1be2f255260cf875fc41ce8a018702331610d9425c63b4b883f06422c56101a06020850185610b27565b604080516020818101949094526001600160a01b0390921690820152908401356060820152608001604051602081830303815290604052805190602001206103e2565b90506000610232826101f86040860186610b50565b8080601f01602080910402602001604051908101604052809392919081815260200183838082843760009201919091525061040f92505050565b90506102416020840184610b27565b6001600160a01b0316816001600160a01b031614610271576040516282b42960e81b815260040160405180910390fd5b600260006102826020880188610b27565b6001600160a01b03166001600160a01b0316815260200190815260200160002080546102ad906109de565b80601f01602080910402602001604051908101604052809291908181526020018280546102d9906109de565b80156103265780601f106102fb57610100808354040283529160200191610326565b820191906000526020600020905b81548152906001019060200180831161030957829003601f168201915b50505050509350505050919050565b606060ff831461034f5761034883610433565b90506103dc565b81805461035b906109de565b80601f0160208091040260200160405190810160405280929190818152602001828054610387906109de565b80156103d45780601f106103a9576101008083540402835291602001916103d4565b820191906000526020600020905b8154815290600101906020018083116103b757829003601f168201915b505050505090505b92915050565b60006103dc6103ef610472565b8360405161190160f01b8152600281019290925260228201526042902090565b600080600061041e85856105a2565b9150915061042b816105e7565b509392505050565b6060600061044083610739565b604080516020808252818301909252919250600091906020820181803683375050509182525060208101929092525090565b6000306001600160a01b037f0000000000000000000000000000000000000000000000000000000000000000161480156104cb57507f000000000000000000000000000000000000000000000000000000000000000046145b156104f557507f000000000000000000000000000000000000000000000000000000000000000090565b61059d604080517f8b73c3c69bb8fe3d512ecc4cf759cc79239f7b179b0ffacaa9a75d522b39400f60208201527f0000000000000000000000000000000000000000000000000000000000000000918101919091527f000000000000000000000000000000000000000000000000000000000000000060608201524660808201523060a082015260009060c00160405160208183030381529060405280519060200120905090565b905090565b60008082516041036105d85760208301516040840151606085015160001a6105cc87828585610761565b945094505050506105e0565b506000905060025b9250929050565b60008160048111156105fb576105fb610b97565b036106035750565b600181600481111561061757610617610b97565b036106695760405162461bcd60e51b815260206004820152601860248201527f45434453413a20696e76616c6964207369676e6174757265000000000000000060448201526064015b60405180910390fd5b600281600481111561067d5761067d610b97565b036106ca5760405162461bcd60e51b815260206004820152601f60248201527f45434453413a20696e76616c6964207369676e6174757265206c656e677468006044820152606401610660565b60038160048111156106de576106de610b97565b036107365760405162461bcd60e51b815260206004820152602260248201527f45434453413a20696e76616c6964207369676e6174757265202773272076616c604482015261756560f01b6064820152608401610660565b50565b600060ff8216601f8111156103dc57604051632cd44ac360e21b815260040160405180910390fd5b6000807f7fffffffffffffffffffffffffffffff5d576e7357a4501ddfe92f46681b20a0831115610798575060009050600361081c565b6040805160008082526020820180845289905260ff881692820192909252606081018690526080810185905260019060a0016020604051602081039080840390855afa1580156107ec573d6000803e3d6000fd5b5050604051601f1901519150506001600160a01b0381166108155760006001925092505061081c565b9150600090505b94509492505050565b6000806020838503121561083857600080fd5b823567ffffffffffffffff8082111561085057600080fd5b818501915085601f83011261086457600080fd5b81358181111561087357600080fd5b86602082850101111561088557600080fd5b60209290920196919550909350505050565b6000815180845260005b818110156108bd576020818501810151868301820152016108a1565b506000602082860101526020601f19601f83011685010191505092915050565b60ff60f81b881681526000602060e0818401526108fd60e084018a610897565b838103604085015261090f818a610897565b606085018990526001600160a01b038816608086015260a0850187905284810360c0860152855180825283870192509083019060005b8181101561096157835183529284019291840191600101610945565b50909c9b505050505050505050505050565b60006020828403121561098557600080fd5b813567ffffffffffffffff81111561099c57600080fd5b8201606081850312156109ae57600080fd5b9392505050565b6020815260006109ae6020830184610897565b634e487b7160e01b600052604160045260246000fd5b600181811c908216806109f257607f821691505b602082108103610a1257634e487b7160e01b600052602260045260246000fd5b50919050565b601f8211156100b957600081815260208120601f850160051c81016020861015610a3f5750805b601f850160051c820191505b81811015610a5e57828155600101610a4b565b505050505050565b67ffffffffffffffff831115610a7e57610a7e6109c8565b610a9283610a8c83546109de565b83610a18565b6000601f841160018114610ac65760008515610aae5750838201355b600019600387901b1c1916600186901b178355610b20565b600083815260209020601f19861690835b82811015610af75786850135825560209485019460019092019101610ad7565b5086821015610b145760001960f88860031b161c19848701351681555b505060018560011b0183555b5050505050565b600060208284031215610b3957600080fd5b81356001600160a01b03811681146109ae57600080fd5b6000808335601e19843603018112610b6757600080fd5b83018035915067ffffffffffffffff821115610b8257600080fd5b6020019150368190038213156105e057600080fd5b634e487b7160e01b600052602160045260246000fdfea2646970667358221220383f02976fed92339d865c157f4346de76840c42ab344d11634312cba7824ccd64736f6c63430008130033",
  "linkReferences": {},
  "deployedLinkReferences": {}
}