{
  "_format": "hh-sol-artifact-1",
  "contractName": "Enclave",
  "sourceName": "@oasisprotocol/sapphire-contracts/contracts/opl/Enclave.sol",
  "abi": [
    {
      "inputs": [
        {
          "internalType": "address",
          "name": "_host",
          "type": "address"
        },
        {
          "internalType": "bytes32",
          "name": "_hostChain",
          "type": "bytes32"
        }
      ],
      "stateMutability": "nonpayable",
      "type": "constructor"
    },
    {
      "inputs": [],
      "name": "AutoConfigUnavailable",
      "type": "error"
    },
    {
      "inputs": [],
      "name": "MissingRemoteAddr",
      "type": "error"
    },
    {
      "inputs": [],
      "name": "MissingRemoteChainId",
      "type": "error"
    },
    {
      "inputs": [],
      "name": "NotMessageBus",
      "type": "error"
    },
    {
      "inputs": [],
      "name": "NotRemoteEndpoint",
      "type": "error"
    },
    {
      "inputs": [],
      "name": "SelfCallDisallowed",
      "type": "error"
    },
    {
      "inputs": [
        {
          "internalType": "uint256",
          "name": "expected",
          "type": "uint256"
        },
        {
          "internalType": "uint256",
          "name": "got",
          "type": "uint256"
        }
      ],
      "name": "WrongSeqNum",
      "type": "error"
    },
    {
      "inputs": [
        {
          "internalType": "address",
          "name": "_sender",
          "type": "address"
        },
        {
          "internalType": "uint64",
          "name": "_senderChainId",
          "type": "uint64"
        },
        {
          "internalType": "bytes",
          "name": "_message",
          "type": "bytes"
        },
        {
          "internalType": "address",
          "name": "",
          "type": "address"
        }
      ],
      "name": "executeMessage",
      "outputs": [
        {
          "internalType": "uint256",
          "name": "",
          "type": "uint256"
        }
      ],
      "stateMutability": "payable",
      "type": "function"
    },
    {
      "inputs": [
        {
          "internalType": "address",
          "name": "forwarder",
          "type": "address"
        }
      ],
      "name": "isTrustedForwarder",
      "outputs": [
        {
          "internalType": "bool",
          "name": "",
          "type": "bool"
        }
      ],
      "stateMutability": "view",
      "type": "function"
    }
  ],
  "bytecode": "0x60e06040523480156200001157600080fd5b5060405162000b8d38038062000b8d83398101604081905262000034916200068b565b46615aff146200004657600062000049565b60005b828281620000578262000132565b6200006384846200015c565b60006001600160a01b0384166200008d57604051635f9997df60e01b815260040160405180910390fd5b82600003620000af57604051630a9e222360e41b815260040160405180910390fd5b600080546001600160a01b0319166001600160a01b03868116919091179091556001849055821660805280151560a052620000e96200018c565b158015620000f657504683145b1562000115576040516336fc0b5f60e21b815260040160405180910390fd5b5050506001600160a01b0390931660c05250620006c79350505050565b600081641b1bd8d85b60da1b036200014b575046919050565b6200015682620001b4565b92915050565b600081641b1bd8d85b60da1b036200017657508162000156565b60006200018346620003bb565b50949350505050565b600080546080516001600160a01b039081169116148015620001af575060015446145b905090565b60008167657468657265756d60c01b03620001d157506001919050565b8165676f65726c6960d01b03620001ea57506005919050565b81676f7074696d69736d60c01b03620002055750600a919050565b816262736360e81b036200021b57506038919050565b816a189cd8cb5d195cdd1b995d60aa1b036200023957506061919050565b81663837b63cb3b7b760c91b036200025357506089919050565b816566616e746f6d60d01b036200026c575060fa919050565b816d19985b9d1bdb4b5d195cdd1b995d60921b036200028e5750610fa2919050565b816836b7b7b73934bb32b960b91b03620002ab5750610505919050565b816b617262697472756d2d6f6e6560a01b03620002cb575061a4b1919050565b816c617262697472756d2d6e6f766160981b03620002ec575061a4ba919050565b8167736170706869726560c01b03620003085750615afe919050565b816f1cd85c1c1a1a5c994b5d195cdd1b995d60821b036200032c5750615aff919050565b816d706f6c79676f6e2d6d756d62616960901b036200034f575062013881919050565b81686176616c616e63686560b81b036200036c575061a86a919050565b816d6176616c616e6368652d66756a6960901b036200038e575061a931919050565b816f185c989a5d1c9d5b4b5d195cdd1b995d60821b03620003b3575062066eeb919050565b506000919050565b60008082600103620003e65750734066d196a423b2b3b8b054f4f40efb47a74e200c92600092509050565b826005036200040e575073f25170f86e4291a99a9a560032fe9948b8bcfbb292600192509050565b82600a03620004365750730d71d18126e03646eb09fec929e2ae87b7cae69d92600092509050565b826038036200045e57507395714818fdd7a5454f73da9c777b3ee6ebaeea6b92600092509050565b8260610362000486575073ad204986d6cb67a5bc76a3cb8974823f43cb9aaa92600192509050565b82608903620004ae575073afdb9c40c7144022811f034ee07ce2e110093fe692600092509050565b8260fa03620004d6575073ff4e183a0ceb4fa98e63bbf8077b929c8e5a2ba492600092509050565b82610fa203620004ff575073b92d6933a024bcca9a21669a480c236cbc97311092600192509050565b826105050362000528575073940daaba3f713abfabd79cdd991466fe698cbe5492600092509050565b82615afe03620005515750739b36f165bab9ebe611d491180418d8de4b8f3a1f92600092509050565b82615aff036200057a5750739bb46d5100d2db4608112026951c9c965b233f4d92600192509050565b8261a4b103620005a35750733ad9d0648cdaa2426331e894e980d0a5ed16257f92600092509050565b8261a4ba03620005cc575073f5c6825015280cdfd0b56903f9f8b5a2233476f592600092509050565b8261a86903620005f5575073e9533976c590200e32d95c53f06ae12d292cfc4792600192509050565b8261a86a036200061e5750735a926eeeafc4d217add17e9641e8ce23cd01ad5792600092509050565b826201388103620006485750737d43aabc515c356145049227cee54b608342c0ad92600192509050565b8262066eeb03620006725750737d43aabc515c356145049227cee54b608342c0ad92600192509050565b60405163047a7e4960e21b815260040160405180910390fd5b600080604083850312156200069f57600080fd5b82516001600160a01b0381168114620006b757600080fd5b6020939093015192949293505050565b60805160a05160c051610498620006f56000396000604b0152600061018e0152600060be01526104986000f3fe6080604052600436106100295760003560e01c8063572b6c051461002e5780639c649fdf14610090575b600080fd5b34801561003a57600080fd5b5061007b6100493660046102c6565b7f00000000000000000000000000000000000000000000000000000000000000006001600160a01b0390811691161490565b60405190151581526020015b60405180910390f35b6100a361009e3660046102e8565b6100b1565b604051908152602001610087565b6000336001600160a01b037f000000000000000000000000000000000000000000000000000000000000000016146100fc5760405163331f9a1960e11b815260040160405180910390fd5b6000546001600160a01b03878116911614158061012557506001548567ffffffffffffffff1614155b1561014357604051636e3ae14560e01b815260040160405180910390fd5b60006101526004828688610396565b61015b916103c0565b9050600061016d602460048789610396565b610176916103f0565b9050366000610188876024818b610396565b915091507f0000000000000000000000000000000000000000000000000000000000000000156101f75760045483146101e3576004805460405163d0257bb160e01b8152918201526024810184905260440160405180910390fd5b6004600081546101f29061040f565b909155505b6001600160e01b031984166000908152600260205260408120546102a08115021767ffffffffffffffff811691821591610237908690869063ffffffff16565b9050600181600281111561024d5761024d610436565b03610262576002975050505050505050610297565b600281600281111561027657610276610436565b0361028b576001975050505050505050610297565b60009750505050505050505b95945050505050565b6102a861044c565b565b80356001600160a01b03811681146102c157600080fd5b919050565b6000602082840312156102d857600080fd5b6102e1826102aa565b9392505050565b60008060008060006080868803121561030057600080fd5b610309866102aa565b9450602086013567ffffffffffffffff808216821461032757600080fd5b9094506040870135908082111561033d57600080fd5b818801915088601f83011261035157600080fd5b81358181111561036057600080fd5b89602082850101111561037257600080fd5b60208301955080945050505061038a606087016102aa565b90509295509295909350565b600080858511156103a657600080fd5b838611156103b357600080fd5b5050820193919092039150565b6001600160e01b031981358181169160048510156103e85780818660040360031b1b83161692505b505092915050565b8035602083101561040957600019602084900360031b1b165b92915050565b60006001820161042f57634e487b7160e01b600052601160045260246000fd5b5060010190565b634e487b7160e01b600052602160045260246000fd5b634e487b7160e01b600052605160045260246000fdfea264697066735822122012cf8285d5d0cbdc627b9ed28272893060c39ae8d439161d6d52fd70efe1bb0864736f6c63430008130033",
  "linkReferences": {},
  "deployedLinkReferences": {}
}